{
  "contractName": "BaseContent",
  "abi": [
    {
      "constant": true,
      "inputs": [],
      "name": "catalog",
      "outputs": [
        {
          "name": "",
          "type": "address"
        }
      ],
      "payable": false,
      "stateMutability": "view",
      "type": "function"
    },
    {
      "constant": true,
      "inputs": [],
      "name": "genre",
      "outputs": [
        {
          "name": "",
          "type": "bytes32"
        }
      ],
      "payable": false,
      "stateMutability": "view",
      "type": "function"
    },
    {
      "constant": true,
      "inputs": [],
      "name": "nVotes",
      "outputs": [
        {
          "name": "",
          "type": "uint32"
        }
      ],
      "payable": false,
      "stateMutability": "view",
      "type": "function"
    },
    {
      "constant": true,
      "inputs": [],
      "name": "view_count",
      "outputs": [
        {
          "name": "",
          "type": "uint32"
        }
      ],
      "payable": false,
      "stateMutability": "view",
      "type": "function"
    },
    {
      "constant": true,
      "inputs": [],
      "name": "title",
      "outputs": [
        {
          "name": "",
          "type": "bytes32"
        }
      ],
      "payable": false,
      "stateMutability": "view",
      "type": "function"
    },
    {
      "constant": true,
      "inputs": [
        {
          "name": "",
          "type": "address"
        }
      ],
      "name": "has_consumed",
      "outputs": [
        {
          "name": "",
          "type": "bool"
        }
      ],
      "payable": false,
      "stateMutability": "view",
      "type": "function"
    },
    {
      "constant": true,
      "inputs": [],
      "name": "owner",
      "outputs": [
        {
          "name": "",
          "type": "address"
        }
      ],
      "payable": false,
      "stateMutability": "view",
      "type": "function"
    },
    {
      "constant": true,
      "inputs": [],
      "name": "content_address",
      "outputs": [
        {
          "name": "",
          "type": "address"
        }
      ],
      "payable": false,
      "stateMutability": "view",
      "type": "function"
    },
    {
      "constant": true,
      "inputs": [],
      "name": "price",
      "outputs": [
        {
          "name": "",
          "type": "uint256"
        }
      ],
      "payable": false,
      "stateMutability": "view",
      "type": "function"
    },
    {
      "constant": true,
      "inputs": [],
      "name": "author",
      "outputs": [
        {
          "name": "",
          "type": "bytes32"
        }
      ],
      "payable": false,
      "stateMutability": "view",
      "type": "function"
    },
    {
      "constant": true,
      "inputs": [],
      "name": "subgenre",
      "outputs": [
        {
          "name": "",
          "type": "bytes32"
        }
      ],
      "payable": false,
      "stateMutability": "view",
      "type": "function"
    },
    {
      "constant": true,
      "inputs": [],
      "name": "views_already_payed",
      "outputs": [
        {
          "name": "",
          "type": "uint32"
        }
      ],
      "payable": false,
      "stateMutability": "view",
      "type": "function"
    },
    {
      "constant": true,
      "inputs": [
        {
          "name": "",
          "type": "uint256"
        }
      ],
      "name": "feed",
      "outputs": [
        {
          "name": "",
          "type": "uint32"
        }
      ],
      "payable": false,
      "stateMutability": "view",
      "type": "function"
    },
    {
      "inputs": [
        {
          "name": "_catalog",
          "type": "address"
        },
        {
          "name": "_title",
          "type": "bytes32"
        },
        {
          "name": "_author",
          "type": "bytes32"
        },
        {
          "name": "_gen",
          "type": "bytes32"
        },
        {
          "name": "_price",
          "type": "uint256"
        }
      ],
      "payable": false,
      "stateMutability": "nonpayable",
      "type": "constructor"
    },
    {
      "anonymous": false,
      "inputs": [
        {
          "indexed": false,
          "name": "_content_address",
          "type": "address"
        }
      ],
      "name": "content_created",
      "type": "event"
    },
    {
      "anonymous": false,
      "inputs": [
        {
          "indexed": false,
          "name": "_views_to_be_payed",
          "type": "uint32"
        }
      ],
      "name": "v_reached",
      "type": "event"
    },
    {
      "anonymous": false,
      "inputs": [
        {
          "indexed": false,
          "name": "_customer",
          "type": "address"
        }
      ],
      "name": "content_consumed",
      "type": "event"
    },
    {
      "anonymous": false,
      "inputs": [],
      "name": "content_destroyed",
      "type": "event"
    },
    {
      "anonymous": false,
      "inputs": [
        {
          "indexed": false,
          "name": "_customer",
          "type": "address"
        }
      ],
      "name": "rate_left",
      "type": "event"
    },
    {
      "constant": false,
      "inputs": [
        {
          "name": "_customer",
          "type": "address"
        }
      ],
      "name": "Authorize",
      "outputs": [],
      "payable": false,
      "stateMutability": "nonpayable",
      "type": "function"
    },
    {
      "constant": false,
      "inputs": [
        {
          "name": "_customer",
          "type": "address"
        },
        {
          "name": "_expiration_date",
          "type": "uint256"
        }
      ],
      "name": "AuthorizePremium",
      "outputs": [],
      "payable": false,
      "stateMutability": "nonpayable",
      "type": "function"
    },
    {
      "constant": true,
      "inputs": [],
      "name": "IsAuthorized",
      "outputs": [
        {
          "name": "",
          "type": "bool"
        }
      ],
      "payable": false,
      "stateMutability": "view",
      "type": "function"
    },
    {
      "constant": true,
      "inputs": [],
      "name": "CanVote",
      "outputs": [
        {
          "name": "",
          "type": "bool"
        }
      ],
      "payable": false,
      "stateMutability": "view",
      "type": "function"
    },
    {
      "constant": false,
      "inputs": [
        {
          "name": "_views_just_payed",
          "type": "uint32"
        }
      ],
      "name": "Payed",
      "outputs": [],
      "payable": false,
      "stateMutability": "nonpayable",
      "type": "function"
    },
    {
      "constant": false,
      "inputs": [],
      "name": "ConsumeContent",
      "outputs": [],
      "payable": false,
      "stateMutability": "nonpayable",
      "type": "function"
    },
    {
      "constant": false,
      "inputs": [
        {
          "name": "f",
          "type": "uint32[]"
        }
      ],
      "name": "LeaveRate",
      "outputs": [],
      "payable": false,
      "stateMutability": "nonpayable",
      "type": "function"
    },
    {
      "constant": false,
      "inputs": [
        {
          "name": "_s",
          "type": "bytes32"
        }
      ],
      "name": "SetSubgenre",
      "outputs": [],
      "payable": false,
      "stateMutability": "nonpayable",
      "type": "function"
    },
    {
      "constant": false,
      "inputs": [],
      "name": "KillContent",
      "outputs": [],
      "payable": false,
      "stateMutability": "nonpayable",
      "type": "function"
    }
  ],
  "bytecode": "0x60806040526064600e60006101000a81548163ffffffff021916908363ffffffff16021790555034801561003257600080fd5b5060405160a08061123d8339810180604052810190808051906020019092919080519060200190929190805190602001909291908051906020019092919080519060200190929190505050336000806101000a81548173ffffffffffffffffffffffffffffffffffffffff021916908373ffffffffffffffffffffffffffffffffffffffff16021790555030600160006101000a81548173ffffffffffffffffffffffffffffffffffffffff021916908373ffffffffffffffffffffffffffffffffffffffff16021790555084600260006101000a81548173ffffffffffffffffffffffffffffffffffffffff021916908373ffffffffffffffffffffffffffffffffffffffff160217905550836003816000191690555082600481600019169055508160058160001916905550600060010260068160001916905550806007819055506000600860006101000a81548163ffffffff021916908363ffffffff1602179055506000600860046101000a81548163ffffffff021916908363ffffffff1602179055507f52c5d6dbb09f53c1668ff475eda66de8c09587da0997acd25a1347da6744a2f4600160009054906101000a900473ffffffffffffffffffffffffffffffffffffffff16604051808273ffffffffffffffffffffffffffffffffffffffff1673ffffffffffffffffffffffffffffffffffffffff16815260200191505060405180910390a15050505050610fea806102536000396000f300608060405260043610610128576000357c0100000000000000000000000000000000000000000000000000000000900463ffffffff168063074c09eb1461012d57806317de3a41146101845780631f3e7439146101b757806339c614a1146101ee5780634a79d50c1461022557806354ed8c9d146102585780636a53343e146102875780636d81a01b146102b65780637d3693e8146102f9578063845dcb0e146103345780638da5cb5b1461038f57806396aaea81146103e65780639fe6e0d21461043d578063a035b1fe14610454578063a6c3e6b91461047f578063ab115d72146104b2578063d550d221146104e5578063e6810afb14610516578063e76c3ba814610563578063e9df30101461059a578063f59dfdfb146105cd578063fd16c45b1461061a575b600080fd5b34801561013957600080fd5b50610142610631565b604051808273ffffffffffffffffffffffffffffffffffffffff1673ffffffffffffffffffffffffffffffffffffffff16815260200191505060405180910390f35b34801561019057600080fd5b50610199610657565b60405180826000191660001916815260200191505060405180910390f35b3480156101c357600080fd5b506101cc61065d565b604051808263ffffffff1663ffffffff16815260200191505060405180910390f35b3480156101fa57600080fd5b50610203610673565b604051808263ffffffff1663ffffffff16815260200191505060405180910390f35b34801561023157600080fd5b5061023a610689565b60405180826000191660001916815260200191505060405180910390f35b34801561026457600080fd5b5061026d61068f565b604051808215151515815260200191505060405180910390f35b34801561029357600080fd5b5061029c6106e3565b604051808215151515815260200191505060405180910390f35b3480156102c257600080fd5b506102f7600480360381019080803573ffffffffffffffffffffffffffffffffffffffff169060200190929190505050610780565b005b34801561030557600080fd5b50610332600480360381019080803590602001908201803590602001919091929391929390505050610837565b005b34801561034057600080fd5b50610375600480360381019080803573ffffffffffffffffffffffffffffffffffffffff1690602001909291905050506109f0565b604051808215151515815260200191505060405180910390f35b34801561039b57600080fd5b506103a4610a10565b604051808273ffffffffffffffffffffffffffffffffffffffff1673ffffffffffffffffffffffffffffffffffffffff16815260200191505060405180910390f35b3480156103f257600080fd5b506103fb610a35565b604051808273ffffffffffffffffffffffffffffffffffffffff1673ffffffffffffffffffffffffffffffffffffffff16815260200191505060405180910390f35b34801561044957600080fd5b50610452610a5b565b005b34801561046057600080fd5b50610469610d04565b6040518082815260200191505060405180910390f35b34801561048b57600080fd5b50610494610d0a565b60405180826000191660001916815260200191505060405180910390f35b3480156104be57600080fd5b506104c7610d10565b60405180826000191660001916815260200191505060405180910390f35b3480156104f157600080fd5b506105146004803603810190808035600019169060200190929190505050610d16565b005b34801561052257600080fd5b50610561600480360381019080803573ffffffffffffffffffffffffffffffffffffffff16906020019092919080359060200190929190505050610d7f565b005b34801561056f57600080fd5b50610578610e23565b604051808263ffffffff1663ffffffff16815260200191505060405180910390f35b3480156105a657600080fd5b506105cb600480360381019080803563ffffffff169060200190929190505050610e39565b005b3480156105d957600080fd5b506105f860048036038101908080359060200190929190505050610ecd565b604051808263ffffffff1663ffffffff16815260200191505060405180910390f35b34801561062657600080fd5b5061062f610efc565b005b600260009054906101000a900473ffffffffffffffffffffffffffffffffffffffff1681565b60055481565b600a60009054906101000a900463ffffffff1681565b600860009054906101000a900463ffffffff1681565b60035481565b6000600b60003373ffffffffffffffffffffffffffffffffffffffff1673ffffffffffffffffffffffffffffffffffffffff16815260200190815260200160002060009054906101000a900460ff16905090565b6000600c60003373ffffffffffffffffffffffffffffffffffffffff1673ffffffffffffffffffffffffffffffffffffffff16815260200190815260200160002060009054906101000a900460ff168061077b575043600d60003373ffffffffffffffffffffffffffffffffffffffff1673ffffffffffffffffffffffffffffffffffffffff16815260200190815260200160002054115b905090565b600260009054906101000a900473ffffffffffffffffffffffffffffffffffffffff1673ffffffffffffffffffffffffffffffffffffffff163373ffffffffffffffffffffffffffffffffffffffff161415156107dc57600080fd5b6001600c60008373ffffffffffffffffffffffffffffffffffffffff1673ffffffffffffffffffffffffffffffffffffffff16815260200190815260200160002060006101000a81548160ff02191690831515021790555050565b600061084161068f565b151561084c57600080fd5b600090505b60048163ffffffff1610156108fe5782828263ffffffff16818110151561087457fe5b9050602002013563ffffffff1660098263ffffffff1660048110151561089657fe5b600891828204019190066004029054906101000a900463ffffffff160160098263ffffffff166004811015156108c857fe5b600891828204019190066004026101000a81548163ffffffff021916908363ffffffff1602179055508080600101915050610851565b600a600081819054906101000a900463ffffffff168092919060010191906101000a81548163ffffffff021916908363ffffffff16021790555050600b60003373ffffffffffffffffffffffffffffffffffffffff1673ffffffffffffffffffffffffffffffffffffffff16815260200190815260200160002060006101000a81549060ff02191690557f91e57e2e8a5e25da30a578bb1c8fbcb7a0efce139cf5f16578b78553318e522633604051808273ffffffffffffffffffffffffffffffffffffffff1673ffffffffffffffffffffffffffffffffffffffff16815260200191505060405180910390a1505050565b600b6020528060005260406000206000915054906101000a900460ff1681565b6000809054906101000a900473ffffffffffffffffffffffffffffffffffffffff1681565b600160009054906101000a900473ffffffffffffffffffffffffffffffffffffffff1681565b610a636106e3565b1515610a6e57600080fd5b600c60003373ffffffffffffffffffffffffffffffffffffffff1673ffffffffffffffffffffffffffffffffffffffff16815260200190815260200160002060009054906101000a900460ff1615610c03576008600081819054906101000a900463ffffffff168092919060010191906101000a81548163ffffffff021916908363ffffffff160217905550506000600e60009054906101000a900463ffffffff1663ffffffff16600860009054906101000a900463ffffffff1663ffffffff16811515610b3857fe5b0663ffffffff161415610baf577f6647e9f676e6fb64f7a25301e6ba64f3d1a80737ddaf2cb01c3dfad07c7386e8600860049054906101000a900463ffffffff16600860009054906101000a900463ffffffff1603604051808263ffffffff1663ffffffff16815260200191505060405180910390a15b600c60003373ffffffffffffffffffffffffffffffffffffffff1673ffffffffffffffffffffffffffffffffffffffff16815260200190815260200160002060006101000a81549060ff0219169055610c47565b600d60003373ffffffffffffffffffffffffffffffffffffffff1673ffffffffffffffffffffffffffffffffffffffff168152602001908152602001600020600090555b6001600b60003373ffffffffffffffffffffffffffffffffffffffff1673ffffffffffffffffffffffffffffffffffffffff16815260200190815260200160002060006101000a81548160ff0219169083151502179055507f75e02afeb9106a10711eb7d022e6d4dfdb5f0e57120f8f1510182ab8fe73511133604051808273ffffffffffffffffffffffffffffffffffffffff1673ffffffffffffffffffffffffffffffffffffffff16815260200191505060405180910390a1565b60075481565b60045481565b60065481565b6000809054906101000a900473ffffffffffffffffffffffffffffffffffffffff1673ffffffffffffffffffffffffffffffffffffffff163373ffffffffffffffffffffffffffffffffffffffff16141515610d7157600080fd5b806006816000191690555050565b600260009054906101000a900473ffffffffffffffffffffffffffffffffffffffff1673ffffffffffffffffffffffffffffffffffffffff163373ffffffffffffffffffffffffffffffffffffffff16141515610ddb57600080fd5b80600d60008473ffffffffffffffffffffffffffffffffffffffff1673ffffffffffffffffffffffffffffffffffffffff168152602001908152602001600020819055505050565b600860049054906101000a900463ffffffff1681565b600260009054906101000a900473ffffffffffffffffffffffffffffffffffffffff1673ffffffffffffffffffffffffffffffffffffffff163373ffffffffffffffffffffffffffffffffffffffff16141515610e9557600080fd5b80600860049054906101000a900463ffffffff1601600860046101000a81548163ffffffff021916908363ffffffff16021790555050565b600981600481101515610edc57fe5b60089182820401919006600402915054906101000a900463ffffffff1681565b6000809054906101000a900473ffffffffffffffffffffffffffffffffffffffff1673ffffffffffffffffffffffffffffffffffffffff163373ffffffffffffffffffffffffffffffffffffffff16141515610f5757600080fd5b7f637f99522561cf0904661f7a05ba4bfc8f323be794631dc7773c0daa8ceea1fd60405160405180910390a1600160009054906101000a900473ffffffffffffffffffffffffffffffffffffffff1673ffffffffffffffffffffffffffffffffffffffff16ff00a165627a7a72305820a278cf0c7f332f893e4a5a9bdf175003b790adbeba3b06b5934cfe708eb0ec150029",
  "source": "pragma solidity ^0.4.19;\n\nimport \"./Catalog.sol\";\n\ncontract BaseContent {\n    \n    /* data about the contract itself */\n    address public owner; // address of who uploads\n    address public content_address; // address of the contract\n    address public catalog; // catalog where the content is published\n    \n    /* data about the content */\n    bytes32 public title; // unique ID\n    bytes32 public author; // name of the author\n    bytes32 public genre; // indicates the type {song, video, photo}\n    bytes32 public subgenre;\n    uint public price; // the price to consume the content\n    uint32 public view_count; // number of views\n    uint32 public views_already_payed; // number of viewsalready payed by the catalog\n    \n    /* data about feedback */\n    uint32[4] public feed; // 0: overall, 1: price, 2: quality, 3: details\n    uint32 public nVotes; // number of people who voted\n    mapping (address => bool) public has_consumed; // list of addresses who can vote\n\n\n    /* data about the customers authorized to access the content */\n    mapping (address => bool) private authorized_std;\n    mapping (address => uint) private authorized_premium;\n    \n    uint32 private v = 100; // number of views required before payment\n\n\n    /* events triggered */\n    event content_created (address _content_address); // new content created\n    event v_reached (uint32 _views_to_be_payed); // reached the number of views to request a payment\n    event content_consumed (address _customer); // customer just consumed this content\n    event content_destroyed (); // the content no longer can be accessed\n    event rate_left(address _customer);\n\n    /* modifiers that enforce that some functions are called just by specif agents */\n    modifier byOwner() {\n        require(msg.sender == owner);\n        _;\n    }\n    modifier byCatalog() {\n        require(msg.sender == catalog);\n        _;\n    }\n    modifier byAuthorized() {\n        require(IsAuthorized());\n        _;\n    }\n\n    modifier byConsumer() {\n        require(CanVote());\n        _;\n    }\n    \n    /* constructor function of the content manager */\n    constructor (address _catalog, bytes32 _title, bytes32 _author, bytes32 _gen, uint _price) public {\n        owner = msg.sender;\n        content_address = this;\n        catalog = _catalog;\n        title = _title;\n        author = _author;\n        genre = _gen;\n        subgenre = 0x00;\n        price = _price;\n        view_count = 0;\n        views_already_payed = 0;\n        emit content_created (content_address);\n    }\n\n\n    /* insert the customer address as authorized to access this content */\n    function Authorize (address _customer) external byCatalog{\n        authorized_std[_customer] = true;\n    }\n    \n    /* insert the customer address as authorized to access this content */\n    function AuthorizePremium (address _customer, uint _expiration_date) external byCatalog{\n        authorized_premium[_customer] = _expiration_date;\n    }\n\n    function IsAuthorized() public view returns (bool){\n        return authorized_std[msg.sender] || authorized_premium[msg.sender] > block.number;\n    }\n\n    function CanVote() public view returns (bool){\n        return has_consumed[msg.sender];\n    }\n    \n     /* called by the catalog to mark the views already payed */\n    function Payed (uint32 _views_just_payed) external byCatalog {\n        views_already_payed = views_already_payed + _views_just_payed; \n    }\n    \n    /* authorized customers can consume the content */\n    function ConsumeContent () external byAuthorized {\n        if (authorized_std[msg.sender]) {\n            view_count ++;\n            if (view_count % v == 0) {\n                emit v_reached (view_count - views_already_payed);\n            }\n            delete authorized_std[msg.sender];\n        } else {\n            delete authorized_premium[msg.sender];\n        }\n        has_consumed[msg.sender] = true;\n        emit content_consumed (msg.sender);\n    }\n\n    /* authorized customers can consume the content */\n    function LeaveRate ( uint32[] f ) external byConsumer {\n        for (uint32 i = 0; i < 4; i++) {\n            feed[i] = feed[i] + f[i];\n        }\n        nVotes ++;\n        delete has_consumed[msg.sender];\n        emit rate_left (msg.sender);\n    }\n    \n    function SetSubgenre (bytes32 _s) external byOwner {\n        subgenre = _s;\n    }\n        \n    /* the content can be destructed */\n    function KillContent () external byOwner {\n        emit content_destroyed ();\n        selfdestruct(content_address);\n    }\n}",
  "sourcePath": "/home/fsbolgi/Documents/cobra_dapp/contracts/BaseContent.sol",
  "compiler": {
    "name": "solc",
    "version": "0.4.24+commit.e67f0147.Emscripten.clang"
  },
  "schemaVersion": "2.0.1",
  "updatedAt": "2018-12-28T11:08:56.072Z"
}