{
  "contractName": "BaseContent",
  "abi": [
    {
      "constant": true,
      "inputs": [],
      "name": "catalog",
      "outputs": [
        {
          "name": "",
          "type": "address"
        }
      ],
      "payable": false,
      "stateMutability": "view",
      "type": "function"
    },
    {
      "constant": true,
      "inputs": [],
      "name": "genre",
      "outputs": [
        {
          "name": "",
          "type": "bytes32"
        }
      ],
      "payable": false,
      "stateMutability": "view",
      "type": "function"
    },
    {
      "constant": true,
      "inputs": [],
      "name": "nVotes",
      "outputs": [
        {
          "name": "",
          "type": "uint32"
        }
      ],
      "payable": false,
      "stateMutability": "view",
      "type": "function"
    },
    {
      "constant": true,
      "inputs": [],
      "name": "view_count",
      "outputs": [
        {
          "name": "",
          "type": "uint32"
        }
      ],
      "payable": false,
      "stateMutability": "view",
      "type": "function"
    },
    {
      "constant": true,
      "inputs": [],
      "name": "title",
      "outputs": [
        {
          "name": "",
          "type": "bytes32"
        }
      ],
      "payable": false,
      "stateMutability": "view",
      "type": "function"
    },
    {
      "constant": true,
      "inputs": [],
      "name": "owner",
      "outputs": [
        {
          "name": "",
          "type": "address"
        }
      ],
      "payable": false,
      "stateMutability": "view",
      "type": "function"
    },
    {
      "constant": true,
      "inputs": [],
      "name": "content_address",
      "outputs": [
        {
          "name": "",
          "type": "address"
        }
      ],
      "payable": false,
      "stateMutability": "view",
      "type": "function"
    },
    {
      "constant": true,
      "inputs": [],
      "name": "price",
      "outputs": [
        {
          "name": "",
          "type": "uint256"
        }
      ],
      "payable": false,
      "stateMutability": "view",
      "type": "function"
    },
    {
      "constant": true,
      "inputs": [],
      "name": "author",
      "outputs": [
        {
          "name": "",
          "type": "bytes32"
        }
      ],
      "payable": false,
      "stateMutability": "view",
      "type": "function"
    },
    {
      "constant": true,
      "inputs": [],
      "name": "subgenre",
      "outputs": [
        {
          "name": "",
          "type": "bytes32"
        }
      ],
      "payable": false,
      "stateMutability": "view",
      "type": "function"
    },
    {
      "constant": true,
      "inputs": [],
      "name": "views_already_payed",
      "outputs": [
        {
          "name": "",
          "type": "uint32"
        }
      ],
      "payable": false,
      "stateMutability": "view",
      "type": "function"
    },
    {
      "constant": true,
      "inputs": [
        {
          "name": "",
          "type": "uint256"
        }
      ],
      "name": "feed",
      "outputs": [
        {
          "name": "",
          "type": "uint32"
        }
      ],
      "payable": false,
      "stateMutability": "view",
      "type": "function"
    },
    {
      "inputs": [
        {
          "name": "_catalog",
          "type": "address"
        },
        {
          "name": "_title",
          "type": "bytes32"
        },
        {
          "name": "_author",
          "type": "bytes32"
        },
        {
          "name": "_gen",
          "type": "bytes32"
        },
        {
          "name": "_price",
          "type": "uint256"
        }
      ],
      "payable": false,
      "stateMutability": "nonpayable",
      "type": "constructor"
    },
    {
      "anonymous": false,
      "inputs": [
        {
          "indexed": false,
          "name": "_content_address",
          "type": "address"
        }
      ],
      "name": "content_created",
      "type": "event"
    },
    {
      "anonymous": false,
      "inputs": [
        {
          "indexed": false,
          "name": "_views_to_be_payed",
          "type": "uint32"
        }
      ],
      "name": "v_reached",
      "type": "event"
    },
    {
      "anonymous": false,
      "inputs": [
        {
          "indexed": false,
          "name": "_customer",
          "type": "address"
        }
      ],
      "name": "content_consumed",
      "type": "event"
    },
    {
      "anonymous": false,
      "inputs": [],
      "name": "content_destroyed",
      "type": "event"
    },
    {
      "anonymous": false,
      "inputs": [
        {
          "indexed": false,
          "name": "_customer",
          "type": "address"
        }
      ],
      "name": "rate_left",
      "type": "event"
    },
    {
      "constant": false,
      "inputs": [
        {
          "name": "_customer",
          "type": "address"
        }
      ],
      "name": "Authorize",
      "outputs": [],
      "payable": false,
      "stateMutability": "nonpayable",
      "type": "function"
    },
    {
      "constant": false,
      "inputs": [
        {
          "name": "_customer",
          "type": "address"
        },
        {
          "name": "_expiration_date",
          "type": "uint256"
        }
      ],
      "name": "AuthorizePremium",
      "outputs": [],
      "payable": false,
      "stateMutability": "nonpayable",
      "type": "function"
    },
    {
      "constant": false,
      "inputs": [
        {
          "name": "_views_just_payed",
          "type": "uint32"
        }
      ],
      "name": "Payed",
      "outputs": [],
      "payable": false,
      "stateMutability": "nonpayable",
      "type": "function"
    },
    {
      "constant": false,
      "inputs": [],
      "name": "ConsumeContent",
      "outputs": [],
      "payable": false,
      "stateMutability": "nonpayable",
      "type": "function"
    },
    {
      "constant": false,
      "inputs": [
        {
          "name": "f",
          "type": "uint32[]"
        }
      ],
      "name": "LeaveRate",
      "outputs": [],
      "payable": false,
      "stateMutability": "nonpayable",
      "type": "function"
    },
    {
      "constant": false,
      "inputs": [
        {
          "name": "_s",
          "type": "bytes32"
        }
      ],
      "name": "setSubgenre",
      "outputs": [],
      "payable": false,
      "stateMutability": "nonpayable",
      "type": "function"
    },
    {
      "constant": false,
      "inputs": [],
      "name": "KillContent",
      "outputs": [],
      "payable": false,
      "stateMutability": "nonpayable",
      "type": "function"
    }
  ],
  "bytecode": "0x60806040526064600e60006101000a81548163ffffffff021916908363ffffffff16021790555034801561003257600080fd5b5060405160a0806111258339810180604052810190808051906020019092919080519060200190929190805190602001909291908051906020019092919080519060200190929190505050336000806101000a81548173ffffffffffffffffffffffffffffffffffffffff021916908373ffffffffffffffffffffffffffffffffffffffff16021790555030600160006101000a81548173ffffffffffffffffffffffffffffffffffffffff021916908373ffffffffffffffffffffffffffffffffffffffff16021790555084600260006101000a81548173ffffffffffffffffffffffffffffffffffffffff021916908373ffffffffffffffffffffffffffffffffffffffff160217905550836003816000191690555082600481600019169055508160058160001916905550600060010260068160001916905550806007819055506000600860006101000a81548163ffffffff021916908363ffffffff1602179055506000600860046101000a81548163ffffffff021916908363ffffffff1602179055507f52c5d6dbb09f53c1668ff475eda66de8c09587da0997acd25a1347da6744a2f4600160009054906101000a900473ffffffffffffffffffffffffffffffffffffffff16604051808273ffffffffffffffffffffffffffffffffffffffff1673ffffffffffffffffffffffffffffffffffffffff16815260200191505060405180910390a15050505050610ed2806102536000396000f300608060405260043610610107576000357c0100000000000000000000000000000000000000000000000000000000900463ffffffff168063074c09eb1461010c57806317de3a41146101635780631f3e7439146101965780633980a8b6146101cd57806339c614a1146101fe5780634a79d50c146102355780636d81a01b146102685780637d3693e8146102ab5780638da5cb5b146102e657806396aaea811461033d5780639fe6e0d214610394578063a035b1fe146103ab578063a6c3e6b9146103d6578063ab115d7214610409578063e6810afb1461043c578063e76c3ba814610489578063e9df3010146104c0578063f59dfdfb146104f3578063fd16c45b14610540575b600080fd5b34801561011857600080fd5b50610121610557565b604051808273ffffffffffffffffffffffffffffffffffffffff1673ffffffffffffffffffffffffffffffffffffffff16815260200191505060405180910390f35b34801561016f57600080fd5b5061017861057d565b60405180826000191660001916815260200191505060405180910390f35b3480156101a257600080fd5b506101ab610583565b604051808263ffffffff1663ffffffff16815260200191505060405180910390f35b3480156101d957600080fd5b506101fc6004803603810190808035600019169060200190929190505050610599565b005b34801561020a57600080fd5b50610213610602565b604051808263ffffffff1663ffffffff16815260200191505060405180910390f35b34801561024157600080fd5b5061024a610618565b60405180826000191660001916815260200191505060405180910390f35b34801561027457600080fd5b506102a9600480360381019080803573ffffffffffffffffffffffffffffffffffffffff16906020019092919050505061061e565b005b3480156102b757600080fd5b506102e46004803603810190808035906020019082018035906020019190919293919293905050506106d5565b005b3480156102f257600080fd5b506102fb6108d3565b604051808273ffffffffffffffffffffffffffffffffffffffff1673ffffffffffffffffffffffffffffffffffffffff16815260200191505060405180910390f35b34801561034957600080fd5b506103526108f8565b604051808273ffffffffffffffffffffffffffffffffffffffff1673ffffffffffffffffffffffffffffffffffffffff16815260200191505060405180910390f35b3480156103a057600080fd5b506103a961091e565b005b3480156103b757600080fd5b506103c0610c55565b6040518082815260200191505060405180910390f35b3480156103e257600080fd5b506103eb610c5b565b60405180826000191660001916815260200191505060405180910390f35b34801561041557600080fd5b5061041e610c61565b60405180826000191660001916815260200191505060405180910390f35b34801561044857600080fd5b50610487600480360381019080803573ffffffffffffffffffffffffffffffffffffffff16906020019092919080359060200190929190505050610c67565b005b34801561049557600080fd5b5061049e610d0b565b604051808263ffffffff1663ffffffff16815260200191505060405180910390f35b3480156104cc57600080fd5b506104f1600480360381019080803563ffffffff169060200190929190505050610d21565b005b3480156104ff57600080fd5b5061051e60048036038101908080359060200190929190505050610db5565b604051808263ffffffff1663ffffffff16815260200191505060405180910390f35b34801561054c57600080fd5b50610555610de4565b005b600260009054906101000a900473ffffffffffffffffffffffffffffffffffffffff1681565b60055481565b600a60009054906101000a900463ffffffff1681565b6000809054906101000a900473ffffffffffffffffffffffffffffffffffffffff1673ffffffffffffffffffffffffffffffffffffffff163373ffffffffffffffffffffffffffffffffffffffff161415156105f457600080fd5b806006816000191690555050565b600860009054906101000a900463ffffffff1681565b60035481565b600260009054906101000a900473ffffffffffffffffffffffffffffffffffffffff1673ffffffffffffffffffffffffffffffffffffffff163373ffffffffffffffffffffffffffffffffffffffff1614151561067a57600080fd5b6001600c60008373ffffffffffffffffffffffffffffffffffffffff1673ffffffffffffffffffffffffffffffffffffffff16815260200190815260200160002060006101000a81548160ff02191690831515021790555050565b6000600b60003373ffffffffffffffffffffffffffffffffffffffff1673ffffffffffffffffffffffffffffffffffffffff16815260200190815260200160002060009054906101000a900460ff16151561072f57600080fd5b600090505b60048163ffffffff1610156107e15782828263ffffffff16818110151561075757fe5b9050602002013563ffffffff1660098263ffffffff1660048110151561077957fe5b600891828204019190066004029054906101000a900463ffffffff160160098263ffffffff166004811015156107ab57fe5b600891828204019190066004026101000a81548163ffffffff021916908363ffffffff1602179055508080600101915050610734565b600a600081819054906101000a900463ffffffff168092919060010191906101000a81548163ffffffff021916908363ffffffff16021790555050600b60003373ffffffffffffffffffffffffffffffffffffffff1673ffffffffffffffffffffffffffffffffffffffff16815260200190815260200160002060006101000a81549060ff02191690557f91e57e2e8a5e25da30a578bb1c8fbcb7a0efce139cf5f16578b78553318e522633604051808273ffffffffffffffffffffffffffffffffffffffff1673ffffffffffffffffffffffffffffffffffffffff16815260200191505060405180910390a1505050565b6000809054906101000a900473ffffffffffffffffffffffffffffffffffffffff1681565b600160009054906101000a900473ffffffffffffffffffffffffffffffffffffffff1681565b600c60003373ffffffffffffffffffffffffffffffffffffffff1673ffffffffffffffffffffffffffffffffffffffff16815260200190815260200160002060009054906101000a900460ff16806109b4575043600d60003373ffffffffffffffffffffffffffffffffffffffff1673ffffffffffffffffffffffffffffffffffffffff16815260200190815260200160002054115b15156109bf57600080fd5b600c60003373ffffffffffffffffffffffffffffffffffffffff1673ffffffffffffffffffffffffffffffffffffffff16815260200190815260200160002060009054906101000a900460ff1615610b54576008600081819054906101000a900463ffffffff168092919060010191906101000a81548163ffffffff021916908363ffffffff160217905550506000600e60009054906101000a900463ffffffff1663ffffffff16600860009054906101000a900463ffffffff1663ffffffff16811515610a8957fe5b0663ffffffff161415610b00577f6647e9f676e6fb64f7a25301e6ba64f3d1a80737ddaf2cb01c3dfad07c7386e8600860049054906101000a900463ffffffff16600860009054906101000a900463ffffffff1603604051808263ffffffff1663ffffffff16815260200191505060405180910390a15b600c60003373ffffffffffffffffffffffffffffffffffffffff1673ffffffffffffffffffffffffffffffffffffffff16815260200190815260200160002060006101000a81549060ff0219169055610b98565b600d60003373ffffffffffffffffffffffffffffffffffffffff1673ffffffffffffffffffffffffffffffffffffffff168152602001908152602001600020600090555b6001600b60003373ffffffffffffffffffffffffffffffffffffffff1673ffffffffffffffffffffffffffffffffffffffff16815260200190815260200160002060006101000a81548160ff0219169083151502179055507f75e02afeb9106a10711eb7d022e6d4dfdb5f0e57120f8f1510182ab8fe73511133604051808273ffffffffffffffffffffffffffffffffffffffff1673ffffffffffffffffffffffffffffffffffffffff16815260200191505060405180910390a1565b60075481565b60045481565b60065481565b600260009054906101000a900473ffffffffffffffffffffffffffffffffffffffff1673ffffffffffffffffffffffffffffffffffffffff163373ffffffffffffffffffffffffffffffffffffffff16141515610cc357600080fd5b80600d60008473ffffffffffffffffffffffffffffffffffffffff1673ffffffffffffffffffffffffffffffffffffffff168152602001908152602001600020819055505050565b600860049054906101000a900463ffffffff1681565b600260009054906101000a900473ffffffffffffffffffffffffffffffffffffffff1673ffffffffffffffffffffffffffffffffffffffff163373ffffffffffffffffffffffffffffffffffffffff16141515610d7d57600080fd5b80600860049054906101000a900463ffffffff1601600860046101000a81548163ffffffff021916908363ffffffff16021790555050565b600981600481101515610dc457fe5b60089182820401919006600402915054906101000a900463ffffffff1681565b6000809054906101000a900473ffffffffffffffffffffffffffffffffffffffff1673ffffffffffffffffffffffffffffffffffffffff163373ffffffffffffffffffffffffffffffffffffffff16141515610e3f57600080fd5b7f637f99522561cf0904661f7a05ba4bfc8f323be794631dc7773c0daa8ceea1fd60405160405180910390a1600160009054906101000a900473ffffffffffffffffffffffffffffffffffffffff1673ffffffffffffffffffffffffffffffffffffffff16ff00a165627a7a72305820d163ddd04ec59fa528f1196bfbcb187899bebc4914a55bf87d6e7f8067743f650029",
  "source": "pragma solidity ^0.4.19;\n\nimport \"./Catalog.sol\";\n\ncontract BaseContent {\n    \n    /* data about the contract itself */\n    address public owner; // address of who uploads\n    address public content_address; // address of the contract\n    address public catalog; // catalog where the content is published\n    \n    /* data about the content */\n    bytes32 public title; // unique ID\n    bytes32 public author; // name of the author\n    bytes32 public genre; // indicates the type {song, video, photo}\n    bytes32 public subgenre;\n    uint public price; // the price to consume the content\n    uint32 public view_count; // number of views\n    uint32 public views_already_payed; // number of viewsalready payed by the catalog\n    \n    /* data about feedback */\n    uint32[4] public feed; // 0: overall, 1: price, 2: quality, 3: details\n    uint32 public nVotes; // number of people who voted\n    mapping (address => bool) private has_consumed; // list of addresses who can vote\n\n\n    /* data about the customers authorized to access the content */\n    mapping (address => bool) private authorized_std;\n    mapping (address => uint) private authorized_premium;\n    \n    uint32 private v = 100; // number of views required before payment\n\n\n    /* events triggered */\n    event content_created (address _content_address); // new content created\n    event v_reached (uint32 _views_to_be_payed); // reached the number of views to request a payment\n    event content_consumed (address _customer); // customer just consumed this content\n    event content_destroyed (); // the content no longer can be accessed\n    event rate_left(address _customer);\n\n    /* modifiers that enforce that some functions are called just by specif agents */\n    modifier byOwner() {\n        require(msg.sender == owner);\n        _;\n    }\n    modifier byCatalog() {\n        require(msg.sender == catalog);\n        _;\n    }\n    modifier byAuthorized() {\n        require(authorized_std[msg.sender] || authorized_premium[msg.sender] > block.number);\n        _;\n    }\n\n    modifier byConsumer() {\n        require(has_consumed[msg.sender]);\n        _;\n    }\n    \n    /* constructor function of the content manager */\n    constructor (address _catalog, bytes32 _title, bytes32 _author, bytes32 _gen, uint _price) public {\n        owner = msg.sender;\n        content_address = this;\n        catalog = _catalog;\n        title = _title;\n        author = _author;\n        genre = _gen;\n        subgenre = 0x00;\n        price = _price;\n        view_count = 0;\n        views_already_payed = 0;\n        emit content_created (content_address);\n    }\n\n\n    /* insert the customer address as authorized to access this content */\n    function Authorize (address _customer) external byCatalog{\n        authorized_std[_customer] = true;\n    }\n    \n    /* insert the customer address as authorized to access this content */\n    function AuthorizePremium (address _customer, uint _expiration_date) external byCatalog{\n        authorized_premium[_customer] = _expiration_date;\n    }\n    \n     /* called by the catalog to mark the views already payed */\n    function Payed (uint32 _views_just_payed) external byCatalog {\n        views_already_payed = views_already_payed + _views_just_payed; \n    }\n    \n    /* authorized customers can consume the content */\n    function ConsumeContent () external byAuthorized {\n        if (authorized_std[msg.sender]) {\n            view_count ++;\n            if (view_count % v == 0) {\n                emit v_reached (view_count - views_already_payed);\n            }\n            delete authorized_std[msg.sender];\n        } else {\n            delete authorized_premium[msg.sender];\n        }\n        has_consumed[msg.sender] = true;\n        emit content_consumed (msg.sender);\n    }\n\n    /* authorized customers can consume the content */\n    function LeaveRate ( uint32[] f ) external byConsumer {\n        for (uint32 i = 0; i < 4; i++) {\n            feed[i] = feed[i] + f[i];\n        }\n        nVotes ++;\n        delete has_consumed[msg.sender];\n        emit rate_left (msg.sender);\n    }\n    \n    function setSubgenre (bytes32 _s) external byOwner {\n        subgenre = _s;\n    }\n        \n    /* the content can be destructed */\n    function KillContent () external byOwner {\n        emit content_destroyed ();\n        selfdestruct(content_address);\n    }\n}",
  "sourcePath": "/home/fsbolgi/Documents/cobra_dapp/contracts/BaseContent.sol",
  "compiler": {
    "name": "solc",
    "version": "0.4.24+commit.e67f0147.Emscripten.clang"
  },
  "schemaVersion": "2.0.1",
  "updatedAt": "2018-12-14T15:28:33.349Z"
}