{
  "contractName": "BaseContent",
  "abi": [
    {
      "constant": true,
      "inputs": [],
      "name": "catalog",
      "outputs": [
        {
          "name": "",
          "type": "address"
        }
      ],
      "payable": false,
      "stateMutability": "view",
      "type": "function",
      "signature": "0x074c09eb"
    },
    {
      "constant": true,
      "inputs": [],
      "name": "genre",
      "outputs": [
        {
          "name": "",
          "type": "bytes32"
        }
      ],
      "payable": false,
      "stateMutability": "view",
      "type": "function",
      "signature": "0x17de3a41"
    },
    {
      "constant": true,
      "inputs": [],
      "name": "nVotes",
      "outputs": [
        {
          "name": "",
          "type": "uint32"
        }
      ],
      "payable": false,
      "stateMutability": "view",
      "type": "function",
      "signature": "0x1f3e7439"
    },
    {
      "constant": true,
      "inputs": [],
      "name": "view_count",
      "outputs": [
        {
          "name": "",
          "type": "uint32"
        }
      ],
      "payable": false,
      "stateMutability": "view",
      "type": "function",
      "signature": "0x39c614a1"
    },
    {
      "constant": true,
      "inputs": [],
      "name": "title",
      "outputs": [
        {
          "name": "",
          "type": "bytes32"
        }
      ],
      "payable": false,
      "stateMutability": "view",
      "type": "function",
      "signature": "0x4a79d50c"
    },
    {
      "constant": true,
      "inputs": [
        {
          "name": "",
          "type": "address"
        }
      ],
      "name": "has_consumed",
      "outputs": [
        {
          "name": "",
          "type": "bool"
        }
      ],
      "payable": false,
      "stateMutability": "view",
      "type": "function",
      "signature": "0x845dcb0e"
    },
    {
      "constant": true,
      "inputs": [],
      "name": "owner",
      "outputs": [
        {
          "name": "",
          "type": "address"
        }
      ],
      "payable": false,
      "stateMutability": "view",
      "type": "function",
      "signature": "0x8da5cb5b"
    },
    {
      "constant": true,
      "inputs": [],
      "name": "content_address",
      "outputs": [
        {
          "name": "",
          "type": "address"
        }
      ],
      "payable": false,
      "stateMutability": "view",
      "type": "function",
      "signature": "0x96aaea81"
    },
    {
      "constant": true,
      "inputs": [],
      "name": "price",
      "outputs": [
        {
          "name": "",
          "type": "uint256"
        }
      ],
      "payable": false,
      "stateMutability": "view",
      "type": "function",
      "signature": "0xa035b1fe"
    },
    {
      "constant": true,
      "inputs": [],
      "name": "author",
      "outputs": [
        {
          "name": "",
          "type": "bytes32"
        }
      ],
      "payable": false,
      "stateMutability": "view",
      "type": "function",
      "signature": "0xa6c3e6b9"
    },
    {
      "constant": true,
      "inputs": [],
      "name": "subgenre",
      "outputs": [
        {
          "name": "",
          "type": "bytes32"
        }
      ],
      "payable": false,
      "stateMutability": "view",
      "type": "function",
      "signature": "0xab115d72"
    },
    {
      "constant": true,
      "inputs": [],
      "name": "views_already_payed",
      "outputs": [
        {
          "name": "",
          "type": "uint32"
        }
      ],
      "payable": false,
      "stateMutability": "view",
      "type": "function",
      "signature": "0xe76c3ba8"
    },
    {
      "constant": true,
      "inputs": [
        {
          "name": "",
          "type": "uint256"
        }
      ],
      "name": "feed",
      "outputs": [
        {
          "name": "",
          "type": "uint32"
        }
      ],
      "payable": false,
      "stateMutability": "view",
      "type": "function",
      "signature": "0xf59dfdfb"
    },
    {
      "inputs": [
        {
          "name": "_catalog",
          "type": "address"
        },
        {
          "name": "_title",
          "type": "bytes32"
        },
        {
          "name": "_author",
          "type": "bytes32"
        },
        {
          "name": "_gen",
          "type": "bytes32"
        },
        {
          "name": "_price",
          "type": "uint256"
        }
      ],
      "payable": false,
      "stateMutability": "nonpayable",
      "type": "constructor",
      "signature": "constructor"
    },
    {
      "constant": true,
      "inputs": [],
      "name": "IsAuthorized",
      "outputs": [
        {
          "name": "",
          "type": "bool"
        }
      ],
      "payable": false,
      "stateMutability": "view",
      "type": "function",
      "signature": "0x6a53343e"
    },
    {
      "constant": true,
      "inputs": [],
      "name": "CanVote",
      "outputs": [
        {
          "name": "",
          "type": "bool"
        }
      ],
      "payable": false,
      "stateMutability": "view",
      "type": "function",
      "signature": "0x54ed8c9d"
    },
    {
      "constant": true,
      "inputs": [],
      "name": "ContentType",
      "outputs": [
        {
          "name": "",
          "type": "bytes32"
        }
      ],
      "payable": false,
      "stateMutability": "view",
      "type": "function",
      "signature": "0x1c3cecef"
    },
    {
      "constant": false,
      "inputs": [
        {
          "name": "_customer",
          "type": "address"
        },
        {
          "name": "_expiration_date",
          "type": "uint256"
        }
      ],
      "name": "Authorize",
      "outputs": [],
      "payable": false,
      "stateMutability": "nonpayable",
      "type": "function",
      "signature": "0x6386a433"
    },
    {
      "constant": false,
      "inputs": [
        {
          "name": "_views_just_payed",
          "type": "uint32"
        }
      ],
      "name": "Payed",
      "outputs": [],
      "payable": false,
      "stateMutability": "nonpayable",
      "type": "function",
      "signature": "0xe9df3010"
    },
    {
      "constant": false,
      "inputs": [],
      "name": "ConsumeContent",
      "outputs": [],
      "payable": false,
      "stateMutability": "nonpayable",
      "type": "function",
      "signature": "0x9fe6e0d2"
    },
    {
      "constant": false,
      "inputs": [
        {
          "name": "f",
          "type": "uint32[]"
        }
      ],
      "name": "LeaveRate",
      "outputs": [],
      "payable": false,
      "stateMutability": "nonpayable",
      "type": "function",
      "signature": "0x7d3693e8"
    },
    {
      "constant": false,
      "inputs": [
        {
          "name": "_s",
          "type": "bytes32"
        }
      ],
      "name": "SetSubgenre",
      "outputs": [],
      "payable": false,
      "stateMutability": "nonpayable",
      "type": "function",
      "signature": "0xd550d221"
    }
  ],
  "bytecode": "0x608060405260006001026006906000191690556000600860006101000a81548163ffffffff021916908363ffffffff1602179055506000600860046101000a81548163ffffffff021916908363ffffffff16021790555034801561006257600080fd5b5060405160a08061130f8339810180604052810190808051906020019092919080519060200190929190805190602001909291908051906020019092919080519060200190929190505050336000806101000a81548173ffffffffffffffffffffffffffffffffffffffff021916908373ffffffffffffffffffffffffffffffffffffffff16021790555030600160006101000a81548173ffffffffffffffffffffffffffffffffffffffff021916908373ffffffffffffffffffffffffffffffffffffffff16021790555084600260006101000a81548173ffffffffffffffffffffffffffffffffffffffff021916908373ffffffffffffffffffffffffffffffffffffffff160217905550836003816000191690555082600481600019169055508160058160001916905550806007819055505050505050611164806101ab6000396000f30060806040526004361061011d576000357c0100000000000000000000000000000000000000000000000000000000900463ffffffff168063074c09eb1461012257806317de3a41146101795780631c3cecef146101ac5780631f3e7439146101df57806339c614a1146102165780634a79d50c1461024d57806354ed8c9d146102805780636386a433146102af5780636a53343e146102fc5780637d3693e81461032b578063845dcb0e146103665780638da5cb5b146103c157806396aaea81146104185780639fe6e0d21461046f578063a035b1fe14610486578063a6c3e6b9146104b1578063ab115d72146104e4578063d550d22114610517578063e76c3ba814610548578063e9df30101461057f578063f59dfdfb146105b2575b600080fd5b34801561012e57600080fd5b506101376105ff565b604051808273ffffffffffffffffffffffffffffffffffffffff1673ffffffffffffffffffffffffffffffffffffffff16815260200191505060405180910390f35b34801561018557600080fd5b5061018e610625565b60405180826000191660001916815260200191505060405180910390f35b3480156101b857600080fd5b506101c161062b565b60405180826000191660001916815260200191505060405180910390f35b3480156101eb57600080fd5b506101f4610633565b604051808263ffffffff1663ffffffff16815260200191505060405180910390f35b34801561022257600080fd5b5061022b610649565b604051808263ffffffff1663ffffffff16815260200191505060405180910390f35b34801561025957600080fd5b5061026261065f565b60405180826000191660001916815260200191505060405180910390f35b34801561028c57600080fd5b50610295610665565b604051808215151515815260200191505060405180910390f35b3480156102bb57600080fd5b506102fa600480360381019080803573ffffffffffffffffffffffffffffffffffffffff169060200190929190803590602001909291905050506106b9565b005b34801561030857600080fd5b506103116107c4565b604051808215151515815260200191505060405180910390f35b34801561033757600080fd5b50610364600480360381019080803590602001908201803590602001919091929391929390505050610861565b005b34801561037257600080fd5b506103a7600480360381019080803573ffffffffffffffffffffffffffffffffffffffff169060200190929190505050610ab0565b604051808215151515815260200191505060405180910390f35b3480156103cd57600080fd5b506103d6610ad0565b604051808273ffffffffffffffffffffffffffffffffffffffff1673ffffffffffffffffffffffffffffffffffffffff16815260200191505060405180910390f35b34801561042457600080fd5b5061042d610af5565b604051808273ffffffffffffffffffffffffffffffffffffffff1673ffffffffffffffffffffffffffffffffffffffff16815260200191505060405180910390f35b34801561047b57600080fd5b50610484610b1b565b005b34801561049257600080fd5b5061049b610fe4565b6040518082815260200191505060405180910390f35b3480156104bd57600080fd5b506104c6610fea565b60405180826000191660001916815260200191505060405180910390f35b3480156104f057600080fd5b506104f9610ff0565b60405180826000191660001916815260200191505060405180910390f35b34801561052357600080fd5b506105466004803603810190808035600019169060200190929190505050610ff6565b005b34801561055457600080fd5b5061055d61105f565b604051808263ffffffff1663ffffffff16815260200191505060405180910390f35b34801561058b57600080fd5b506105b0600480360381019080803563ffffffff169060200190929190505050611075565b005b3480156105be57600080fd5b506105dd60048036038101908080359060200190929190505050611109565b604051808263ffffffff1663ffffffff16815260200191505060405180910390f35b600260009054906101000a900473ffffffffffffffffffffffffffffffffffffffff1681565b60055481565b600080905090565b600a60009054906101000a900463ffffffff1681565b600860009054906101000a900463ffffffff1681565b60035481565b6000600b60003373ffffffffffffffffffffffffffffffffffffffff1673ffffffffffffffffffffffffffffffffffffffff16815260200190815260200160002060009054906101000a900460ff16905090565b600260009054906101000a900473ffffffffffffffffffffffffffffffffffffffff1673ffffffffffffffffffffffffffffffffffffffff163373ffffffffffffffffffffffffffffffffffffffff1614151561071557600080fd5b600081141561077b576001600c60008473ffffffffffffffffffffffffffffffffffffffff1673ffffffffffffffffffffffffffffffffffffffff16815260200190815260200160002060006101000a81548160ff0219169083151502179055506107c0565b80600d60008473ffffffffffffffffffffffffffffffffffffffff1673ffffffffffffffffffffffffffffffffffffffff168152602001908152602001600020819055505b5050565b6000600c60003373ffffffffffffffffffffffffffffffffffffffff1673ffffffffffffffffffffffffffffffffffffffff16815260200190815260200160002060009054906101000a900460ff168061085c575043600d60003373ffffffffffffffffffffffffffffffffffffffff1673ffffffffffffffffffffffffffffffffffffffff16815260200190815260200160002054115b905090565b600061086b610665565b151561087657600080fd5b600090505b60048163ffffffff1610156109285782828263ffffffff16818110151561089e57fe5b9050602002013563ffffffff1660098263ffffffff166004811015156108c057fe5b600891828204019190066004029054906101000a900463ffffffff160160098263ffffffff166004811015156108f257fe5b600891828204019190066004026101000a81548163ffffffff021916908363ffffffff160217905550808060010191505061087b565b600a600081819054906101000a900463ffffffff168092919060010191906101000a81548163ffffffff021916908363ffffffff16021790555050600b60003373ffffffffffffffffffffffffffffffffffffffff1673ffffffffffffffffffffffffffffffffffffffff16815260200190815260200160002060006101000a81549060ff0219169055600260009054906101000a900473ffffffffffffffffffffffffffffffffffffffff1673ffffffffffffffffffffffffffffffffffffffff16632fa56ef360023360035460006040518563ffffffff167c0100000000000000000000000000000000000000000000000000000000028152600401808581526020018473ffffffffffffffffffffffffffffffffffffffff1673ffffffffffffffffffffffffffffffffffffffff1681526020018360001916600019168152602001828152602001945050505050600060405180830381600087803b158015610a9357600080fd5b505af1158015610aa7573d6000803e3d6000fd5b50505050505050565b600b6020528060005260406000206000915054906101000a900460ff1681565b6000809054906101000a900473ffffffffffffffffffffffffffffffffffffffff1681565b600160009054906101000a900473ffffffffffffffffffffffffffffffffffffffff1681565b610b236107c4565b1515610b2e57600080fd5b600c60003373ffffffffffffffffffffffffffffffffffffffff1673ffffffffffffffffffffffffffffffffffffffff16815260200190815260200160002060009054906101000a900460ff1615610e4d576008600081819054906101000a900463ffffffff168092919060010191906101000a81548163ffffffff021916908363ffffffff160217905550506000600260009054906101000a900473ffffffffffffffffffffffffffffffffffffffff1673ffffffffffffffffffffffffffffffffffffffff1663660468406040518163ffffffff167c0100000000000000000000000000000000000000000000000000000000028152600401602060405180830381600087803b158015610c4357600080fd5b505af1158015610c57573d6000803e3d6000fd5b505050506040513d6020811015610c6d57600080fd5b810190808051906020019092919050505063ffffffff16600860009054906101000a900463ffffffff1663ffffffff16811515610ca657fe5b0663ffffffff161415610df957600260009054906101000a900473ffffffffffffffffffffffffffffffffffffffff1673ffffffffffffffffffffffffffffffffffffffff16632fa56ef360008060009054906101000a900473ffffffffffffffffffffffffffffffffffffffff16600354600860049054906101000a900463ffffffff16600860009054906101000a900463ffffffff16036040518563ffffffff167c0100000000000000000000000000000000000000000000000000000000028152600401808581526020018473ffffffffffffffffffffffffffffffffffffffff1673ffffffffffffffffffffffffffffffffffffffff16815260200183600019166000191681526020018263ffffffff168152602001945050505050600060405180830381600087803b158015610de057600080fd5b505af1158015610df4573d6000803e3d6000fd5b505050505b600c60003373ffffffffffffffffffffffffffffffffffffffff1673ffffffffffffffffffffffffffffffffffffffff16815260200190815260200160002060006101000a81549060ff0219169055610e91565b600d60003373ffffffffffffffffffffffffffffffffffffffff1673ffffffffffffffffffffffffffffffffffffffff168152602001908152602001600020600090555b6001600b60003373ffffffffffffffffffffffffffffffffffffffff1673ffffffffffffffffffffffffffffffffffffffff16815260200190815260200160002060006101000a81548160ff021916908315150217905550600260009054906101000a900473ffffffffffffffffffffffffffffffffffffffff1673ffffffffffffffffffffffffffffffffffffffff16632fa56ef360013360035460006040518563ffffffff167c0100000000000000000000000000000000000000000000000000000000028152600401808581526020018473ffffffffffffffffffffffffffffffffffffffff1673ffffffffffffffffffffffffffffffffffffffff1681526020018360001916600019168152602001828152602001945050505050600060405180830381600087803b158015610fca57600080fd5b505af1158015610fde573d6000803e3d6000fd5b50505050565b60075481565b60045481565b60065481565b6000809054906101000a900473ffffffffffffffffffffffffffffffffffffffff1673ffffffffffffffffffffffffffffffffffffffff163373ffffffffffffffffffffffffffffffffffffffff1614151561105157600080fd5b806006816000191690555050565b600860049054906101000a900463ffffffff1681565b600260009054906101000a900473ffffffffffffffffffffffffffffffffffffffff1673ffffffffffffffffffffffffffffffffffffffff163373ffffffffffffffffffffffffffffffffffffffff161415156110d157600080fd5b80600860049054906101000a900463ffffffff1601600860046101000a81548163ffffffff021916908363ffffffff16021790555050565b60098160048110151561111857fe5b60089182820401919006600402915054906101000a900463ffffffff16815600a165627a7a72305820438898fcd9cc893abdd421fdc53f38054268141cbfe40f775cfd43dc5a7708580029",
  "source": "pragma solidity ^0.4.19;\n\nimport \"./Catalog.sol\";\n\ncontract BaseContent {\n\n    /* VARIABLES DECLARATION */\n    \n    /* data about the contract itself */\n    address public owner; // address of who uploads\n    address public content_address; // address of the contract\n    Catalog public catalog; // catalog where the content is published\n    \n    /* data about the content */\n    bytes32 public title; // unique ID\n    bytes32 public author; // name of the author\n    bytes32 public genre; // indicates the type {song, video, photo, etc.}\n    bytes32 public subgenre = 0x00; // optionlly can be set\n    uint public price; // the price of the content\n    uint32 public view_count = 0; // total number of views\n    uint32 public views_already_payed = 0; // number of views already payed by the catalog\n    \n    /* data about feedback */\n    uint32[4] public feed; // 0: overall, 1: price, 2: quality, 3: details\n    uint32 public nVotes; // number of people who voted\n    mapping (address => bool) public has_consumed; // list of addresses who can vote\n\n    /* data about the customers authorized to access the content */\n    mapping (address => bool) private authorized_std; // list of standard accounts who can see\n    mapping (address => uint) private authorized_premium; // list of premium who can see\n    \n    /* modifiers that enforce that some functions can be called just by the Catalog */\n    modifier byCatalog() {\n        require(msg.sender == address(catalog));\n        _;\n    }\n\n    modifier byOwner() {\n        require(msg.sender == owner);\n        _;\n    }\n\n\n    /* CONSTRUCTOR */\n    \n    constructor (Catalog _catalog, bytes32 _title, bytes32 _author, bytes32 _gen, uint _price) public {\n        owner = msg.sender;\n        content_address = this;\n        catalog = _catalog;\n        title = _title;\n        author = _author;\n        genre = _gen;\n        price = _price;\n    }\n\n\n    /* VIEW FUNCTIONS */\n\n    /* checks if an account is authorized to consume the content */\n    function IsAuthorized() public view returns (bool){\n        return authorized_std[msg.sender] || authorized_premium[msg.sender] > block.number;\n    }\n\n    /* checks if an account is authorized to leave a feedback */\n    function CanVote() public view returns (bool){\n        return has_consumed[msg.sender];\n    }\n\n    /* dummy function overwritten by subclasses to understant contract class */\n    function ContentType() public view returns (bytes32) {\n        return \"\";\n    }\n\n\n    /* STATE MODIFYING FUNCTIONS */\n\n    /* insert the customer address as authorized to access this content */\n    function Authorize(address _customer, uint _expiration_date) external byCatalog{\n        if (_expiration_date == 0) {\n            authorized_std[_customer] = true;\n        } else {\n            authorized_premium[_customer] = _expiration_date;\n        }\n    }\n    \n     /* called by the catalog to mark the views already payed */\n    function Payed(uint32 _views_just_payed) external byCatalog {\n        views_already_payed = views_already_payed + _views_just_payed; \n    }\n    \n    /* authorized customers can consume the content */\n    function ConsumeContent() external {\n        require(IsAuthorized());\n        if (authorized_std[msg.sender]) {\n            view_count ++;\n            if (view_count % catalog.min_v() == 0) {\n                catalog.EmitEvent(0, owner, title, (view_count - views_already_payed)); // min_v_reached\n            }\n            delete authorized_std[msg.sender];\n        } else {\n            delete authorized_premium[msg.sender];\n        }\n        has_consumed[msg.sender] = true;\n        catalog.EmitEvent(1, msg.sender, title, 0); //content_consumed\n    }\n\n    /* customers who has consumed can leave a feedback */\n    function LeaveRate(uint32[] f) external {\n        require(CanVote());\n        for (uint32 i = 0; i < 4; i++) {\n            feed[i] = feed[i] + f[i];\n        }\n        nVotes ++;\n        delete has_consumed[msg.sender];\n        catalog.EmitEvent(2, msg.sender, title, 0); //rate_left\n    }\n    \n    /* allows the owner to set a subgenre for the content */\n    function SetSubgenre (bytes32 _s) external byOwner {\n        subgenre = _s;\n    }\n}",
  "sourcePath": "/home/fsbolgi/Documents/cobra_dapp/contracts/BaseContent.sol",
  "compiler": {
    "name": "solc",
    "version": "0.4.24+commit.e67f0147.Emscripten.clang"
  },
  "schemaVersion": "3.0.1",
  "updatedAt": "2019-01-26T16:09:22.103Z"
}