{
  "contractName": "BaseContent",
  "abi": [
    {
      "constant": true,
      "inputs": [],
      "name": "catalog",
      "outputs": [
        {
          "name": "",
          "type": "address"
        }
      ],
      "payable": false,
      "stateMutability": "view",
      "type": "function"
    },
    {
      "constant": true,
      "inputs": [],
      "name": "genre",
      "outputs": [
        {
          "name": "",
          "type": "bytes32"
        }
      ],
      "payable": false,
      "stateMutability": "view",
      "type": "function"
    },
    {
      "constant": true,
      "inputs": [],
      "name": "nVotes",
      "outputs": [
        {
          "name": "",
          "type": "uint32"
        }
      ],
      "payable": false,
      "stateMutability": "view",
      "type": "function"
    },
    {
      "constant": true,
      "inputs": [],
      "name": "view_count",
      "outputs": [
        {
          "name": "",
          "type": "uint32"
        }
      ],
      "payable": false,
      "stateMutability": "view",
      "type": "function"
    },
    {
      "constant": true,
      "inputs": [],
      "name": "title",
      "outputs": [
        {
          "name": "",
          "type": "bytes32"
        }
      ],
      "payable": false,
      "stateMutability": "view",
      "type": "function"
    },
    {
      "constant": true,
      "inputs": [],
      "name": "owner",
      "outputs": [
        {
          "name": "",
          "type": "address"
        }
      ],
      "payable": false,
      "stateMutability": "view",
      "type": "function"
    },
    {
      "constant": true,
      "inputs": [],
      "name": "content_address",
      "outputs": [
        {
          "name": "",
          "type": "address"
        }
      ],
      "payable": false,
      "stateMutability": "view",
      "type": "function"
    },
    {
      "constant": true,
      "inputs": [],
      "name": "price",
      "outputs": [
        {
          "name": "",
          "type": "uint32"
        }
      ],
      "payable": false,
      "stateMutability": "view",
      "type": "function"
    },
    {
      "constant": true,
      "inputs": [],
      "name": "author",
      "outputs": [
        {
          "name": "",
          "type": "bytes32"
        }
      ],
      "payable": false,
      "stateMutability": "view",
      "type": "function"
    },
    {
      "constant": true,
      "inputs": [],
      "name": "subgenre",
      "outputs": [
        {
          "name": "",
          "type": "bytes32"
        }
      ],
      "payable": false,
      "stateMutability": "view",
      "type": "function"
    },
    {
      "constant": true,
      "inputs": [],
      "name": "views_already_payed",
      "outputs": [
        {
          "name": "",
          "type": "uint32"
        }
      ],
      "payable": false,
      "stateMutability": "view",
      "type": "function"
    },
    {
      "constant": true,
      "inputs": [
        {
          "name": "",
          "type": "uint256"
        }
      ],
      "name": "feed",
      "outputs": [
        {
          "name": "",
          "type": "uint32"
        }
      ],
      "payable": false,
      "stateMutability": "view",
      "type": "function"
    },
    {
      "inputs": [
        {
          "name": "_catalog",
          "type": "address"
        },
        {
          "name": "_title",
          "type": "bytes32"
        },
        {
          "name": "_author",
          "type": "bytes32"
        },
        {
          "name": "_gen",
          "type": "bytes32"
        },
        {
          "name": "_price",
          "type": "uint32"
        }
      ],
      "payable": false,
      "stateMutability": "nonpayable",
      "type": "constructor"
    },
    {
      "anonymous": false,
      "inputs": [
        {
          "indexed": false,
          "name": "_content_address",
          "type": "address"
        }
      ],
      "name": "content_created",
      "type": "event"
    },
    {
      "anonymous": false,
      "inputs": [
        {
          "indexed": false,
          "name": "_views_to_be_payed",
          "type": "uint32"
        }
      ],
      "name": "v_reached",
      "type": "event"
    },
    {
      "anonymous": false,
      "inputs": [
        {
          "indexed": false,
          "name": "_customer",
          "type": "address"
        }
      ],
      "name": "content_consumed",
      "type": "event"
    },
    {
      "anonymous": false,
      "inputs": [],
      "name": "content_destroyed",
      "type": "event"
    },
    {
      "anonymous": false,
      "inputs": [
        {
          "indexed": false,
          "name": "_customer",
          "type": "address"
        }
      ],
      "name": "rate_left",
      "type": "event"
    },
    {
      "constant": false,
      "inputs": [
        {
          "name": "_customer",
          "type": "address"
        }
      ],
      "name": "Authorize",
      "outputs": [],
      "payable": false,
      "stateMutability": "nonpayable",
      "type": "function"
    },
    {
      "constant": false,
      "inputs": [
        {
          "name": "_customer",
          "type": "address"
        },
        {
          "name": "_expiration_date",
          "type": "uint256"
        }
      ],
      "name": "AuthorizePremium",
      "outputs": [],
      "payable": false,
      "stateMutability": "nonpayable",
      "type": "function"
    },
    {
      "constant": false,
      "inputs": [
        {
          "name": "_views_just_payed",
          "type": "uint32"
        }
      ],
      "name": "Payed",
      "outputs": [],
      "payable": false,
      "stateMutability": "nonpayable",
      "type": "function"
    },
    {
      "constant": false,
      "inputs": [],
      "name": "ConsumeContent",
      "outputs": [],
      "payable": false,
      "stateMutability": "nonpayable",
      "type": "function"
    },
    {
      "constant": false,
      "inputs": [
        {
          "name": "f",
          "type": "uint32[]"
        }
      ],
      "name": "LeaveRate",
      "outputs": [],
      "payable": false,
      "stateMutability": "nonpayable",
      "type": "function"
    },
    {
      "constant": false,
      "inputs": [
        {
          "name": "_s",
          "type": "bytes32"
        }
      ],
      "name": "setSubgenre",
      "outputs": [],
      "payable": false,
      "stateMutability": "nonpayable",
      "type": "function"
    },
    {
      "constant": false,
      "inputs": [],
      "name": "KillContent",
      "outputs": [],
      "payable": false,
      "stateMutability": "nonpayable",
      "type": "function"
    }
  ],
  "bytecode": "0x60806040526064600d60006101000a81548163ffffffff021916908363ffffffff16021790555034801561003257600080fd5b5060405160a0806114ec8339810180604052810190808051906020019092919080519060200190929190805190602001909291908051906020019092919080519060200190929190505050336000806101000a81548173ffffffffffffffffffffffffffffffffffffffff021916908373ffffffffffffffffffffffffffffffffffffffff16021790555030600160006101000a81548173ffffffffffffffffffffffffffffffffffffffff021916908373ffffffffffffffffffffffffffffffffffffffff16021790555084600260006101000a81548173ffffffffffffffffffffffffffffffffffffffff021916908373ffffffffffffffffffffffffffffffffffffffff16021790555083600381600019169055508260048160001916905550816005816000191690555060006001026006816000191690555080600760006101000a81548163ffffffff021916908363ffffffff1602179055506000600760046101000a81548163ffffffff021916908363ffffffff1602179055506000600760086101000a81548163ffffffff021916908363ffffffff1602179055507f52c5d6dbb09f53c1668ff475eda66de8c09587da0997acd25a1347da6744a2f4600160009054906101000a900473ffffffffffffffffffffffffffffffffffffffff16604051808273ffffffffffffffffffffffffffffffffffffffff1673ffffffffffffffffffffffffffffffffffffffff16815260200191505060405180910390a1505050505061127f8061026d6000396000f300608060405260043610610107576000357c0100000000000000000000000000000000000000000000000000000000900463ffffffff168063074c09eb1461010c57806317de3a41146101635780631f3e7439146101965780633980a8b6146101cd57806339c614a1146101fe5780634a79d50c146102355780636d81a01b146102685780637d3693e8146102ab5780638da5cb5b146102e657806396aaea811461033d5780639fe6e0d214610394578063a035b1fe146103ab578063a6c3e6b9146103e2578063ab115d7214610415578063e6810afb14610448578063e76c3ba814610495578063e9df3010146104cc578063f59dfdfb146104ff578063fd16c45b1461054c575b600080fd5b34801561011857600080fd5b50610121610563565b604051808273ffffffffffffffffffffffffffffffffffffffff1673ffffffffffffffffffffffffffffffffffffffff16815260200191505060405180910390f35b34801561016f57600080fd5b50610178610589565b60405180826000191660001916815260200191505060405180910390f35b3480156101a257600080fd5b506101ab61058f565b604051808263ffffffff1663ffffffff16815260200191505060405180910390f35b3480156101d957600080fd5b506101fc60048036038101908080356000191690602001909291905050506105a5565b005b34801561020a57600080fd5b5061021361069d565b604051808263ffffffff1663ffffffff16815260200191505060405180910390f35b34801561024157600080fd5b5061024a6106b3565b60405180826000191660001916815260200191505060405180910390f35b34801561027457600080fd5b506102a9600480360381019080803573ffffffffffffffffffffffffffffffffffffffff1690602001909291905050506106b9565b005b3480156102b757600080fd5b506102e46004803603810190808035906020019082018035906020019190919293919293905050506107ff565b005b3480156102f257600080fd5b506102fb610a8c565b604051808273ffffffffffffffffffffffffffffffffffffffff1673ffffffffffffffffffffffffffffffffffffffff16815260200191505060405180910390f35b34801561034957600080fd5b50610352610ab1565b604051808273ffffffffffffffffffffffffffffffffffffffff1673ffffffffffffffffffffffffffffffffffffffff16815260200191505060405180910390f35b3480156103a057600080fd5b506103a9610ad7565b005b3480156103b757600080fd5b506103c0610e45565b604051808263ffffffff1663ffffffff16815260200191505060405180910390f35b3480156103ee57600080fd5b506103f7610e5b565b60405180826000191660001916815260200191505060405180910390f35b34801561042157600080fd5b5061042a610e61565b60405180826000191660001916815260200191505060405180910390f35b34801561045457600080fd5b50610493600480360381019080803573ffffffffffffffffffffffffffffffffffffffff16906020019092919080359060200190929190505050610e67565b005b3480156104a157600080fd5b506104aa610f9a565b604051808263ffffffff1663ffffffff16815260200191505060405180910390f35b3480156104d857600080fd5b506104fd600480360381019080803563ffffffff169060200190929190505050610fb0565b005b34801561050b57600080fd5b5061052a600480360381019080803590602001909291905050506110d3565b604051808263ffffffff1663ffffffff16815260200191505060405180910390f35b34801561055857600080fd5b50610561611102565b005b600260009054906101000a900473ffffffffffffffffffffffffffffffffffffffff1681565b60055481565b600960009054906101000a900463ffffffff1681565b6000809054906101000a900473ffffffffffffffffffffffffffffffffffffffff1673ffffffffffffffffffffffffffffffffffffffff163373ffffffffffffffffffffffffffffffffffffffff1614151561068f576040517f08c379a00000000000000000000000000000000000000000000000000000000081526004018080602001828103825260338152602001807f4f6e6c7920746865206f776e6572206f662074686520636f6e74656e7420636181526020017f6e2063616c20746869732066756e6374696f6e0000000000000000000000000081525060400191505060405180910390fd5b806006816000191690555050565b600760049054906101000a900463ffffffff1681565b60035481565b600260009054906101000a900473ffffffffffffffffffffffffffffffffffffffff1673ffffffffffffffffffffffffffffffffffffffff163373ffffffffffffffffffffffffffffffffffffffff161415156107a4576040517f08c379a00000000000000000000000000000000000000000000000000000000081526004018080602001828103825260278152602001807f4f6e6c792074686520636174616c6f672063616e2063616c6c2074686973206681526020017f756e6374696f6e0000000000000000000000000000000000000000000000000081525060400191505060405180910390fd5b6001600b60008373ffffffffffffffffffffffffffffffffffffffff1673ffffffffffffffffffffffffffffffffffffffff16815260200190815260200160002060006101000a81548160ff02191690831515021790555050565b6000600a60003373ffffffffffffffffffffffffffffffffffffffff1673ffffffffffffffffffffffffffffffffffffffff16815260200190815260200160002060009054906101000a900460ff1615156108e8576040517f08c379a000000000000000000000000000000000000000000000000000000000815260040180806020018281038252603b8152602001807f5468652075736572206d75737420636f6e73756d652074686520636f6e74656e81526020017f74206265666f7265206c656176696e67206120666565646261636b000000000081525060400191505060405180910390fd5b600090505b60048163ffffffff16101561099a5782828263ffffffff16818110151561091057fe5b9050602002013563ffffffff1660088263ffffffff1660048110151561093257fe5b600891828204019190066004029054906101000a900463ffffffff160160088263ffffffff1660048110151561096457fe5b600891828204019190066004026101000a81548163ffffffff021916908363ffffffff16021790555080806001019150506108ed565b6009600081819054906101000a900463ffffffff168092919060010191906101000a81548163ffffffff021916908363ffffffff16021790555050600a60003373ffffffffffffffffffffffffffffffffffffffff1673ffffffffffffffffffffffffffffffffffffffff16815260200190815260200160002060006101000a81549060ff02191690557f91e57e2e8a5e25da30a578bb1c8fbcb7a0efce139cf5f16578b78553318e522633604051808273ffffffffffffffffffffffffffffffffffffffff1673ffffffffffffffffffffffffffffffffffffffff16815260200191505060405180910390a1505050565b6000809054906101000a900473ffffffffffffffffffffffffffffffffffffffff1681565b600160009054906101000a900473ffffffffffffffffffffffffffffffffffffffff1681565b600b60003373ffffffffffffffffffffffffffffffffffffffff1673ffffffffffffffffffffffffffffffffffffffff16815260200190815260200160002060009054906101000a900460ff1680610b6d575043600c60003373ffffffffffffffffffffffffffffffffffffffff1673ffffffffffffffffffffffffffffffffffffffff16815260200190815260200160002054115b1515610c07576040517f08c379a00000000000000000000000000000000000000000000000000000000081526004018080602001828103825260288152602001807f5468652075736572206d7573742070757263686173652074686520636f6e746581526020017f6e7420666972737400000000000000000000000000000000000000000000000081525060400191505060405180910390fd5b600b60003373ffffffffffffffffffffffffffffffffffffffff1673ffffffffffffffffffffffffffffffffffffffff16815260200190815260200160002060009054906101000a900460ff1615610d9c576007600481819054906101000a900463ffffffff168092919060010191906101000a81548163ffffffff021916908363ffffffff160217905550506000600d60009054906101000a900463ffffffff1663ffffffff16600760049054906101000a900463ffffffff1663ffffffff16811515610cd157fe5b0663ffffffff161415610d48577f6647e9f676e6fb64f7a25301e6ba64f3d1a80737ddaf2cb01c3dfad07c7386e8600760089054906101000a900463ffffffff16600760049054906101000a900463ffffffff1603604051808263ffffffff1663ffffffff16815260200191505060405180910390a15b600b60003373ffffffffffffffffffffffffffffffffffffffff1673ffffffffffffffffffffffffffffffffffffffff16815260200190815260200160002060006101000a81549060ff0219169055610de0565b600c60003373ffffffffffffffffffffffffffffffffffffffff1673ffffffffffffffffffffffffffffffffffffffff168152602001908152602001600020600090555b7f75e02afeb9106a10711eb7d022e6d4dfdb5f0e57120f8f1510182ab8fe73511133604051808273ffffffffffffffffffffffffffffffffffffffff1673ffffffffffffffffffffffffffffffffffffffff16815260200191505060405180910390a1565b600760009054906101000a900463ffffffff1681565b60045481565b60065481565b600260009054906101000a900473ffffffffffffffffffffffffffffffffffffffff1673ffffffffffffffffffffffffffffffffffffffff163373ffffffffffffffffffffffffffffffffffffffff16141515610f52576040517f08c379a00000000000000000000000000000000000000000000000000000000081526004018080602001828103825260278152602001807f4f6e6c792074686520636174616c6f672063616e2063616c6c2074686973206681526020017f756e6374696f6e0000000000000000000000000000000000000000000000000081525060400191505060405180910390fd5b80600c60008473ffffffffffffffffffffffffffffffffffffffff1673ffffffffffffffffffffffffffffffffffffffff168152602001908152602001600020819055505050565b600760089054906101000a900463ffffffff1681565b600260009054906101000a900473ffffffffffffffffffffffffffffffffffffffff1673ffffffffffffffffffffffffffffffffffffffff163373ffffffffffffffffffffffffffffffffffffffff1614151561109b576040517f08c379a00000000000000000000000000000000000000000000000000000000081526004018080602001828103825260278152602001807f4f6e6c792074686520636174616c6f672063616e2063616c6c2074686973206681526020017f756e6374696f6e0000000000000000000000000000000000000000000000000081525060400191505060405180910390fd5b80600760089054906101000a900463ffffffff1601600760086101000a81548163ffffffff021916908363ffffffff16021790555050565b6008816004811015156110e257fe5b60089182820401919006600402915054906101000a900463ffffffff1681565b6000809054906101000a900473ffffffffffffffffffffffffffffffffffffffff1673ffffffffffffffffffffffffffffffffffffffff163373ffffffffffffffffffffffffffffffffffffffff161415156111ec576040517f08c379a00000000000000000000000000000000000000000000000000000000081526004018080602001828103825260338152602001807f4f6e6c7920746865206f776e6572206f662074686520636f6e74656e7420636181526020017f6e2063616c20746869732066756e6374696f6e0000000000000000000000000081525060400191505060405180910390fd5b7f637f99522561cf0904661f7a05ba4bfc8f323be794631dc7773c0daa8ceea1fd60405160405180910390a1600160009054906101000a900473ffffffffffffffffffffffffffffffffffffffff1673ffffffffffffffffffffffffffffffffffffffff16ff00a165627a7a72305820d0ff64cc377fe32c3510a4df409e0252de9e1ddae04062ef27929e83424bbf090029",
  "source": "pragma solidity ^0.4.19;\n\nimport \"./Catalog.sol\";\n\ncontract BaseContent {\n    \n    /* data about the contract itself */\n    address public owner; // address of who uploads\n    address public content_address; // address of the contract\n    address public catalog; // catalog where the content is published\n    \n    /* data about the content */\n    bytes32 public title; // unique ID\n    bytes32 public author; // name of the author\n    bytes32 public genre; // indicates the type {song, video, photo}\n    bytes32 public subgenre;\n    uint32 public price; // the price to consume the content\n    uint32 public view_count; // number of views\n    uint32 public views_already_payed; // number of viewsalready payed by the catalog\n    \n    /* data about feedback */\n    uint32[4] public feed; // 0: overall, 1: price, 2: quality, 3: details\n    uint32 public nVotes; // number of people who voted\n    mapping (address => bool) private has_consumed; // list of addresses who can vote\n\n\n    /* data about the customers authorized to access the content */\n    mapping (address => bool) private authorized_std;\n    mapping (address => uint) private authorized_premium;\n    \n    uint32 private v = 100; // number of views required before payment\n\n\n    /* events triggered */\n    event content_created (address _content_address); // new content created\n    event v_reached (uint32 _views_to_be_payed); // reached the number of views to request a payment\n    event content_consumed (address _customer); // customer just consumed this content\n    event content_destroyed (); // the content no longer can be accessed\n    event rate_left(address _customer);\n\n    /* modifiers that enforce that some functions are called just by specif agents */\n    modifier byOwner() {\n        require(msg.sender == owner, \"Only the owner of the content can cal this function\");\n        _;\n    }\n    modifier byCatalog() {\n        require(msg.sender == catalog, \"Only the catalog can call this function\");\n        _;\n    }\n    modifier byAuthorized() {\n        require(authorized_std[msg.sender] || authorized_premium[msg.sender] > block.number, \"The user must purchase the content first\");\n        _;\n    }\n\n    modifier byConsumer() {\n        require(has_consumed[msg.sender], \"The user must consume the content before leaving a feedback\");\n        _;\n    }\n    \n    /* constructor function of the content manager */\n    constructor (address _catalog, bytes32 _title, bytes32 _author, bytes32 _gen, uint32 _price) public {\n        owner = msg.sender;\n        content_address = this;\n        catalog = _catalog;\n        title = _title;\n        author = _author;\n        genre = _gen;\n        subgenre = 0x00;\n        price = _price;\n        view_count = 0;\n        views_already_payed = 0;\n        emit content_created (content_address);\n    }\n\n\n    /* insert the customer address as authorized to access this content */\n    function Authorize (address _customer) external byCatalog{\n        authorized_std[_customer] = true;\n    }\n    \n    /* insert the customer address as authorized to access this content */\n    function AuthorizePremium (address _customer, uint _expiration_date) external byCatalog{\n        authorized_premium[_customer] = _expiration_date;\n    }\n    \n     /* called by the catalog to mark the views already payed */\n    function Payed (uint32 _views_just_payed) external byCatalog {\n        views_already_payed = views_already_payed + _views_just_payed; \n    }\n    \n    /* authorized customers can consume the content */\n    function ConsumeContent () external byAuthorized {\n        if (authorized_std[msg.sender]) {\n            view_count ++;\n            if (view_count % v == 0) {\n                emit v_reached (view_count - views_already_payed);\n            }\n            delete authorized_std[msg.sender];\n        } else {\n            delete authorized_premium[msg.sender];\n        }\n        emit content_consumed (msg.sender);\n    }\n\n    /* authorized customers can consume the content */\n    function LeaveRate ( uint32[] f ) external byConsumer {\n        for (uint32 i = 0; i < 4; i++) {\n            feed[i] = feed[i] + f[i];\n        }\n        nVotes ++;\n        delete has_consumed[msg.sender];\n        emit rate_left (msg.sender);\n    }\n    \n    function setSubgenre (bytes32 _s) external byOwner {\n        subgenre = _s;\n    }\n        \n    /* the content can be destructed */\n    function KillContent () external byOwner {\n        emit content_destroyed ();\n        selfdestruct(content_address);\n    }\n}",
  "sourcePath": "/home/fsbolgi/Documents/cobra_dapp/contracts/BaseContent.sol",
  "compiler": {
    "name": "solc",
    "version": "0.4.24+commit.e67f0147.Emscripten.clang"
  },
  "schemaVersion": "2.0.1",
  "updatedAt": "2018-11-29T15:17:55.773Z"
}