{
  "contractName": "Catalog",
  "abi": [
    {
      "constant": true,
      "inputs": [
        {
          "name": "",
          "type": "uint256"
        }
      ],
      "name": "contents_list",
      "outputs": [
        {
          "name": "",
          "type": "address"
        }
      ],
      "payable": false,
      "stateMutability": "view",
      "type": "function"
    },
    {
      "inputs": [],
      "payable": false,
      "stateMutability": "nonpayable",
      "type": "constructor"
    },
    {
      "anonymous": false,
      "inputs": [
        {
          "indexed": false,
          "name": "_catalog_address",
          "type": "address"
        }
      ],
      "name": "catalog_created",
      "type": "event"
    },
    {
      "anonymous": false,
      "inputs": [
        {
          "indexed": false,
          "name": "_title",
          "type": "bytes32"
        },
        {
          "indexed": false,
          "name": "_author",
          "type": "bytes32"
        },
        {
          "indexed": false,
          "name": "_genre",
          "type": "bytes32"
        }
      ],
      "name": "new_publication",
      "type": "event"
    },
    {
      "anonymous": false,
      "inputs": [
        {
          "indexed": false,
          "name": "_title",
          "type": "bytes32"
        },
        {
          "indexed": false,
          "name": "_customer",
          "type": "address"
        },
        {
          "indexed": false,
          "name": "_content",
          "type": "address"
        }
      ],
      "name": "content_acquired",
      "type": "event"
    },
    {
      "anonymous": false,
      "inputs": [
        {
          "indexed": false,
          "name": "_customer",
          "type": "address"
        },
        {
          "indexed": false,
          "name": "_expiration",
          "type": "uint256"
        }
      ],
      "name": "premium_acquired",
      "type": "event"
    },
    {
      "anonymous": false,
      "inputs": [
        {
          "indexed": false,
          "name": "_customer",
          "type": "address"
        },
        {
          "indexed": false,
          "name": "_change",
          "type": "uint256"
        }
      ],
      "name": "change_given",
      "type": "event"
    },
    {
      "anonymous": false,
      "inputs": [
        {
          "indexed": false,
          "name": "_t",
          "type": "bytes32"
        },
        {
          "indexed": false,
          "name": "_tot_money",
          "type": "uint256"
        }
      ],
      "name": "author_payed",
      "type": "event"
    },
    {
      "anonymous": false,
      "inputs": [],
      "name": "catalog_destroyed",
      "type": "event"
    },
    {
      "constant": true,
      "inputs": [],
      "name": "GetLengthCatalog",
      "outputs": [
        {
          "name": "",
          "type": "uint256"
        }
      ],
      "payable": false,
      "stateMutability": "view",
      "type": "function"
    },
    {
      "constant": true,
      "inputs": [
        {
          "name": "_t",
          "type": "bytes32"
        }
      ],
      "name": "GetAuthor",
      "outputs": [
        {
          "name": "",
          "type": "bytes32"
        }
      ],
      "payable": false,
      "stateMutability": "view",
      "type": "function"
    },
    {
      "constant": true,
      "inputs": [
        {
          "name": "_t",
          "type": "bytes32"
        }
      ],
      "name": "GetGenre",
      "outputs": [
        {
          "name": "",
          "type": "bytes32"
        }
      ],
      "payable": false,
      "stateMutability": "view",
      "type": "function"
    },
    {
      "constant": true,
      "inputs": [
        {
          "name": "_t",
          "type": "bytes32"
        }
      ],
      "name": "GetAddress",
      "outputs": [
        {
          "name": "",
          "type": "address"
        }
      ],
      "payable": false,
      "stateMutability": "view",
      "type": "function"
    },
    {
      "constant": true,
      "inputs": [
        {
          "name": "_t",
          "type": "bytes32"
        }
      ],
      "name": "GetPrice",
      "outputs": [
        {
          "name": "",
          "type": "uint256"
        }
      ],
      "payable": false,
      "stateMutability": "view",
      "type": "function"
    },
    {
      "constant": true,
      "inputs": [
        {
          "name": "_t",
          "type": "bytes32"
        }
      ],
      "name": "GetViews",
      "outputs": [
        {
          "name": "",
          "type": "uint32"
        }
      ],
      "payable": false,
      "stateMutability": "view",
      "type": "function"
    },
    {
      "constant": true,
      "inputs": [
        {
          "name": "_t",
          "type": "bytes32"
        }
      ],
      "name": "GetRate",
      "outputs": [
        {
          "name": "",
          "type": "uint32"
        }
      ],
      "payable": false,
      "stateMutability": "view",
      "type": "function"
    },
    {
      "constant": true,
      "inputs": [],
      "name": "GetStatistics",
      "outputs": [
        {
          "name": "",
          "type": "bytes32[]"
        },
        {
          "name": "",
          "type": "uint32[]"
        }
      ],
      "payable": false,
      "stateMutability": "view",
      "type": "function"
    },
    {
      "constant": true,
      "inputs": [],
      "name": "GetContentList",
      "outputs": [
        {
          "name": "",
          "type": "bytes32[]"
        }
      ],
      "payable": false,
      "stateMutability": "view",
      "type": "function"
    },
    {
      "constant": true,
      "inputs": [
        {
          "name": "x",
          "type": "uint256"
        }
      ],
      "name": "GetNewContentsList",
      "outputs": [
        {
          "name": "",
          "type": "bytes32[]"
        }
      ],
      "payable": false,
      "stateMutability": "view",
      "type": "function"
    },
    {
      "constant": true,
      "inputs": [
        {
          "name": "_g",
          "type": "bytes32"
        }
      ],
      "name": "GetLatestByGenre",
      "outputs": [
        {
          "name": "",
          "type": "bytes32"
        }
      ],
      "payable": false,
      "stateMutability": "view",
      "type": "function"
    },
    {
      "constant": true,
      "inputs": [
        {
          "name": "_g",
          "type": "bytes32"
        }
      ],
      "name": "GetMostPopularByGenre",
      "outputs": [
        {
          "name": "",
          "type": "bytes32"
        }
      ],
      "payable": false,
      "stateMutability": "view",
      "type": "function"
    },
    {
      "constant": true,
      "inputs": [
        {
          "name": "_a",
          "type": "bytes32"
        }
      ],
      "name": "GetLatestByAuthor",
      "outputs": [
        {
          "name": "",
          "type": "bytes32"
        }
      ],
      "payable": false,
      "stateMutability": "view",
      "type": "function"
    },
    {
      "constant": true,
      "inputs": [
        {
          "name": "_a",
          "type": "bytes32"
        }
      ],
      "name": "GetMostPopularByAuthor",
      "outputs": [
        {
          "name": "",
          "type": "bytes32"
        }
      ],
      "payable": false,
      "stateMutability": "view",
      "type": "function"
    },
    {
      "constant": true,
      "inputs": [
        {
          "name": "_y",
          "type": "uint32"
        }
      ],
      "name": "GetMostRated",
      "outputs": [
        {
          "name": "",
          "type": "bytes32"
        }
      ],
      "payable": false,
      "stateMutability": "view",
      "type": "function"
    },
    {
      "constant": true,
      "inputs": [
        {
          "name": "_g",
          "type": "bytes32"
        },
        {
          "name": "_y",
          "type": "uint32"
        }
      ],
      "name": "GetMostRatedByGenre",
      "outputs": [
        {
          "name": "",
          "type": "bytes32"
        }
      ],
      "payable": false,
      "stateMutability": "view",
      "type": "function"
    },
    {
      "constant": true,
      "inputs": [
        {
          "name": "_a",
          "type": "bytes32"
        },
        {
          "name": "_y",
          "type": "uint32"
        }
      ],
      "name": "GetMostRatedByAuthor",
      "outputs": [
        {
          "name": "",
          "type": "bytes32"
        }
      ],
      "payable": false,
      "stateMutability": "view",
      "type": "function"
    },
    {
      "constant": true,
      "inputs": [
        {
          "name": "_c",
          "type": "address"
        }
      ],
      "name": "isPremium",
      "outputs": [
        {
          "name": "",
          "type": "bool"
        }
      ],
      "payable": false,
      "stateMutability": "view",
      "type": "function"
    },
    {
      "constant": false,
      "inputs": [
        {
          "name": "_c",
          "type": "address"
        }
      ],
      "name": "AddContent",
      "outputs": [
        {
          "name": "",
          "type": "uint256"
        }
      ],
      "payable": false,
      "stateMutability": "nonpayable",
      "type": "function"
    },
    {
      "constant": false,
      "inputs": [
        {
          "name": "_t",
          "type": "bytes32"
        }
      ],
      "name": "GetContent",
      "outputs": [],
      "payable": true,
      "stateMutability": "payable",
      "type": "function"
    },
    {
      "constant": false,
      "inputs": [
        {
          "name": "_t",
          "type": "bytes32"
        }
      ],
      "name": "GetContentPremium",
      "outputs": [],
      "payable": false,
      "stateMutability": "nonpayable",
      "type": "function"
    },
    {
      "constant": false,
      "inputs": [
        {
          "name": "_t",
          "type": "bytes32"
        },
        {
          "name": "_u",
          "type": "address"
        }
      ],
      "name": "GiftContent",
      "outputs": [],
      "payable": true,
      "stateMutability": "payable",
      "type": "function"
    },
    {
      "constant": false,
      "inputs": [
        {
          "name": "_u",
          "type": "address"
        }
      ],
      "name": "GiftPremium",
      "outputs": [],
      "payable": true,
      "stateMutability": "payable",
      "type": "function"
    },
    {
      "constant": false,
      "inputs": [],
      "name": "BuyPremium",
      "outputs": [],
      "payable": true,
      "stateMutability": "payable",
      "type": "function"
    },
    {
      "constant": false,
      "inputs": [
        {
          "name": "_t",
          "type": "bytes32"
        }
      ],
      "name": "PayAuthor",
      "outputs": [],
      "payable": false,
      "stateMutability": "nonpayable",
      "type": "function"
    },
    {
      "constant": false,
      "inputs": [],
      "name": "KillCatalog",
      "outputs": [],
      "payable": false,
      "stateMutability": "nonpayable",
      "type": "function"
    }
  ],
  "bytecode": "0x6080604052619c4060055566071afd498d0000600655666a94d74f4300006007556064600860006101000a81548161ffff021916908361ffff16021790555034801561004a57600080fd5b50336000806101000a81548173ffffffffffffffffffffffffffffffffffffffff021916908373ffffffffffffffffffffffffffffffffffffffff16021790555030600160006101000a81548173ffffffffffffffffffffffffffffffffffffffff021916908373ffffffffffffffffffffffffffffffffffffffff1602179055507f6a471b7bf10142f503fa5f24b30b633c5fa9d4131cb9aec08197a1db84f14366600160009054906101000a900473ffffffffffffffffffffffffffffffffffffffff16604051808273ffffffffffffffffffffffffffffffffffffffff1673ffffffffffffffffffffffffffffffffffffffff16815260200191505060405180910390a1614e6b806101606000396000f30060806040526004361061015f576000357c0100000000000000000000000000000000000000000000000000000000900463ffffffff168063043cdcf0146101645780630c30ad89146101a95780630d634eb5146101da5780632669e0ad146102375780632eefa37f146102845780633a20d6761461028e5780633c027d8a146102b257806341c2b619146102c95780634d94c887146103365780634dc1e1681461036157806351d25fe61461039757806358e5a4741461044b578063742fe0d4146104985780637faa1f93146104f35780638ded2d73146105505780638e2b47cd146105a7578063aa514037146105f4578063aeed4de314610645578063bfe59cfb14610692578063d1628fb0146106e3578063d94cf6e014610765578063d97c0065146107b2578063df1263d5146107e3578063f15b363a14610832578063f764319114610876578063f867cff7146108e7578063ff70f85914610934575b600080fd5b34801561017057600080fd5b5061019360048036038101908080356000191690602001909291905050506109a0565b6040518082815260200191505060405180910390f35b3480156101b557600080fd5b506101d86004803603810190808035600019169060200190929190505050610ab4565b005b3480156101e657600080fd5b506102196004803603810190808035600019169060200190929190803563ffffffff169060200190929190505050610f13565b60405180826000191660001916815260200191505060405180910390f35b34801561024357600080fd5b5061026660048036038101908080356000191690602001909291905050506113cb565b60405180826000191660001916815260200191505060405180910390f35b61028c6114df565b005b6102b060048036038101908080356000191690602001909291905050506116aa565b005b3480156102be57600080fd5b506102c761198d565b005b3480156102d557600080fd5b506102f460048036038101908080359060200190929190505050611fbc565b604051808273ffffffffffffffffffffffffffffffffffffffff1673ffffffffffffffffffffffffffffffffffffffff16815260200191505060405180910390f35b34801561034257600080fd5b5061034b611ffa565b6040518082815260200191505060405180910390f35b610395600480360381019080803573ffffffffffffffffffffffffffffffffffffffff169060200190929190505050612007565b005b3480156103a357600080fd5b506103ac6121d3565b604051808060200180602001838103835285818151815260200191508051906020019060200280838360005b838110156103f35780820151818401526020810190506103d8565b50505050905001838103825284818151815260200191508051906020019060200280838360005b8381101561043557808201518184015260208101905061041a565b5050505090500194505050505060405180910390f35b34801561045757600080fd5b5061047a6004803603810190808035600019169060200190929190505050612471565b60405180826000191660001916815260200191505060405180910390f35b3480156104a457600080fd5b506104d9600480360381019080803573ffffffffffffffffffffffffffffffffffffffff169060200190929190505050612585565b604051808215151515815260200191505060405180910390f35b3480156104ff57600080fd5b506105326004803603810190808035600019169060200190929190803563ffffffff1690602001909291905050506125d0565b60405180826000191660001916815260200191505060405180910390f35b34801561055c57600080fd5b50610591600480360381019080803573ffffffffffffffffffffffffffffffffffffffff169060200190929190505050612a88565b6040518082815260200191505060405180910390f35b3480156105b357600080fd5b506105d66004803603810190808035600019169060200190929190505050612fcd565b60405180826000191660001916815260200191505060405180910390f35b34801561060057600080fd5b5061062360048036038101908080356000191690602001909291905050506131e6565b604051808263ffffffff1663ffffffff16815260200191505060405180910390f35b34801561065157600080fd5b50610674600480360381019080803560001916906020019092919050505061341e565b60405180826000191660001916815260200191505060405180910390f35b34801561069e57600080fd5b506106c16004803603810190808035600019169060200190929190505050613637565b604051808263ffffffff1663ffffffff16815260200191505060405180910390f35b3480156106ef57600080fd5b5061070e6004803603810190808035906020019092919050505061374b565b6040518080602001828103825283818151815260200191508051906020019060200280838360005b83811015610751578082015181840152602081019050610736565b505050509050019250505060405180910390f35b34801561077157600080fd5b5061079460048036038101908080356000191690602001909291905050506138f3565b60405180826000191660001916815260200191505060405180910390f35b3480156107be57600080fd5b506107e16004803603810190808035600019169060200190929190505050613cb8565b005b3480156107ef57600080fd5b50610814600480360381019080803563ffffffff169060200190929190505050613f14565b60405180826000191660001916815260200191505060405180910390f35b6108746004803603810190808035600019169060200190929190803573ffffffffffffffffffffffffffffffffffffffff16906020019092919050505061431a565b005b34801561088257600080fd5b506108a560048036038101908080356000191690602001909291905050506145fe565b604051808273ffffffffffffffffffffffffffffffffffffffff1673ffffffffffffffffffffffffffffffffffffffff16815260200191505060405180910390f35b3480156108f357600080fd5b506109166004803603810190808035600019169060200190929190505050614712565b60405180826000191660001916815260200191505060405180910390f35b34801561094057600080fd5b50610949614ad7565b6040518080602001828103825283818151815260200191508051906020019060200280838360005b8381101561098c578082015181840152602081019050610971565b505050509050019250505060405180910390f35b600080600360008460001916600019168152602001908152602001600020549050600081141515610aad576002600182038154811015156109dd57fe5b9060005260206000200160009054906101000a900473ffffffffffffffffffffffffffffffffffffffff1673ffffffffffffffffffffffffffffffffffffffff1663a035b1fe6040518163ffffffff167c0100000000000000000000000000000000000000000000000000000000028152600401602060405180830381600087803b158015610a6b57600080fd5b505af1158015610a7f573d6000803e3d6000fd5b505050506040513d6020811015610a9557600080fd5b81019080805190602001909291905050509150610aae565b5b50919050565b6000806000600360008560001916600019168152602001908152602001600020549250600083141515610f0d57600260018403815481101515610af357fe5b9060005260206000200160009054906101000a900473ffffffffffffffffffffffffffffffffffffffff1673ffffffffffffffffffffffffffffffffffffffff166339c614a16040518163ffffffff167c0100000000000000000000000000000000000000000000000000000000028152600401602060405180830381600087803b158015610b8157600080fd5b505af1158015610b95573d6000803e3d6000fd5b505050506040513d6020811015610bab57600080fd5b81019080805190602001909291905050509150600260018403815481101515610bd057fe5b9060005260206000200160009054906101000a900473ffffffffffffffffffffffffffffffffffffffff1673ffffffffffffffffffffffffffffffffffffffff1663e76c3ba86040518163ffffffff167c0100000000000000000000000000000000000000000000000000000000028152600401602060405180830381600087803b158015610c5e57600080fd5b505af1158015610c72573d6000803e3d6000fd5b505050506040513d6020811015610c8857600080fd5b810190808051906020019092919050505082039050600860009054906101000a900461ffff1661ffff168163ffffffff16101515610f0c57600260018403815481101515610cd257fe5b9060005260206000200160009054906101000a900473ffffffffffffffffffffffffffffffffffffffff1673ffffffffffffffffffffffffffffffffffffffff16638da5cb5b6040518163ffffffff167c0100000000000000000000000000000000000000000000000000000000028152600401602060405180830381600087803b158015610d6057600080fd5b505af1158015610d74573d6000803e3d6000fd5b505050506040513d6020811015610d8a57600080fd5b810190808051906020019092919050505073ffffffffffffffffffffffffffffffffffffffff166108fc6006548363ffffffff16029081150290604051600060405180830381858888f19350505050158015610dea573d6000803e3d6000fd5b50600260018403815481101515610dfd57fe5b9060005260206000200160009054906101000a900473ffffffffffffffffffffffffffffffffffffffff1673ffffffffffffffffffffffffffffffffffffffff1663e9df3010826040518263ffffffff167c0100000000000000000000000000000000000000000000000000000000028152600401808263ffffffff1663ffffffff168152602001915050600060405180830381600087803b158015610ea257600080fd5b505af1158015610eb6573d6000803e3d6000fd5b505050507fcb574b8f73b5197bc67007875e790c4e4b5f36ff460014d13c9c54c81a04cc2b846006548363ffffffff16026040518083600019166000191681526020018281526020019250505060405180910390a15b5b50505050565b6000806000806000806000600102945060009350600092505b6002805490508310156113bd57600283815481101515610f4857fe5b9060005260206000200160009054906101000a900473ffffffffffffffffffffffffffffffffffffffff16915087600019168273ffffffffffffffffffffffffffffffffffffffff166317de3a416040518163ffffffff167c0100000000000000000000000000000000000000000000000000000000028152600401602060405180830381600087803b158015610fde57600080fd5b505af1158015610ff2573d6000803e3d6000fd5b505050506040513d602081101561100857600080fd5b8101908080519060200190929190505050600019161480156110cf575060008273ffffffffffffffffffffffffffffffffffffffff16631f3e74396040518163ffffffff167c0100000000000000000000000000000000000000000000000000000000028152600401602060405180830381600087803b15801561108b57600080fd5b505af115801561109f573d6000803e3d6000fd5b505050506040513d60208110156110b557600080fd5b810190808051906020019092919050505063ffffffff1614155b156113b05760048763ffffffff161061118e576111898273ffffffffffffffffffffffffffffffffffffffff16634a79d50c6040518163ffffffff167c0100000000000000000000000000000000000000000000000000000000028152600401602060405180830381600087803b15801561114957600080fd5b505af115801561115d573d6000803e3d6000fd5b505050506040513d602081101561117357600080fd5b81019080805190602001909291905050506131e6565b6112f4565b8173ffffffffffffffffffffffffffffffffffffffff16631f3e74396040518163ffffffff167c0100000000000000000000000000000000000000000000000000000000028152600401602060405180830381600087803b1580156111f257600080fd5b505af1158015611206573d6000803e3d6000fd5b505050506040513d602081101561121c57600080fd5b810190808051906020019092919050505063ffffffff168273ffffffffffffffffffffffffffffffffffffffff1663f59dfdfb896040518263ffffffff167c0100000000000000000000000000000000000000000000000000000000028152600401808263ffffffff168152602001915050602060405180830381600087803b1580156112a857600080fd5b505af11580156112bc573d6000803e3d6000fd5b505050506040513d60208110156112d257600080fd5b810190808051906020019092919050505063ffffffff168115156112f257fe5b045b90508363ffffffff168163ffffffff1611156113af578173ffffffffffffffffffffffffffffffffffffffff16634a79d50c6040518163ffffffff167c0100000000000000000000000000000000000000000000000000000000028152600401602060405180830381600087803b15801561136e57600080fd5b505af1158015611382573d6000803e3d6000fd5b505050506040513d602081101561139857600080fd5b810190808051906020019092919050505094508093505b5b8280600101935050610f2c565b849550505050505092915050565b6000806003600084600019166000191681526020019081526020016000205490506000811415156114d85760026001820381548110151561140857fe5b9060005260206000200160009054906101000a900473ffffffffffffffffffffffffffffffffffffffff1673ffffffffffffffffffffffffffffffffffffffff1663a6c3e6b96040518163ffffffff167c0100000000000000000000000000000000000000000000000000000000028152600401602060405180830381600087803b15801561149657600080fd5b505af11580156114aa573d6000803e3d6000fd5b505050506040513d60208110156114c057600080fd5b810190808051906020019092919050505091506114d9565b5b50919050565b600060075434101515156114f257600080fd5b6007543403905060008111156115b5573373ffffffffffffffffffffffffffffffffffffffff166108fc829081150290604051600060405180830381858888f19350505050158015611548573d6000803e3d6000fd5b507fa56865e6f4f943788c350074b8b51eac74c2839a1398f944609880c190d0f6f63382604051808373ffffffffffffffffffffffffffffffffffffffff1673ffffffffffffffffffffffffffffffffffffffff1681526020018281526020019250505060405180910390a15b6005544301600460003373ffffffffffffffffffffffffffffffffffffffff1673ffffffffffffffffffffffffffffffffffffffff168152602001908152602001600020819055507f2b800548c0251e67f66a49253edd3d38e75a1637205d172a31a0570ca733c85733600460003373ffffffffffffffffffffffffffffffffffffffff1673ffffffffffffffffffffffffffffffffffffffff16815260200190815260200160002054604051808373ffffffffffffffffffffffffffffffffffffffff1673ffffffffffffffffffffffffffffffffffffffff1681526020018281526020019250505060405180910390a150565b6000806116b6836109a0565b34101515156116c457600080fd5b6116cd836109a0565b34039150600082111561178d573373ffffffffffffffffffffffffffffffffffffffff166108fc839081150290604051600060405180830381858888f19350505050158015611720573d6000803e3d6000fd5b507fa56865e6f4f943788c350074b8b51eac74c2839a1398f944609880c190d0f6f63383604051808373ffffffffffffffffffffffffffffffffffffffff1673ffffffffffffffffffffffffffffffffffffffff1681526020018281526020019250505060405180910390a15b600360008460001916600019168152602001908152602001600020549050600081141515611988576002600182038154811015156117c757fe5b9060005260206000200160009054906101000a900473ffffffffffffffffffffffffffffffffffffffff1673ffffffffffffffffffffffffffffffffffffffff16636d81a01b336040518263ffffffff167c0100000000000000000000000000000000000000000000000000000000028152600401808273ffffffffffffffffffffffffffffffffffffffff1673ffffffffffffffffffffffffffffffffffffffff168152602001915050600060405180830381600087803b15801561188c57600080fd5b505af11580156118a0573d6000803e3d6000fd5b505050507fb9b4171ed7d8be2fdd3d7cbfc710fa9fe32417702c6b1d7c4362229814d0775f83336002600185038154811015156118d957fe5b9060005260206000200160009054906101000a900473ffffffffffffffffffffffffffffffffffffffff166040518084600019166000191681526020018373ffffffffffffffffffffffffffffffffffffffff1673ffffffffffffffffffffffffffffffffffffffff1681526020018273ffffffffffffffffffffffffffffffffffffffff1673ffffffffffffffffffffffffffffffffffffffff168152602001935050505060405180910390a15b505050565b6000806000806000806000806000809054906101000a900473ffffffffffffffffffffffffffffffffffffffff1673ffffffffffffffffffffffffffffffffffffffff163373ffffffffffffffffffffffffffffffffffffffff161415156119f457600080fd5b6119fc614c3a565b80985081995050506006548789030295508786600160009054906101000a900473ffffffffffffffffffffffffffffffffffffffff1673ffffffffffffffffffffffffffffffffffffffff163103811515611a5357fe5b049450600093505b600280549050841015611f5557600654600285815481101515611a7a57fe5b9060005260206000200160009054906101000a900473ffffffffffffffffffffffffffffffffffffffff1673ffffffffffffffffffffffffffffffffffffffff1663e76c3ba86040518163ffffffff167c0100000000000000000000000000000000000000000000000000000000028152600401602060405180830381600087803b158015611b0857600080fd5b505af1158015611b1c573d6000803e3d6000fd5b505050506040513d6020811015611b3257600080fd5b8101908080519060200190929190505050600286815481101515611b5257fe5b9060005260206000200160009054906101000a900473ffffffffffffffffffffffffffffffffffffffff1673ffffffffffffffffffffffffffffffffffffffff166339c614a16040518163ffffffff167c0100000000000000000000000000000000000000000000000000000000028152600401602060405180830381600087803b158015611be057600080fd5b505af1158015611bf4573d6000803e3d6000fd5b505050506040513d6020811015611c0a57600080fd5b81019080805190602001909291905050500363ffffffff1602925084600285815481101515611c3557fe5b9060005260206000200160009054906101000a900473ffffffffffffffffffffffffffffffffffffffff1673ffffffffffffffffffffffffffffffffffffffff166339c614a16040518163ffffffff167c0100000000000000000000000000000000000000000000000000000000028152600401602060405180830381600087803b158015611cc357600080fd5b505af1158015611cd7573d6000803e3d6000fd5b505050506040513d6020811015611ced57600080fd5b810190808051906020019092919050505063ffffffff160291508183019050600284815481101515611d1b57fe5b9060005260206000200160009054906101000a900473ffffffffffffffffffffffffffffffffffffffff1673ffffffffffffffffffffffffffffffffffffffff16638da5cb5b6040518163ffffffff167c0100000000000000000000000000000000000000000000000000000000028152600401602060405180830381600087803b158015611da957600080fd5b505af1158015611dbd573d6000803e3d6000fd5b505050506040513d6020811015611dd357600080fd5b810190808051906020019092919050505073ffffffffffffffffffffffffffffffffffffffff166108fc829081150290604051600060405180830381858888f19350505050158015611e29573d6000803e3d6000fd5b507fcb574b8f73b5197bc67007875e790c4e4b5f36ff460014d13c9c54c81a04cc2b600285815481101515611e5a57fe5b9060005260206000200160009054906101000a900473ffffffffffffffffffffffffffffffffffffffff1673ffffffffffffffffffffffffffffffffffffffff16634a79d50c6040518163ffffffff167c0100000000000000000000000000000000000000000000000000000000028152600401602060405180830381600087803b158015611ee857600080fd5b505af1158015611efc573d6000803e3d6000fd5b505050506040513d6020811015611f1257600080fd5b8101908080519060200190929190505050826040518083600019166000191681526020018281526020019250505060405180910390a18380600101945050611a5b565b7fff5361f0294b69eb80adff39d5edf78c34755cdaf4f60228fd6a7561ecec60dc60405160405180910390a1600160009054906101000a900473ffffffffffffffffffffffffffffffffffffffff1673ffffffffffffffffffffffffffffffffffffffff16ff5b600281815481101515611fcb57fe5b906000526020600020016000915054906101000a900473ffffffffffffffffffffffffffffffffffffffff1681565b6000600280549050905090565b6000600754341015151561201a57600080fd5b6007543403905060008111156120dd573373ffffffffffffffffffffffffffffffffffffffff166108fc829081150290604051600060405180830381858888f19350505050158015612070573d6000803e3d6000fd5b507fa56865e6f4f943788c350074b8b51eac74c2839a1398f944609880c190d0f6f63382604051808373ffffffffffffffffffffffffffffffffffffffff1673ffffffffffffffffffffffffffffffffffffffff1681526020018281526020019250505060405180910390a15b6005544301600460008473ffffffffffffffffffffffffffffffffffffffff1673ffffffffffffffffffffffffffffffffffffffff168152602001908152602001600020819055507f2b800548c0251e67f66a49253edd3d38e75a1637205d172a31a0570ca733c85782600460008573ffffffffffffffffffffffffffffffffffffffff1673ffffffffffffffffffffffffffffffffffffffff16815260200190815260200160002054604051808373ffffffffffffffffffffffffffffffffffffffff1673ffffffffffffffffffffffffffffffffffffffff1681526020018281526020019250505060405180910390a15050565b606080600060608060006002805490509350836040519080825280602002602001820160405280156122145781602001602082028038833980820191505090505b509250836040519080825280602002602001820160405280156122465781602001602082028038833980820191505090505b509150600090505b838110156124635760028181548110151561226557fe5b9060005260206000200160009054906101000a900473ffffffffffffffffffffffffffffffffffffffff1673ffffffffffffffffffffffffffffffffffffffff16634a79d50c6040518163ffffffff167c0100000000000000000000000000000000000000000000000000000000028152600401602060405180830381600087803b1580156122f357600080fd5b505af1158015612307573d6000803e3d6000fd5b505050506040513d602081101561231d57600080fd5b8101908080519060200190929190505050838281518110151561233c57fe5b90602001906020020190600019169081600019168152505060028181548110151561236357fe5b9060005260206000200160009054906101000a900473ffffffffffffffffffffffffffffffffffffffff1673ffffffffffffffffffffffffffffffffffffffff166339c614a16040518163ffffffff167c0100000000000000000000000000000000000000000000000000000000028152600401602060405180830381600087803b1580156123f157600080fd5b505af1158015612405573d6000803e3d6000fd5b505050506040513d602081101561241b57600080fd5b8101908080519060200190929190505050828281518110151561243a57fe5b9060200190602002019063ffffffff16908163ffffffff1681525050808060010191505061224e565b828295509550505050509091565b60008060036000846000191660001916815260200190815260200160002054905060008114151561257e576002600182038154811015156124ae57fe5b9060005260206000200160009054906101000a900473ffffffffffffffffffffffffffffffffffffffff1673ffffffffffffffffffffffffffffffffffffffff166317de3a416040518163ffffffff167c0100000000000000000000000000000000000000000000000000000000028152600401602060405180830381600087803b15801561253c57600080fd5b505af1158015612550573d6000803e3d6000fd5b505050506040513d602081101561256657600080fd5b8101908080519060200190929190505050915061257f565b5b50919050565b600043600460008473ffffffffffffffffffffffffffffffffffffffff1673ffffffffffffffffffffffffffffffffffffffff16815260200190815260200160002054119050919050565b6000806000806000806000600102945060009350600092505b600280549050831015612a7a5760028381548110151561260557fe5b9060005260206000200160009054906101000a900473ffffffffffffffffffffffffffffffffffffffff16915087600019168273ffffffffffffffffffffffffffffffffffffffff1663a6c3e6b96040518163ffffffff167c0100000000000000000000000000000000000000000000000000000000028152600401602060405180830381600087803b15801561269b57600080fd5b505af11580156126af573d6000803e3d6000fd5b505050506040513d60208110156126c557600080fd5b81019080805190602001909291905050506000191614801561278c575060008273ffffffffffffffffffffffffffffffffffffffff16631f3e74396040518163ffffffff167c0100000000000000000000000000000000000000000000000000000000028152600401602060405180830381600087803b15801561274857600080fd5b505af115801561275c573d6000803e3d6000fd5b505050506040513d602081101561277257600080fd5b810190808051906020019092919050505063ffffffff1614155b15612a6d5760048763ffffffff161061284b576128468273ffffffffffffffffffffffffffffffffffffffff16634a79d50c6040518163ffffffff167c0100000000000000000000000000000000000000000000000000000000028152600401602060405180830381600087803b15801561280657600080fd5b505af115801561281a573d6000803e3d6000fd5b505050506040513d602081101561283057600080fd5b81019080805190602001909291905050506131e6565b6129b1565b8173ffffffffffffffffffffffffffffffffffffffff16631f3e74396040518163ffffffff167c0100000000000000000000000000000000000000000000000000000000028152600401602060405180830381600087803b1580156128af57600080fd5b505af11580156128c3573d6000803e3d6000fd5b505050506040513d60208110156128d957600080fd5b810190808051906020019092919050505063ffffffff168273ffffffffffffffffffffffffffffffffffffffff1663f59dfdfb896040518263ffffffff167c0100000000000000000000000000000000000000000000000000000000028152600401808263ffffffff168152602001915050602060405180830381600087803b15801561296557600080fd5b505af1158015612979573d6000803e3d6000fd5b505050506040513d602081101561298f57600080fd5b810190808051906020019092919050505063ffffffff168115156129af57fe5b045b90508363ffffffff168163ffffffff161115612a6c578173ffffffffffffffffffffffffffffffffffffffff16634a79d50c6040518163ffffffff167c0100000000000000000000000000000000000000000000000000000000028152600401602060405180830381600087803b158015612a2b57600080fd5b505af1158015612a3f573d6000803e3d6000fd5b505050506040513d6020811015612a5557600080fd5b810190808051906020019092919050505094508093505b5b82806001019350506125e9565b849550505050505092915050565b6000808290503373ffffffffffffffffffffffffffffffffffffffff168173ffffffffffffffffffffffffffffffffffffffff16638da5cb5b6040518163ffffffff167c0100000000000000000000000000000000000000000000000000000000028152600401602060405180830381600087803b158015612b0957600080fd5b505af1158015612b1d573d6000803e3d6000fd5b505050506040513d6020811015612b3357600080fd5b810190808051906020019092919050505073ffffffffffffffffffffffffffffffffffffffff16148015612c525750600160009054906101000a900473ffffffffffffffffffffffffffffffffffffffff1673ffffffffffffffffffffffffffffffffffffffff168173ffffffffffffffffffffffffffffffffffffffff1663074c09eb6040518163ffffffff167c0100000000000000000000000000000000000000000000000000000000028152600401602060405180830381600087803b158015612bff57600080fd5b505af1158015612c13573d6000803e3d6000fd5b505050506040513d6020811015612c2957600080fd5b810190808051906020019092919050505073ffffffffffffffffffffffffffffffffffffffff16145b1515612c5d57600080fd5b60028190806001815401808255809150509060018203906000526020600020016000909192909190916101000a81548173ffffffffffffffffffffffffffffffffffffffff021916908373ffffffffffffffffffffffffffffffffffffffff16021790555050600280549050600360008373ffffffffffffffffffffffffffffffffffffffff16634a79d50c6040518163ffffffff167c0100000000000000000000000000000000000000000000000000000000028152600401602060405180830381600087803b158015612d3157600080fd5b505af1158015612d45573d6000803e3d6000fd5b505050506040513d6020811015612d5b57600080fd5b810190808051906020019092919050505060001916600019168152602001908152602001600020819055507fdda355a4ff5285e5ca9d8fa1c68571d1d2f9108352e8f58140122faef426b5d68173ffffffffffffffffffffffffffffffffffffffff16634a79d50c6040518163ffffffff167c0100000000000000000000000000000000000000000000000000000000028152600401602060405180830381600087803b158015612e0b57600080fd5b505af1158015612e1f573d6000803e3d6000fd5b505050506040513d6020811015612e3557600080fd5b81019080805190602001909291905050508273ffffffffffffffffffffffffffffffffffffffff1663a6c3e6b96040518163ffffffff167c0100000000000000000000000000000000000000000000000000000000028152600401602060405180830381600087803b158015612eaa57600080fd5b505af1158015612ebe573d6000803e3d6000fd5b505050506040513d6020811015612ed457600080fd5b81019080805190602001909291905050508373ffffffffffffffffffffffffffffffffffffffff166317de3a416040518163ffffffff167c0100000000000000000000000000000000000000000000000000000000028152600401602060405180830381600087803b158015612f4957600080fd5b505af1158015612f5d573d6000803e3d6000fd5b505050506040513d6020811015612f7357600080fd5b810190808051906020019092919050505060405180846000191660001916815260200183600019166000191681526020018260001916600019168152602001935050505060405180910390a1600280549050915050919050565b6000806000600280549050915060008211156131de576001820390505b6000811015156131dd57836000191660028281548110151561300857fe5b9060005260206000200160009054906101000a900473ffffffffffffffffffffffffffffffffffffffff1673ffffffffffffffffffffffffffffffffffffffff166317de3a416040518163ffffffff167c0100000000000000000000000000000000000000000000000000000000028152600401602060405180830381600087803b15801561309657600080fd5b505af11580156130aa573d6000803e3d6000fd5b505050506040513d60208110156130c057600080fd5b81019080805190602001909291905050506000191614156131ba576002818154811015156130ea57fe5b9060005260206000200160009054906101000a900473ffffffffffffffffffffffffffffffffffffffff1673ffffffffffffffffffffffffffffffffffffffff16634a79d50c6040518163ffffffff167c0100000000000000000000000000000000000000000000000000000000028152600401602060405180830381600087803b15801561317857600080fd5b505af115801561318c573d6000803e3d6000fd5b505050506040513d60208110156131a257600080fd5b810190808051906020019092919050505092506131df565b60008114156131cf57600060010292506131df565b808060019003915050612fea565b5b5b5050919050565b60008060008060036000866000191660001916815260200190815260200160002054925060009150600090505b60048163ffffffff16101561331f5760026001840381548110151561323457fe5b9060005260206000200160009054906101000a900473ffffffffffffffffffffffffffffffffffffffff1673ffffffffffffffffffffffffffffffffffffffff1663f59dfdfb826040518263ffffffff167c0100000000000000000000000000000000000000000000000000000000028152600401808263ffffffff168152602001915050602060405180830381600087803b1580156132d357600080fd5b505af11580156132e7573d6000803e3d6000fd5b505050506040513d60208110156132fd57600080fd5b8101908080519060200190929190505050820191508080600101915050613213565b600460026001850381548110151561333357fe5b9060005260206000200160009054906101000a900473ffffffffffffffffffffffffffffffffffffffff1673ffffffffffffffffffffffffffffffffffffffff16631f3e74396040518163ffffffff167c0100000000000000000000000000000000000000000000000000000000028152600401602060405180830381600087803b1580156133c157600080fd5b505af11580156133d5573d6000803e3d6000fd5b505050506040513d60208110156133eb57600080fd5b81019080805190602001909291905050500263ffffffff168263ffffffff1681151561341357fe5b049350505050919050565b60008060006002805490509150600082111561362f576001820390505b60008110151561362e57836000191660028281548110151561345957fe5b9060005260206000200160009054906101000a900473ffffffffffffffffffffffffffffffffffffffff1673ffffffffffffffffffffffffffffffffffffffff1663a6c3e6b96040518163ffffffff167c0100000000000000000000000000000000000000000000000000000000028152600401602060405180830381600087803b1580156134e757600080fd5b505af11580156134fb573d6000803e3d6000fd5b505050506040513d602081101561351157600080fd5b810190808051906020019092919050505060001916141561360b5760028181548110151561353b57fe5b9060005260206000200160009054906101000a900473ffffffffffffffffffffffffffffffffffffffff1673ffffffffffffffffffffffffffffffffffffffff16634a79d50c6040518163ffffffff167c0100000000000000000000000000000000000000000000000000000000028152600401602060405180830381600087803b1580156135c957600080fd5b505af11580156135dd573d6000803e3d6000fd5b505050506040513d60208110156135f357600080fd5b81019080805190602001909291905050509250613630565b60008114156136205760006001029250613630565b80806001900391505061343b565b5b5b5050919050565b6000806003600084600019166000191681526020019081526020016000205490506000811415156137445760026001820381548110151561367457fe5b9060005260206000200160009054906101000a900473ffffffffffffffffffffffffffffffffffffffff1673ffffffffffffffffffffffffffffffffffffffff166339c614a16040518163ffffffff167c0100000000000000000000000000000000000000000000000000000000028152600401602060405180830381600087803b15801561370257600080fd5b505af1158015613716573d6000803e3d6000fd5b505050506040513d602081101561372c57600080fd5b81019080805190602001909291905050509150613745565b5b50919050565b606060006060600060028054905092508460405190808252806020026020018201604052801561378a5781602001602082028038833980820191505090505b50915060008311801561379e575060008514155b156138e7578285111515156137b257600080fd5b6001830390505b848303811015156138e6576002818154811015156137d357fe5b9060005260206000200160009054906101000a900473ffffffffffffffffffffffffffffffffffffffff1673ffffffffffffffffffffffffffffffffffffffff16634a79d50c6040518163ffffffff167c0100000000000000000000000000000000000000000000000000000000028152600401602060405180830381600087803b15801561386157600080fd5b505af1158015613875573d6000803e3d6000fd5b505050506040513d602081101561388b57600080fd5b8101908080519060200190929190505050828260018603038151811015156138af57fe5b90602001906020020190600019169081600019168152505060008114156138d8578193506138eb565b8080600190039150506137b9565b5b8193505b505050919050565b6000806000806000600102925060009150600090505b600280549050811015613cad57846000191660028281548110151561392a57fe5b9060005260206000200160009054906101000a900473ffffffffffffffffffffffffffffffffffffffff1673ffffffffffffffffffffffffffffffffffffffff1663a6c3e6b96040518163ffffffff167c0100000000000000000000000000000000000000000000000000000000028152600401602060405180830381600087803b1580156139b857600080fd5b505af11580156139cc573d6000803e3d6000fd5b505050506040513d60208110156139e257600080fd5b810190808051906020019092919050505060001916148015613ae657508163ffffffff16600282815481101515613a1557fe5b9060005260206000200160009054906101000a900473ffffffffffffffffffffffffffffffffffffffff1673ffffffffffffffffffffffffffffffffffffffff166339c614a16040518163ffffffff167c0100000000000000000000000000000000000000000000000000000000028152600401602060405180830381600087803b158015613aa357600080fd5b505af1158015613ab7573d6000803e3d6000fd5b505050506040513d6020811015613acd57600080fd5b810190808051906020019092919050505063ffffffff16115b15613ca057600281815481101515613afa57fe5b9060005260206000200160009054906101000a900473ffffffffffffffffffffffffffffffffffffffff1673ffffffffffffffffffffffffffffffffffffffff16634a79d50c6040518163ffffffff167c0100000000000000000000000000000000000000000000000000000000028152600401602060405180830381600087803b158015613b8857600080fd5b505af1158015613b9c573d6000803e3d6000fd5b505050506040513d6020811015613bb257600080fd5b81019080805190602001909291905050509250600281815481101515613bd457fe5b9060005260206000200160009054906101000a900473ffffffffffffffffffffffffffffffffffffffff1673ffffffffffffffffffffffffffffffffffffffff166339c614a16040518163ffffffff167c0100000000000000000000000000000000000000000000000000000000028152600401602060405180830381600087803b158015613c6257600080fd5b505af1158015613c76573d6000803e3d6000fd5b505050506040513d6020811015613c8c57600080fd5b810190808051906020019092919050505091505b8080600101915050613909565b829350505050919050565b6000613cc333612585565b1515613cce57600080fd5b600360008360001916600019168152602001908152602001600020549050600081141515613f1057600260018203815481101515613d0857fe5b9060005260206000200160009054906101000a900473ffffffffffffffffffffffffffffffffffffffff1673ffffffffffffffffffffffffffffffffffffffff1663e6810afb33600460003373ffffffffffffffffffffffffffffffffffffffff1673ffffffffffffffffffffffffffffffffffffffff168152602001908152602001600020546040518363ffffffff167c0100000000000000000000000000000000000000000000000000000000028152600401808373ffffffffffffffffffffffffffffffffffffffff1673ffffffffffffffffffffffffffffffffffffffff16815260200182815260200192505050600060405180830381600087803b158015613e1457600080fd5b505af1158015613e28573d6000803e3d6000fd5b505050507fb9b4171ed7d8be2fdd3d7cbfc710fa9fe32417702c6b1d7c4362229814d0775f8233600260018503815481101515613e6157fe5b9060005260206000200160009054906101000a900473ffffffffffffffffffffffffffffffffffffffff166040518084600019166000191681526020018373ffffffffffffffffffffffffffffffffffffffff1673ffffffffffffffffffffffffffffffffffffffff1681526020018273ffffffffffffffffffffffffffffffffffffffff1673ffffffffffffffffffffffffffffffffffffffff168152602001935050505060405180910390a15b5050565b6000806000806000806000600102945060009350600092505b60028054905083101561430d57600283815481101515613f4957fe5b9060005260206000200160009054906101000a900473ffffffffffffffffffffffffffffffffffffffff16915060008273ffffffffffffffffffffffffffffffffffffffff16631f3e74396040518163ffffffff167c0100000000000000000000000000000000000000000000000000000000028152600401602060405180830381600087803b158015613fdc57600080fd5b505af1158015613ff0573d6000803e3d6000fd5b505050506040513d602081101561400657600080fd5b810190808051906020019092919050505063ffffffff161415156143005760048763ffffffff16106140de576140d98273ffffffffffffffffffffffffffffffffffffffff16634a79d50c6040518163ffffffff167c0100000000000000000000000000000000000000000000000000000000028152600401602060405180830381600087803b15801561409957600080fd5b505af11580156140ad573d6000803e3d6000fd5b505050506040513d60208110156140c357600080fd5b81019080805190602001909291905050506131e6565b614244565b8173ffffffffffffffffffffffffffffffffffffffff16631f3e74396040518163ffffffff167c0100000000000000000000000000000000000000000000000000000000028152600401602060405180830381600087803b15801561414257600080fd5b505af1158015614156573d6000803e3d6000fd5b505050506040513d602081101561416c57600080fd5b810190808051906020019092919050505063ffffffff168273ffffffffffffffffffffffffffffffffffffffff1663f59dfdfb896040518263ffffffff167c0100000000000000000000000000000000000000000000000000000000028152600401808263ffffffff168152602001915050602060405180830381600087803b1580156141f857600080fd5b505af115801561420c573d6000803e3d6000fd5b505050506040513d602081101561422257600080fd5b810190808051906020019092919050505063ffffffff1681151561424257fe5b045b90508363ffffffff168163ffffffff1611156142ff578173ffffffffffffffffffffffffffffffffffffffff16634a79d50c6040518163ffffffff167c0100000000000000000000000000000000000000000000000000000000028152600401602060405180830381600087803b1580156142be57600080fd5b505af11580156142d2573d6000803e3d6000fd5b505050506040513d60208110156142e857600080fd5b810190808051906020019092919050505094508093505b5b8280600101935050613f2d565b8495505050505050919050565b600080614326846109a0565b341015151561433457600080fd5b61433d846109a0565b3403915060008211156143fd573373ffffffffffffffffffffffffffffffffffffffff166108fc839081150290604051600060405180830381858888f19350505050158015614390573d6000803e3d6000fd5b507fa56865e6f4f943788c350074b8b51eac74c2839a1398f944609880c190d0f6f63383604051808373ffffffffffffffffffffffffffffffffffffffff1673ffffffffffffffffffffffffffffffffffffffff1681526020018281526020019250505060405180910390a15b6003600085600019166000191681526020019081526020016000205490506000811415156145f85760026001820381548110151561443757fe5b9060005260206000200160009054906101000a900473ffffffffffffffffffffffffffffffffffffffff1673ffffffffffffffffffffffffffffffffffffffff16636d81a01b846040518263ffffffff167c0100000000000000000000000000000000000000000000000000000000028152600401808273ffffffffffffffffffffffffffffffffffffffff1673ffffffffffffffffffffffffffffffffffffffff168152602001915050600060405180830381600087803b1580156144fc57600080fd5b505af1158015614510573d6000803e3d6000fd5b505050507fb9b4171ed7d8be2fdd3d7cbfc710fa9fe32417702c6b1d7c4362229814d0775f848460026001850381548110151561454957fe5b9060005260206000200160009054906101000a900473ffffffffffffffffffffffffffffffffffffffff166040518084600019166000191681526020018373ffffffffffffffffffffffffffffffffffffffff1673ffffffffffffffffffffffffffffffffffffffff1681526020018273ffffffffffffffffffffffffffffffffffffffff1673ffffffffffffffffffffffffffffffffffffffff168152602001935050505060405180910390a15b50505050565b60008060036000846000191660001916815260200190815260200160002054905060008114151561470b5760026001820381548110151561463b57fe5b9060005260206000200160009054906101000a900473ffffffffffffffffffffffffffffffffffffffff1673ffffffffffffffffffffffffffffffffffffffff166396aaea816040518163ffffffff167c0100000000000000000000000000000000000000000000000000000000028152600401602060405180830381600087803b1580156146c957600080fd5b505af11580156146dd573d6000803e3d6000fd5b505050506040513d60208110156146f357600080fd5b8101908080519060200190929190505050915061470c565b5b50919050565b6000806000806000600102925060009150600090505b600280549050811015614acc57846000191660028281548110151561474957fe5b9060005260206000200160009054906101000a900473ffffffffffffffffffffffffffffffffffffffff1673ffffffffffffffffffffffffffffffffffffffff166317de3a416040518163ffffffff167c0100000000000000000000000000000000000000000000000000000000028152600401602060405180830381600087803b1580156147d757600080fd5b505af11580156147eb573d6000803e3d6000fd5b505050506040513d602081101561480157600080fd5b81019080805190602001909291905050506000191614801561490557508163ffffffff1660028281548110151561483457fe5b9060005260206000200160009054906101000a900473ffffffffffffffffffffffffffffffffffffffff1673ffffffffffffffffffffffffffffffffffffffff166339c614a16040518163ffffffff167c0100000000000000000000000000000000000000000000000000000000028152600401602060405180830381600087803b1580156148c257600080fd5b505af11580156148d6573d6000803e3d6000fd5b505050506040513d60208110156148ec57600080fd5b810190808051906020019092919050505063ffffffff16115b15614abf5760028181548110151561491957fe5b9060005260206000200160009054906101000a900473ffffffffffffffffffffffffffffffffffffffff1673ffffffffffffffffffffffffffffffffffffffff16634a79d50c6040518163ffffffff167c0100000000000000000000000000000000000000000000000000000000028152600401602060405180830381600087803b1580156149a757600080fd5b505af11580156149bb573d6000803e3d6000fd5b505050506040513d60208110156149d157600080fd5b810190808051906020019092919050505092506002818154811015156149f357fe5b9060005260206000200160009054906101000a900473ffffffffffffffffffffffffffffffffffffffff1673ffffffffffffffffffffffffffffffffffffffff166339c614a16040518163ffffffff167c0100000000000000000000000000000000000000000000000000000000028152600401602060405180830381600087803b158015614a8157600080fd5b505af1158015614a95573d6000803e3d6000fd5b505050506040513d6020811015614aab57600080fd5b810190808051906020019092919050505091505b8080600101915050614728565b829350505050919050565b6060600060606000600280549050925082604051908082528060200260200182016040528015614b165781602001602082028038833980820191505090505b509150600090505b82811015614c3157600281815481101515614b3557fe5b9060005260206000200160009054906101000a900473ffffffffffffffffffffffffffffffffffffffff1673ffffffffffffffffffffffffffffffffffffffff16634a79d50c6040518163ffffffff167c0100000000000000000000000000000000000000000000000000000000028152600401602060405180830381600087803b158015614bc357600080fd5b505af1158015614bd7573d6000803e3d6000fd5b505050506040513d6020811015614bed57600080fd5b81019080805190602001909291905050508282815181101515614c0c57fe5b9060200190602002019060001916908160001916815250508080600101915050614b1e565b81935050505090565b60008060008060008060028054905093506000925060009150600090505b83811015614e3157600281815481101515614c6f57fe5b9060005260206000200160009054906101000a900473ffffffffffffffffffffffffffffffffffffffff1673ffffffffffffffffffffffffffffffffffffffff166339c614a16040518163ffffffff167c0100000000000000000000000000000000000000000000000000000000028152600401602060405180830381600087803b158015614cfd57600080fd5b505af1158015614d11573d6000803e3d6000fd5b505050506040513d6020811015614d2757600080fd5b810190808051906020019092919050505063ffffffff1683019250600281815481101515614d5157fe5b9060005260206000200160009054906101000a900473ffffffffffffffffffffffffffffffffffffffff1673ffffffffffffffffffffffffffffffffffffffff1663e76c3ba86040518163ffffffff167c0100000000000000000000000000000000000000000000000000000000028152600401602060405180830381600087803b158015614ddf57600080fd5b505af1158015614df3573d6000803e3d6000fd5b505050506040513d6020811015614e0957600080fd5b810190808051906020019092919050505063ffffffff16820191508080600101915050614c58565b8282955095505050505090915600a165627a7a723058202940fa48f8cb49cedb62e83c391c471e160f7ec52a2cdf30273bf577768696360029",
  "source": "pragma solidity ^0.4.19;\n\nimport \"./BaseContent.sol\";\n\ncontract Catalog{\n    \n    /* data about the contract itself */\n    address private owner; // address of who uploads\n    address private catalog_address; // address of the contract\n    \n    /* data about the catalog */\n    BaseContent[] public contents_list; \n    mapping (bytes32 => uint) private position_content;\n    mapping (address => uint) private premium_customers; // address of customer to expiration date as block height\n    \n    /* utilities variables */\n    uint private time_premium = 40000; // premium lasts approximately one week\n    uint private cost_content = 0.002 ether; // each content costs  about 80 cents\n    uint private cost_premium = 0.03 ether; // premium costs about 12 euro\n    uint16 private v = 100; // number of views required before payment\n    \n    /* events triggered */\n    event catalog_created (address _catalog_address);\n    event new_publication (bytes32 _title, bytes32 _author, bytes32 _genre);\n    event content_acquired (bytes32 _title, address _customer, BaseContent _content);\n    event premium_acquired (address _customer, uint _expiration);\n    event change_given (address _customer, uint _change);\n    event author_payed (bytes32 _t, uint _tot_money);\n    event catalog_destroyed ();\n\n    /* modifiers that enforce that some functions are called just by specif agents */\n    modifier byOwner() {\n        require(msg.sender == owner);\n        _;\n    }\n\n    /* constructor function of the catalog */\n    constructor () public {\n        owner = msg.sender;\n        catalog_address = address(this);\n        emit catalog_created(catalog_address);\n    }\n    \n    \n    \n    /* Functions which do not change the state of the contract */\n    function GetLengthCatalog () public view returns (uint) {\n        return contents_list.length;\n    }\n\n    /* returns the author of a content */\n    function GetAuthor(bytes32 _t) public view returns (bytes32) {\n        uint i = position_content[_t];\n        if (i != 0) {\n            return contents_list[i-1].author();\n        }\n    }\n    \n    /* returns the author of a content */\n    function GetGenre(bytes32 _t) public view returns (bytes32) {\n        uint i = position_content[_t];\n        if (i != 0) {\n            return contents_list[i-1].genre();\n        }\n    }\n    \n    /* returns the address of a content */\n    function GetAddress (bytes32 _t) public view returns (address) {\n        uint i = position_content[_t];\n        if (i != 0) {\n            return contents_list[i-1].content_address();\n        }\n    }\n    \n    /* returns the price of a content */\n    function GetPrice (bytes32 _t) public view returns (uint){\n        uint i = position_content[_t];\n        if (i != 0) {\n            return contents_list[i-1].price();\n        }\n    }\n\n    /* returns the number of views of a content */\n    function GetViews (bytes32 _t) public view returns (uint32){\n        uint i = position_content[_t];\n        if (i != 0) {\n            return contents_list[i-1].view_count();\n        }\n    }\n\n    /* returns the average rating for a content */ \n    function GetRate (bytes32 _t) public view returns (uint32) {\n        uint i = position_content[_t];\n        uint32 s = 0;\n        for(uint32 j = 0; j < 4; j++){\n            s += contents_list[i-1].feed(j);\n        }\n        return (s / (contents_list[i-1].nVotes() * 4));\n    }\n    \n    \n    /* returns the number of views for each content */\n    function GetStatistics () public view returns (bytes32[] memory, uint32[] memory){\n        uint l_length = contents_list.length;\n        bytes32[] memory titles_list = new bytes32[](l_length);\n        uint32[] memory views_list = new uint32[](l_length);\n        for (uint i = 0; i < l_length; i++) {\n            titles_list[i] = contents_list[i].title();\n            views_list[i] = contents_list[i].view_count();\n        }\n        return (titles_list, views_list);\n    }\n    \n    /* returns the list of contents without the number of views */\n    function GetContentList() public view returns (bytes32[] memory) {\n        uint l_length = contents_list.length;\n        bytes32[] memory titles_list = new bytes32[](l_length);\n        for (uint i = 0; i < l_length; i++) {\n            titles_list[i] = contents_list[i].title();\n        }\n        return titles_list;\n    }\n    \n    /* returns the list of x newest contents */\n    function GetNewContentsList (uint x) public view returns (bytes32[] memory) {\n        uint l_length = contents_list.length;\n        bytes32[] memory titles_list = new bytes32[](x);\n        if (l_length > 0 && x != 0) {\n            require(x <= l_length);\n            for (uint i = l_length - 1; i>= l_length-x; i--) {\n                titles_list[l_length - 1 - i] = contents_list[i].title();\n                if (i == 0) {\n                    return titles_list;\n                }\n            }\n        }\n        return titles_list;\n    }\n    \n    /* returns the most recent content with genre _g */\n    function GetLatestByGenre(bytes32 _g) public view returns (bytes32) {\n        uint l_length = contents_list.length;\n        if (l_length > 0) {\n            for (uint i = l_length - 1; i >= 0; i--) {\n                if (contents_list[i].genre() == _g) {\n                    return contents_list[i].title();\n                }\n                if (i == 0) {\n                    return 0x0;\n                }\n            }\n        }\n    }\n    \n    /* returns the content with genre _g with max views */\n    function GetMostPopularByGenre (bytes32 _g) public view returns (bytes32) {\n        bytes32 most_popular = 0;\n        uint32 most_views = 0;\n        for (uint i = 0; i < contents_list.length; i++) {\n            if (contents_list[i].genre() == _g && contents_list[i].view_count() > most_views) {\n                most_popular = contents_list[i].title();\n                most_views = contents_list[i].view_count();\n            }\n        }\n        return most_popular;\n    }\n    \n    /* returns the most recent content of the author _a */\n    function GetLatestByAuthor (bytes32 _a) public view returns (bytes32) {\n        uint l_length = contents_list.length;\n        if (l_length > 0) {\n            for (uint i = l_length - 1; i >= 0; i--) {\n                if (contents_list[i].author() == _a) {\n                    return contents_list[i].title();\n                }\n                if (i == 0) {\n                    return 0x0;\n                }\n            }\n        }\n    }\n    \n    /* returns the content with most views of the author _a */\n    function GetMostPopularByAuthor (bytes32 _a) public view returns (bytes32){\n        bytes32 most_popular = 0;\n        uint32 most_views = 0;\n        for (uint i = 0; i < contents_list.length; i++) {\n            if (contents_list[i].author() == _a && contents_list[i].view_count() > most_views) {\n                most_popular = contents_list[i].title();\n                most_views = contents_list[i].view_count();\n            }\n        }\n        return most_popular;\n    }\n    \n    /* returns the content with highest rating for feedback category _y \n    (or highest average of all ratings if y is not specified) */\n    function GetMostRated (uint32 _y) public view returns (bytes32){\n        bytes32 most_rated = 0;\n        uint32 highest_rating = 0;\n        for (uint i = 0; i < contents_list.length; i++) {\n            BaseContent bc = contents_list[i];\n            if (bc.nVotes() != 0 ) {\n                uint32 r = (_y < 4)? (bc.feed(_y) / bc.nVotes()) : GetRate(bc.title());\n                if (r > highest_rating) {\n                    most_rated = bc.title();\n                    highest_rating = r;\n                }\n            }\n        }\n        return most_rated;\n    }\n    \n     /* returns the content with highest rating for feedback category _y \n    (or highest average of all ratings if y is not specified) with genre _g */\n    function GetMostRatedByGenre (bytes32 _g, uint32 _y) public view returns (bytes32){\n        bytes32 most_rated = 0;\n        uint32 highest_rating = 0;\n        for (uint i = 0; i < contents_list.length; i++) {\n            BaseContent bc = contents_list[i];\n            if (bc.genre() == _g && bc.nVotes() != 0 ) {\n                uint32 r = (_y < 4)? (bc.feed(_y) / bc.nVotes()) : GetRate(bc.title());\n                if (r > highest_rating) {\n                    most_rated = bc.title();\n                    highest_rating = r;\n                }\n            }\n        }\n        return most_rated;\n    }\n    \n    /* returns the content with highest rating for feedback category _y \n    (or highest average of all ratings if y is not specified) with author _a */\n    function GetMostRatedByAuthor (bytes32 _a, uint32 _y) public view returns (bytes32){\n        bytes32 most_rated = 0;\n        uint32 highest_rating = 0;\n        for (uint i = 0; i < contents_list.length; i++) {\n            BaseContent bc = contents_list[i];\n            if (bc.author() == _a && bc.nVotes() != 0 ) {\n                uint32 r = (_y < 4)? (bc.feed(_y) / bc.nVotes()) : GetRate(bc.title());\n                if (r > highest_rating) {\n                    most_rated = bc.title();\n                    highest_rating = r;\n                }\n            }\n        }\n        return most_rated;\n    }\n    \n    \n    /* returns true if _c is a valid premium account */\n    function isPremium (address _c) public view returns(bool) {\n        return premium_customers[_c] > block.number;\n    }\n    \n    \n    \n    \n    \n    /* Functions which modify the state of the contract */\n    \n    /* submits a new content _c to the catalog */\n    function AddContent (BaseContent _c) external returns (uint){\n        BaseContent cm = _c;\n        require (cm.owner() == msg.sender && cm.catalog() == catalog_address);\n        contents_list.push(cm);\n        position_content[cm.title()] = contents_list.length;\n        emit new_publication (cm.title(), cm.author(), cm.genre());\n        return contents_list.length;\n    }\n    \n    /* pays to access content _t */\n    function GetContent (bytes32 _t) external payable {\n        require(msg.value >= GetPrice(_t));\n        uint change = msg.value - GetPrice(_t);\n        if (change > 0) {\n            msg.sender.transfer(change);\n            emit change_given (msg.sender, change);\n        }\n        uint i = position_content[_t];\n        if (i != 0) {\n            contents_list[i-1].Authorize(msg.sender);\n            emit content_acquired (_t, msg.sender, contents_list[i-1]);\n        }\n    }\n    \n    /* premium accounts can requests access to content _t without paying */\n    function GetContentPremium (bytes32 _t) external {\n        require(isPremium(msg.sender));\n        uint i = position_content[_t];\n        if (i != 0) {\n            contents_list[i-1].AuthorizePremium(msg.sender, premium_customers[msg.sender]);\n            emit content_acquired (_t, msg.sender, contents_list[i-1]);\n        }\n    }\n    \n    /* pays for granting access to content _t to the user _u */\n    function GiftContent  (bytes32 _t, address _u) external payable {\n        require(msg.value >= GetPrice(_t));\n        uint change = msg.value - GetPrice(_t);\n        if (change > 0) {\n            msg.sender.transfer(change);\n            emit change_given (msg.sender, change);\n        }\n        uint i = position_content[_t];\n        if (i != 0) {\n            contents_list[i-1].Authorize(_u);\n            emit content_acquired (_t, _u, contents_list[i-1]);\n        }\n    }\n    \n    /* pays for granting a premium account to the user _u */\n    function GiftPremium  (address _u) external payable {\n        require(msg.value >= cost_premium);\n        uint change = msg.value - cost_premium;\n        if (change > 0) {\n            msg.sender.transfer(change);\n            emit change_given (msg.sender, change);\n        }\n        premium_customers[_u] = block.number + time_premium;\n        emit premium_acquired (_u, premium_customers[_u]);\n    }\n    \n    /* buys a new premium subscription */\n    function BuyPremium () external payable {\n        require(msg.value >= cost_premium);\n        uint change = msg.value - cost_premium;\n        if (change > 0) {\n            msg.sender.transfer(change);\n            emit change_given (msg.sender, change);\n        }\n        premium_customers[msg.sender] = block.number + time_premium;\n        emit premium_acquired (msg.sender, premium_customers[msg.sender]);\n    }\n    \n    /* pay an author a multiple of v views*/\n    function PayAuthor (bytes32 _t) external {\n        uint i = position_content[_t];\n        if (i != 0) {\n            uint32 tot_views = contents_list[i-1].view_count();\n            uint32 to_pay = tot_views - contents_list[i-1].views_already_payed();\n            if (to_pay >= v) {\n                contents_list[i-1].owner().transfer(to_pay * cost_content);\n                contents_list[i-1].Payed(to_pay);\n                emit author_payed (_t, to_pay * cost_content);\n            }\n        }\n    }\n    \n    /* returns the total number of views and the total number of views that has to payed */\n    function GetTotalViews () private view returns (uint, uint) {\n        uint l_length = contents_list.length; \n        uint tot_views = 0;\n        uint tot_already_payed = 0;\n        for (uint i = 0; i < l_length; i++) {\n            tot_views = tot_views + contents_list[i].view_count();\n            tot_already_payed = tot_already_payed + contents_list[i].views_already_payed();\n        }\n        return (tot_views, tot_already_payed);\n    }\n    \n    /* the catalog can be destructed */\n    function KillCatalog () external byOwner {\n        uint tot_views;\n        uint tot_already_payed;\n        (tot_views, tot_already_payed) = GetTotalViews();\n        uint money_remaining_views = (tot_views - tot_already_payed) * cost_content; \n        uint money_per_view = (catalog_address.balance - money_remaining_views) / tot_views;\n        for (uint i = 0; i < contents_list.length; i++) {\n            uint remaining_money = (contents_list[i].view_count() - contents_list[i].views_already_payed()) * cost_content;\n            uint proportional_money = contents_list[i].view_count() * money_per_view;\n            uint tot_money = remaining_money + proportional_money;\n            contents_list[i].owner().transfer(tot_money);\n            emit author_payed (contents_list[i].title(), tot_money);\n        }\n        emit catalog_destroyed ();\n        selfdestruct(catalog_address);\n    }\n}",
  "sourcePath": "/home/fsbolgi/Documents/cobra_dapp/contracts/Catalog.sol",
  "compiler": {
    "name": "solc",
    "version": "0.4.24+commit.e67f0147.Emscripten.clang"
  },
  "schemaVersion": "2.0.1",
  "updatedAt": "2018-12-11T09:59:43.079Z"
}