{
  "contractName": "Catalog",
  "abi": [
    {
      "constant": true,
      "inputs": [
        {
          "name": "",
          "type": "uint256"
        }
      ],
      "name": "contents_list",
      "outputs": [
        {
          "name": "",
          "type": "address"
        }
      ],
      "payable": false,
      "stateMutability": "view",
      "type": "function"
    },
    {
      "constant": true,
      "inputs": [],
      "name": "cost_premium",
      "outputs": [
        {
          "name": "",
          "type": "uint256"
        }
      ],
      "payable": false,
      "stateMutability": "view",
      "type": "function"
    },
    {
      "constant": true,
      "inputs": [
        {
          "name": "",
          "type": "bytes32"
        }
      ],
      "name": "position_content",
      "outputs": [
        {
          "name": "",
          "type": "uint256"
        }
      ],
      "payable": false,
      "stateMutability": "view",
      "type": "function"
    },
    {
      "constant": true,
      "inputs": [],
      "name": "v",
      "outputs": [
        {
          "name": "",
          "type": "uint16"
        }
      ],
      "payable": false,
      "stateMutability": "view",
      "type": "function"
    },
    {
      "constant": true,
      "inputs": [],
      "name": "owner",
      "outputs": [
        {
          "name": "",
          "type": "address"
        }
      ],
      "payable": false,
      "stateMutability": "view",
      "type": "function"
    },
    {
      "constant": true,
      "inputs": [
        {
          "name": "",
          "type": "address"
        }
      ],
      "name": "premium_customers",
      "outputs": [
        {
          "name": "",
          "type": "uint256"
        }
      ],
      "payable": false,
      "stateMutability": "view",
      "type": "function"
    },
    {
      "constant": true,
      "inputs": [
        {
          "name": "",
          "type": "address"
        }
      ],
      "name": "notifications_to_see",
      "outputs": [
        {
          "name": "",
          "type": "uint256"
        }
      ],
      "payable": false,
      "stateMutability": "view",
      "type": "function"
    },
    {
      "constant": true,
      "inputs": [
        {
          "name": "",
          "type": "address"
        },
        {
          "name": "",
          "type": "uint256"
        }
      ],
      "name": "notifications_preferences",
      "outputs": [
        {
          "name": "",
          "type": "bytes32"
        }
      ],
      "payable": false,
      "stateMutability": "view",
      "type": "function"
    },
    {
      "inputs": [],
      "payable": false,
      "stateMutability": "nonpayable",
      "type": "constructor"
    },
    {
      "anonymous": false,
      "inputs": [
        {
          "indexed": false,
          "name": "_title",
          "type": "bytes32"
        },
        {
          "indexed": false,
          "name": "_author",
          "type": "bytes32"
        },
        {
          "indexed": false,
          "name": "_genre",
          "type": "bytes32"
        },
        {
          "indexed": false,
          "name": "_owner",
          "type": "address"
        }
      ],
      "name": "new_publication",
      "type": "event"
    },
    {
      "anonymous": false,
      "inputs": [
        {
          "indexed": false,
          "name": "_title",
          "type": "bytes32"
        },
        {
          "indexed": false,
          "name": "_sender",
          "type": "address"
        },
        {
          "indexed": false,
          "name": "_receiver",
          "type": "address"
        },
        {
          "indexed": false,
          "name": "_gifted",
          "type": "uint32"
        }
      ],
      "name": "content_acquired",
      "type": "event"
    },
    {
      "anonymous": false,
      "inputs": [
        {
          "indexed": false,
          "name": "_sender",
          "type": "address"
        },
        {
          "indexed": false,
          "name": "_receiver",
          "type": "address"
        },
        {
          "indexed": false,
          "name": "_gifted",
          "type": "uint32"
        }
      ],
      "name": "premium_acquired",
      "type": "event"
    },
    {
      "anonymous": false,
      "inputs": [
        {
          "indexed": false,
          "name": "_t",
          "type": "bytes32"
        },
        {
          "indexed": false,
          "name": "_owner",
          "type": "address"
        },
        {
          "indexed": false,
          "name": "_tot_money",
          "type": "uint256"
        }
      ],
      "name": "author_payed",
      "type": "event"
    },
    {
      "anonymous": false,
      "inputs": [
        {
          "indexed": false,
          "name": "_account",
          "type": "address"
        },
        {
          "indexed": false,
          "name": "_title",
          "type": "bytes32"
        },
        {
          "indexed": false,
          "name": "_v",
          "type": "uint256"
        }
      ],
      "name": "v_reached",
      "type": "event"
    },
    {
      "anonymous": false,
      "inputs": [
        {
          "indexed": false,
          "name": "_customer",
          "type": "address"
        },
        {
          "indexed": false,
          "name": "_title",
          "type": "bytes32"
        }
      ],
      "name": "content_consumed",
      "type": "event"
    },
    {
      "anonymous": false,
      "inputs": [
        {
          "indexed": false,
          "name": "_customer",
          "type": "address"
        },
        {
          "indexed": false,
          "name": "_title",
          "type": "bytes32"
        }
      ],
      "name": "rate_left",
      "type": "event"
    },
    {
      "constant": true,
      "inputs": [],
      "name": "GetLengthCatalog",
      "outputs": [
        {
          "name": "",
          "type": "uint256"
        }
      ],
      "payable": false,
      "stateMutability": "view",
      "type": "function"
    },
    {
      "constant": true,
      "inputs": [
        {
          "name": "_t",
          "type": "bytes32"
        }
      ],
      "name": "GetAuthor",
      "outputs": [
        {
          "name": "",
          "type": "bytes32"
        }
      ],
      "payable": false,
      "stateMutability": "view",
      "type": "function"
    },
    {
      "constant": true,
      "inputs": [
        {
          "name": "_t",
          "type": "bytes32"
        }
      ],
      "name": "GetGenre",
      "outputs": [
        {
          "name": "",
          "type": "bytes32"
        }
      ],
      "payable": false,
      "stateMutability": "view",
      "type": "function"
    },
    {
      "constant": true,
      "inputs": [
        {
          "name": "_t",
          "type": "bytes32"
        }
      ],
      "name": "GetPrice",
      "outputs": [
        {
          "name": "",
          "type": "uint256"
        }
      ],
      "payable": false,
      "stateMutability": "view",
      "type": "function"
    },
    {
      "constant": true,
      "inputs": [
        {
          "name": "_t",
          "type": "bytes32"
        }
      ],
      "name": "GetViews",
      "outputs": [
        {
          "name": "",
          "type": "uint32"
        }
      ],
      "payable": false,
      "stateMutability": "view",
      "type": "function"
    },
    {
      "constant": true,
      "inputs": [
        {
          "name": "_t",
          "type": "bytes32"
        }
      ],
      "name": "GetOwner",
      "outputs": [
        {
          "name": "",
          "type": "address"
        }
      ],
      "payable": false,
      "stateMutability": "view",
      "type": "function"
    },
    {
      "constant": true,
      "inputs": [
        {
          "name": "_u",
          "type": "address"
        }
      ],
      "name": "GetNotifPreferences",
      "outputs": [
        {
          "name": "",
          "type": "bytes32[]"
        }
      ],
      "payable": false,
      "stateMutability": "view",
      "type": "function"
    },
    {
      "constant": false,
      "inputs": [
        {
          "name": "_u",
          "type": "address"
        },
        {
          "name": "_list",
          "type": "bytes32[]"
        }
      ],
      "name": "SetNotifPreferences",
      "outputs": [],
      "payable": false,
      "stateMutability": "nonpayable",
      "type": "function"
    },
    {
      "constant": false,
      "inputs": [
        {
          "name": "_eventID",
          "type": "uint256"
        },
        {
          "name": "_account",
          "type": "address"
        },
        {
          "name": "_t",
          "type": "bytes32"
        },
        {
          "name": "_v",
          "type": "uint256"
        }
      ],
      "name": "EmitEvent",
      "outputs": [],
      "payable": false,
      "stateMutability": "nonpayable",
      "type": "function"
    },
    {
      "constant": true,
      "inputs": [
        {
          "name": "_t",
          "type": "bytes32"
        }
      ],
      "name": "GetRate",
      "outputs": [
        {
          "name": "",
          "type": "uint32"
        }
      ],
      "payable": false,
      "stateMutability": "view",
      "type": "function"
    },
    {
      "constant": true,
      "inputs": [],
      "name": "GetStatistics",
      "outputs": [
        {
          "name": "",
          "type": "bytes32[]"
        },
        {
          "name": "",
          "type": "uint32[]"
        }
      ],
      "payable": false,
      "stateMutability": "view",
      "type": "function"
    },
    {
      "constant": true,
      "inputs": [],
      "name": "GetContentList",
      "outputs": [
        {
          "name": "",
          "type": "bytes32[]"
        }
      ],
      "payable": false,
      "stateMutability": "view",
      "type": "function"
    },
    {
      "constant": true,
      "inputs": [
        {
          "name": "x",
          "type": "uint256"
        }
      ],
      "name": "GetNewContentsList",
      "outputs": [
        {
          "name": "",
          "type": "bytes32[]"
        }
      ],
      "payable": false,
      "stateMutability": "view",
      "type": "function"
    },
    {
      "constant": true,
      "inputs": [
        {
          "name": "_g",
          "type": "bytes32"
        }
      ],
      "name": "GetLatestByGenre",
      "outputs": [
        {
          "name": "",
          "type": "bytes32"
        }
      ],
      "payable": false,
      "stateMutability": "view",
      "type": "function"
    },
    {
      "constant": true,
      "inputs": [
        {
          "name": "_g",
          "type": "bytes32"
        }
      ],
      "name": "GetMostPopularByGenre",
      "outputs": [
        {
          "name": "",
          "type": "bytes32"
        }
      ],
      "payable": false,
      "stateMutability": "view",
      "type": "function"
    },
    {
      "constant": true,
      "inputs": [
        {
          "name": "_a",
          "type": "bytes32"
        }
      ],
      "name": "GetLatestByAuthor",
      "outputs": [
        {
          "name": "",
          "type": "bytes32"
        }
      ],
      "payable": false,
      "stateMutability": "view",
      "type": "function"
    },
    {
      "constant": true,
      "inputs": [
        {
          "name": "_a",
          "type": "bytes32"
        }
      ],
      "name": "GetMostPopularByAuthor",
      "outputs": [
        {
          "name": "",
          "type": "bytes32"
        }
      ],
      "payable": false,
      "stateMutability": "view",
      "type": "function"
    },
    {
      "constant": true,
      "inputs": [],
      "name": "GetMostPopular",
      "outputs": [
        {
          "name": "",
          "type": "bytes32"
        }
      ],
      "payable": false,
      "stateMutability": "view",
      "type": "function"
    },
    {
      "constant": true,
      "inputs": [
        {
          "name": "_y",
          "type": "uint32"
        }
      ],
      "name": "GetMostRated",
      "outputs": [
        {
          "name": "",
          "type": "bytes32"
        }
      ],
      "payable": false,
      "stateMutability": "view",
      "type": "function"
    },
    {
      "constant": true,
      "inputs": [
        {
          "name": "_g",
          "type": "bytes32"
        },
        {
          "name": "_y",
          "type": "uint32"
        }
      ],
      "name": "GetMostRatedByGenre",
      "outputs": [
        {
          "name": "",
          "type": "bytes32"
        }
      ],
      "payable": false,
      "stateMutability": "view",
      "type": "function"
    },
    {
      "constant": true,
      "inputs": [
        {
          "name": "_a",
          "type": "bytes32"
        },
        {
          "name": "_y",
          "type": "uint32"
        }
      ],
      "name": "GetMostRatedByAuthor",
      "outputs": [
        {
          "name": "",
          "type": "bytes32"
        }
      ],
      "payable": false,
      "stateMutability": "view",
      "type": "function"
    },
    {
      "constant": true,
      "inputs": [
        {
          "name": "_c",
          "type": "address"
        }
      ],
      "name": "isPremium",
      "outputs": [
        {
          "name": "",
          "type": "bool"
        }
      ],
      "payable": false,
      "stateMutability": "view",
      "type": "function"
    },
    {
      "constant": false,
      "inputs": [
        {
          "name": "_c",
          "type": "address"
        }
      ],
      "name": "AddContent",
      "outputs": [
        {
          "name": "",
          "type": "uint256"
        }
      ],
      "payable": false,
      "stateMutability": "nonpayable",
      "type": "function"
    },
    {
      "constant": false,
      "inputs": [
        {
          "name": "_t",
          "type": "bytes32"
        }
      ],
      "name": "GetContent",
      "outputs": [],
      "payable": true,
      "stateMutability": "payable",
      "type": "function"
    },
    {
      "constant": false,
      "inputs": [
        {
          "name": "_t",
          "type": "bytes32"
        }
      ],
      "name": "GetContentPremium",
      "outputs": [],
      "payable": false,
      "stateMutability": "nonpayable",
      "type": "function"
    },
    {
      "constant": false,
      "inputs": [
        {
          "name": "_t",
          "type": "bytes32"
        },
        {
          "name": "_u",
          "type": "address"
        }
      ],
      "name": "GiftContent",
      "outputs": [],
      "payable": true,
      "stateMutability": "payable",
      "type": "function"
    },
    {
      "constant": false,
      "inputs": [],
      "name": "BuyPremium",
      "outputs": [],
      "payable": true,
      "stateMutability": "payable",
      "type": "function"
    },
    {
      "constant": false,
      "inputs": [
        {
          "name": "_u",
          "type": "address"
        }
      ],
      "name": "GiftPremium",
      "outputs": [],
      "payable": true,
      "stateMutability": "payable",
      "type": "function"
    },
    {
      "constant": false,
      "inputs": [
        {
          "name": "_a",
          "type": "address"
        },
        {
          "name": "_x",
          "type": "uint256"
        }
      ],
      "name": "SetNotification",
      "outputs": [],
      "payable": false,
      "stateMutability": "nonpayable",
      "type": "function"
    },
    {
      "constant": false,
      "inputs": [
        {
          "name": "_t",
          "type": "bytes32"
        }
      ],
      "name": "PayAuthor",
      "outputs": [],
      "payable": false,
      "stateMutability": "nonpayable",
      "type": "function"
    },
    {
      "constant": false,
      "inputs": [],
      "name": "KillCatalog",
      "outputs": [],
      "payable": false,
      "stateMutability": "nonpayable",
      "type": "function"
    }
  ],
  "bytecode": "0x6080604052619c406007556703782dace9d900006008556007600960006101000a81548161ffff021916908361ffff16021790555034801561004057600080fd5b50336000806101000a81548173ffffffffffffffffffffffffffffffffffffffff021916908373ffffffffffffffffffffffffffffffffffffffff16021790555030600160006101000a81548173ffffffffffffffffffffffffffffffffffffffff021916908373ffffffffffffffffffffffffffffffffffffffff16021790555061579080620000d26000396000f3006080604052600436106101e3576000357c0100000000000000000000000000000000000000000000000000000000900463ffffffff168063043cdcf0146101e85780630643b01b1461022d5780630c30ad89146102b35780630d634eb5146102e45780630daeb713146103415780632669e0ad146103b25780632eefa37f146103ff5780632fa56ef3146104095780633a20d6761461046e5780633c027d8a1461049257806341c2b619146104a95780634d94c887146105165780634dc1e1681461054157806351d25fe61461057757806358e5a4741461062b57806361770139146106785780636e806f18146106a3578063742fe0d4146106e85780637c2efcba146107435780637faa1f93146107765780638da5cb5b146107d35780638ded2d731461082a5780638e2b47cd1461088157806398eac650146108ce5780639cbc7a311461091b578063aa51403714610972578063ab0652e9146109c3578063ab717f47146109f6578063aeed4de314610a4d578063b1de677414610a9a578063bfe59cfb14610b32578063d1628fb014610b83578063d94cf6e014610c05578063d97c006514610c52578063df1263d514610c83578063f15b363a14610cd2578063f867cff714610d16578063f888738414610d63578063ff70f85914610dcc575b600080fd5b3480156101f457600080fd5b506102176004803603810190808035600019169060200190929190505050610e38565b6040518082815260200191505060405180910390f35b34801561023957600080fd5b506102b1600480360381019080803573ffffffffffffffffffffffffffffffffffffffff16906020019092919080359060200190820180359060200190808060200260200160405190810160405280939291908181526020018383602002808284378201915050505050509192919290505050610f4c565b005b3480156102bf57600080fd5b506102e26004803603810190808035600019169060200190929190505050610fa4565b005b3480156102f057600080fd5b506103236004803603810190808035600019169060200190929190803563ffffffff169060200190929190505050611608565b60405180826000191660001916815260200191505060405180910390f35b34801561034d57600080fd5b506103706004803603810190808035600019169060200190929190505050611ac3565b604051808273ffffffffffffffffffffffffffffffffffffffff1673ffffffffffffffffffffffffffffffffffffffff16815260200191505060405180910390f35b3480156103be57600080fd5b506103e16004803603810190808035600019169060200190929190505050611bd7565b60405180826000191660001916815260200191505060405180910390f35b610407611ceb565b005b34801561041557600080fd5b5061046c60048036038101908080359060200190929190803573ffffffffffffffffffffffffffffffffffffffff169060200190929190803560001916906020019092919080359060200190929190505050611deb565b005b6104906004803603810190808035600019169060200190929190505050611f70565b005b34801561049e57600080fd5b506104a761215a565b005b3480156104b557600080fd5b506104d460048036038101908080359060200190929190505050612692565b604051808273ffffffffffffffffffffffffffffffffffffffff1673ffffffffffffffffffffffffffffffffffffffff16815260200191505060405180910390f35b34801561052257600080fd5b5061052b6126d0565b6040518082815260200191505060405180910390f35b610575600480360381019080803573ffffffffffffffffffffffffffffffffffffffff1690602001909291905050506126dd565b005b34801561058357600080fd5b5061058c6127de565b604051808060200180602001838103835285818151815260200191508051906020019060200280838360005b838110156105d35780820151818401526020810190506105b8565b50505050905001838103825284818151815260200191508051906020019060200280838360005b838110156106155780820151818401526020810190506105fa565b5050505090500194505050505060405180910390f35b34801561063757600080fd5b5061065a6004803603810190808035600019169060200190929190505050612a7c565b60405180826000191660001916815260200191505060405180910390f35b34801561068457600080fd5b5061068d612b90565b6040518082815260200191505060405180910390f35b3480156106af57600080fd5b506106d26004803603810190808035600019169060200190929190505050612b96565b6040518082815260200191505060405180910390f35b3480156106f457600080fd5b50610729600480360381019080803573ffffffffffffffffffffffffffffffffffffffff169060200190929190505050612bae565b604051808215151515815260200191505060405180910390f35b34801561074f57600080fd5b50610758612bf9565b604051808261ffff1661ffff16815260200191505060405180910390f35b34801561078257600080fd5b506107b56004803603810190808035600019169060200190929190803563ffffffff169060200190929190505050612c0d565b60405180826000191660001916815260200191505060405180910390f35b3480156107df57600080fd5b506107e86130c8565b604051808273ffffffffffffffffffffffffffffffffffffffff1673ffffffffffffffffffffffffffffffffffffffff16815260200191505060405180910390f35b34801561083657600080fd5b5061086b600480360381019080803573ffffffffffffffffffffffffffffffffffffffff1690602001909291905050506130ed565b6040518082815260200191505060405180910390f35b34801561088d57600080fd5b506108b06004803603810190808035600019169060200190929190505050613704565b60405180826000191660001916815260200191505060405180910390f35b3480156108da57600080fd5b50610919600480360381019080803573ffffffffffffffffffffffffffffffffffffffff1690602001909291908035906020019092919050505061391d565b005b34801561092757600080fd5b5061095c600480360381019080803573ffffffffffffffffffffffffffffffffffffffff169060200190929190505050613965565b6040518082815260200191505060405180910390f35b34801561097e57600080fd5b506109a1600480360381019080803560001916906020019092919050505061397d565b604051808263ffffffff1663ffffffff16815260200191505060405180910390f35b3480156109cf57600080fd5b506109d8613c3a565b60405180826000191660001916815260200191505060405180910390f35b348015610a0257600080fd5b50610a37600480360381019080803573ffffffffffffffffffffffffffffffffffffffff169060200190929190505050613f13565b6040518082815260200191505060405180910390f35b348015610a5957600080fd5b50610a7c6004803603810190808035600019169060200190929190505050613f2b565b60405180826000191660001916815260200191505060405180910390f35b348015610aa657600080fd5b50610adb600480360381019080803573ffffffffffffffffffffffffffffffffffffffff169060200190929190505050614144565b6040518080602001828103825283818151815260200191508051906020019060200280838360005b83811015610b1e578082015181840152602081019050610b03565b505050509050019250505060405180910390f35b348015610b3e57600080fd5b50610b6160048036038101908080356000191690602001909291905050506141df565b604051808263ffffffff1663ffffffff16815260200191505060405180910390f35b348015610b8f57600080fd5b50610bae600480360381019080803590602001909291905050506142f3565b6040518080602001828103825283818151815260200191508051906020019060200280838360005b83811015610bf1578082015181840152602081019050610bd6565b505050509050019250505060405180910390f35b348015610c1157600080fd5b50610c34600480360381019080803560001916906020019092919050505061449b565b60405180826000191660001916815260200191505060405180910390f35b348015610c5e57600080fd5b50610c816004803603810190808035600019169060200190929190505050614860565b005b348015610c8f57600080fd5b50610cb4600480360381019080803563ffffffff169060200190929190505050614a8f565b60405180826000191660001916815260200191505060405180910390f35b610d146004803603810190808035600019169060200190929190803573ffffffffffffffffffffffffffffffffffffffff169060200190929190505050614e98565b005b348015610d2257600080fd5b50610d456004803603810190808035600019169060200190929190505050615083565b60405180826000191660001916815260200191505060405180910390f35b348015610d6f57600080fd5b50610dae600480360381019080803573ffffffffffffffffffffffffffffffffffffffff16906020019092919080359060200190929190505050615448565b60405180826000191660001916815260200191505060405180910390f35b348015610dd857600080fd5b50610de1615478565b6040518080602001828103825283818151815260200191508051906020019060200280838360005b83811015610e24578082015181840152602081019050610e09565b505050509050019250505060405180910390f35b600080600360008460001916600019168152602001908152602001600020549050600081141515610f4557600260018203815481101515610e7557fe5b9060005260206000200160009054906101000a900473ffffffffffffffffffffffffffffffffffffffff1673ffffffffffffffffffffffffffffffffffffffff1663a035b1fe6040518163ffffffff167c0100000000000000000000000000000000000000000000000000000000028152600401602060405180830381600087803b158015610f0357600080fd5b505af1158015610f17573d6000803e3d6000fd5b505050506040513d6020811015610f2d57600080fd5b81019080805190602001909291905050509150610f46565b5b50919050565b80600660008473ffffffffffffffffffffffffffffffffffffffff1673ffffffffffffffffffffffffffffffffffffffff1681526020019081526020016000209080519060200190610f9f9291906156ec565b505050565b60008060008060036000866000191660001916815260200190815260200160002054935060008414151561160157600260018503815481101515610fe457fe5b9060005260206000200160009054906101000a900473ffffffffffffffffffffffffffffffffffffffff1673ffffffffffffffffffffffffffffffffffffffff166339c614a16040518163ffffffff167c0100000000000000000000000000000000000000000000000000000000028152600401602060405180830381600087803b15801561107257600080fd5b505af1158015611086573d6000803e3d6000fd5b505050506040513d602081101561109c57600080fd5b810190808051906020019092919050505092506002600185038154811015156110c157fe5b9060005260206000200160009054906101000a900473ffffffffffffffffffffffffffffffffffffffff1673ffffffffffffffffffffffffffffffffffffffff1663e76c3ba86040518163ffffffff167c0100000000000000000000000000000000000000000000000000000000028152600401602060405180830381600087803b15801561114f57600080fd5b505af1158015611163573d6000803e3d6000fd5b505050506040513d602081101561117957600080fd5b810190808051906020019092919050505083039150600960009054906101000a900461ffff1661ffff168263ffffffff161015156116005760326111bc8661397d565b63ffffffff166002600187038154811015156111d457fe5b9060005260206000200160009054906101000a900473ffffffffffffffffffffffffffffffffffffffff1673ffffffffffffffffffffffffffffffffffffffff1663a035b1fe6040518163ffffffff167c0100000000000000000000000000000000000000000000000000000000028152600401602060405180830381600087803b15801561126257600080fd5b505af1158015611276573d6000803e3d6000fd5b505050506040513d602081101561128c57600080fd5b8101908080519060200190929190505050028115156112a757fe5b0490506002600185038154811015156112bc57fe5b9060005260206000200160009054906101000a900473ffffffffffffffffffffffffffffffffffffffff1673ffffffffffffffffffffffffffffffffffffffff16638da5cb5b6040518163ffffffff167c0100000000000000000000000000000000000000000000000000000000028152600401602060405180830381600087803b15801561134a57600080fd5b505af115801561135e573d6000803e3d6000fd5b505050506040513d602081101561137457600080fd5b810190808051906020019092919050505073ffffffffffffffffffffffffffffffffffffffff166108fc828463ffffffff16029081150290604051600060405180830381858888f193505050501580156113d2573d6000803e3d6000fd5b506002600185038154811015156113e557fe5b9060005260206000200160009054906101000a900473ffffffffffffffffffffffffffffffffffffffff1673ffffffffffffffffffffffffffffffffffffffff1663e9df3010836040518263ffffffff167c0100000000000000000000000000000000000000000000000000000000028152600401808263ffffffff1663ffffffff168152602001915050600060405180830381600087803b15801561148a57600080fd5b505af115801561149e573d6000803e3d6000fd5b505050507fa2cf96ee99940b1bfb3322d3e01f3eaa7324d54f11d177846fcaeca307103359856002600187038154811015156114d657fe5b9060005260206000200160009054906101000a900473ffffffffffffffffffffffffffffffffffffffff1673ffffffffffffffffffffffffffffffffffffffff16638da5cb5b6040518163ffffffff167c0100000000000000000000000000000000000000000000000000000000028152600401602060405180830381600087803b15801561156457600080fd5b505af1158015611578573d6000803e3d6000fd5b505050506040513d602081101561158e57600080fd5b8101908080519060200190929190505050838563ffffffff16026040518084600019166000191681526020018373ffffffffffffffffffffffffffffffffffffffff1673ffffffffffffffffffffffffffffffffffffffff168152602001828152602001935050505060405180910390a15b5b5050505050565b6000806000806000806000600102945060009350600092505b600280549050831015611ab55760028381548110151561163d57fe5b9060005260206000200160009054906101000a900473ffffffffffffffffffffffffffffffffffffffff16915087600019168273ffffffffffffffffffffffffffffffffffffffff166317de3a416040518163ffffffff167c0100000000000000000000000000000000000000000000000000000000028152600401602060405180830381600087803b1580156116d357600080fd5b505af11580156116e7573d6000803e3d6000fd5b505050506040513d60208110156116fd57600080fd5b8101908080519060200190929190505050600019161480156117c4575060008273ffffffffffffffffffffffffffffffffffffffff16631f3e74396040518163ffffffff167c0100000000000000000000000000000000000000000000000000000000028152600401602060405180830381600087803b15801561178057600080fd5b505af1158015611794573d6000803e3d6000fd5b505050506040513d60208110156117aa57600080fd5b810190808051906020019092919050505063ffffffff1614155b15611aa85760048763ffffffff16106118835761187e8273ffffffffffffffffffffffffffffffffffffffff16634a79d50c6040518163ffffffff167c0100000000000000000000000000000000000000000000000000000000028152600401602060405180830381600087803b15801561183e57600080fd5b505af1158015611852573d6000803e3d6000fd5b505050506040513d602081101561186857600080fd5b810190808051906020019092919050505061397d565b6119ec565b8173ffffffffffffffffffffffffffffffffffffffff16631f3e74396040518163ffffffff167c0100000000000000000000000000000000000000000000000000000000028152600401602060405180830381600087803b1580156118e757600080fd5b505af11580156118fb573d6000803e3d6000fd5b505050506040513d602081101561191157600080fd5b810190808051906020019092919050505063ffffffff16600a8373ffffffffffffffffffffffffffffffffffffffff1663f59dfdfb8a6040518263ffffffff167c0100000000000000000000000000000000000000000000000000000000028152600401808263ffffffff168152602001915050602060405180830381600087803b15801561199f57600080fd5b505af11580156119b3573d6000803e3d6000fd5b505050506040513d60208110156119c957600080fd5b81019080805190602001909291905050500263ffffffff168115156119ea57fe5b045b90508363ffffffff168163ffffffff161115611aa7578173ffffffffffffffffffffffffffffffffffffffff16634a79d50c6040518163ffffffff167c0100000000000000000000000000000000000000000000000000000000028152600401602060405180830381600087803b158015611a6657600080fd5b505af1158015611a7a573d6000803e3d6000fd5b505050506040513d6020811015611a9057600080fd5b810190808051906020019092919050505094508093505b5b8280600101935050611621565b849550505050505092915050565b600080600360008460001916600019168152602001908152602001600020549050600081141515611bd057600260018203815481101515611b0057fe5b9060005260206000200160009054906101000a900473ffffffffffffffffffffffffffffffffffffffff1673ffffffffffffffffffffffffffffffffffffffff16638da5cb5b6040518163ffffffff167c0100000000000000000000000000000000000000000000000000000000028152600401602060405180830381600087803b158015611b8e57600080fd5b505af1158015611ba2573d6000803e3d6000fd5b505050506040513d6020811015611bb857600080fd5b81019080805190602001909291905050509150611bd1565b5b50919050565b600080600360008460001916600019168152602001908152602001600020549050600081141515611ce457600260018203815481101515611c1457fe5b9060005260206000200160009054906101000a900473ffffffffffffffffffffffffffffffffffffffff1673ffffffffffffffffffffffffffffffffffffffff1663a6c3e6b96040518163ffffffff167c0100000000000000000000000000000000000000000000000000000000028152600401602060405180830381600087803b158015611ca257600080fd5b505af1158015611cb6573d6000803e3d6000fd5b505050506040513d6020811015611ccc57600080fd5b81019080805190602001909291905050509150611ce5565b5b50919050565b60085434141515611cfb57600080fd5b6007544301600460003373ffffffffffffffffffffffffffffffffffffffff1673ffffffffffffffffffffffffffffffffffffffff168152602001908152602001600020819055507f0f10e63ee894e39811b0eff44f474074f64b054454a20aa18c7d37e3df450ee833336000604051808473ffffffffffffffffffffffffffffffffffffffff1673ffffffffffffffffffffffffffffffffffffffff1681526020018373ffffffffffffffffffffffffffffffffffffffff1673ffffffffffffffffffffffffffffffffffffffff1681526020018263ffffffff168152602001935050505060405180910390a1565b6000841415611e74577fec2cd00fbe752682d637098c4f81e7e0135858b6bfebdf2167c2c364c0965ed0838383604051808473ffffffffffffffffffffffffffffffffffffffff1673ffffffffffffffffffffffffffffffffffffffff1681526020018360001916600019168152602001828152602001935050505060405180910390a1611f6a565b6001841415611ef5577f5fbcd492da7c4ee1cc7271177bc13cb91003d94db44da47230403694a21785028383604051808373ffffffffffffffffffffffffffffffffffffffff1673ffffffffffffffffffffffffffffffffffffffff16815260200182600019166000191681526020019250505060405180910390a1611f69565b7faa45c023ebf5bd12db98c09dddda5c0919b5c320857cb8d98df378e599a854f08383604051808373ffffffffffffffffffffffffffffffffffffffff1673ffffffffffffffffffffffffffffffffffffffff16815260200182600019166000191681526020019250505060405180910390a15b5b50505050565b6000611f7b82610e38565b34141515611f8857600080fd5b60036000836000191660001916815260200190815260200160002054905060008114151561215657600260018203815481101515611fc257fe5b9060005260206000200160009054906101000a900473ffffffffffffffffffffffffffffffffffffffff1673ffffffffffffffffffffffffffffffffffffffff16636d81a01b336040518263ffffffff167c0100000000000000000000000000000000000000000000000000000000028152600401808273ffffffffffffffffffffffffffffffffffffffff1673ffffffffffffffffffffffffffffffffffffffff168152602001915050600060405180830381600087803b15801561208757600080fd5b505af115801561209b573d6000803e3d6000fd5b505050507f96d6d07652bef70c31bf9e5e149c2c36366523b1748c245a2bf24b9bd50d4ab382333360006040518085600019166000191681526020018473ffffffffffffffffffffffffffffffffffffffff1673ffffffffffffffffffffffffffffffffffffffff1681526020018373ffffffffffffffffffffffffffffffffffffffff1673ffffffffffffffffffffffffffffffffffffffff1681526020018263ffffffff16815260200194505050505060405180910390a15b5050565b6000806000806000809054906101000a900473ffffffffffffffffffffffffffffffffffffffff1673ffffffffffffffffffffffffffffffffffffffff163373ffffffffffffffffffffffffffffffffffffffff161415156121bb57600080fd5b6121c36155db565b935083600160009054906101000a900473ffffffffffffffffffffffffffffffffffffffff1673ffffffffffffffffffffffffffffffffffffffff163181151561220957fe5b049250600091505b600280549050821015612657578260028381548110151561222e57fe5b9060005260206000200160009054906101000a900473ffffffffffffffffffffffffffffffffffffffff1673ffffffffffffffffffffffffffffffffffffffff166339c614a16040518163ffffffff167c0100000000000000000000000000000000000000000000000000000000028152600401602060405180830381600087803b1580156122bc57600080fd5b505af11580156122d0573d6000803e3d6000fd5b505050506040513d60208110156122e657600080fd5b810190808051906020019092919050505063ffffffff1602905060028281548110151561230f57fe5b9060005260206000200160009054906101000a900473ffffffffffffffffffffffffffffffffffffffff1673ffffffffffffffffffffffffffffffffffffffff16638da5cb5b6040518163ffffffff167c0100000000000000000000000000000000000000000000000000000000028152600401602060405180830381600087803b15801561239d57600080fd5b505af11580156123b1573d6000803e3d6000fd5b505050506040513d60208110156123c757600080fd5b810190808051906020019092919050505073ffffffffffffffffffffffffffffffffffffffff166108fc829081150290604051600060405180830381858888f1935050505015801561241d573d6000803e3d6000fd5b507fa2cf96ee99940b1bfb3322d3e01f3eaa7324d54f11d177846fcaeca30710335960028381548110151561244e57fe5b9060005260206000200160009054906101000a900473ffffffffffffffffffffffffffffffffffffffff1673ffffffffffffffffffffffffffffffffffffffff16634a79d50c6040518163ffffffff167c0100000000000000000000000000000000000000000000000000000000028152600401602060405180830381600087803b1580156124dc57600080fd5b505af11580156124f0573d6000803e3d6000fd5b505050506040513d602081101561250657600080fd5b810190808051906020019092919050505060026001850381548110151561252957fe5b9060005260206000200160009054906101000a900473ffffffffffffffffffffffffffffffffffffffff1673ffffffffffffffffffffffffffffffffffffffff16638da5cb5b6040518163ffffffff167c0100000000000000000000000000000000000000000000000000000000028152600401602060405180830381600087803b1580156125b757600080fd5b505af11580156125cb573d6000803e3d6000fd5b505050506040513d60208110156125e157600080fd5b8101908080519060200190929190505050836040518084600019166000191681526020018373ffffffffffffffffffffffffffffffffffffffff1673ffffffffffffffffffffffffffffffffffffffff168152602001828152602001935050505060405180910390a18180600101925050612211565b600160009054906101000a900473ffffffffffffffffffffffffffffffffffffffff1673ffffffffffffffffffffffffffffffffffffffff16ff5b6002818154811015156126a157fe5b906000526020600020016000915054906101000a900473ffffffffffffffffffffffffffffffffffffffff1681565b6000600280549050905090565b600854341415156126ed57600080fd5b6007544301600460008373ffffffffffffffffffffffffffffffffffffffff1673ffffffffffffffffffffffffffffffffffffffff168152602001908152602001600020819055507f0f10e63ee894e39811b0eff44f474074f64b054454a20aa18c7d37e3df450ee833826001604051808473ffffffffffffffffffffffffffffffffffffffff1673ffffffffffffffffffffffffffffffffffffffff1681526020018373ffffffffffffffffffffffffffffffffffffffff1673ffffffffffffffffffffffffffffffffffffffff1681526020018263ffffffff168152602001935050505060405180910390a150565b6060806000606080600060028054905093508360405190808252806020026020018201604052801561281f5781602001602082028038833980820191505090505b509250836040519080825280602002602001820160405280156128515781602001602082028038833980820191505090505b509150600090505b83811015612a6e5760028181548110151561287057fe5b9060005260206000200160009054906101000a900473ffffffffffffffffffffffffffffffffffffffff1673ffffffffffffffffffffffffffffffffffffffff16634a79d50c6040518163ffffffff167c0100000000000000000000000000000000000000000000000000000000028152600401602060405180830381600087803b1580156128fe57600080fd5b505af1158015612912573d6000803e3d6000fd5b505050506040513d602081101561292857600080fd5b8101908080519060200190929190505050838281518110151561294757fe5b90602001906020020190600019169081600019168152505060028181548110151561296e57fe5b9060005260206000200160009054906101000a900473ffffffffffffffffffffffffffffffffffffffff1673ffffffffffffffffffffffffffffffffffffffff166339c614a16040518163ffffffff167c0100000000000000000000000000000000000000000000000000000000028152600401602060405180830381600087803b1580156129fc57600080fd5b505af1158015612a10573d6000803e3d6000fd5b505050506040513d6020811015612a2657600080fd5b81019080805190602001909291905050508282815181101515612a4557fe5b9060200190602002019063ffffffff16908163ffffffff16815250508080600101915050612859565b828295509550505050509091565b600080600360008460001916600019168152602001908152602001600020549050600081141515612b8957600260018203815481101515612ab957fe5b9060005260206000200160009054906101000a900473ffffffffffffffffffffffffffffffffffffffff1673ffffffffffffffffffffffffffffffffffffffff166317de3a416040518163ffffffff167c0100000000000000000000000000000000000000000000000000000000028152600401602060405180830381600087803b158015612b4757600080fd5b505af1158015612b5b573d6000803e3d6000fd5b505050506040513d6020811015612b7157600080fd5b81019080805190602001909291905050509150612b8a565b5b50919050565b60085481565b60036020528060005260406000206000915090505481565b600043600460008473ffffffffffffffffffffffffffffffffffffffff1673ffffffffffffffffffffffffffffffffffffffff16815260200190815260200160002054119050919050565b600960009054906101000a900461ffff1681565b6000806000806000806000600102945060009350600092505b6002805490508310156130ba57600283815481101515612c4257fe5b9060005260206000200160009054906101000a900473ffffffffffffffffffffffffffffffffffffffff16915087600019168273ffffffffffffffffffffffffffffffffffffffff1663a6c3e6b96040518163ffffffff167c0100000000000000000000000000000000000000000000000000000000028152600401602060405180830381600087803b158015612cd857600080fd5b505af1158015612cec573d6000803e3d6000fd5b505050506040513d6020811015612d0257600080fd5b810190808051906020019092919050505060001916148015612dc9575060008273ffffffffffffffffffffffffffffffffffffffff16631f3e74396040518163ffffffff167c0100000000000000000000000000000000000000000000000000000000028152600401602060405180830381600087803b158015612d8557600080fd5b505af1158015612d99573d6000803e3d6000fd5b505050506040513d6020811015612daf57600080fd5b810190808051906020019092919050505063ffffffff1614155b156130ad5760048763ffffffff1610612e8857612e838273ffffffffffffffffffffffffffffffffffffffff16634a79d50c6040518163ffffffff167c0100000000000000000000000000000000000000000000000000000000028152600401602060405180830381600087803b158015612e4357600080fd5b505af1158015612e57573d6000803e3d6000fd5b505050506040513d6020811015612e6d57600080fd5b810190808051906020019092919050505061397d565b612ff1565b8173ffffffffffffffffffffffffffffffffffffffff16631f3e74396040518163ffffffff167c0100000000000000000000000000000000000000000000000000000000028152600401602060405180830381600087803b158015612eec57600080fd5b505af1158015612f00573d6000803e3d6000fd5b505050506040513d6020811015612f1657600080fd5b810190808051906020019092919050505063ffffffff16600a8373ffffffffffffffffffffffffffffffffffffffff1663f59dfdfb8a6040518263ffffffff167c0100000000000000000000000000000000000000000000000000000000028152600401808263ffffffff168152602001915050602060405180830381600087803b158015612fa457600080fd5b505af1158015612fb8573d6000803e3d6000fd5b505050506040513d6020811015612fce57600080fd5b81019080805190602001909291905050500263ffffffff16811515612fef57fe5b045b90508363ffffffff168163ffffffff1611156130ac578173ffffffffffffffffffffffffffffffffffffffff16634a79d50c6040518163ffffffff167c0100000000000000000000000000000000000000000000000000000000028152600401602060405180830381600087803b15801561306b57600080fd5b505af115801561307f573d6000803e3d6000fd5b505050506040513d602081101561309557600080fd5b810190808051906020019092919050505094508093505b5b8280600101935050612c26565b849550505050505092915050565b6000809054906101000a900473ffffffffffffffffffffffffffffffffffffffff1681565b6000808290503373ffffffffffffffffffffffffffffffffffffffff168173ffffffffffffffffffffffffffffffffffffffff16638da5cb5b6040518163ffffffff167c0100000000000000000000000000000000000000000000000000000000028152600401602060405180830381600087803b15801561316e57600080fd5b505af1158015613182573d6000803e3d6000fd5b505050506040513d602081101561319857600080fd5b810190808051906020019092919050505073ffffffffffffffffffffffffffffffffffffffff161480156132b75750600160009054906101000a900473ffffffffffffffffffffffffffffffffffffffff1673ffffffffffffffffffffffffffffffffffffffff168173ffffffffffffffffffffffffffffffffffffffff1663074c09eb6040518163ffffffff167c0100000000000000000000000000000000000000000000000000000000028152600401602060405180830381600087803b15801561326457600080fd5b505af1158015613278573d6000803e3d6000fd5b505050506040513d602081101561328e57600080fd5b810190808051906020019092919050505073ffffffffffffffffffffffffffffffffffffffff16145b15156132c257600080fd5b60028190806001815401808255809150509060018203906000526020600020016000909192909190916101000a81548173ffffffffffffffffffffffffffffffffffffffff021916908373ffffffffffffffffffffffffffffffffffffffff16021790555050600280549050600360008373ffffffffffffffffffffffffffffffffffffffff16634a79d50c6040518163ffffffff167c0100000000000000000000000000000000000000000000000000000000028152600401602060405180830381600087803b15801561339657600080fd5b505af11580156133aa573d6000803e3d6000fd5b505050506040513d60208110156133c057600080fd5b810190808051906020019092919050505060001916600019168152602001908152602001600020819055507f94c683ff7f39640fe5c3ef52084cc07b3d833c122d5ab805894ab620e99ffb348173ffffffffffffffffffffffffffffffffffffffff16634a79d50c6040518163ffffffff167c0100000000000000000000000000000000000000000000000000000000028152600401602060405180830381600087803b15801561347057600080fd5b505af1158015613484573d6000803e3d6000fd5b505050506040513d602081101561349a57600080fd5b81019080805190602001909291905050508273ffffffffffffffffffffffffffffffffffffffff1663a6c3e6b96040518163ffffffff167c0100000000000000000000000000000000000000000000000000000000028152600401602060405180830381600087803b15801561350f57600080fd5b505af1158015613523573d6000803e3d6000fd5b505050506040513d602081101561353957600080fd5b81019080805190602001909291905050508373ffffffffffffffffffffffffffffffffffffffff166317de3a416040518163ffffffff167c0100000000000000000000000000000000000000000000000000000000028152600401602060405180830381600087803b1580156135ae57600080fd5b505af11580156135c2573d6000803e3d6000fd5b505050506040513d60208110156135d857600080fd5b81019080805190602001909291905050508473ffffffffffffffffffffffffffffffffffffffff16638da5cb5b6040518163ffffffff167c0100000000000000000000000000000000000000000000000000000000028152600401602060405180830381600087803b15801561364d57600080fd5b505af1158015613661573d6000803e3d6000fd5b505050506040513d602081101561367757600080fd5b8101908080519060200190929190505050604051808560001916600019168152602001846000191660001916815260200183600019166000191681526020018273ffffffffffffffffffffffffffffffffffffffff1673ffffffffffffffffffffffffffffffffffffffff16815260200194505050505060405180910390a1600280549050915050919050565b600080600060028054905091506000821115613915576001820390505b60008110151561391457836000191660028281548110151561373f57fe5b9060005260206000200160009054906101000a900473ffffffffffffffffffffffffffffffffffffffff1673ffffffffffffffffffffffffffffffffffffffff166317de3a416040518163ffffffff167c0100000000000000000000000000000000000000000000000000000000028152600401602060405180830381600087803b1580156137cd57600080fd5b505af11580156137e1573d6000803e3d6000fd5b505050506040513d60208110156137f757600080fd5b81019080805190602001909291905050506000191614156138f15760028181548110151561382157fe5b9060005260206000200160009054906101000a900473ffffffffffffffffffffffffffffffffffffffff1673ffffffffffffffffffffffffffffffffffffffff16634a79d50c6040518163ffffffff167c0100000000000000000000000000000000000000000000000000000000028152600401602060405180830381600087803b1580156138af57600080fd5b505af11580156138c3573d6000803e3d6000fd5b505050506040513d60208110156138d957600080fd5b81019080805190602001909291905050509250613916565b60008114156139065760006001029250613916565b808060019003915050613721565b5b5b5050919050565b80600560008473ffffffffffffffffffffffffffffffffffffffff1673ffffffffffffffffffffffffffffffffffffffff168152602001908152602001600020819055505050565b60046020528060005260406000206000915090505481565b6000806000806000600360008760001916600019168152602001908152602001600020549350600092506002600185038154811015156139b957fe5b9060005260206000200160009054906101000a900473ffffffffffffffffffffffffffffffffffffffff169150600090505b60048163ffffffff161015613abb578173ffffffffffffffffffffffffffffffffffffffff1663f59dfdfb826040518263ffffffff167c0100000000000000000000000000000000000000000000000000000000028152600401808263ffffffff168152602001915050602060405180830381600087803b158015613a6f57600080fd5b505af1158015613a83573d6000803e3d6000fd5b505050506040513d6020811015613a9957600080fd5b81019080805190602001909291905050508301925080806001019150506139eb565b60008273ffffffffffffffffffffffffffffffffffffffff16631f3e74396040518163ffffffff167c0100000000000000000000000000000000000000000000000000000000028152600401602060405180830381600087803b158015613b2157600080fd5b505af1158015613b35573d6000803e3d6000fd5b505050506040513d6020811015613b4b57600080fd5b810190808051906020019092919050505063ffffffff16141515613c2c5760048273ffffffffffffffffffffffffffffffffffffffff16631f3e74396040518163ffffffff167c0100000000000000000000000000000000000000000000000000000000028152600401602060405180830381600087803b158015613bcf57600080fd5b505af1158015613be3573d6000803e3d6000fd5b505050506040513d6020811015613bf957600080fd5b81019080805190602001909291905050500263ffffffff16600a840263ffffffff16811515613c2457fe5b049450613c31565b600094505b50505050919050565b6000806000806000600102925060009150600090505b600280549050811015613f0a578163ffffffff16600282815481101515613c7357fe5b9060005260206000200160009054906101000a900473ffffffffffffffffffffffffffffffffffffffff1673ffffffffffffffffffffffffffffffffffffffff166339c614a16040518163ffffffff167c0100000000000000000000000000000000000000000000000000000000028152600401602060405180830381600087803b158015613d0157600080fd5b505af1158015613d15573d6000803e3d6000fd5b505050506040513d6020811015613d2b57600080fd5b810190808051906020019092919050505063ffffffff161115613efd57600281815481101515613d5757fe5b9060005260206000200160009054906101000a900473ffffffffffffffffffffffffffffffffffffffff1673ffffffffffffffffffffffffffffffffffffffff16634a79d50c6040518163ffffffff167c0100000000000000000000000000000000000000000000000000000000028152600401602060405180830381600087803b158015613de557600080fd5b505af1158015613df9573d6000803e3d6000fd5b505050506040513d6020811015613e0f57600080fd5b81019080805190602001909291905050509250600281815481101515613e3157fe5b9060005260206000200160009054906101000a900473ffffffffffffffffffffffffffffffffffffffff1673ffffffffffffffffffffffffffffffffffffffff166339c614a16040518163ffffffff167c0100000000000000000000000000000000000000000000000000000000028152600401602060405180830381600087803b158015613ebf57600080fd5b505af1158015613ed3573d6000803e3d6000fd5b505050506040513d6020811015613ee957600080fd5b810190808051906020019092919050505091505b8080600101915050613c50565b82935050505090565b60056020528060005260406000206000915090505481565b60008060006002805490509150600082111561413c576001820390505b60008110151561413b578360001916600282815481101515613f6657fe5b9060005260206000200160009054906101000a900473ffffffffffffffffffffffffffffffffffffffff1673ffffffffffffffffffffffffffffffffffffffff1663a6c3e6b96040518163ffffffff167c0100000000000000000000000000000000000000000000000000000000028152600401602060405180830381600087803b158015613ff457600080fd5b505af1158015614008573d6000803e3d6000fd5b505050506040513d602081101561401e57600080fd5b81019080805190602001909291905050506000191614156141185760028181548110151561404857fe5b9060005260206000200160009054906101000a900473ffffffffffffffffffffffffffffffffffffffff1673ffffffffffffffffffffffffffffffffffffffff16634a79d50c6040518163ffffffff167c0100000000000000000000000000000000000000000000000000000000028152600401602060405180830381600087803b1580156140d657600080fd5b505af11580156140ea573d6000803e3d6000fd5b505050506040513d602081101561410057600080fd5b8101908080519060200190929190505050925061413d565b600081141561412d576000600102925061413d565b808060019003915050613f48565b5b5b5050919050565b6060600660008373ffffffffffffffffffffffffffffffffffffffff1673ffffffffffffffffffffffffffffffffffffffff1681526020019081526020016000208054806020026020016040519081016040528092919081815260200182805480156141d357602002820191906000526020600020905b815460001916815260200190600101908083116141bb575b50505050509050919050565b6000806003600084600019166000191681526020019081526020016000205490506000811415156142ec5760026001820381548110151561421c57fe5b9060005260206000200160009054906101000a900473ffffffffffffffffffffffffffffffffffffffff1673ffffffffffffffffffffffffffffffffffffffff166339c614a16040518163ffffffff167c0100000000000000000000000000000000000000000000000000000000028152600401602060405180830381600087803b1580156142aa57600080fd5b505af11580156142be573d6000803e3d6000fd5b505050506040513d60208110156142d457600080fd5b810190808051906020019092919050505091506142ed565b5b50919050565b60606000606060006002805490509250846040519080825280602002602001820160405280156143325781602001602082028038833980820191505090505b509150600083118015614346575060008514155b1561448f5782851115151561435a57600080fd5b6001830390505b8483038110151561448e5760028181548110151561437b57fe5b9060005260206000200160009054906101000a900473ffffffffffffffffffffffffffffffffffffffff1673ffffffffffffffffffffffffffffffffffffffff16634a79d50c6040518163ffffffff167c0100000000000000000000000000000000000000000000000000000000028152600401602060405180830381600087803b15801561440957600080fd5b505af115801561441d573d6000803e3d6000fd5b505050506040513d602081101561443357600080fd5b81019080805190602001909291905050508282600186030381518110151561445757fe5b906020019060200201906000191690816000191681525050600081141561448057819350614493565b808060019003915050614361565b5b8193505b505050919050565b6000806000806000600102925060009150600090505b6002805490508110156148555784600019166002828154811015156144d257fe5b9060005260206000200160009054906101000a900473ffffffffffffffffffffffffffffffffffffffff1673ffffffffffffffffffffffffffffffffffffffff1663a6c3e6b96040518163ffffffff167c0100000000000000000000000000000000000000000000000000000000028152600401602060405180830381600087803b15801561456057600080fd5b505af1158015614574573d6000803e3d6000fd5b505050506040513d602081101561458a57600080fd5b81019080805190602001909291905050506000191614801561468e57508163ffffffff166002828154811015156145bd57fe5b9060005260206000200160009054906101000a900473ffffffffffffffffffffffffffffffffffffffff1673ffffffffffffffffffffffffffffffffffffffff166339c614a16040518163ffffffff167c0100000000000000000000000000000000000000000000000000000000028152600401602060405180830381600087803b15801561464b57600080fd5b505af115801561465f573d6000803e3d6000fd5b505050506040513d602081101561467557600080fd5b810190808051906020019092919050505063ffffffff16115b15614848576002818154811015156146a257fe5b9060005260206000200160009054906101000a900473ffffffffffffffffffffffffffffffffffffffff1673ffffffffffffffffffffffffffffffffffffffff16634a79d50c6040518163ffffffff167c0100000000000000000000000000000000000000000000000000000000028152600401602060405180830381600087803b15801561473057600080fd5b505af1158015614744573d6000803e3d6000fd5b505050506040513d602081101561475a57600080fd5b8101908080519060200190929190505050925060028181548110151561477c57fe5b9060005260206000200160009054906101000a900473ffffffffffffffffffffffffffffffffffffffff1673ffffffffffffffffffffffffffffffffffffffff166339c614a16040518163ffffffff167c0100000000000000000000000000000000000000000000000000000000028152600401602060405180830381600087803b15801561480a57600080fd5b505af115801561481e573d6000803e3d6000fd5b505050506040513d602081101561483457600080fd5b810190808051906020019092919050505091505b80806001019150506144b1565b829350505050919050565b600061486b33612bae565b151561487657600080fd5b600360008360001916600019168152602001908152602001600020549050600081141515614a8b576002600182038154811015156148b057fe5b9060005260206000200160009054906101000a900473ffffffffffffffffffffffffffffffffffffffff1673ffffffffffffffffffffffffffffffffffffffff1663e6810afb33600460003373ffffffffffffffffffffffffffffffffffffffff1673ffffffffffffffffffffffffffffffffffffffff168152602001908152602001600020546040518363ffffffff167c0100000000000000000000000000000000000000000000000000000000028152600401808373ffffffffffffffffffffffffffffffffffffffff1673ffffffffffffffffffffffffffffffffffffffff16815260200182815260200192505050600060405180830381600087803b1580156149bc57600080fd5b505af11580156149d0573d6000803e3d6000fd5b505050507f96d6d07652bef70c31bf9e5e149c2c36366523b1748c245a2bf24b9bd50d4ab382333360006040518085600019166000191681526020018473ffffffffffffffffffffffffffffffffffffffff1673ffffffffffffffffffffffffffffffffffffffff1681526020018373ffffffffffffffffffffffffffffffffffffffff1673ffffffffffffffffffffffffffffffffffffffff1681526020018263ffffffff16815260200194505050505060405180910390a15b5050565b6000806000806000806000600102945060009350600092505b600280549050831015614e8b57600283815481101515614ac457fe5b9060005260206000200160009054906101000a900473ffffffffffffffffffffffffffffffffffffffff16915060008273ffffffffffffffffffffffffffffffffffffffff16631f3e74396040518163ffffffff167c0100000000000000000000000000000000000000000000000000000000028152600401602060405180830381600087803b158015614b5757600080fd5b505af1158015614b6b573d6000803e3d6000fd5b505050506040513d6020811015614b8157600080fd5b810190808051906020019092919050505063ffffffff16141515614e7e5760048763ffffffff1610614c5957614c548273ffffffffffffffffffffffffffffffffffffffff16634a79d50c6040518163ffffffff167c0100000000000000000000000000000000000000000000000000000000028152600401602060405180830381600087803b158015614c1457600080fd5b505af1158015614c28573d6000803e3d6000fd5b505050506040513d6020811015614c3e57600080fd5b810190808051906020019092919050505061397d565b614dc2565b8173ffffffffffffffffffffffffffffffffffffffff16631f3e74396040518163ffffffff167c0100000000000000000000000000000000000000000000000000000000028152600401602060405180830381600087803b158015614cbd57600080fd5b505af1158015614cd1573d6000803e3d6000fd5b505050506040513d6020811015614ce757600080fd5b810190808051906020019092919050505063ffffffff16600a8373ffffffffffffffffffffffffffffffffffffffff1663f59dfdfb8a6040518263ffffffff167c0100000000000000000000000000000000000000000000000000000000028152600401808263ffffffff168152602001915050602060405180830381600087803b158015614d7557600080fd5b505af1158015614d89573d6000803e3d6000fd5b505050506040513d6020811015614d9f57600080fd5b81019080805190602001909291905050500263ffffffff16811515614dc057fe5b045b90508363ffffffff168163ffffffff161115614e7d578173ffffffffffffffffffffffffffffffffffffffff16634a79d50c6040518163ffffffff167c0100000000000000000000000000000000000000000000000000000000028152600401602060405180830381600087803b158015614e3c57600080fd5b505af1158015614e50573d6000803e3d6000fd5b505050506040513d6020811015614e6657600080fd5b810190808051906020019092919050505094508093505b5b8280600101935050614aa8565b8495505050505050919050565b6000614ea383610e38565b34141515614eb057600080fd5b60036000846000191660001916815260200190815260200160002054905060008114151561507e57600260018203815481101515614eea57fe5b9060005260206000200160009054906101000a900473ffffffffffffffffffffffffffffffffffffffff1673ffffffffffffffffffffffffffffffffffffffff16636d81a01b836040518263ffffffff167c0100000000000000000000000000000000000000000000000000000000028152600401808273ffffffffffffffffffffffffffffffffffffffff1673ffffffffffffffffffffffffffffffffffffffff168152602001915050600060405180830381600087803b158015614faf57600080fd5b505af1158015614fc3573d6000803e3d6000fd5b505050507f96d6d07652bef70c31bf9e5e149c2c36366523b1748c245a2bf24b9bd50d4ab383338460016040518085600019166000191681526020018473ffffffffffffffffffffffffffffffffffffffff1673ffffffffffffffffffffffffffffffffffffffff1681526020018373ffffffffffffffffffffffffffffffffffffffff1673ffffffffffffffffffffffffffffffffffffffff1681526020018263ffffffff16815260200194505050505060405180910390a15b505050565b6000806000806000600102925060009150600090505b60028054905081101561543d5784600019166002828154811015156150ba57fe5b9060005260206000200160009054906101000a900473ffffffffffffffffffffffffffffffffffffffff1673ffffffffffffffffffffffffffffffffffffffff166317de3a416040518163ffffffff167c0100000000000000000000000000000000000000000000000000000000028152600401602060405180830381600087803b15801561514857600080fd5b505af115801561515c573d6000803e3d6000fd5b505050506040513d602081101561517257600080fd5b81019080805190602001909291905050506000191614801561527657508163ffffffff166002828154811015156151a557fe5b9060005260206000200160009054906101000a900473ffffffffffffffffffffffffffffffffffffffff1673ffffffffffffffffffffffffffffffffffffffff166339c614a16040518163ffffffff167c0100000000000000000000000000000000000000000000000000000000028152600401602060405180830381600087803b15801561523357600080fd5b505af1158015615247573d6000803e3d6000fd5b505050506040513d602081101561525d57600080fd5b810190808051906020019092919050505063ffffffff16115b156154305760028181548110151561528a57fe5b9060005260206000200160009054906101000a900473ffffffffffffffffffffffffffffffffffffffff1673ffffffffffffffffffffffffffffffffffffffff16634a79d50c6040518163ffffffff167c0100000000000000000000000000000000000000000000000000000000028152600401602060405180830381600087803b15801561531857600080fd5b505af115801561532c573d6000803e3d6000fd5b505050506040513d602081101561534257600080fd5b8101908080519060200190929190505050925060028181548110151561536457fe5b9060005260206000200160009054906101000a900473ffffffffffffffffffffffffffffffffffffffff1673ffffffffffffffffffffffffffffffffffffffff166339c614a16040518163ffffffff167c0100000000000000000000000000000000000000000000000000000000028152600401602060405180830381600087803b1580156153f257600080fd5b505af1158015615406573d6000803e3d6000fd5b505050506040513d602081101561541c57600080fd5b810190808051906020019092919050505091505b8080600101915050615099565b829350505050919050565b60066020528160005260406000208181548110151561546357fe5b90600052602060002001600091509150505481565b60606000606060006002805490509250826040519080825280602002602001820160405280156154b75781602001602082028038833980820191505090505b509150600090505b828110156155d2576002818154811015156154d657fe5b9060005260206000200160009054906101000a900473ffffffffffffffffffffffffffffffffffffffff1673ffffffffffffffffffffffffffffffffffffffff16634a79d50c6040518163ffffffff167c0100000000000000000000000000000000000000000000000000000000028152600401602060405180830381600087803b15801561556457600080fd5b505af1158015615578573d6000803e3d6000fd5b505050506040513d602081101561558e57600080fd5b810190808051906020019092919050505082828151811015156155ad57fe5b90602001906020020190600019169081600019168152505080806001019150506154bf565b81935050505090565b6000806000809150600090505b6002805490508110156156e45760028181548110151561560457fe5b9060005260206000200160009054906101000a900473ffffffffffffffffffffffffffffffffffffffff1673ffffffffffffffffffffffffffffffffffffffff166339c614a16040518163ffffffff167c0100000000000000000000000000000000000000000000000000000000028152600401602060405180830381600087803b15801561569257600080fd5b505af11580156156a6573d6000803e3d6000fd5b505050506040513d60208110156156bc57600080fd5b810190808051906020019092919050505063ffffffff168201915080806001019150506155e8565b819250505090565b82805482825590600052602060002090810192821561572e579160200282015b8281111561572d57825182906000191690559160200191906001019061570c565b5b50905061573b919061573f565b5090565b61576191905b8082111561575d576000816000905550600101615745565b5090565b905600a165627a7a7230582048c93e1cf4eb684a01253c298cc5fea8b574bff7c98d636a14be9acc927958d90029",
  "source": "pragma solidity ^0.4.19;\n\nimport \"./BaseContent.sol\";\n\ncontract Catalog{\n    \n    /* data about the contract itself */\n    address public owner; // address of who uploads\n    address private catalog_address; // address of the contract\n    \n    /* data about the catalog */\n    BaseContent[] public contents_list; \n    mapping (bytes32 => uint) public position_content;\n    mapping (address => uint) public premium_customers; // address of customer to expiration date as block height\n    \n    /* data about the accounts */\n    mapping (address => uint) public notifications_to_see;\n    mapping (address => bytes32[]) public notifications_preferences;\n\n    /* utilities variables */\n    uint private time_premium = 40000; // premium lasts approximately one week\n    uint public cost_premium = 0.25 ether; // premium costs about 20 euro\n    uint16 public v = 7; // number of views required before payment\n    \n    /* events triggered */\n    event new_publication (bytes32 _title, bytes32 _author, bytes32 _genre, address _owner);\n    event content_acquired (bytes32 _title, address _sender, address _receiver, uint32 _gifted);\n    event premium_acquired (address _sender, address _receiver, uint32 _gifted);\n    event author_payed (bytes32 _t, address _owner, uint _tot_money);\n    event v_reached (address _account, bytes32 _title, uint _v); // reached the number of views to request a payment\n    event content_consumed (address _customer, bytes32 _title); // customer just consumed this content\n    event rate_left(address _customer, bytes32 _title); // customer just left a rating for this content\n\n\n    /* modifiers that enforce that some functions are called just by specif agents */\n    modifier byOwner() {\n        require(msg.sender == owner);\n        _;\n    }\n\n    /* constructor function of the catalog */\n    constructor () public {\n        owner = msg.sender;\n        catalog_address = address(this);\n    }\n    \n    \n    \n    /* Functions which do not change the state of the contract */\n    function GetLengthCatalog () public view returns (uint) {\n        return contents_list.length;\n    }\n\n    /* returns the author of a content */\n    function GetAuthor(bytes32 _t) public view returns (bytes32) {\n        uint i = position_content[_t];\n        if (i != 0) {\n            return contents_list[i-1].author();\n        }\n    }\n    \n    /* returns the author of a content */\n    function GetGenre(bytes32 _t) public view returns (bytes32) {\n        uint i = position_content[_t];\n        if (i != 0) {\n            return contents_list[i-1].genre();\n        }\n    }\n    \n    /* returns the price of a content */\n    function GetPrice (bytes32 _t) public view returns (uint){\n        uint i = position_content[_t];\n        if (i != 0) {\n            return contents_list[i-1].price();\n        }\n    }\n\n    /* returns the number of views of a content */\n    function GetViews (bytes32 _t) public view returns (uint32){\n        uint i = position_content[_t];\n        if (i != 0) {\n            return contents_list[i-1].view_count();\n        }\n    }\n\n    /* returns the number of views of a content */\n    function GetOwner (bytes32 _t) public view returns (address){\n        uint i = position_content[_t];\n        if (i != 0) {\n            return contents_list[i-1].owner();\n        }\n    }\n\n    function GetNotifPreferences(address _u) public view returns (bytes32[] memory) {\n        return notifications_preferences[_u];\n    }\n\n    function SetNotifPreferences(address _u, bytes32[] memory _list) public {\n        notifications_preferences[_u] = _list;\n    }\n\n    function EmitEvent(uint _eventID, address _account, bytes32 _t, uint _v) public {\n\n        if (_eventID == 0) {\n            emit v_reached(_account, _t, _v);\n        } else if (_eventID == 1) {\n            emit content_consumed(_account, _t);\n        } else {\n            emit rate_left(_account, _t);\n        }\n    }\n\n\n    /* returns the average rating for a content */ \n    function GetRate (bytes32 _t) public view returns (uint32) {\n        uint i = position_content[_t];\n        uint32 s = 0;\n        BaseContent bc = contents_list[i-1];\n        for(uint32 j = 0; j < 4; j++){\n            s += bc.feed(j);\n        }\n        if (bc.nVotes() != 0 ) {\n            return ((s * 10) / (bc.nVotes() * 4));\n        } else {\n            return 0;\n        }\n    }\n    \n    \n    /* returns the number of views for each content */\n    function GetStatistics () public view returns (bytes32[] memory, uint32[] memory){\n        uint l_length = contents_list.length;\n        bytes32[] memory titles_list = new bytes32[](l_length);\n        uint32[] memory views_list = new uint32[](l_length);\n        for (uint i = 0; i < l_length; i++) {\n            titles_list[i] = contents_list[i].title();\n            views_list[i] = contents_list[i].view_count();\n        }\n        return (titles_list, views_list);\n    }\n    \n    /* returns the list of contents without the number of views */\n    function GetContentList() public view returns (bytes32[] memory) {\n        uint l_length = contents_list.length;\n        bytes32[] memory titles_list = new bytes32[](l_length);\n        for (uint i = 0; i < l_length; i++) {\n            titles_list[i] = contents_list[i].title();\n        }\n        return titles_list;\n    }\n    \n    /* returns the list of x newest contents */\n    function GetNewContentsList (uint x) public view returns (bytes32[] memory) {\n        uint l_length = contents_list.length;\n        bytes32[] memory titles_list = new bytes32[](x);\n        if (l_length > 0 && x != 0) {\n            require(x <= l_length);\n            for (uint i = l_length - 1; i >= l_length-x; i--) {\n                titles_list[l_length - 1 - i] = contents_list[i].title();\n                if (i == 0) {\n                    return titles_list;\n                }\n            }\n        }\n        return titles_list;\n    }\n    \n    /* returns the most recent content with genre _g */\n    function GetLatestByGenre(bytes32 _g) public view returns (bytes32) {\n        uint l_length = contents_list.length;\n        if (l_length > 0) {\n            for (uint i = l_length - 1; i >= 0; i--) {\n                if (contents_list[i].genre() == _g) {\n                    return contents_list[i].title();\n                }\n                if (i == 0) {\n                    return 0x0;\n                }\n            }\n        }\n    }\n    \n    /* returns the content with genre _g with max views */\n    function GetMostPopularByGenre (bytes32 _g) public view returns (bytes32) {\n        bytes32 most_popular = 0;\n        uint32 most_views = 0;\n        for (uint i = 0; i < contents_list.length; i++) {\n            if (contents_list[i].genre() == _g && contents_list[i].view_count() > most_views) {\n                most_popular = contents_list[i].title();\n                most_views = contents_list[i].view_count();\n            }\n        }\n        return most_popular;\n    }\n    \n    /* returns the most recent content of the author _a */\n    function GetLatestByAuthor (bytes32 _a) public view returns (bytes32) {\n        uint l_length = contents_list.length;\n        if (l_length > 0) {\n            for (uint i = l_length - 1; i >= 0; i--) {\n                if (contents_list[i].author() == _a) {\n                    return contents_list[i].title();\n                }\n                if (i == 0) {\n                    return 0x0;\n                }\n            }\n        }\n    }\n    \n    /* returns the content with most views of the author _a */\n    function GetMostPopularByAuthor (bytes32 _a) public view returns (bytes32){\n        bytes32 most_popular = 0;\n        uint32 most_views = 0;\n        for (uint i = 0; i < contents_list.length; i++) {\n            if (contents_list[i].author() == _a && contents_list[i].view_count() > most_views) {\n                most_popular = contents_list[i].title();\n                most_views = contents_list[i].view_count();\n            }\n        }\n        return most_popular;\n    }\n\n    /* returns the content with most views */\n    function GetMostPopular () public view returns (bytes32){\n        bytes32 most_popular = 0;\n        uint32 most_views = 0;\n        for (uint i = 0; i < contents_list.length; i++) {\n            if (contents_list[i].view_count() > most_views) {\n                most_popular = contents_list[i].title();\n                most_views = contents_list[i].view_count();\n            }\n        }\n        return most_popular;\n    }\n    \n    /* returns the content with highest rating for feedback category _y \n    (or highest average of all ratings if y is not specified) */\n    function GetMostRated (uint32 _y) public view returns (bytes32){\n        bytes32 most_rated = 0;\n        uint32 highest_rating = 0;\n        for (uint i = 0; i < contents_list.length; i++) {\n            BaseContent bc = contents_list[i];\n            if (bc.nVotes() != 0 ) {\n                uint32 r = (_y < 4)? ((bc.feed(_y) * 10) / bc.nVotes()) : GetRate(bc.title());\n                if (r > highest_rating) {\n                    most_rated = bc.title();\n                    highest_rating = r;\n                }\n            }\n        }\n        return most_rated;\n    }\n    \n     /* returns the content with highest rating for feedback category _y \n    (or highest average of all ratings if y is not specified) with genre _g */\n    function GetMostRatedByGenre (bytes32 _g, uint32 _y) public view returns (bytes32){\n        bytes32 most_rated = 0;\n        uint32 highest_rating = 0;\n        for (uint i = 0; i < contents_list.length; i++) {\n            BaseContent bc = contents_list[i];\n            if (bc.genre() == _g && bc.nVotes() != 0 ) {\n                uint32 r = (_y < 4)? ((bc.feed(_y) * 10) / bc.nVotes()) : GetRate(bc.title());\n                if (r > highest_rating) {\n                    most_rated = bc.title();\n                    highest_rating = r;\n                }\n            }\n        }\n        return most_rated;\n    }\n    \n    /* returns the content with highest rating for feedback category _y \n    (or highest average of all ratings if y is not specified) with author _a */\n    function GetMostRatedByAuthor (bytes32 _a, uint32 _y) public view returns (bytes32){\n        bytes32 most_rated = 0;\n        uint32 highest_rating = 0;\n        for (uint i = 0; i < contents_list.length; i++) {\n            BaseContent bc = contents_list[i];\n            if (bc.author() == _a && bc.nVotes() != 0 ) {\n                uint32 r = (_y < 4)? ((bc.feed(_y) * 10) / bc.nVotes()) : GetRate(bc.title());\n                if (r > highest_rating) {\n                    most_rated = bc.title();\n                    highest_rating = r;\n                }\n            }\n        }\n        return most_rated;\n    }\n    \n    \n    /* returns true if _c is a valid premium account */\n    function isPremium (address _c) public view returns(bool) {\n        return premium_customers[_c] > block.number;\n    }\n    \n    \n    \n    /* Functions which modify the state of the contract */\n    \n    /* submits a new content _c to the catalog */\n    function AddContent (BaseContent _c) external returns (uint){\n        BaseContent cm = _c;\n        require (cm.owner() == msg.sender && cm.catalog() == catalog_address);\n        contents_list.push(cm);\n        position_content[cm.title()] = contents_list.length;\n        emit new_publication (cm.title(), cm.author(), cm.genre(), cm.owner());\n        return contents_list.length;\n    }\n    \n    /* pays to access content _t */\n    function GetContent (bytes32 _t) external payable {\n        require(msg.value == GetPrice(_t));\n        uint i = position_content[_t];\n        if (i != 0) {\n            contents_list[i-1].Authorize(msg.sender);\n            emit content_acquired (_t, msg.sender, msg.sender, 0);\n        }\n    }\n    \n    /* premium accounts can requests access to content _t without paying */\n    function GetContentPremium (bytes32 _t) external {\n        require(isPremium(msg.sender));\n        uint i = position_content[_t];\n        if (i != 0) {\n            contents_list[i-1].AuthorizePremium(msg.sender, premium_customers[msg.sender]);\n            emit content_acquired (_t, msg.sender, msg.sender, 0);\n        }\n    }\n    \n    /* pays for granting access to content _t to the user _u */\n    function GiftContent  (bytes32 _t, address _u) external payable {\n        require(msg.value == GetPrice(_t));        \n        uint i = position_content[_t];\n        if (i != 0) {\n            contents_list[i-1].Authorize(_u);\n            emit content_acquired (_t, msg.sender, _u, 1);\n        }\n    }\n       \n    /* buys a new premium subscription */\n    function BuyPremium () external payable {\n        require(msg.value == cost_premium);\n        premium_customers[msg.sender] = block.number + time_premium;\n        emit premium_acquired (msg.sender, msg.sender, 0);\n    }\n\n     /* pays for granting a premium account to the user _u */\n    function GiftPremium  (address _u) external payable {\n        require(msg.value == cost_premium);\n        premium_customers[_u] = block.number + time_premium;\n        emit premium_acquired (msg.sender, _u, 1);\n    }\n\n    /* allows to set the last block seen by an account */\n    function SetNotification (address _a, uint _x) external {\n        notifications_to_see[_a] = _x;\n    }\n    \n    /* pay an author a multiple of v views*/\n    function PayAuthor (bytes32 _t) external {\n        uint i = position_content[_t];\n        if (i != 0) {\n            uint32 tot_views = contents_list[i-1].view_count();\n            uint32 to_pay = tot_views - contents_list[i-1].views_already_payed();\n            if (to_pay >= v) {\n                uint256 price_per_view = contents_list[i-1].price() * GetRate(_t)/50;\n                contents_list[i-1].owner().transfer(to_pay * price_per_view);\n                contents_list[i-1].Payed(to_pay);\n                emit author_payed (_t, contents_list[i-1].owner(), to_pay * price_per_view);\n            }\n        }\n    }\n    \n    /* returns the total number of views and the total number of views that has to payed */\n    function GetTotalViews () private view returns (uint) {\n        uint tot_views = 0;\n        for (uint i = 0; i < contents_list.length; i++) {\n            tot_views = tot_views + contents_list[i].view_count();\n        }\n        return tot_views;\n    }\n    \n    /* the catalog can be destructed */\n    function KillCatalog () external byOwner {\n        uint tot_views = GetTotalViews();\n        uint money_per_view = catalog_address.balance / tot_views;\n        for (uint i = 0; i < contents_list.length; i++) {\n            uint proportional_money = contents_list[i].view_count() * money_per_view;\n            contents_list[i].owner().transfer(proportional_money);\n            emit author_payed (contents_list[i].title(), contents_list[i-1].owner(), proportional_money);\n        }\n        selfdestruct(catalog_address);\n    }\n}",
  "sourcePath": "/home/fsbolgi/Documents/cobra_dapp/contracts/Catalog.sol",
  "compiler": {
    "name": "solc",
    "version": "0.4.24+commit.e67f0147.Emscripten.clang"
  },
  "schemaVersion": "2.0.1",
  "updatedAt": "2019-01-10T08:58:31.802Z"
}