{
  "contractName": "Catalog",
  "abi": [
    {
      "constant": true,
      "inputs": [
        {
          "name": "",
          "type": "uint256"
        }
      ],
      "name": "contents_list",
      "outputs": [
        {
          "name": "",
          "type": "address"
        }
      ],
      "payable": false,
      "stateMutability": "view",
      "type": "function"
    },
    {
      "inputs": [],
      "payable": false,
      "stateMutability": "nonpayable",
      "type": "constructor"
    },
    {
      "anonymous": false,
      "inputs": [
        {
          "indexed": false,
          "name": "_catalog_address",
          "type": "address"
        }
      ],
      "name": "catalog_created",
      "type": "event"
    },
    {
      "anonymous": false,
      "inputs": [
        {
          "indexed": false,
          "name": "_title",
          "type": "bytes32"
        },
        {
          "indexed": false,
          "name": "_author",
          "type": "bytes32"
        },
        {
          "indexed": false,
          "name": "_genre",
          "type": "bytes32"
        }
      ],
      "name": "new_publication",
      "type": "event"
    },
    {
      "anonymous": false,
      "inputs": [
        {
          "indexed": false,
          "name": "_title",
          "type": "bytes32"
        },
        {
          "indexed": false,
          "name": "_customer",
          "type": "address"
        },
        {
          "indexed": false,
          "name": "_content",
          "type": "address"
        }
      ],
      "name": "content_acquired",
      "type": "event"
    },
    {
      "anonymous": false,
      "inputs": [
        {
          "indexed": false,
          "name": "_customer",
          "type": "address"
        },
        {
          "indexed": false,
          "name": "_expiration",
          "type": "uint256"
        }
      ],
      "name": "premium_acquired",
      "type": "event"
    },
    {
      "anonymous": false,
      "inputs": [
        {
          "indexed": false,
          "name": "_customer",
          "type": "address"
        },
        {
          "indexed": false,
          "name": "_change",
          "type": "uint256"
        }
      ],
      "name": "change_given",
      "type": "event"
    },
    {
      "anonymous": false,
      "inputs": [
        {
          "indexed": false,
          "name": "_t",
          "type": "bytes32"
        },
        {
          "indexed": false,
          "name": "_tot_money",
          "type": "uint256"
        }
      ],
      "name": "author_payed",
      "type": "event"
    },
    {
      "anonymous": false,
      "inputs": [],
      "name": "catalog_destroyed",
      "type": "event"
    },
    {
      "constant": true,
      "inputs": [],
      "name": "GetLengthCatalog",
      "outputs": [
        {
          "name": "",
          "type": "uint256"
        }
      ],
      "payable": false,
      "stateMutability": "view",
      "type": "function"
    },
    {
      "constant": true,
      "inputs": [
        {
          "name": "_t",
          "type": "bytes32"
        }
      ],
      "name": "GetAuthor",
      "outputs": [
        {
          "name": "",
          "type": "bytes32"
        }
      ],
      "payable": false,
      "stateMutability": "view",
      "type": "function"
    },
    {
      "constant": true,
      "inputs": [
        {
          "name": "_t",
          "type": "bytes32"
        }
      ],
      "name": "GetGenre",
      "outputs": [
        {
          "name": "",
          "type": "bytes32"
        }
      ],
      "payable": false,
      "stateMutability": "view",
      "type": "function"
    },
    {
      "constant": true,
      "inputs": [
        {
          "name": "_t",
          "type": "bytes32"
        }
      ],
      "name": "GetAddress",
      "outputs": [
        {
          "name": "",
          "type": "address"
        }
      ],
      "payable": false,
      "stateMutability": "view",
      "type": "function"
    },
    {
      "constant": true,
      "inputs": [
        {
          "name": "_t",
          "type": "bytes32"
        }
      ],
      "name": "getPrice",
      "outputs": [
        {
          "name": "",
          "type": "uint32"
        }
      ],
      "payable": false,
      "stateMutability": "view",
      "type": "function"
    },
    {
      "constant": true,
      "inputs": [],
      "name": "GetStatistics",
      "outputs": [
        {
          "name": "",
          "type": "bytes32[]"
        },
        {
          "name": "",
          "type": "uint32[]"
        }
      ],
      "payable": false,
      "stateMutability": "view",
      "type": "function"
    },
    {
      "constant": true,
      "inputs": [],
      "name": "GetContentList",
      "outputs": [
        {
          "name": "",
          "type": "bytes32[]"
        }
      ],
      "payable": false,
      "stateMutability": "view",
      "type": "function"
    },
    {
      "constant": true,
      "inputs": [
        {
          "name": "x",
          "type": "uint256"
        }
      ],
      "name": "GetNewContentsList",
      "outputs": [
        {
          "name": "",
          "type": "bytes32[]"
        }
      ],
      "payable": false,
      "stateMutability": "view",
      "type": "function"
    },
    {
      "constant": true,
      "inputs": [
        {
          "name": "_g",
          "type": "bytes32"
        }
      ],
      "name": "GetLatestByGenre",
      "outputs": [
        {
          "name": "",
          "type": "bytes32"
        }
      ],
      "payable": false,
      "stateMutability": "view",
      "type": "function"
    },
    {
      "constant": true,
      "inputs": [
        {
          "name": "_g",
          "type": "bytes32"
        }
      ],
      "name": "GetMostPopularByGenre",
      "outputs": [
        {
          "name": "",
          "type": "bytes32"
        }
      ],
      "payable": false,
      "stateMutability": "view",
      "type": "function"
    },
    {
      "constant": true,
      "inputs": [
        {
          "name": "_a",
          "type": "bytes32"
        }
      ],
      "name": "GetLatestByAuthor",
      "outputs": [
        {
          "name": "",
          "type": "bytes32"
        }
      ],
      "payable": false,
      "stateMutability": "view",
      "type": "function"
    },
    {
      "constant": true,
      "inputs": [
        {
          "name": "_a",
          "type": "bytes32"
        }
      ],
      "name": "GetMostPopularByAuthor",
      "outputs": [
        {
          "name": "",
          "type": "bytes32"
        }
      ],
      "payable": false,
      "stateMutability": "view",
      "type": "function"
    },
    {
      "constant": true,
      "inputs": [
        {
          "name": "_y",
          "type": "uint32"
        }
      ],
      "name": "GetMostRated",
      "outputs": [
        {
          "name": "",
          "type": "bytes32"
        }
      ],
      "payable": false,
      "stateMutability": "view",
      "type": "function"
    },
    {
      "constant": true,
      "inputs": [
        {
          "name": "_g",
          "type": "bytes32"
        },
        {
          "name": "_y",
          "type": "uint32"
        }
      ],
      "name": "GetMostRatedByGenre",
      "outputs": [
        {
          "name": "",
          "type": "bytes32"
        }
      ],
      "payable": false,
      "stateMutability": "view",
      "type": "function"
    },
    {
      "constant": true,
      "inputs": [
        {
          "name": "_a",
          "type": "bytes32"
        },
        {
          "name": "_y",
          "type": "uint32"
        }
      ],
      "name": "GetMostRatedByAuthor",
      "outputs": [
        {
          "name": "",
          "type": "bytes32"
        }
      ],
      "payable": false,
      "stateMutability": "view",
      "type": "function"
    },
    {
      "constant": true,
      "inputs": [
        {
          "name": "_c",
          "type": "address"
        }
      ],
      "name": "isPremium",
      "outputs": [
        {
          "name": "",
          "type": "bool"
        }
      ],
      "payable": false,
      "stateMutability": "view",
      "type": "function"
    },
    {
      "constant": false,
      "inputs": [
        {
          "name": "_c",
          "type": "address"
        }
      ],
      "name": "AddContent",
      "outputs": [
        {
          "name": "",
          "type": "uint256"
        }
      ],
      "payable": false,
      "stateMutability": "nonpayable",
      "type": "function"
    },
    {
      "constant": false,
      "inputs": [
        {
          "name": "_t",
          "type": "bytes32"
        }
      ],
      "name": "GetContent",
      "outputs": [],
      "payable": true,
      "stateMutability": "payable",
      "type": "function"
    },
    {
      "constant": false,
      "inputs": [
        {
          "name": "_t",
          "type": "bytes32"
        }
      ],
      "name": "GetContentPremium",
      "outputs": [],
      "payable": false,
      "stateMutability": "nonpayable",
      "type": "function"
    },
    {
      "constant": false,
      "inputs": [
        {
          "name": "_t",
          "type": "bytes32"
        },
        {
          "name": "_u",
          "type": "address"
        }
      ],
      "name": "GiftContent",
      "outputs": [],
      "payable": true,
      "stateMutability": "payable",
      "type": "function"
    },
    {
      "constant": false,
      "inputs": [
        {
          "name": "_u",
          "type": "address"
        }
      ],
      "name": "GiftPremium",
      "outputs": [],
      "payable": true,
      "stateMutability": "payable",
      "type": "function"
    },
    {
      "constant": false,
      "inputs": [],
      "name": "BuyPremium",
      "outputs": [],
      "payable": true,
      "stateMutability": "payable",
      "type": "function"
    },
    {
      "constant": false,
      "inputs": [
        {
          "name": "_t",
          "type": "bytes32"
        }
      ],
      "name": "PayAuthor",
      "outputs": [],
      "payable": false,
      "stateMutability": "nonpayable",
      "type": "function"
    },
    {
      "constant": false,
      "inputs": [],
      "name": "KillCatalog",
      "outputs": [],
      "payable": false,
      "stateMutability": "nonpayable",
      "type": "function"
    }
  ],
  "bytecode": "0x6080604052619c4060055566071afd498d0000600655666a94d74f4300006007556064600860006101000a81548161ffff021916908361ffff16021790555034801561004a57600080fd5b50336000806101000a81548173ffffffffffffffffffffffffffffffffffffffff021916908373ffffffffffffffffffffffffffffffffffffffff16021790555030600160006101000a81548173ffffffffffffffffffffffffffffffffffffffff021916908373ffffffffffffffffffffffffffffffffffffffff1602179055507f6a471b7bf10142f503fa5f24b30b633c5fa9d4131cb9aec08197a1db84f14366600160009054906101000a900473ffffffffffffffffffffffffffffffffffffffff16604051808273ffffffffffffffffffffffffffffffffffffffff1673ffffffffffffffffffffffffffffffffffffffff16815260200191505060405180910390a16149fb806101606000396000f300608060405260043610610149576000357c0100000000000000000000000000000000000000000000000000000000900463ffffffff1680630c30ad891461014e5780630d634eb51461017f5780632669e0ad146101dc5780632eefa37f1461022957806331d98b3f146102335780633a20d676146102845780633c027d8a146102a857806341c2b619146102bf5780634d94c8871461032c5780634dc1e1681461035757806351d25fe61461038d57806358e5a47414610441578063742fe0d41461048e5780637faa1f93146104e95780638ded2d73146105465780638e2b47cd1461059d578063aeed4de3146105ea578063d1628fb014610637578063d94cf6e0146106b9578063d97c006514610706578063df1263d514610737578063f15b363a14610786578063f7643191146107ca578063f867cff71461083b578063ff70f85914610888575b600080fd5b34801561015a57600080fd5b5061017d60048036038101908080356000191690602001909291905050506108f4565b005b34801561018b57600080fd5b506101be6004803603810190808035600019169060200190929190803563ffffffff169060200190929190505050610d53565b60405180826000191660001916815260200191505060405180910390f35b3480156101e857600080fd5b5061020b600480360381019080803560001916906020019092919050505061119a565b60405180826000191660001916815260200191505060405180910390f35b6102316112ae565b005b34801561023f57600080fd5b506102626004803603810190808035600019169060200190929190505050611479565b604051808263ffffffff1663ffffffff16815260200191505060405180910390f35b6102a6600480360381019080803560001916906020019092919050505061158d565b005b3480156102b457600080fd5b506102bd61187c565b005b3480156102cb57600080fd5b506102ea60048036038101908080359060200190929190505050611eab565b604051808273ffffffffffffffffffffffffffffffffffffffff1673ffffffffffffffffffffffffffffffffffffffff16815260200191505060405180910390f35b34801561033857600080fd5b50610341611ee9565b6040518082815260200191505060405180910390f35b61038b600480360381019080803573ffffffffffffffffffffffffffffffffffffffff169060200190929190505050611ef6565b005b34801561039957600080fd5b506103a26120c2565b604051808060200180602001838103835285818151815260200191508051906020019060200280838360005b838110156103e95780820151818401526020810190506103ce565b50505050905001838103825284818151815260200191508051906020019060200280838360005b8381101561042b578082015181840152602081019050610410565b5050505090500194505050505060405180910390f35b34801561044d57600080fd5b506104706004803603810190808035600019169060200190929190505050612360565b60405180826000191660001916815260200191505060405180910390f35b34801561049a57600080fd5b506104cf600480360381019080803573ffffffffffffffffffffffffffffffffffffffff169060200190929190505050612474565b604051808215151515815260200191505060405180910390f35b3480156104f557600080fd5b506105286004803603810190808035600019169060200190929190803563ffffffff1690602001909291905050506124bf565b60405180826000191660001916815260200191505060405180910390f35b34801561055257600080fd5b50610587600480360381019080803573ffffffffffffffffffffffffffffffffffffffff169060200190929190505050612906565b6040518082815260200191505060405180910390f35b3480156105a957600080fd5b506105cc6004803603810190808035600019169060200190929190505050612e4b565b60405180826000191660001916815260200191505060405180910390f35b3480156105f657600080fd5b506106196004803603810190808035600019169060200190929190505050613064565b60405180826000191660001916815260200191505060405180910390f35b34801561064357600080fd5b506106626004803603810190808035906020019092919050505061327d565b6040518080602001828103825283818151815260200191508051906020019060200280838360005b838110156106a557808201518184015260208101905061068a565b505050509050019250505060405180910390f35b3480156106c557600080fd5b506106e86004803603810190808035600019169060200190929190505050613425565b60405180826000191660001916815260200191505060405180910390f35b34801561071257600080fd5b5061073560048036038101908080356000191690602001909291905050506137ea565b005b34801561074357600080fd5b50610768600480360381019080803563ffffffff169060200190929190505050613a46565b60405180826000191660001916815260200191505060405180910390f35b6107c86004803603810190808035600019169060200190929190803573ffffffffffffffffffffffffffffffffffffffff169060200190929190505050613cff565b005b3480156107d657600080fd5b506107f96004803603810190808035600019169060200190929190505050613fef565b604051808273ffffffffffffffffffffffffffffffffffffffff1673ffffffffffffffffffffffffffffffffffffffff16815260200191505060405180910390f35b34801561084757600080fd5b5061086a6004803603810190808035600019169060200190929190505050614103565b60405180826000191660001916815260200191505060405180910390f35b34801561089457600080fd5b5061089d6144c8565b6040518080602001828103825283818151815260200191508051906020019060200280838360005b838110156108e05780820151818401526020810190506108c5565b505050509050019250505060405180910390f35b6000806000600360008560001916600019168152602001908152602001600020549250600083141515610d4d5760026001840381548110151561093357fe5b9060005260206000200160009054906101000a900473ffffffffffffffffffffffffffffffffffffffff1673ffffffffffffffffffffffffffffffffffffffff166339c614a16040518163ffffffff167c0100000000000000000000000000000000000000000000000000000000028152600401602060405180830381600087803b1580156109c157600080fd5b505af11580156109d5573d6000803e3d6000fd5b505050506040513d60208110156109eb57600080fd5b81019080805190602001909291905050509150600260018403815481101515610a1057fe5b9060005260206000200160009054906101000a900473ffffffffffffffffffffffffffffffffffffffff1673ffffffffffffffffffffffffffffffffffffffff1663e76c3ba86040518163ffffffff167c0100000000000000000000000000000000000000000000000000000000028152600401602060405180830381600087803b158015610a9e57600080fd5b505af1158015610ab2573d6000803e3d6000fd5b505050506040513d6020811015610ac857600080fd5b810190808051906020019092919050505082039050600860009054906101000a900461ffff1661ffff168163ffffffff16101515610d4c57600260018403815481101515610b1257fe5b9060005260206000200160009054906101000a900473ffffffffffffffffffffffffffffffffffffffff1673ffffffffffffffffffffffffffffffffffffffff16638da5cb5b6040518163ffffffff167c0100000000000000000000000000000000000000000000000000000000028152600401602060405180830381600087803b158015610ba057600080fd5b505af1158015610bb4573d6000803e3d6000fd5b505050506040513d6020811015610bca57600080fd5b810190808051906020019092919050505073ffffffffffffffffffffffffffffffffffffffff166108fc6006548363ffffffff16029081150290604051600060405180830381858888f19350505050158015610c2a573d6000803e3d6000fd5b50600260018403815481101515610c3d57fe5b9060005260206000200160009054906101000a900473ffffffffffffffffffffffffffffffffffffffff1673ffffffffffffffffffffffffffffffffffffffff1663e9df3010826040518263ffffffff167c0100000000000000000000000000000000000000000000000000000000028152600401808263ffffffff1663ffffffff168152602001915050600060405180830381600087803b158015610ce257600080fd5b505af1158015610cf6573d6000803e3d6000fd5b505050507fcb574b8f73b5197bc67007875e790c4e4b5f36ff460014d13c9c54c81a04cc2b846006548363ffffffff16026040518083600019166000191681526020018281526020019250505060405180910390a15b5b50505050565b600080600080600080600102935060009250600091505b60028054905082101561118d578660001916600283815481101515610d8b57fe5b9060005260206000200160009054906101000a900473ffffffffffffffffffffffffffffffffffffffff1673ffffffffffffffffffffffffffffffffffffffff166317de3a416040518163ffffffff167c0100000000000000000000000000000000000000000000000000000000028152600401602060405180830381600087803b158015610e1957600080fd5b505af1158015610e2d573d6000803e3d6000fd5b505050506040513d6020811015610e4357600080fd5b81019080805190602001909291905050506000191614156111805760048663ffffffff1610610eb357610eae600283815481101515610e7e57fe5b9060005260206000200160009054906101000a900473ffffffffffffffffffffffffffffffffffffffff1661462b565b61108b565b600282815481101515610ec257fe5b9060005260206000200160009054906101000a900473ffffffffffffffffffffffffffffffffffffffff1673ffffffffffffffffffffffffffffffffffffffff16631f3e74396040518163ffffffff167c0100000000000000000000000000000000000000000000000000000000028152600401602060405180830381600087803b158015610f5057600080fd5b505af1158015610f64573d6000803e3d6000fd5b505050506040513d6020811015610f7a57600080fd5b810190808051906020019092919050505063ffffffff16600283815481101515610fa057fe5b9060005260206000200160009054906101000a900473ffffffffffffffffffffffffffffffffffffffff1673ffffffffffffffffffffffffffffffffffffffff1663f59dfdfb886040518263ffffffff167c0100000000000000000000000000000000000000000000000000000000028152600401808263ffffffff168152602001915050602060405180830381600087803b15801561103f57600080fd5b505af1158015611053573d6000803e3d6000fd5b505050506040513d602081101561106957600080fd5b810190808051906020019092919050505063ffffffff1681151561108957fe5b045b90508263ffffffff168163ffffffff16111561117f576002828154811015156110b057fe5b9060005260206000200160009054906101000a900473ffffffffffffffffffffffffffffffffffffffff1673ffffffffffffffffffffffffffffffffffffffff16634a79d50c6040518163ffffffff167c0100000000000000000000000000000000000000000000000000000000028152600401602060405180830381600087803b15801561113e57600080fd5b505af1158015611152573d6000803e3d6000fd5b505050506040513d602081101561116857600080fd5b810190808051906020019092919050505093508092505b5b8180600101925050610d6a565b8394505050505092915050565b6000806003600084600019166000191681526020019081526020016000205490506000811415156112a7576002600182038154811015156111d757fe5b9060005260206000200160009054906101000a900473ffffffffffffffffffffffffffffffffffffffff1673ffffffffffffffffffffffffffffffffffffffff1663a6c3e6b96040518163ffffffff167c0100000000000000000000000000000000000000000000000000000000028152600401602060405180830381600087803b15801561126557600080fd5b505af1158015611279573d6000803e3d6000fd5b505050506040513d602081101561128f57600080fd5b810190808051906020019092919050505091506112a8565b5b50919050565b600060075434101515156112c157600080fd5b600754340390506000811115611384573373ffffffffffffffffffffffffffffffffffffffff166108fc829081150290604051600060405180830381858888f19350505050158015611317573d6000803e3d6000fd5b507fa56865e6f4f943788c350074b8b51eac74c2839a1398f944609880c190d0f6f63382604051808373ffffffffffffffffffffffffffffffffffffffff1673ffffffffffffffffffffffffffffffffffffffff1681526020018281526020019250505060405180910390a15b6005544301600460003373ffffffffffffffffffffffffffffffffffffffff1673ffffffffffffffffffffffffffffffffffffffff168152602001908152602001600020819055507f2b800548c0251e67f66a49253edd3d38e75a1637205d172a31a0570ca733c85733600460003373ffffffffffffffffffffffffffffffffffffffff1673ffffffffffffffffffffffffffffffffffffffff16815260200190815260200160002054604051808373ffffffffffffffffffffffffffffffffffffffff1673ffffffffffffffffffffffffffffffffffffffff1681526020018281526020019250505060405180910390a150565b600080600360008460001916600019168152602001908152602001600020549050600081141515611586576002600182038154811015156114b657fe5b9060005260206000200160009054906101000a900473ffffffffffffffffffffffffffffffffffffffff1673ffffffffffffffffffffffffffffffffffffffff1663a035b1fe6040518163ffffffff167c0100000000000000000000000000000000000000000000000000000000028152600401602060405180830381600087803b15801561154457600080fd5b505af1158015611558573d6000803e3d6000fd5b505050506040513d602081101561156e57600080fd5b81019080805190602001909291905050509150611587565b5b50919050565b60008061159983611479565b63ffffffff1634101515156115ad57600080fd5b6115b683611479565b63ffffffff1634039150600082111561167c573373ffffffffffffffffffffffffffffffffffffffff166108fc839081150290604051600060405180830381858888f1935050505015801561160f573d6000803e3d6000fd5b507fa56865e6f4f943788c350074b8b51eac74c2839a1398f944609880c190d0f6f63383604051808373ffffffffffffffffffffffffffffffffffffffff1673ffffffffffffffffffffffffffffffffffffffff1681526020018281526020019250505060405180910390a15b600360008460001916600019168152602001908152602001600020549050600081141515611877576002600182038154811015156116b657fe5b9060005260206000200160009054906101000a900473ffffffffffffffffffffffffffffffffffffffff1673ffffffffffffffffffffffffffffffffffffffff16636d81a01b336040518263ffffffff167c0100000000000000000000000000000000000000000000000000000000028152600401808273ffffffffffffffffffffffffffffffffffffffff1673ffffffffffffffffffffffffffffffffffffffff168152602001915050600060405180830381600087803b15801561177b57600080fd5b505af115801561178f573d6000803e3d6000fd5b505050507fb9b4171ed7d8be2fdd3d7cbfc710fa9fe32417702c6b1d7c4362229814d0775f83336002600185038154811015156117c857fe5b9060005260206000200160009054906101000a900473ffffffffffffffffffffffffffffffffffffffff166040518084600019166000191681526020018373ffffffffffffffffffffffffffffffffffffffff1673ffffffffffffffffffffffffffffffffffffffff1681526020018273ffffffffffffffffffffffffffffffffffffffff1673ffffffffffffffffffffffffffffffffffffffff168152602001935050505060405180910390a15b505050565b6000806000806000806000806000809054906101000a900473ffffffffffffffffffffffffffffffffffffffff1673ffffffffffffffffffffffffffffffffffffffff163373ffffffffffffffffffffffffffffffffffffffff161415156118e357600080fd5b6118eb6147ca565b80985081995050506006548789030295508786600160009054906101000a900473ffffffffffffffffffffffffffffffffffffffff1673ffffffffffffffffffffffffffffffffffffffff16310381151561194257fe5b049450600093505b600280549050841015611e445760065460028581548110151561196957fe5b9060005260206000200160009054906101000a900473ffffffffffffffffffffffffffffffffffffffff1673ffffffffffffffffffffffffffffffffffffffff1663e76c3ba86040518163ffffffff167c0100000000000000000000000000000000000000000000000000000000028152600401602060405180830381600087803b1580156119f757600080fd5b505af1158015611a0b573d6000803e3d6000fd5b505050506040513d6020811015611a2157600080fd5b8101908080519060200190929190505050600286815481101515611a4157fe5b9060005260206000200160009054906101000a900473ffffffffffffffffffffffffffffffffffffffff1673ffffffffffffffffffffffffffffffffffffffff166339c614a16040518163ffffffff167c0100000000000000000000000000000000000000000000000000000000028152600401602060405180830381600087803b158015611acf57600080fd5b505af1158015611ae3573d6000803e3d6000fd5b505050506040513d6020811015611af957600080fd5b81019080805190602001909291905050500363ffffffff1602925084600285815481101515611b2457fe5b9060005260206000200160009054906101000a900473ffffffffffffffffffffffffffffffffffffffff1673ffffffffffffffffffffffffffffffffffffffff166339c614a16040518163ffffffff167c0100000000000000000000000000000000000000000000000000000000028152600401602060405180830381600087803b158015611bb257600080fd5b505af1158015611bc6573d6000803e3d6000fd5b505050506040513d6020811015611bdc57600080fd5b810190808051906020019092919050505063ffffffff160291508183019050600284815481101515611c0a57fe5b9060005260206000200160009054906101000a900473ffffffffffffffffffffffffffffffffffffffff1673ffffffffffffffffffffffffffffffffffffffff16638da5cb5b6040518163ffffffff167c0100000000000000000000000000000000000000000000000000000000028152600401602060405180830381600087803b158015611c9857600080fd5b505af1158015611cac573d6000803e3d6000fd5b505050506040513d6020811015611cc257600080fd5b810190808051906020019092919050505073ffffffffffffffffffffffffffffffffffffffff166108fc829081150290604051600060405180830381858888f19350505050158015611d18573d6000803e3d6000fd5b507fcb574b8f73b5197bc67007875e790c4e4b5f36ff460014d13c9c54c81a04cc2b600285815481101515611d4957fe5b9060005260206000200160009054906101000a900473ffffffffffffffffffffffffffffffffffffffff1673ffffffffffffffffffffffffffffffffffffffff16634a79d50c6040518163ffffffff167c0100000000000000000000000000000000000000000000000000000000028152600401602060405180830381600087803b158015611dd757600080fd5b505af1158015611deb573d6000803e3d6000fd5b505050506040513d6020811015611e0157600080fd5b8101908080519060200190929190505050826040518083600019166000191681526020018281526020019250505060405180910390a1838060010194505061194a565b7fff5361f0294b69eb80adff39d5edf78c34755cdaf4f60228fd6a7561ecec60dc60405160405180910390a1600160009054906101000a900473ffffffffffffffffffffffffffffffffffffffff1673ffffffffffffffffffffffffffffffffffffffff16ff5b600281815481101515611eba57fe5b906000526020600020016000915054906101000a900473ffffffffffffffffffffffffffffffffffffffff1681565b6000600280549050905090565b60006007543410151515611f0957600080fd5b600754340390506000811115611fcc573373ffffffffffffffffffffffffffffffffffffffff166108fc829081150290604051600060405180830381858888f19350505050158015611f5f573d6000803e3d6000fd5b507fa56865e6f4f943788c350074b8b51eac74c2839a1398f944609880c190d0f6f63382604051808373ffffffffffffffffffffffffffffffffffffffff1673ffffffffffffffffffffffffffffffffffffffff1681526020018281526020019250505060405180910390a15b6005544301600460008473ffffffffffffffffffffffffffffffffffffffff1673ffffffffffffffffffffffffffffffffffffffff168152602001908152602001600020819055507f2b800548c0251e67f66a49253edd3d38e75a1637205d172a31a0570ca733c85782600460008573ffffffffffffffffffffffffffffffffffffffff1673ffffffffffffffffffffffffffffffffffffffff16815260200190815260200160002054604051808373ffffffffffffffffffffffffffffffffffffffff1673ffffffffffffffffffffffffffffffffffffffff1681526020018281526020019250505060405180910390a15050565b606080600060608060006002805490509350836040519080825280602002602001820160405280156121035781602001602082028038833980820191505090505b509250836040519080825280602002602001820160405280156121355781602001602082028038833980820191505090505b509150600090505b838110156123525760028181548110151561215457fe5b9060005260206000200160009054906101000a900473ffffffffffffffffffffffffffffffffffffffff1673ffffffffffffffffffffffffffffffffffffffff16634a79d50c6040518163ffffffff167c0100000000000000000000000000000000000000000000000000000000028152600401602060405180830381600087803b1580156121e257600080fd5b505af11580156121f6573d6000803e3d6000fd5b505050506040513d602081101561220c57600080fd5b8101908080519060200190929190505050838281518110151561222b57fe5b90602001906020020190600019169081600019168152505060028181548110151561225257fe5b9060005260206000200160009054906101000a900473ffffffffffffffffffffffffffffffffffffffff1673ffffffffffffffffffffffffffffffffffffffff166339c614a16040518163ffffffff167c0100000000000000000000000000000000000000000000000000000000028152600401602060405180830381600087803b1580156122e057600080fd5b505af11580156122f4573d6000803e3d6000fd5b505050506040513d602081101561230a57600080fd5b8101908080519060200190929190505050828281518110151561232957fe5b9060200190602002019063ffffffff16908163ffffffff1681525050808060010191505061213d565b828295509550505050509091565b60008060036000846000191660001916815260200190815260200160002054905060008114151561246d5760026001820381548110151561239d57fe5b9060005260206000200160009054906101000a900473ffffffffffffffffffffffffffffffffffffffff1673ffffffffffffffffffffffffffffffffffffffff166317de3a416040518163ffffffff167c0100000000000000000000000000000000000000000000000000000000028152600401602060405180830381600087803b15801561242b57600080fd5b505af115801561243f573d6000803e3d6000fd5b505050506040513d602081101561245557600080fd5b8101908080519060200190929190505050915061246e565b5b50919050565b600043600460008473ffffffffffffffffffffffffffffffffffffffff1673ffffffffffffffffffffffffffffffffffffffff16815260200190815260200160002054119050919050565b600080600080600080600102935060009250600091505b6002805490508210156128f95786600019166002838154811015156124f757fe5b9060005260206000200160009054906101000a900473ffffffffffffffffffffffffffffffffffffffff1673ffffffffffffffffffffffffffffffffffffffff1663a6c3e6b96040518163ffffffff167c0100000000000000000000000000000000000000000000000000000000028152600401602060405180830381600087803b15801561258557600080fd5b505af1158015612599573d6000803e3d6000fd5b505050506040513d60208110156125af57600080fd5b81019080805190602001909291905050506000191614156128ec5760048663ffffffff161061261f5761261a6002838154811015156125ea57fe5b9060005260206000200160009054906101000a900473ffffffffffffffffffffffffffffffffffffffff1661462b565b6127f7565b60028281548110151561262e57fe5b9060005260206000200160009054906101000a900473ffffffffffffffffffffffffffffffffffffffff1673ffffffffffffffffffffffffffffffffffffffff16631f3e74396040518163ffffffff167c0100000000000000000000000000000000000000000000000000000000028152600401602060405180830381600087803b1580156126bc57600080fd5b505af11580156126d0573d6000803e3d6000fd5b505050506040513d60208110156126e657600080fd5b810190808051906020019092919050505063ffffffff1660028381548110151561270c57fe5b9060005260206000200160009054906101000a900473ffffffffffffffffffffffffffffffffffffffff1673ffffffffffffffffffffffffffffffffffffffff1663f59dfdfb886040518263ffffffff167c0100000000000000000000000000000000000000000000000000000000028152600401808263ffffffff168152602001915050602060405180830381600087803b1580156127ab57600080fd5b505af11580156127bf573d6000803e3d6000fd5b505050506040513d60208110156127d557600080fd5b810190808051906020019092919050505063ffffffff168115156127f557fe5b045b90508263ffffffff168163ffffffff1611156128eb5760028281548110151561281c57fe5b9060005260206000200160009054906101000a900473ffffffffffffffffffffffffffffffffffffffff1673ffffffffffffffffffffffffffffffffffffffff16634a79d50c6040518163ffffffff167c0100000000000000000000000000000000000000000000000000000000028152600401602060405180830381600087803b1580156128aa57600080fd5b505af11580156128be573d6000803e3d6000fd5b505050506040513d60208110156128d457600080fd5b810190808051906020019092919050505093508092505b5b81806001019250506124d6565b8394505050505092915050565b6000808290503373ffffffffffffffffffffffffffffffffffffffff168173ffffffffffffffffffffffffffffffffffffffff16638da5cb5b6040518163ffffffff167c0100000000000000000000000000000000000000000000000000000000028152600401602060405180830381600087803b15801561298757600080fd5b505af115801561299b573d6000803e3d6000fd5b505050506040513d60208110156129b157600080fd5b810190808051906020019092919050505073ffffffffffffffffffffffffffffffffffffffff16148015612ad05750600160009054906101000a900473ffffffffffffffffffffffffffffffffffffffff1673ffffffffffffffffffffffffffffffffffffffff168173ffffffffffffffffffffffffffffffffffffffff1663074c09eb6040518163ffffffff167c0100000000000000000000000000000000000000000000000000000000028152600401602060405180830381600087803b158015612a7d57600080fd5b505af1158015612a91573d6000803e3d6000fd5b505050506040513d6020811015612aa757600080fd5b810190808051906020019092919050505073ffffffffffffffffffffffffffffffffffffffff16145b1515612adb57600080fd5b60028190806001815401808255809150509060018203906000526020600020016000909192909190916101000a81548173ffffffffffffffffffffffffffffffffffffffff021916908373ffffffffffffffffffffffffffffffffffffffff16021790555050600280549050600360008373ffffffffffffffffffffffffffffffffffffffff16634a79d50c6040518163ffffffff167c0100000000000000000000000000000000000000000000000000000000028152600401602060405180830381600087803b158015612baf57600080fd5b505af1158015612bc3573d6000803e3d6000fd5b505050506040513d6020811015612bd957600080fd5b810190808051906020019092919050505060001916600019168152602001908152602001600020819055507fdda355a4ff5285e5ca9d8fa1c68571d1d2f9108352e8f58140122faef426b5d68173ffffffffffffffffffffffffffffffffffffffff16634a79d50c6040518163ffffffff167c0100000000000000000000000000000000000000000000000000000000028152600401602060405180830381600087803b158015612c8957600080fd5b505af1158015612c9d573d6000803e3d6000fd5b505050506040513d6020811015612cb357600080fd5b81019080805190602001909291905050508273ffffffffffffffffffffffffffffffffffffffff1663a6c3e6b96040518163ffffffff167c0100000000000000000000000000000000000000000000000000000000028152600401602060405180830381600087803b158015612d2857600080fd5b505af1158015612d3c573d6000803e3d6000fd5b505050506040513d6020811015612d5257600080fd5b81019080805190602001909291905050508373ffffffffffffffffffffffffffffffffffffffff166317de3a416040518163ffffffff167c0100000000000000000000000000000000000000000000000000000000028152600401602060405180830381600087803b158015612dc757600080fd5b505af1158015612ddb573d6000803e3d6000fd5b505050506040513d6020811015612df157600080fd5b810190808051906020019092919050505060405180846000191660001916815260200183600019166000191681526020018260001916600019168152602001935050505060405180910390a1600280549050915050919050565b60008060006002805490509150600082111561305c576001820390505b60008110151561305b578360001916600282815481101515612e8657fe5b9060005260206000200160009054906101000a900473ffffffffffffffffffffffffffffffffffffffff1673ffffffffffffffffffffffffffffffffffffffff166317de3a416040518163ffffffff167c0100000000000000000000000000000000000000000000000000000000028152600401602060405180830381600087803b158015612f1457600080fd5b505af1158015612f28573d6000803e3d6000fd5b505050506040513d6020811015612f3e57600080fd5b810190808051906020019092919050505060001916141561303857600281815481101515612f6857fe5b9060005260206000200160009054906101000a900473ffffffffffffffffffffffffffffffffffffffff1673ffffffffffffffffffffffffffffffffffffffff16634a79d50c6040518163ffffffff167c0100000000000000000000000000000000000000000000000000000000028152600401602060405180830381600087803b158015612ff657600080fd5b505af115801561300a573d6000803e3d6000fd5b505050506040513d602081101561302057600080fd5b8101908080519060200190929190505050925061305d565b600081141561304d576000600102925061305d565b808060019003915050612e68565b5b5b5050919050565b600080600060028054905091506000821115613275576001820390505b60008110151561327457836000191660028281548110151561309f57fe5b9060005260206000200160009054906101000a900473ffffffffffffffffffffffffffffffffffffffff1673ffffffffffffffffffffffffffffffffffffffff1663a6c3e6b96040518163ffffffff167c0100000000000000000000000000000000000000000000000000000000028152600401602060405180830381600087803b15801561312d57600080fd5b505af1158015613141573d6000803e3d6000fd5b505050506040513d602081101561315757600080fd5b81019080805190602001909291905050506000191614156132515760028181548110151561318157fe5b9060005260206000200160009054906101000a900473ffffffffffffffffffffffffffffffffffffffff1673ffffffffffffffffffffffffffffffffffffffff16634a79d50c6040518163ffffffff167c0100000000000000000000000000000000000000000000000000000000028152600401602060405180830381600087803b15801561320f57600080fd5b505af1158015613223573d6000803e3d6000fd5b505050506040513d602081101561323957600080fd5b81019080805190602001909291905050509250613276565b60008114156132665760006001029250613276565b808060019003915050613081565b5b5b5050919050565b60606000606060006002805490509250846040519080825280602002602001820160405280156132bc5781602001602082028038833980820191505090505b5091506000831180156132d0575060008514155b15613419578285111515156132e457600080fd5b6001830390505b848303811015156134185760028181548110151561330557fe5b9060005260206000200160009054906101000a900473ffffffffffffffffffffffffffffffffffffffff1673ffffffffffffffffffffffffffffffffffffffff16634a79d50c6040518163ffffffff167c0100000000000000000000000000000000000000000000000000000000028152600401602060405180830381600087803b15801561339357600080fd5b505af11580156133a7573d6000803e3d6000fd5b505050506040513d60208110156133bd57600080fd5b8101908080519060200190929190505050828260018603038151811015156133e157fe5b906020019060200201906000191690816000191681525050600081141561340a5781935061341d565b8080600190039150506132eb565b5b8193505b505050919050565b6000806000806000600102925060009150600090505b6002805490508110156137df57846000191660028281548110151561345c57fe5b9060005260206000200160009054906101000a900473ffffffffffffffffffffffffffffffffffffffff1673ffffffffffffffffffffffffffffffffffffffff1663a6c3e6b96040518163ffffffff167c0100000000000000000000000000000000000000000000000000000000028152600401602060405180830381600087803b1580156134ea57600080fd5b505af11580156134fe573d6000803e3d6000fd5b505050506040513d602081101561351457600080fd5b81019080805190602001909291905050506000191614801561361857508163ffffffff1660028281548110151561354757fe5b9060005260206000200160009054906101000a900473ffffffffffffffffffffffffffffffffffffffff1673ffffffffffffffffffffffffffffffffffffffff166339c614a16040518163ffffffff167c0100000000000000000000000000000000000000000000000000000000028152600401602060405180830381600087803b1580156135d557600080fd5b505af11580156135e9573d6000803e3d6000fd5b505050506040513d60208110156135ff57600080fd5b810190808051906020019092919050505063ffffffff16115b156137d25760028181548110151561362c57fe5b9060005260206000200160009054906101000a900473ffffffffffffffffffffffffffffffffffffffff1673ffffffffffffffffffffffffffffffffffffffff16634a79d50c6040518163ffffffff167c0100000000000000000000000000000000000000000000000000000000028152600401602060405180830381600087803b1580156136ba57600080fd5b505af11580156136ce573d6000803e3d6000fd5b505050506040513d60208110156136e457600080fd5b8101908080519060200190929190505050925060028181548110151561370657fe5b9060005260206000200160009054906101000a900473ffffffffffffffffffffffffffffffffffffffff1673ffffffffffffffffffffffffffffffffffffffff166339c614a16040518163ffffffff167c0100000000000000000000000000000000000000000000000000000000028152600401602060405180830381600087803b15801561379457600080fd5b505af11580156137a8573d6000803e3d6000fd5b505050506040513d60208110156137be57600080fd5b810190808051906020019092919050505091505b808060010191505061343b565b829350505050919050565b60006137f533612474565b151561380057600080fd5b600360008360001916600019168152602001908152602001600020549050600081141515613a425760026001820381548110151561383a57fe5b9060005260206000200160009054906101000a900473ffffffffffffffffffffffffffffffffffffffff1673ffffffffffffffffffffffffffffffffffffffff1663e6810afb33600460003373ffffffffffffffffffffffffffffffffffffffff1673ffffffffffffffffffffffffffffffffffffffff168152602001908152602001600020546040518363ffffffff167c0100000000000000000000000000000000000000000000000000000000028152600401808373ffffffffffffffffffffffffffffffffffffffff1673ffffffffffffffffffffffffffffffffffffffff16815260200182815260200192505050600060405180830381600087803b15801561394657600080fd5b505af115801561395a573d6000803e3d6000fd5b505050507fb9b4171ed7d8be2fdd3d7cbfc710fa9fe32417702c6b1d7c4362229814d0775f823360026001850381548110151561399357fe5b9060005260206000200160009054906101000a900473ffffffffffffffffffffffffffffffffffffffff166040518084600019166000191681526020018373ffffffffffffffffffffffffffffffffffffffff1673ffffffffffffffffffffffffffffffffffffffff1681526020018273ffffffffffffffffffffffffffffffffffffffff1673ffffffffffffffffffffffffffffffffffffffff168152602001935050505060405180910390a15b5050565b6000806000806000806000600102945060009350600092505b600280549050831015613cf257600283815481101515613a7b57fe5b9060005260206000200160009054906101000a900473ffffffffffffffffffffffffffffffffffffffff16915060048763ffffffff1610613ac457613abf8261462b565b613c2a565b8173ffffffffffffffffffffffffffffffffffffffff16631f3e74396040518163ffffffff167c0100000000000000000000000000000000000000000000000000000000028152600401602060405180830381600087803b158015613b2857600080fd5b505af1158015613b3c573d6000803e3d6000fd5b505050506040513d6020811015613b5257600080fd5b810190808051906020019092919050505063ffffffff168273ffffffffffffffffffffffffffffffffffffffff1663f59dfdfb896040518263ffffffff167c0100000000000000000000000000000000000000000000000000000000028152600401808263ffffffff168152602001915050602060405180830381600087803b158015613bde57600080fd5b505af1158015613bf2573d6000803e3d6000fd5b505050506040513d6020811015613c0857600080fd5b810190808051906020019092919050505063ffffffff16811515613c2857fe5b045b90508363ffffffff168163ffffffff161115613ce5578173ffffffffffffffffffffffffffffffffffffffff16634a79d50c6040518163ffffffff167c0100000000000000000000000000000000000000000000000000000000028152600401602060405180830381600087803b158015613ca457600080fd5b505af1158015613cb8573d6000803e3d6000fd5b505050506040513d6020811015613cce57600080fd5b810190808051906020019092919050505094508093505b8280600101935050613a5f565b8495505050505050919050565b600080613d0b84611479565b63ffffffff163410151515613d1f57600080fd5b613d2884611479565b63ffffffff16340391506000821115613dee573373ffffffffffffffffffffffffffffffffffffffff166108fc839081150290604051600060405180830381858888f19350505050158015613d81573d6000803e3d6000fd5b507fa56865e6f4f943788c350074b8b51eac74c2839a1398f944609880c190d0f6f63383604051808373ffffffffffffffffffffffffffffffffffffffff1673ffffffffffffffffffffffffffffffffffffffff1681526020018281526020019250505060405180910390a15b600360008560001916600019168152602001908152602001600020549050600081141515613fe957600260018203815481101515613e2857fe5b9060005260206000200160009054906101000a900473ffffffffffffffffffffffffffffffffffffffff1673ffffffffffffffffffffffffffffffffffffffff16636d81a01b846040518263ffffffff167c0100000000000000000000000000000000000000000000000000000000028152600401808273ffffffffffffffffffffffffffffffffffffffff1673ffffffffffffffffffffffffffffffffffffffff168152602001915050600060405180830381600087803b158015613eed57600080fd5b505af1158015613f01573d6000803e3d6000fd5b505050507fb9b4171ed7d8be2fdd3d7cbfc710fa9fe32417702c6b1d7c4362229814d0775f8484600260018503815481101515613f3a57fe5b9060005260206000200160009054906101000a900473ffffffffffffffffffffffffffffffffffffffff166040518084600019166000191681526020018373ffffffffffffffffffffffffffffffffffffffff1673ffffffffffffffffffffffffffffffffffffffff1681526020018273ffffffffffffffffffffffffffffffffffffffff1673ffffffffffffffffffffffffffffffffffffffff168152602001935050505060405180910390a15b50505050565b6000806003600084600019166000191681526020019081526020016000205490506000811415156140fc5760026001820381548110151561402c57fe5b9060005260206000200160009054906101000a900473ffffffffffffffffffffffffffffffffffffffff1673ffffffffffffffffffffffffffffffffffffffff166396aaea816040518163ffffffff167c0100000000000000000000000000000000000000000000000000000000028152600401602060405180830381600087803b1580156140ba57600080fd5b505af11580156140ce573d6000803e3d6000fd5b505050506040513d60208110156140e457600080fd5b810190808051906020019092919050505091506140fd565b5b50919050565b6000806000806000600102925060009150600090505b6002805490508110156144bd57846000191660028281548110151561413a57fe5b9060005260206000200160009054906101000a900473ffffffffffffffffffffffffffffffffffffffff1673ffffffffffffffffffffffffffffffffffffffff166317de3a416040518163ffffffff167c0100000000000000000000000000000000000000000000000000000000028152600401602060405180830381600087803b1580156141c857600080fd5b505af11580156141dc573d6000803e3d6000fd5b505050506040513d60208110156141f257600080fd5b8101908080519060200190929190505050600019161480156142f657508163ffffffff1660028281548110151561422557fe5b9060005260206000200160009054906101000a900473ffffffffffffffffffffffffffffffffffffffff1673ffffffffffffffffffffffffffffffffffffffff166339c614a16040518163ffffffff167c0100000000000000000000000000000000000000000000000000000000028152600401602060405180830381600087803b1580156142b357600080fd5b505af11580156142c7573d6000803e3d6000fd5b505050506040513d60208110156142dd57600080fd5b810190808051906020019092919050505063ffffffff16115b156144b05760028181548110151561430a57fe5b9060005260206000200160009054906101000a900473ffffffffffffffffffffffffffffffffffffffff1673ffffffffffffffffffffffffffffffffffffffff16634a79d50c6040518163ffffffff167c0100000000000000000000000000000000000000000000000000000000028152600401602060405180830381600087803b15801561439857600080fd5b505af11580156143ac573d6000803e3d6000fd5b505050506040513d60208110156143c257600080fd5b810190808051906020019092919050505092506002818154811015156143e457fe5b9060005260206000200160009054906101000a900473ffffffffffffffffffffffffffffffffffffffff1673ffffffffffffffffffffffffffffffffffffffff166339c614a16040518163ffffffff167c0100000000000000000000000000000000000000000000000000000000028152600401602060405180830381600087803b15801561447257600080fd5b505af1158015614486573d6000803e3d6000fd5b505050506040513d602081101561449c57600080fd5b810190808051906020019092919050505091505b8080600101915050614119565b829350505050919050565b60606000606060006002805490509250826040519080825280602002602001820160405280156145075781602001602082028038833980820191505090505b509150600090505b828110156146225760028181548110151561452657fe5b9060005260206000200160009054906101000a900473ffffffffffffffffffffffffffffffffffffffff1673ffffffffffffffffffffffffffffffffffffffff16634a79d50c6040518163ffffffff167c0100000000000000000000000000000000000000000000000000000000028152600401602060405180830381600087803b1580156145b457600080fd5b505af11580156145c8573d6000803e3d6000fd5b505050506040513d60208110156145de57600080fd5b810190808051906020019092919050505082828151811015156145fd57fe5b906020019060200201906000191690816000191681525050808060010191505061450f565b81935050505090565b6000806000809150600090505b60048163ffffffff161015614708578373ffffffffffffffffffffffffffffffffffffffff1663f59dfdfb826040518263ffffffff167c0100000000000000000000000000000000000000000000000000000000028152600401808263ffffffff168152602001915050602060405180830381600087803b1580156146bc57600080fd5b505af11580156146d0573d6000803e3d6000fd5b505050506040513d60208110156146e657600080fd5b8101908080519060200190929190505050820191508080600101915050614638565b60048473ffffffffffffffffffffffffffffffffffffffff16631f3e74396040518163ffffffff167c0100000000000000000000000000000000000000000000000000000000028152600401602060405180830381600087803b15801561476e57600080fd5b505af1158015614782573d6000803e3d6000fd5b505050506040513d602081101561479857600080fd5b81019080805190602001909291905050500263ffffffff168263ffffffff168115156147c057fe5b0492505050919050565b60008060008060008060028054905093506000925060009150600090505b838110156149c1576002818154811015156147ff57fe5b9060005260206000200160009054906101000a900473ffffffffffffffffffffffffffffffffffffffff1673ffffffffffffffffffffffffffffffffffffffff166339c614a16040518163ffffffff167c0100000000000000000000000000000000000000000000000000000000028152600401602060405180830381600087803b15801561488d57600080fd5b505af11580156148a1573d6000803e3d6000fd5b505050506040513d60208110156148b757600080fd5b810190808051906020019092919050505063ffffffff16830192506002818154811015156148e157fe5b9060005260206000200160009054906101000a900473ffffffffffffffffffffffffffffffffffffffff1673ffffffffffffffffffffffffffffffffffffffff1663e76c3ba86040518163ffffffff167c0100000000000000000000000000000000000000000000000000000000028152600401602060405180830381600087803b15801561496f57600080fd5b505af1158015614983573d6000803e3d6000fd5b505050506040513d602081101561499957600080fd5b810190808051906020019092919050505063ffffffff168201915080806001019150506147e8565b8282955095505050505090915600a165627a7a7230582007aadbe9c34184b26e9f1d869a8879d10ae342a1a5ab19cd9ffe1b1114ba9be20029",
  "source": "pragma solidity ^0.4.19;\n\nimport \"./BaseContent.sol\";\n\ncontract Catalog{\n    \n    /* data about the contract itself */\n    address private owner; // address of who uploads\n    address private catalog_address; // address of the contract\n    \n    /* data about the catalog */\n    BaseContent[] public contents_list; \n    mapping (bytes32 => uint) private position_content;\n    mapping (address => uint) private premium_customers; // address of customer to expiration date as block height\n    \n    /* utilities variables */\n    uint private time_premium = 40000; // premium lasts approximately one week\n    uint private cost_content = 0.002 ether; // each content costs  about 80 cents\n    uint private cost_premium = 0.03 ether; // premium costs about 12 euro\n    uint16 private v = 100; // number of views required before payment\n    \n    /* events triggered */\n    event catalog_created (address _catalog_address);\n    event new_publication (bytes32 _title, bytes32 _author, bytes32 _genre);\n    event content_acquired (bytes32 _title, address _customer, BaseContent _content);\n    event premium_acquired (address _customer, uint _expiration);\n    event change_given (address _customer, uint _change);\n    event author_payed (bytes32 _t, uint _tot_money);\n    event catalog_destroyed ();\n\n    /* modifiers that enforce that some functions are called just by specif agents */\n    modifier byOwner() {\n        require(msg.sender == owner);\n        _;\n    }\n\n    /* constructor function of the catalog */\n    constructor () public {\n        owner = msg.sender;\n        catalog_address = address(this);\n        emit catalog_created(catalog_address);\n    }\n    \n    \n    \n    /* Functions which do not change the state of the contract */\n    function GetLengthCatalog () public view returns (uint) {\n        return contents_list.length;\n    }\n \n\n    /* returns the author of a content */\n    function GetAuthor(bytes32 _t) public view returns (bytes32) {\n        uint i = position_content[_t];\n        if (i != 0) {\n            return contents_list[i-1].author();\n        }\n    }\n    \n    /* returns the author of a content */\n    function GetGenre(bytes32 _t) public view returns (bytes32) {\n        uint i = position_content[_t];\n        if (i != 0) {\n            return contents_list[i-1].genre();\n        }\n    }\n    \n    /* returns the address of a content */\n    function GetAddress (bytes32 _t) public view returns (address) {\n        uint i = position_content[_t];\n        if (i != 0) {\n            return contents_list[i-1].content_address();\n        }\n    }\n    \n    /* returns the price of a content */\n    function getPrice (bytes32 _t) public view returns (uint32){\n        uint i = position_content[_t];\n        if (i != 0) {\n            return contents_list[i-1].price();\n        }\n    }\n    \n    \n    /* returns the number of views for each content */\n    function GetStatistics () public view returns (bytes32[] memory, uint32[] memory){\n        uint l_length = contents_list.length;\n        bytes32[] memory titles_list = new bytes32[](l_length);\n        uint32[] memory views_list = new uint32[](l_length);\n        for (uint i = 0; i < l_length; i++) {\n            titles_list[i] = contents_list[i].title();\n            views_list[i] = contents_list[i].view_count();\n        }\n        return (titles_list, views_list);\n    }\n    \n    /* returns the list of contents without the number of views */\n    function GetContentList() public view returns (bytes32[] memory) {\n        uint l_length = contents_list.length;\n        bytes32[] memory titles_list = new bytes32[](l_length);\n        for (uint i = 0; i < l_length; i++) {\n            titles_list[i] = contents_list[i].title();\n        }\n        return titles_list;\n    }\n    \n    /* returns the list of x newest contents */\n    function GetNewContentsList (uint x) public view returns (bytes32[] memory) {\n        uint l_length = contents_list.length;\n        bytes32[] memory titles_list = new bytes32[](x);\n        if (l_length > 0 && x != 0) {\n            require(x <= l_length);\n            for (uint i = l_length - 1; i>= l_length-x; i--) {\n                titles_list[l_length - 1 - i] = contents_list[i].title();\n                if (i == 0) {\n                    return titles_list;\n                }\n            }\n        }\n        return titles_list;\n    }\n    \n    /* returns the most recent content with genre _g */\n    function GetLatestByGenre(bytes32 _g) public view returns (bytes32) {\n        uint l_length = contents_list.length;\n        if (l_length > 0) {\n            for (uint i = l_length - 1; i >= 0; i--) {\n                if (contents_list[i].genre() == _g) {\n                    return contents_list[i].title();\n                }\n                if (i == 0) {\n                    return 0x0;\n                }\n            }\n        }\n    }\n    \n    /* returns the content with genre _g with max views */\n    function GetMostPopularByGenre (bytes32 _g) public view returns (bytes32) {\n        bytes32 most_popular = 0;\n        uint32 most_views = 0;\n        for (uint i = 0; i < contents_list.length; i++) {\n            if (contents_list[i].genre() == _g && contents_list[i].view_count() > most_views) {\n                most_popular = contents_list[i].title();\n                most_views = contents_list[i].view_count();\n            }\n        }\n        return most_popular;\n    }\n    \n    /* returns the most recent content of the author _a */\n    function GetLatestByAuthor (bytes32 _a) public view returns (bytes32) {\n        uint l_length = contents_list.length;\n        if (l_length > 0) {\n            for (uint i = l_length - 1; i >= 0; i--) {\n                if (contents_list[i].author() == _a) {\n                    return contents_list[i].title();\n                }\n                if (i == 0) {\n                    return 0x0;\n                }\n            }\n        }\n    }\n    \n    /* returns the content with most views of the author _a */\n    function GetMostPopularByAuthor (bytes32 _a) public view returns (bytes32){\n        bytes32 most_popular = 0;\n        uint32 most_views = 0;\n        for (uint i = 0; i < contents_list.length; i++) {\n            if (contents_list[i].author() == _a && contents_list[i].view_count() > most_views) {\n                most_popular = contents_list[i].title();\n                most_views = contents_list[i].view_count();\n            }\n        }\n        return most_popular;\n    }\n    \n    /* returns the average rating for a content */ \n    function GetRate (BaseContent _b) private view returns (uint32) {\n        uint32 s = 0;\n        for(uint32 i = 0; i < 4; i++){\n            s += _b.feed(i);\n        }\n        return (s / (_b.nVotes() * 4));\n    }\n    \n    /* returns the content with highest rating for feedback category _y \n    (or highest average of all ratings if y is not specified) */\n    function GetMostRated (uint32 _y) public view returns (bytes32){\n        bytes32 most_rated = 0;\n        uint32 highest_rating = 0;\n        for (uint i = 0; i < contents_list.length; i++) {\n            BaseContent bc = contents_list[i];\n            uint32 r = (_y < 4)? (bc.feed(_y) / bc.nVotes()) : GetRate(bc);\n            if (r > highest_rating) {\n                most_rated = bc.title();\n                highest_rating = r;\n            }\n        }\n        return most_rated;\n    }\n    \n     /* returns the content with highest rating for feedback category _y \n    (or highest average of all ratings if y is not specified) with genre _g */\n    function GetMostRatedByGenre (bytes32 _g, uint32 _y) public view returns (bytes32){\n        bytes32 most_rated = 0;\n        uint32 highest_rating = 0;\n        for (uint i = 0; i < contents_list.length; i++) {\n            if (contents_list[i].genre() == _g) {\n                uint32 r = (_y < 4)? (contents_list[i].feed(_y) / contents_list[i].nVotes()) : GetRate(contents_list[i]);\n                if (r > highest_rating) {\n                    most_rated = contents_list[i].title();\n                    highest_rating = r;\n                }\n            }\n        }\n        return most_rated;\n    }\n    \n    /* returns the content with highest rating for feedback category _y \n    (or highest average of all ratings if y is not specified) with author _a */\n    function GetMostRatedByAuthor (bytes32 _a, uint32 _y) public view returns (bytes32){\n        bytes32 most_rated = 0;\n        uint32 highest_rating = 0;\n        for (uint i = 0; i < contents_list.length; i++) {\n            if (contents_list[i].author() == _a) {\n                uint32 r = (_y < 4)? (contents_list[i].feed(_y) / contents_list[i].nVotes()) : GetRate(contents_list[i]);\n                if (r > highest_rating) {\n                    most_rated = contents_list[i].title();\n                    highest_rating = r;\n                }\n            }\n        }\n        return most_rated;\n    }\n    \n    \n    /* returns true if _c is a valid premium account */\n    function isPremium (address _c) public view returns(bool) {\n        return premium_customers[_c] > block.number;\n    }\n    \n    \n    \n    \n    \n    /* Functions which modify the state of the contract */\n    \n    /* submits a new content _c to the catalog */\n    function AddContent (BaseContent _c) external returns (uint){\n        BaseContent cm = _c;\n        require (cm.owner() == msg.sender && cm.catalog() == catalog_address);\n        contents_list.push(cm);\n        position_content[cm.title()] = contents_list.length;\n        emit new_publication (cm.title(), cm.author(), cm.genre());\n        return contents_list.length;\n    }\n    \n    /* pays to access content _t */\n    function GetContent (bytes32 _t) external payable {\n        require(msg.value >= getPrice(_t));\n        uint change = msg.value - getPrice(_t);\n        if (change > 0) {\n            msg.sender.transfer(change);\n            emit change_given (msg.sender, change);\n        }\n        uint i = position_content[_t];\n        if (i != 0) {\n            contents_list[i-1].Authorize(msg.sender);\n            emit content_acquired (_t, msg.sender, contents_list[i-1]);\n        }\n    }\n    \n    /* premium accounts can requests access to content _t without paying */\n    function GetContentPremium (bytes32 _t) external {\n        require(isPremium(msg.sender));\n        uint i = position_content[_t];\n        if (i != 0) {\n            contents_list[i-1].AuthorizePremium(msg.sender, premium_customers[msg.sender]);\n            emit content_acquired (_t, msg.sender, contents_list[i-1]);\n        }\n    }\n    \n    /* pays for granting access to content _t to the user _u */\n    function GiftContent  (bytes32 _t, address _u) external payable {\n        require(msg.value >= getPrice(_t));\n        uint change = msg.value - getPrice(_t);\n        if (change > 0) {\n            msg.sender.transfer(change);\n            emit change_given (msg.sender, change);\n        }\n        uint i = position_content[_t];\n        if (i != 0) {\n            contents_list[i-1].Authorize(_u);\n            emit content_acquired (_t, _u, contents_list[i-1]);\n        }\n    }\n    \n    /* pays for granting a premium account to the user _u */\n    function GiftPremium  (address _u) external payable {\n        require(msg.value >= cost_premium);\n        uint change = msg.value - cost_premium;\n        if (change > 0) {\n            msg.sender.transfer(change);\n            emit change_given (msg.sender, change);\n        }\n        premium_customers[_u] = block.number + time_premium;\n        emit premium_acquired (_u, premium_customers[_u]);\n    }\n    \n    /* buys a new premium subscription */\n    function BuyPremium () external payable {\n        require(msg.value >= cost_premium);\n        uint change = msg.value - cost_premium;\n        if (change > 0) {\n            msg.sender.transfer(change);\n            emit change_given (msg.sender, change);\n        }\n        premium_customers[msg.sender] = block.number + time_premium;\n        emit premium_acquired (msg.sender, premium_customers[msg.sender]);\n    }\n    \n    /* pay an author a multiple of v views*/\n    function PayAuthor (bytes32 _t) external {\n        uint i = position_content[_t];\n        if (i != 0) {\n            uint32 tot_views = contents_list[i-1].view_count();\n            uint32 to_pay = tot_views - contents_list[i-1].views_already_payed();\n            if (to_pay >= v) {\n                contents_list[i-1].owner().transfer(to_pay * cost_content);\n                contents_list[i-1].Payed(to_pay);\n                emit author_payed (_t, to_pay * cost_content);\n            }\n        }\n    }\n    \n    /* returns the total number of views and the total number of views that has to payed */\n    function GetTotalViews () private view returns (uint, uint) {\n        uint l_length = contents_list.length; \n        uint tot_views = 0;\n        uint tot_already_payed = 0;\n        for (uint i = 0; i < l_length; i++) {\n            tot_views = tot_views + contents_list[i].view_count();\n            tot_already_payed = tot_already_payed + contents_list[i].views_already_payed();\n        }\n        return (tot_views, tot_already_payed);\n    }\n    \n    /* the catalog can be destructed */\n    function KillCatalog () external byOwner {\n        uint tot_views;\n        uint tot_already_payed;\n        (tot_views, tot_already_payed) = GetTotalViews();\n        uint money_remaining_views = (tot_views - tot_already_payed) * cost_content; \n        uint money_per_view = (catalog_address.balance - money_remaining_views) / tot_views;\n        for (uint i = 0; i < contents_list.length; i++) {\n            uint remaining_money = (contents_list[i].view_count() - contents_list[i].views_already_payed()) * cost_content;\n            uint proportional_money = contents_list[i].view_count() * money_per_view;\n            uint tot_money = remaining_money + proportional_money;\n            contents_list[i].owner().transfer(tot_money);\n            emit author_payed (contents_list[i].title(), tot_money);\n        }\n        emit catalog_destroyed ();\n        selfdestruct(catalog_address);\n    }\n}",
  "sourcePath": "/home/fsbolgi/Documents/cobra_dapp/contracts/Catalog.sol",
  "compiler": {
    "name": "solc",
    "version": "0.4.24+commit.e67f0147.Emscripten.clang"
  },
  "schemaVersion": "2.0.1",
  "updatedAt": "2018-11-29T14:42:31.741Z"
}