{
  "contractName": "Catalog",
  "abi": [
    {
      "constant": true,
      "inputs": [
        {
          "name": "",
          "type": "uint256"
        }
      ],
      "name": "contents_list",
      "outputs": [
        {
          "name": "",
          "type": "address"
        }
      ],
      "payable": false,
      "stateMutability": "view",
      "type": "function"
    },
    {
      "constant": true,
      "inputs": [],
      "name": "cost_premium",
      "outputs": [
        {
          "name": "",
          "type": "uint256"
        }
      ],
      "payable": false,
      "stateMutability": "view",
      "type": "function"
    },
    {
      "constant": true,
      "inputs": [
        {
          "name": "",
          "type": "bytes32"
        }
      ],
      "name": "position_content",
      "outputs": [
        {
          "name": "",
          "type": "uint256"
        }
      ],
      "payable": false,
      "stateMutability": "view",
      "type": "function"
    },
    {
      "constant": true,
      "inputs": [],
      "name": "owner",
      "outputs": [
        {
          "name": "",
          "type": "address"
        }
      ],
      "payable": false,
      "stateMutability": "view",
      "type": "function"
    },
    {
      "constant": true,
      "inputs": [
        {
          "name": "",
          "type": "address"
        }
      ],
      "name": "premium_customers",
      "outputs": [
        {
          "name": "",
          "type": "uint256"
        }
      ],
      "payable": false,
      "stateMutability": "view",
      "type": "function"
    },
    {
      "constant": true,
      "inputs": [
        {
          "name": "",
          "type": "address"
        }
      ],
      "name": "notifications_to_see",
      "outputs": [
        {
          "name": "",
          "type": "uint256"
        }
      ],
      "payable": false,
      "stateMutability": "view",
      "type": "function"
    },
    {
      "constant": true,
      "inputs": [
        {
          "name": "",
          "type": "address"
        },
        {
          "name": "",
          "type": "uint256"
        }
      ],
      "name": "notifications_preferences",
      "outputs": [
        {
          "name": "",
          "type": "bytes32"
        }
      ],
      "payable": false,
      "stateMutability": "view",
      "type": "function"
    },
    {
      "inputs": [],
      "payable": false,
      "stateMutability": "nonpayable",
      "type": "constructor"
    },
    {
      "anonymous": false,
      "inputs": [
        {
          "indexed": false,
          "name": "_title",
          "type": "bytes32"
        },
        {
          "indexed": false,
          "name": "_author",
          "type": "bytes32"
        },
        {
          "indexed": false,
          "name": "_genre",
          "type": "bytes32"
        }
      ],
      "name": "new_publication",
      "type": "event"
    },
    {
      "anonymous": false,
      "inputs": [
        {
          "indexed": false,
          "name": "_title",
          "type": "bytes32"
        },
        {
          "indexed": false,
          "name": "_customer",
          "type": "address"
        },
        {
          "indexed": false,
          "name": "_gifted",
          "type": "uint32"
        }
      ],
      "name": "content_acquired",
      "type": "event"
    },
    {
      "anonymous": false,
      "inputs": [
        {
          "indexed": false,
          "name": "_customer",
          "type": "address"
        },
        {
          "indexed": false,
          "name": "_gifted",
          "type": "uint32"
        }
      ],
      "name": "premium_acquired",
      "type": "event"
    },
    {
      "anonymous": false,
      "inputs": [
        {
          "indexed": false,
          "name": "_t",
          "type": "bytes32"
        },
        {
          "indexed": false,
          "name": "_tot_money",
          "type": "uint256"
        }
      ],
      "name": "author_payed",
      "type": "event"
    },
    {
      "constant": true,
      "inputs": [],
      "name": "GetLengthCatalog",
      "outputs": [
        {
          "name": "",
          "type": "uint256"
        }
      ],
      "payable": false,
      "stateMutability": "view",
      "type": "function"
    },
    {
      "constant": true,
      "inputs": [
        {
          "name": "_t",
          "type": "bytes32"
        }
      ],
      "name": "GetAuthor",
      "outputs": [
        {
          "name": "",
          "type": "bytes32"
        }
      ],
      "payable": false,
      "stateMutability": "view",
      "type": "function"
    },
    {
      "constant": true,
      "inputs": [
        {
          "name": "_t",
          "type": "bytes32"
        }
      ],
      "name": "GetGenre",
      "outputs": [
        {
          "name": "",
          "type": "bytes32"
        }
      ],
      "payable": false,
      "stateMutability": "view",
      "type": "function"
    },
    {
      "constant": true,
      "inputs": [
        {
          "name": "_t",
          "type": "bytes32"
        }
      ],
      "name": "GetPrice",
      "outputs": [
        {
          "name": "",
          "type": "uint256"
        }
      ],
      "payable": false,
      "stateMutability": "view",
      "type": "function"
    },
    {
      "constant": true,
      "inputs": [
        {
          "name": "_t",
          "type": "bytes32"
        }
      ],
      "name": "GetViews",
      "outputs": [
        {
          "name": "",
          "type": "uint32"
        }
      ],
      "payable": false,
      "stateMutability": "view",
      "type": "function"
    },
    {
      "constant": true,
      "inputs": [
        {
          "name": "_t",
          "type": "bytes32"
        }
      ],
      "name": "GetOwner",
      "outputs": [
        {
          "name": "",
          "type": "address"
        }
      ],
      "payable": false,
      "stateMutability": "view",
      "type": "function"
    },
    {
      "constant": true,
      "inputs": [
        {
          "name": "_u",
          "type": "address"
        }
      ],
      "name": "GetNotifPreferences",
      "outputs": [
        {
          "name": "",
          "type": "bytes32[]"
        }
      ],
      "payable": false,
      "stateMutability": "view",
      "type": "function"
    },
    {
      "constant": false,
      "inputs": [
        {
          "name": "_u",
          "type": "address"
        },
        {
          "name": "_list",
          "type": "bytes32[]"
        }
      ],
      "name": "SetNotifPreferences",
      "outputs": [],
      "payable": false,
      "stateMutability": "nonpayable",
      "type": "function"
    },
    {
      "constant": true,
      "inputs": [
        {
          "name": "_t",
          "type": "bytes32"
        }
      ],
      "name": "GetRate",
      "outputs": [
        {
          "name": "",
          "type": "uint32"
        }
      ],
      "payable": false,
      "stateMutability": "view",
      "type": "function"
    },
    {
      "constant": true,
      "inputs": [],
      "name": "GetStatistics",
      "outputs": [
        {
          "name": "",
          "type": "bytes32[]"
        },
        {
          "name": "",
          "type": "uint32[]"
        }
      ],
      "payable": false,
      "stateMutability": "view",
      "type": "function"
    },
    {
      "constant": true,
      "inputs": [],
      "name": "GetContentList",
      "outputs": [
        {
          "name": "",
          "type": "bytes32[]"
        }
      ],
      "payable": false,
      "stateMutability": "view",
      "type": "function"
    },
    {
      "constant": true,
      "inputs": [
        {
          "name": "x",
          "type": "uint256"
        }
      ],
      "name": "GetNewContentsList",
      "outputs": [
        {
          "name": "",
          "type": "bytes32[]"
        }
      ],
      "payable": false,
      "stateMutability": "view",
      "type": "function"
    },
    {
      "constant": true,
      "inputs": [
        {
          "name": "_g",
          "type": "bytes32"
        }
      ],
      "name": "GetLatestByGenre",
      "outputs": [
        {
          "name": "",
          "type": "bytes32"
        }
      ],
      "payable": false,
      "stateMutability": "view",
      "type": "function"
    },
    {
      "constant": true,
      "inputs": [
        {
          "name": "_g",
          "type": "bytes32"
        }
      ],
      "name": "GetMostPopularByGenre",
      "outputs": [
        {
          "name": "",
          "type": "bytes32"
        }
      ],
      "payable": false,
      "stateMutability": "view",
      "type": "function"
    },
    {
      "constant": true,
      "inputs": [
        {
          "name": "_a",
          "type": "bytes32"
        }
      ],
      "name": "GetLatestByAuthor",
      "outputs": [
        {
          "name": "",
          "type": "bytes32"
        }
      ],
      "payable": false,
      "stateMutability": "view",
      "type": "function"
    },
    {
      "constant": true,
      "inputs": [
        {
          "name": "_a",
          "type": "bytes32"
        }
      ],
      "name": "GetMostPopularByAuthor",
      "outputs": [
        {
          "name": "",
          "type": "bytes32"
        }
      ],
      "payable": false,
      "stateMutability": "view",
      "type": "function"
    },
    {
      "constant": true,
      "inputs": [],
      "name": "GetMostPopular",
      "outputs": [
        {
          "name": "",
          "type": "bytes32"
        }
      ],
      "payable": false,
      "stateMutability": "view",
      "type": "function"
    },
    {
      "constant": true,
      "inputs": [
        {
          "name": "_y",
          "type": "uint32"
        }
      ],
      "name": "GetMostRated",
      "outputs": [
        {
          "name": "",
          "type": "bytes32"
        }
      ],
      "payable": false,
      "stateMutability": "view",
      "type": "function"
    },
    {
      "constant": true,
      "inputs": [
        {
          "name": "_g",
          "type": "bytes32"
        },
        {
          "name": "_y",
          "type": "uint32"
        }
      ],
      "name": "GetMostRatedByGenre",
      "outputs": [
        {
          "name": "",
          "type": "bytes32"
        }
      ],
      "payable": false,
      "stateMutability": "view",
      "type": "function"
    },
    {
      "constant": true,
      "inputs": [
        {
          "name": "_a",
          "type": "bytes32"
        },
        {
          "name": "_y",
          "type": "uint32"
        }
      ],
      "name": "GetMostRatedByAuthor",
      "outputs": [
        {
          "name": "",
          "type": "bytes32"
        }
      ],
      "payable": false,
      "stateMutability": "view",
      "type": "function"
    },
    {
      "constant": true,
      "inputs": [
        {
          "name": "_c",
          "type": "address"
        }
      ],
      "name": "isPremium",
      "outputs": [
        {
          "name": "",
          "type": "bool"
        }
      ],
      "payable": false,
      "stateMutability": "view",
      "type": "function"
    },
    {
      "constant": false,
      "inputs": [
        {
          "name": "_c",
          "type": "address"
        }
      ],
      "name": "AddContent",
      "outputs": [
        {
          "name": "",
          "type": "uint256"
        }
      ],
      "payable": false,
      "stateMutability": "nonpayable",
      "type": "function"
    },
    {
      "constant": false,
      "inputs": [
        {
          "name": "_t",
          "type": "bytes32"
        }
      ],
      "name": "GetContent",
      "outputs": [],
      "payable": true,
      "stateMutability": "payable",
      "type": "function"
    },
    {
      "constant": false,
      "inputs": [
        {
          "name": "_t",
          "type": "bytes32"
        }
      ],
      "name": "GetContentPremium",
      "outputs": [],
      "payable": false,
      "stateMutability": "nonpayable",
      "type": "function"
    },
    {
      "constant": false,
      "inputs": [
        {
          "name": "_t",
          "type": "bytes32"
        },
        {
          "name": "_u",
          "type": "address"
        }
      ],
      "name": "GiftContent",
      "outputs": [],
      "payable": true,
      "stateMutability": "payable",
      "type": "function"
    },
    {
      "constant": false,
      "inputs": [],
      "name": "BuyPremium",
      "outputs": [],
      "payable": true,
      "stateMutability": "payable",
      "type": "function"
    },
    {
      "constant": false,
      "inputs": [
        {
          "name": "_u",
          "type": "address"
        }
      ],
      "name": "GiftPremium",
      "outputs": [],
      "payable": true,
      "stateMutability": "payable",
      "type": "function"
    },
    {
      "constant": false,
      "inputs": [
        {
          "name": "_a",
          "type": "address"
        },
        {
          "name": "_x",
          "type": "uint256"
        }
      ],
      "name": "SetNotification",
      "outputs": [],
      "payable": false,
      "stateMutability": "nonpayable",
      "type": "function"
    },
    {
      "constant": false,
      "inputs": [
        {
          "name": "_t",
          "type": "bytes32"
        }
      ],
      "name": "PayAuthor",
      "outputs": [],
      "payable": false,
      "stateMutability": "nonpayable",
      "type": "function"
    },
    {
      "constant": false,
      "inputs": [],
      "name": "KillCatalog",
      "outputs": [],
      "payable": false,
      "stateMutability": "nonpayable",
      "type": "function"
    }
  ],
  "bytecode": "0x6080604052619c406007556703782dace9d900006008556064600960006101000a81548161ffff021916908361ffff16021790555034801561004057600080fd5b50336000806101000a81548173ffffffffffffffffffffffffffffffffffffffff021916908373ffffffffffffffffffffffffffffffffffffffff16021790555030600160006101000a81548173ffffffffffffffffffffffffffffffffffffffff021916908373ffffffffffffffffffffffffffffffffffffffff160217905550615157806100d16000396000f3006080604052600436106101cd576000357c0100000000000000000000000000000000000000000000000000000000900463ffffffff168063043cdcf0146101d25780630643b01b146102175780630c30ad891461029d5780630d634eb5146102ce5780630daeb7131461032b5780632669e0ad1461039c5780632eefa37f146103e95780633a20d676146103f35780633c027d8a1461041757806341c2b6191461042e5780634d94c8871461049b5780634dc1e168146104c657806351d25fe6146104fc57806358e5a474146105b057806361770139146105fd5780636e806f1814610628578063742fe0d41461066d5780637faa1f93146106c85780638da5cb5b146107255780638ded2d731461077c5780638e2b47cd146107d357806398eac650146108205780639cbc7a311461086d578063aa514037146108c4578063ab0652e914610915578063ab717f4714610948578063aeed4de31461099f578063b1de6774146109ec578063bfe59cfb14610a84578063d1628fb014610ad5578063d94cf6e014610b57578063d97c006514610ba4578063df1263d514610bd5578063f15b363a14610c24578063f867cff714610c68578063f888738414610cb5578063ff70f85914610d1e575b600080fd5b3480156101de57600080fd5b506102016004803603810190808035600019169060200190929190505050610d8a565b6040518082815260200191505060405180910390f35b34801561022357600080fd5b5061029b600480360381019080803573ffffffffffffffffffffffffffffffffffffffff16906020019092919080359060200190820180359060200190808060200260200160405190810160405280939291908181526020018383602002808284378201915050505050509192919290505050610e9e565b005b3480156102a957600080fd5b506102cc6004803603810190808035600019169060200190929190505050610ef6565b005b3480156102da57600080fd5b5061030d6004803603810190808035600019169060200190929190803563ffffffff16906020019092919050505061144c565b60405180826000191660001916815260200191505060405180910390f35b34801561033757600080fd5b5061035a6004803603810190808035600019169060200190929190505050611907565b604051808273ffffffffffffffffffffffffffffffffffffffff1673ffffffffffffffffffffffffffffffffffffffff16815260200191505060405180910390f35b3480156103a857600080fd5b506103cb6004803603810190808035600019169060200190929190505050611a1b565b60405180826000191660001916815260200191505060405180910390f35b6103f1611b2f565b005b6104156004803603810190808035600019169060200190929190505050611bfb565b005b34801561042357600080fd5b5061042c611db1565b005b34801561043a57600080fd5b50610459600480360381019080803590602001909291905050506121db565b604051808273ffffffffffffffffffffffffffffffffffffffff1673ffffffffffffffffffffffffffffffffffffffff16815260200191505060405180910390f35b3480156104a757600080fd5b506104b0612219565b6040518082815260200191505060405180910390f35b6104fa600480360381019080803573ffffffffffffffffffffffffffffffffffffffff169060200190929190505050612226565b005b34801561050857600080fd5b506105116122f3565b604051808060200180602001838103835285818151815260200191508051906020019060200280838360005b8381101561055857808201518184015260208101905061053d565b50505050905001838103825284818151815260200191508051906020019060200280838360005b8381101561059a57808201518184015260208101905061057f565b5050505090500194505050505060405180910390f35b3480156105bc57600080fd5b506105df6004803603810190808035600019169060200190929190505050612591565b60405180826000191660001916815260200191505060405180910390f35b34801561060957600080fd5b506106126126a5565b6040518082815260200191505060405180910390f35b34801561063457600080fd5b5061065760048036038101908080356000191690602001909291905050506126ab565b6040518082815260200191505060405180910390f35b34801561067957600080fd5b506106ae600480360381019080803573ffffffffffffffffffffffffffffffffffffffff1690602001909291905050506126c3565b604051808215151515815260200191505060405180910390f35b3480156106d457600080fd5b506107076004803603810190808035600019169060200190929190803563ffffffff16906020019092919050505061270e565b60405180826000191660001916815260200191505060405180910390f35b34801561073157600080fd5b5061073a612bc9565b604051808273ffffffffffffffffffffffffffffffffffffffff1673ffffffffffffffffffffffffffffffffffffffff16815260200191505060405180910390f35b34801561078857600080fd5b506107bd600480360381019080803573ffffffffffffffffffffffffffffffffffffffff169060200190929190505050612bee565b6040518082815260200191505060405180910390f35b3480156107df57600080fd5b506108026004803603810190808035600019169060200190929190505050613133565b60405180826000191660001916815260200191505060405180910390f35b34801561082c57600080fd5b5061086b600480360381019080803573ffffffffffffffffffffffffffffffffffffffff1690602001909291908035906020019092919050505061334c565b005b34801561087957600080fd5b506108ae600480360381019080803573ffffffffffffffffffffffffffffffffffffffff169060200190929190505050613394565b6040518082815260200191505060405180910390f35b3480156108d057600080fd5b506108f360048036038101908080356000191690602001909291905050506133ac565b604051808263ffffffff1663ffffffff16815260200191505060405180910390f35b34801561092157600080fd5b5061092a613669565b60405180826000191660001916815260200191505060405180910390f35b34801561095457600080fd5b50610989600480360381019080803573ffffffffffffffffffffffffffffffffffffffff169060200190929190505050613942565b6040518082815260200191505060405180910390f35b3480156109ab57600080fd5b506109ce600480360381019080803560001916906020019092919050505061395a565b60405180826000191660001916815260200191505060405180910390f35b3480156109f857600080fd5b50610a2d600480360381019080803573ffffffffffffffffffffffffffffffffffffffff169060200190929190505050613b73565b6040518080602001828103825283818151815260200191508051906020019060200280838360005b83811015610a70578082015181840152602081019050610a55565b505050509050019250505060405180910390f35b348015610a9057600080fd5b50610ab36004803603810190808035600019169060200190929190505050613c0e565b604051808263ffffffff1663ffffffff16815260200191505060405180910390f35b348015610ae157600080fd5b50610b0060048036038101908080359060200190929190505050613d22565b6040518080602001828103825283818151815260200191508051906020019060200280838360005b83811015610b43578082015181840152602081019050610b28565b505050509050019250505060405180910390f35b348015610b6357600080fd5b50610b866004803603810190808035600019169060200190929190505050613eca565b60405180826000191660001916815260200191505060405180910390f35b348015610bb057600080fd5b50610bd3600480360381019080803560001916906020019092919050505061428f565b005b348015610be157600080fd5b50610c06600480360381019080803563ffffffff16906020019092919050505061448a565b60405180826000191660001916815260200191505060405180910390f35b610c666004803603810190808035600019169060200190929190803573ffffffffffffffffffffffffffffffffffffffff169060200190929190505050614893565b005b348015610c7457600080fd5b50610c976004803603810190808035600019169060200190929190505050614a4a565b60405180826000191660001916815260200191505060405180910390f35b348015610cc157600080fd5b50610d00600480360381019080803573ffffffffffffffffffffffffffffffffffffffff16906020019092919080359060200190929190505050614e0f565b60405180826000191660001916815260200191505060405180910390f35b348015610d2a57600080fd5b50610d33614e3f565b6040518080602001828103825283818151815260200191508051906020019060200280838360005b83811015610d76578082015181840152602081019050610d5b565b505050509050019250505060405180910390f35b600080600360008460001916600019168152602001908152602001600020549050600081141515610e9757600260018203815481101515610dc757fe5b9060005260206000200160009054906101000a900473ffffffffffffffffffffffffffffffffffffffff1673ffffffffffffffffffffffffffffffffffffffff1663a035b1fe6040518163ffffffff167c0100000000000000000000000000000000000000000000000000000000028152600401602060405180830381600087803b158015610e5557600080fd5b505af1158015610e69573d6000803e3d6000fd5b505050506040513d6020811015610e7f57600080fd5b81019080805190602001909291905050509150610e98565b5b50919050565b80600660008473ffffffffffffffffffffffffffffffffffffffff1673ffffffffffffffffffffffffffffffffffffffff1681526020019081526020016000209080519060200190610ef19291906150b3565b505050565b60008060008060036000866000191660001916815260200190815260200160002054935060008414151561144557600260018503815481101515610f3657fe5b9060005260206000200160009054906101000a900473ffffffffffffffffffffffffffffffffffffffff1673ffffffffffffffffffffffffffffffffffffffff166339c614a16040518163ffffffff167c0100000000000000000000000000000000000000000000000000000000028152600401602060405180830381600087803b158015610fc457600080fd5b505af1158015610fd8573d6000803e3d6000fd5b505050506040513d6020811015610fee57600080fd5b8101908080519060200190929190505050925060026001850381548110151561101357fe5b9060005260206000200160009054906101000a900473ffffffffffffffffffffffffffffffffffffffff1673ffffffffffffffffffffffffffffffffffffffff1663e76c3ba86040518163ffffffff167c0100000000000000000000000000000000000000000000000000000000028152600401602060405180830381600087803b1580156110a157600080fd5b505af11580156110b5573d6000803e3d6000fd5b505050506040513d60208110156110cb57600080fd5b810190808051906020019092919050505083039150600960009054906101000a900461ffff1661ffff168263ffffffff1610151561144457603261110e866133ac565b63ffffffff1660026001870381548110151561112657fe5b9060005260206000200160009054906101000a900473ffffffffffffffffffffffffffffffffffffffff1673ffffffffffffffffffffffffffffffffffffffff1663a035b1fe6040518163ffffffff167c0100000000000000000000000000000000000000000000000000000000028152600401602060405180830381600087803b1580156111b457600080fd5b505af11580156111c8573d6000803e3d6000fd5b505050506040513d60208110156111de57600080fd5b8101908080519060200190929190505050028115156111f957fe5b04905060026001850381548110151561120e57fe5b9060005260206000200160009054906101000a900473ffffffffffffffffffffffffffffffffffffffff1673ffffffffffffffffffffffffffffffffffffffff16638da5cb5b6040518163ffffffff167c0100000000000000000000000000000000000000000000000000000000028152600401602060405180830381600087803b15801561129c57600080fd5b505af11580156112b0573d6000803e3d6000fd5b505050506040513d60208110156112c657600080fd5b810190808051906020019092919050505073ffffffffffffffffffffffffffffffffffffffff166108fc828463ffffffff16029081150290604051600060405180830381858888f19350505050158015611324573d6000803e3d6000fd5b5060026001850381548110151561133757fe5b9060005260206000200160009054906101000a900473ffffffffffffffffffffffffffffffffffffffff1673ffffffffffffffffffffffffffffffffffffffff1663e9df3010836040518263ffffffff167c0100000000000000000000000000000000000000000000000000000000028152600401808263ffffffff1663ffffffff168152602001915050600060405180830381600087803b1580156113dc57600080fd5b505af11580156113f0573d6000803e3d6000fd5b505050507fcb574b8f73b5197bc67007875e790c4e4b5f36ff460014d13c9c54c81a04cc2b85828463ffffffff16026040518083600019166000191681526020018281526020019250505060405180910390a15b5b5050505050565b6000806000806000806000600102945060009350600092505b6002805490508310156118f95760028381548110151561148157fe5b9060005260206000200160009054906101000a900473ffffffffffffffffffffffffffffffffffffffff16915087600019168273ffffffffffffffffffffffffffffffffffffffff166317de3a416040518163ffffffff167c0100000000000000000000000000000000000000000000000000000000028152600401602060405180830381600087803b15801561151757600080fd5b505af115801561152b573d6000803e3d6000fd5b505050506040513d602081101561154157600080fd5b810190808051906020019092919050505060001916148015611608575060008273ffffffffffffffffffffffffffffffffffffffff16631f3e74396040518163ffffffff167c0100000000000000000000000000000000000000000000000000000000028152600401602060405180830381600087803b1580156115c457600080fd5b505af11580156115d8573d6000803e3d6000fd5b505050506040513d60208110156115ee57600080fd5b810190808051906020019092919050505063ffffffff1614155b156118ec5760048763ffffffff16106116c7576116c28273ffffffffffffffffffffffffffffffffffffffff16634a79d50c6040518163ffffffff167c0100000000000000000000000000000000000000000000000000000000028152600401602060405180830381600087803b15801561168257600080fd5b505af1158015611696573d6000803e3d6000fd5b505050506040513d60208110156116ac57600080fd5b81019080805190602001909291905050506133ac565b611830565b8173ffffffffffffffffffffffffffffffffffffffff16631f3e74396040518163ffffffff167c0100000000000000000000000000000000000000000000000000000000028152600401602060405180830381600087803b15801561172b57600080fd5b505af115801561173f573d6000803e3d6000fd5b505050506040513d602081101561175557600080fd5b810190808051906020019092919050505063ffffffff16600a8373ffffffffffffffffffffffffffffffffffffffff1663f59dfdfb8a6040518263ffffffff167c0100000000000000000000000000000000000000000000000000000000028152600401808263ffffffff168152602001915050602060405180830381600087803b1580156117e357600080fd5b505af11580156117f7573d6000803e3d6000fd5b505050506040513d602081101561180d57600080fd5b81019080805190602001909291905050500263ffffffff1681151561182e57fe5b045b90508363ffffffff168163ffffffff1611156118eb578173ffffffffffffffffffffffffffffffffffffffff16634a79d50c6040518163ffffffff167c0100000000000000000000000000000000000000000000000000000000028152600401602060405180830381600087803b1580156118aa57600080fd5b505af11580156118be573d6000803e3d6000fd5b505050506040513d60208110156118d457600080fd5b810190808051906020019092919050505094508093505b5b8280600101935050611465565b849550505050505092915050565b600080600360008460001916600019168152602001908152602001600020549050600081141515611a145760026001820381548110151561194457fe5b9060005260206000200160009054906101000a900473ffffffffffffffffffffffffffffffffffffffff1673ffffffffffffffffffffffffffffffffffffffff16638da5cb5b6040518163ffffffff167c0100000000000000000000000000000000000000000000000000000000028152600401602060405180830381600087803b1580156119d257600080fd5b505af11580156119e6573d6000803e3d6000fd5b505050506040513d60208110156119fc57600080fd5b81019080805190602001909291905050509150611a15565b5b50919050565b600080600360008460001916600019168152602001908152602001600020549050600081141515611b2857600260018203815481101515611a5857fe5b9060005260206000200160009054906101000a900473ffffffffffffffffffffffffffffffffffffffff1673ffffffffffffffffffffffffffffffffffffffff1663a6c3e6b96040518163ffffffff167c0100000000000000000000000000000000000000000000000000000000028152600401602060405180830381600087803b158015611ae657600080fd5b505af1158015611afa573d6000803e3d6000fd5b505050506040513d6020811015611b1057600080fd5b81019080805190602001909291905050509150611b29565b5b50919050565b60085434141515611b3f57600080fd5b6007544301600460003373ffffffffffffffffffffffffffffffffffffffff1673ffffffffffffffffffffffffffffffffffffffff168152602001908152602001600020819055507fa94c636cc0a2073a085265a90b2f09340a2f7118c310f04c1a8fd9e14e98fa15336000604051808373ffffffffffffffffffffffffffffffffffffffff1673ffffffffffffffffffffffffffffffffffffffff1681526020018263ffffffff1681526020019250505060405180910390a1565b6000611c0682610d8a565b34141515611c1357600080fd5b600360008360001916600019168152602001908152602001600020549050600081141515611dad57600260018203815481101515611c4d57fe5b9060005260206000200160009054906101000a900473ffffffffffffffffffffffffffffffffffffffff1673ffffffffffffffffffffffffffffffffffffffff16636d81a01b336040518263ffffffff167c0100000000000000000000000000000000000000000000000000000000028152600401808273ffffffffffffffffffffffffffffffffffffffff1673ffffffffffffffffffffffffffffffffffffffff168152602001915050600060405180830381600087803b158015611d1257600080fd5b505af1158015611d26573d6000803e3d6000fd5b505050507f838c9e405d9a98dee5c07a92f263ac15710fac782571748a3472677ff52ca5dd823360006040518084600019166000191681526020018373ffffffffffffffffffffffffffffffffffffffff1673ffffffffffffffffffffffffffffffffffffffff1681526020018263ffffffff168152602001935050505060405180910390a15b5050565b6000806000806000809054906101000a900473ffffffffffffffffffffffffffffffffffffffff1673ffffffffffffffffffffffffffffffffffffffff163373ffffffffffffffffffffffffffffffffffffffff16141515611e1257600080fd5b611e1a614fa2565b935083600160009054906101000a900473ffffffffffffffffffffffffffffffffffffffff1673ffffffffffffffffffffffffffffffffffffffff1631811515611e6057fe5b049250600091505b6002805490508210156121a05782600283815481101515611e8557fe5b9060005260206000200160009054906101000a900473ffffffffffffffffffffffffffffffffffffffff1673ffffffffffffffffffffffffffffffffffffffff166339c614a16040518163ffffffff167c0100000000000000000000000000000000000000000000000000000000028152600401602060405180830381600087803b158015611f1357600080fd5b505af1158015611f27573d6000803e3d6000fd5b505050506040513d6020811015611f3d57600080fd5b810190808051906020019092919050505063ffffffff16029050600282815481101515611f6657fe5b9060005260206000200160009054906101000a900473ffffffffffffffffffffffffffffffffffffffff1673ffffffffffffffffffffffffffffffffffffffff16638da5cb5b6040518163ffffffff167c0100000000000000000000000000000000000000000000000000000000028152600401602060405180830381600087803b158015611ff457600080fd5b505af1158015612008573d6000803e3d6000fd5b505050506040513d602081101561201e57600080fd5b810190808051906020019092919050505073ffffffffffffffffffffffffffffffffffffffff166108fc829081150290604051600060405180830381858888f19350505050158015612074573d6000803e3d6000fd5b507fcb574b8f73b5197bc67007875e790c4e4b5f36ff460014d13c9c54c81a04cc2b6002838154811015156120a557fe5b9060005260206000200160009054906101000a900473ffffffffffffffffffffffffffffffffffffffff1673ffffffffffffffffffffffffffffffffffffffff16634a79d50c6040518163ffffffff167c0100000000000000000000000000000000000000000000000000000000028152600401602060405180830381600087803b15801561213357600080fd5b505af1158015612147573d6000803e3d6000fd5b505050506040513d602081101561215d57600080fd5b8101908080519060200190929190505050826040518083600019166000191681526020018281526020019250505060405180910390a18180600101925050611e68565b600160009054906101000a900473ffffffffffffffffffffffffffffffffffffffff1673ffffffffffffffffffffffffffffffffffffffff16ff5b6002818154811015156121ea57fe5b906000526020600020016000915054906101000a900473ffffffffffffffffffffffffffffffffffffffff1681565b6000600280549050905090565b6008543414151561223657600080fd5b6007544301600460008373ffffffffffffffffffffffffffffffffffffffff1673ffffffffffffffffffffffffffffffffffffffff168152602001908152602001600020819055507fa94c636cc0a2073a085265a90b2f09340a2f7118c310f04c1a8fd9e14e98fa15816001604051808373ffffffffffffffffffffffffffffffffffffffff1673ffffffffffffffffffffffffffffffffffffffff1681526020018263ffffffff1681526020019250505060405180910390a150565b606080600060608060006002805490509350836040519080825280602002602001820160405280156123345781602001602082028038833980820191505090505b509250836040519080825280602002602001820160405280156123665781602001602082028038833980820191505090505b509150600090505b838110156125835760028181548110151561238557fe5b9060005260206000200160009054906101000a900473ffffffffffffffffffffffffffffffffffffffff1673ffffffffffffffffffffffffffffffffffffffff16634a79d50c6040518163ffffffff167c0100000000000000000000000000000000000000000000000000000000028152600401602060405180830381600087803b15801561241357600080fd5b505af1158015612427573d6000803e3d6000fd5b505050506040513d602081101561243d57600080fd5b8101908080519060200190929190505050838281518110151561245c57fe5b90602001906020020190600019169081600019168152505060028181548110151561248357fe5b9060005260206000200160009054906101000a900473ffffffffffffffffffffffffffffffffffffffff1673ffffffffffffffffffffffffffffffffffffffff166339c614a16040518163ffffffff167c0100000000000000000000000000000000000000000000000000000000028152600401602060405180830381600087803b15801561251157600080fd5b505af1158015612525573d6000803e3d6000fd5b505050506040513d602081101561253b57600080fd5b8101908080519060200190929190505050828281518110151561255a57fe5b9060200190602002019063ffffffff16908163ffffffff1681525050808060010191505061236e565b828295509550505050509091565b60008060036000846000191660001916815260200190815260200160002054905060008114151561269e576002600182038154811015156125ce57fe5b9060005260206000200160009054906101000a900473ffffffffffffffffffffffffffffffffffffffff1673ffffffffffffffffffffffffffffffffffffffff166317de3a416040518163ffffffff167c0100000000000000000000000000000000000000000000000000000000028152600401602060405180830381600087803b15801561265c57600080fd5b505af1158015612670573d6000803e3d6000fd5b505050506040513d602081101561268657600080fd5b8101908080519060200190929190505050915061269f565b5b50919050565b60085481565b60036020528060005260406000206000915090505481565b600043600460008473ffffffffffffffffffffffffffffffffffffffff1673ffffffffffffffffffffffffffffffffffffffff16815260200190815260200160002054119050919050565b6000806000806000806000600102945060009350600092505b600280549050831015612bbb5760028381548110151561274357fe5b9060005260206000200160009054906101000a900473ffffffffffffffffffffffffffffffffffffffff16915087600019168273ffffffffffffffffffffffffffffffffffffffff1663a6c3e6b96040518163ffffffff167c0100000000000000000000000000000000000000000000000000000000028152600401602060405180830381600087803b1580156127d957600080fd5b505af11580156127ed573d6000803e3d6000fd5b505050506040513d602081101561280357600080fd5b8101908080519060200190929190505050600019161480156128ca575060008273ffffffffffffffffffffffffffffffffffffffff16631f3e74396040518163ffffffff167c0100000000000000000000000000000000000000000000000000000000028152600401602060405180830381600087803b15801561288657600080fd5b505af115801561289a573d6000803e3d6000fd5b505050506040513d60208110156128b057600080fd5b810190808051906020019092919050505063ffffffff1614155b15612bae5760048763ffffffff1610612989576129848273ffffffffffffffffffffffffffffffffffffffff16634a79d50c6040518163ffffffff167c0100000000000000000000000000000000000000000000000000000000028152600401602060405180830381600087803b15801561294457600080fd5b505af1158015612958573d6000803e3d6000fd5b505050506040513d602081101561296e57600080fd5b81019080805190602001909291905050506133ac565b612af2565b8173ffffffffffffffffffffffffffffffffffffffff16631f3e74396040518163ffffffff167c0100000000000000000000000000000000000000000000000000000000028152600401602060405180830381600087803b1580156129ed57600080fd5b505af1158015612a01573d6000803e3d6000fd5b505050506040513d6020811015612a1757600080fd5b810190808051906020019092919050505063ffffffff16600a8373ffffffffffffffffffffffffffffffffffffffff1663f59dfdfb8a6040518263ffffffff167c0100000000000000000000000000000000000000000000000000000000028152600401808263ffffffff168152602001915050602060405180830381600087803b158015612aa557600080fd5b505af1158015612ab9573d6000803e3d6000fd5b505050506040513d6020811015612acf57600080fd5b81019080805190602001909291905050500263ffffffff16811515612af057fe5b045b90508363ffffffff168163ffffffff161115612bad578173ffffffffffffffffffffffffffffffffffffffff16634a79d50c6040518163ffffffff167c0100000000000000000000000000000000000000000000000000000000028152600401602060405180830381600087803b158015612b6c57600080fd5b505af1158015612b80573d6000803e3d6000fd5b505050506040513d6020811015612b9657600080fd5b810190808051906020019092919050505094508093505b5b8280600101935050612727565b849550505050505092915050565b6000809054906101000a900473ffffffffffffffffffffffffffffffffffffffff1681565b6000808290503373ffffffffffffffffffffffffffffffffffffffff168173ffffffffffffffffffffffffffffffffffffffff16638da5cb5b6040518163ffffffff167c0100000000000000000000000000000000000000000000000000000000028152600401602060405180830381600087803b158015612c6f57600080fd5b505af1158015612c83573d6000803e3d6000fd5b505050506040513d6020811015612c9957600080fd5b810190808051906020019092919050505073ffffffffffffffffffffffffffffffffffffffff16148015612db85750600160009054906101000a900473ffffffffffffffffffffffffffffffffffffffff1673ffffffffffffffffffffffffffffffffffffffff168173ffffffffffffffffffffffffffffffffffffffff1663074c09eb6040518163ffffffff167c0100000000000000000000000000000000000000000000000000000000028152600401602060405180830381600087803b158015612d6557600080fd5b505af1158015612d79573d6000803e3d6000fd5b505050506040513d6020811015612d8f57600080fd5b810190808051906020019092919050505073ffffffffffffffffffffffffffffffffffffffff16145b1515612dc357600080fd5b60028190806001815401808255809150509060018203906000526020600020016000909192909190916101000a81548173ffffffffffffffffffffffffffffffffffffffff021916908373ffffffffffffffffffffffffffffffffffffffff16021790555050600280549050600360008373ffffffffffffffffffffffffffffffffffffffff16634a79d50c6040518163ffffffff167c0100000000000000000000000000000000000000000000000000000000028152600401602060405180830381600087803b158015612e9757600080fd5b505af1158015612eab573d6000803e3d6000fd5b505050506040513d6020811015612ec157600080fd5b810190808051906020019092919050505060001916600019168152602001908152602001600020819055507fdda355a4ff5285e5ca9d8fa1c68571d1d2f9108352e8f58140122faef426b5d68173ffffffffffffffffffffffffffffffffffffffff16634a79d50c6040518163ffffffff167c0100000000000000000000000000000000000000000000000000000000028152600401602060405180830381600087803b158015612f7157600080fd5b505af1158015612f85573d6000803e3d6000fd5b505050506040513d6020811015612f9b57600080fd5b81019080805190602001909291905050508273ffffffffffffffffffffffffffffffffffffffff1663a6c3e6b96040518163ffffffff167c0100000000000000000000000000000000000000000000000000000000028152600401602060405180830381600087803b15801561301057600080fd5b505af1158015613024573d6000803e3d6000fd5b505050506040513d602081101561303a57600080fd5b81019080805190602001909291905050508373ffffffffffffffffffffffffffffffffffffffff166317de3a416040518163ffffffff167c0100000000000000000000000000000000000000000000000000000000028152600401602060405180830381600087803b1580156130af57600080fd5b505af11580156130c3573d6000803e3d6000fd5b505050506040513d60208110156130d957600080fd5b810190808051906020019092919050505060405180846000191660001916815260200183600019166000191681526020018260001916600019168152602001935050505060405180910390a1600280549050915050919050565b600080600060028054905091506000821115613344576001820390505b60008110151561334357836000191660028281548110151561316e57fe5b9060005260206000200160009054906101000a900473ffffffffffffffffffffffffffffffffffffffff1673ffffffffffffffffffffffffffffffffffffffff166317de3a416040518163ffffffff167c0100000000000000000000000000000000000000000000000000000000028152600401602060405180830381600087803b1580156131fc57600080fd5b505af1158015613210573d6000803e3d6000fd5b505050506040513d602081101561322657600080fd5b81019080805190602001909291905050506000191614156133205760028181548110151561325057fe5b9060005260206000200160009054906101000a900473ffffffffffffffffffffffffffffffffffffffff1673ffffffffffffffffffffffffffffffffffffffff16634a79d50c6040518163ffffffff167c0100000000000000000000000000000000000000000000000000000000028152600401602060405180830381600087803b1580156132de57600080fd5b505af11580156132f2573d6000803e3d6000fd5b505050506040513d602081101561330857600080fd5b81019080805190602001909291905050509250613345565b60008114156133355760006001029250613345565b808060019003915050613150565b5b5b5050919050565b80600560008473ffffffffffffffffffffffffffffffffffffffff1673ffffffffffffffffffffffffffffffffffffffff168152602001908152602001600020819055505050565b60046020528060005260406000206000915090505481565b6000806000806000600360008760001916600019168152602001908152602001600020549350600092506002600185038154811015156133e857fe5b9060005260206000200160009054906101000a900473ffffffffffffffffffffffffffffffffffffffff169150600090505b60048163ffffffff1610156134ea578173ffffffffffffffffffffffffffffffffffffffff1663f59dfdfb826040518263ffffffff167c0100000000000000000000000000000000000000000000000000000000028152600401808263ffffffff168152602001915050602060405180830381600087803b15801561349e57600080fd5b505af11580156134b2573d6000803e3d6000fd5b505050506040513d60208110156134c857600080fd5b810190808051906020019092919050505083019250808060010191505061341a565b60008273ffffffffffffffffffffffffffffffffffffffff16631f3e74396040518163ffffffff167c0100000000000000000000000000000000000000000000000000000000028152600401602060405180830381600087803b15801561355057600080fd5b505af1158015613564573d6000803e3d6000fd5b505050506040513d602081101561357a57600080fd5b810190808051906020019092919050505063ffffffff1614151561365b5760048273ffffffffffffffffffffffffffffffffffffffff16631f3e74396040518163ffffffff167c0100000000000000000000000000000000000000000000000000000000028152600401602060405180830381600087803b1580156135fe57600080fd5b505af1158015613612573d6000803e3d6000fd5b505050506040513d602081101561362857600080fd5b81019080805190602001909291905050500263ffffffff16600a840263ffffffff1681151561365357fe5b049450613660565b600094505b50505050919050565b6000806000806000600102925060009150600090505b600280549050811015613939578163ffffffff166002828154811015156136a257fe5b9060005260206000200160009054906101000a900473ffffffffffffffffffffffffffffffffffffffff1673ffffffffffffffffffffffffffffffffffffffff166339c614a16040518163ffffffff167c0100000000000000000000000000000000000000000000000000000000028152600401602060405180830381600087803b15801561373057600080fd5b505af1158015613744573d6000803e3d6000fd5b505050506040513d602081101561375a57600080fd5b810190808051906020019092919050505063ffffffff16111561392c5760028181548110151561378657fe5b9060005260206000200160009054906101000a900473ffffffffffffffffffffffffffffffffffffffff1673ffffffffffffffffffffffffffffffffffffffff16634a79d50c6040518163ffffffff167c0100000000000000000000000000000000000000000000000000000000028152600401602060405180830381600087803b15801561381457600080fd5b505af1158015613828573d6000803e3d6000fd5b505050506040513d602081101561383e57600080fd5b8101908080519060200190929190505050925060028181548110151561386057fe5b9060005260206000200160009054906101000a900473ffffffffffffffffffffffffffffffffffffffff1673ffffffffffffffffffffffffffffffffffffffff166339c614a16040518163ffffffff167c0100000000000000000000000000000000000000000000000000000000028152600401602060405180830381600087803b1580156138ee57600080fd5b505af1158015613902573d6000803e3d6000fd5b505050506040513d602081101561391857600080fd5b810190808051906020019092919050505091505b808060010191505061367f565b82935050505090565b60056020528060005260406000206000915090505481565b600080600060028054905091506000821115613b6b576001820390505b600081101515613b6a57836000191660028281548110151561399557fe5b9060005260206000200160009054906101000a900473ffffffffffffffffffffffffffffffffffffffff1673ffffffffffffffffffffffffffffffffffffffff1663a6c3e6b96040518163ffffffff167c0100000000000000000000000000000000000000000000000000000000028152600401602060405180830381600087803b158015613a2357600080fd5b505af1158015613a37573d6000803e3d6000fd5b505050506040513d6020811015613a4d57600080fd5b8101908080519060200190929190505050600019161415613b4757600281815481101515613a7757fe5b9060005260206000200160009054906101000a900473ffffffffffffffffffffffffffffffffffffffff1673ffffffffffffffffffffffffffffffffffffffff16634a79d50c6040518163ffffffff167c0100000000000000000000000000000000000000000000000000000000028152600401602060405180830381600087803b158015613b0557600080fd5b505af1158015613b19573d6000803e3d6000fd5b505050506040513d6020811015613b2f57600080fd5b81019080805190602001909291905050509250613b6c565b6000811415613b5c5760006001029250613b6c565b808060019003915050613977565b5b5b5050919050565b6060600660008373ffffffffffffffffffffffffffffffffffffffff1673ffffffffffffffffffffffffffffffffffffffff168152602001908152602001600020805480602002602001604051908101604052809291908181526020018280548015613c0257602002820191906000526020600020905b81546000191681526020019060010190808311613bea575b50505050509050919050565b600080600360008460001916600019168152602001908152602001600020549050600081141515613d1b57600260018203815481101515613c4b57fe5b9060005260206000200160009054906101000a900473ffffffffffffffffffffffffffffffffffffffff1673ffffffffffffffffffffffffffffffffffffffff166339c614a16040518163ffffffff167c0100000000000000000000000000000000000000000000000000000000028152600401602060405180830381600087803b158015613cd957600080fd5b505af1158015613ced573d6000803e3d6000fd5b505050506040513d6020811015613d0357600080fd5b81019080805190602001909291905050509150613d1c565b5b50919050565b6060600060606000600280549050925084604051908082528060200260200182016040528015613d615781602001602082028038833980820191505090505b509150600083118015613d75575060008514155b15613ebe57828511151515613d8957600080fd5b6001830390505b84830381101515613ebd57600281815481101515613daa57fe5b9060005260206000200160009054906101000a900473ffffffffffffffffffffffffffffffffffffffff1673ffffffffffffffffffffffffffffffffffffffff16634a79d50c6040518163ffffffff167c0100000000000000000000000000000000000000000000000000000000028152600401602060405180830381600087803b158015613e3857600080fd5b505af1158015613e4c573d6000803e3d6000fd5b505050506040513d6020811015613e6257600080fd5b810190808051906020019092919050505082826001860303815181101515613e8657fe5b9060200190602002019060001916908160001916815250506000811415613eaf57819350613ec2565b808060019003915050613d90565b5b8193505b505050919050565b6000806000806000600102925060009150600090505b600280549050811015614284578460001916600282815481101515613f0157fe5b9060005260206000200160009054906101000a900473ffffffffffffffffffffffffffffffffffffffff1673ffffffffffffffffffffffffffffffffffffffff1663a6c3e6b96040518163ffffffff167c0100000000000000000000000000000000000000000000000000000000028152600401602060405180830381600087803b158015613f8f57600080fd5b505af1158015613fa3573d6000803e3d6000fd5b505050506040513d6020811015613fb957600080fd5b8101908080519060200190929190505050600019161480156140bd57508163ffffffff16600282815481101515613fec57fe5b9060005260206000200160009054906101000a900473ffffffffffffffffffffffffffffffffffffffff1673ffffffffffffffffffffffffffffffffffffffff166339c614a16040518163ffffffff167c0100000000000000000000000000000000000000000000000000000000028152600401602060405180830381600087803b15801561407a57600080fd5b505af115801561408e573d6000803e3d6000fd5b505050506040513d60208110156140a457600080fd5b810190808051906020019092919050505063ffffffff16115b15614277576002818154811015156140d157fe5b9060005260206000200160009054906101000a900473ffffffffffffffffffffffffffffffffffffffff1673ffffffffffffffffffffffffffffffffffffffff16634a79d50c6040518163ffffffff167c0100000000000000000000000000000000000000000000000000000000028152600401602060405180830381600087803b15801561415f57600080fd5b505af1158015614173573d6000803e3d6000fd5b505050506040513d602081101561418957600080fd5b810190808051906020019092919050505092506002818154811015156141ab57fe5b9060005260206000200160009054906101000a900473ffffffffffffffffffffffffffffffffffffffff1673ffffffffffffffffffffffffffffffffffffffff166339c614a16040518163ffffffff167c0100000000000000000000000000000000000000000000000000000000028152600401602060405180830381600087803b15801561423957600080fd5b505af115801561424d573d6000803e3d6000fd5b505050506040513d602081101561426357600080fd5b810190808051906020019092919050505091505b8080600101915050613ee0565b829350505050919050565b600061429a336126c3565b15156142a557600080fd5b600360008360001916600019168152602001908152602001600020549050600081141515614486576002600182038154811015156142df57fe5b9060005260206000200160009054906101000a900473ffffffffffffffffffffffffffffffffffffffff1673ffffffffffffffffffffffffffffffffffffffff1663e6810afb33600460003373ffffffffffffffffffffffffffffffffffffffff1673ffffffffffffffffffffffffffffffffffffffff168152602001908152602001600020546040518363ffffffff167c0100000000000000000000000000000000000000000000000000000000028152600401808373ffffffffffffffffffffffffffffffffffffffff1673ffffffffffffffffffffffffffffffffffffffff16815260200182815260200192505050600060405180830381600087803b1580156143eb57600080fd5b505af11580156143ff573d6000803e3d6000fd5b505050507f838c9e405d9a98dee5c07a92f263ac15710fac782571748a3472677ff52ca5dd823360006040518084600019166000191681526020018373ffffffffffffffffffffffffffffffffffffffff1673ffffffffffffffffffffffffffffffffffffffff1681526020018263ffffffff168152602001935050505060405180910390a15b5050565b6000806000806000806000600102945060009350600092505b600280549050831015614886576002838154811015156144bf57fe5b9060005260206000200160009054906101000a900473ffffffffffffffffffffffffffffffffffffffff16915060008273ffffffffffffffffffffffffffffffffffffffff16631f3e74396040518163ffffffff167c0100000000000000000000000000000000000000000000000000000000028152600401602060405180830381600087803b15801561455257600080fd5b505af1158015614566573d6000803e3d6000fd5b505050506040513d602081101561457c57600080fd5b810190808051906020019092919050505063ffffffff161415156148795760048763ffffffff16106146545761464f8273ffffffffffffffffffffffffffffffffffffffff16634a79d50c6040518163ffffffff167c0100000000000000000000000000000000000000000000000000000000028152600401602060405180830381600087803b15801561460f57600080fd5b505af1158015614623573d6000803e3d6000fd5b505050506040513d602081101561463957600080fd5b81019080805190602001909291905050506133ac565b6147bd565b8173ffffffffffffffffffffffffffffffffffffffff16631f3e74396040518163ffffffff167c0100000000000000000000000000000000000000000000000000000000028152600401602060405180830381600087803b1580156146b857600080fd5b505af11580156146cc573d6000803e3d6000fd5b505050506040513d60208110156146e257600080fd5b810190808051906020019092919050505063ffffffff16600a8373ffffffffffffffffffffffffffffffffffffffff1663f59dfdfb8a6040518263ffffffff167c0100000000000000000000000000000000000000000000000000000000028152600401808263ffffffff168152602001915050602060405180830381600087803b15801561477057600080fd5b505af1158015614784573d6000803e3d6000fd5b505050506040513d602081101561479a57600080fd5b81019080805190602001909291905050500263ffffffff168115156147bb57fe5b045b90508363ffffffff168163ffffffff161115614878578173ffffffffffffffffffffffffffffffffffffffff16634a79d50c6040518163ffffffff167c0100000000000000000000000000000000000000000000000000000000028152600401602060405180830381600087803b15801561483757600080fd5b505af115801561484b573d6000803e3d6000fd5b505050506040513d602081101561486157600080fd5b810190808051906020019092919050505094508093505b5b82806001019350506144a3565b8495505050505050919050565b600061489e83610d8a565b341415156148ab57600080fd5b600360008460001916600019168152602001908152602001600020549050600081141515614a45576002600182038154811015156148e557fe5b9060005260206000200160009054906101000a900473ffffffffffffffffffffffffffffffffffffffff1673ffffffffffffffffffffffffffffffffffffffff16636d81a01b836040518263ffffffff167c0100000000000000000000000000000000000000000000000000000000028152600401808273ffffffffffffffffffffffffffffffffffffffff1673ffffffffffffffffffffffffffffffffffffffff168152602001915050600060405180830381600087803b1580156149aa57600080fd5b505af11580156149be573d6000803e3d6000fd5b505050507f838c9e405d9a98dee5c07a92f263ac15710fac782571748a3472677ff52ca5dd833360016040518084600019166000191681526020018373ffffffffffffffffffffffffffffffffffffffff1673ffffffffffffffffffffffffffffffffffffffff1681526020018263ffffffff168152602001935050505060405180910390a15b505050565b6000806000806000600102925060009150600090505b600280549050811015614e04578460001916600282815481101515614a8157fe5b9060005260206000200160009054906101000a900473ffffffffffffffffffffffffffffffffffffffff1673ffffffffffffffffffffffffffffffffffffffff166317de3a416040518163ffffffff167c0100000000000000000000000000000000000000000000000000000000028152600401602060405180830381600087803b158015614b0f57600080fd5b505af1158015614b23573d6000803e3d6000fd5b505050506040513d6020811015614b3957600080fd5b810190808051906020019092919050505060001916148015614c3d57508163ffffffff16600282815481101515614b6c57fe5b9060005260206000200160009054906101000a900473ffffffffffffffffffffffffffffffffffffffff1673ffffffffffffffffffffffffffffffffffffffff166339c614a16040518163ffffffff167c0100000000000000000000000000000000000000000000000000000000028152600401602060405180830381600087803b158015614bfa57600080fd5b505af1158015614c0e573d6000803e3d6000fd5b505050506040513d6020811015614c2457600080fd5b810190808051906020019092919050505063ffffffff16115b15614df757600281815481101515614c5157fe5b9060005260206000200160009054906101000a900473ffffffffffffffffffffffffffffffffffffffff1673ffffffffffffffffffffffffffffffffffffffff16634a79d50c6040518163ffffffff167c0100000000000000000000000000000000000000000000000000000000028152600401602060405180830381600087803b158015614cdf57600080fd5b505af1158015614cf3573d6000803e3d6000fd5b505050506040513d6020811015614d0957600080fd5b81019080805190602001909291905050509250600281815481101515614d2b57fe5b9060005260206000200160009054906101000a900473ffffffffffffffffffffffffffffffffffffffff1673ffffffffffffffffffffffffffffffffffffffff166339c614a16040518163ffffffff167c0100000000000000000000000000000000000000000000000000000000028152600401602060405180830381600087803b158015614db957600080fd5b505af1158015614dcd573d6000803e3d6000fd5b505050506040513d6020811015614de357600080fd5b810190808051906020019092919050505091505b8080600101915050614a60565b829350505050919050565b600660205281600052604060002081815481101515614e2a57fe5b90600052602060002001600091509150505481565b6060600060606000600280549050925082604051908082528060200260200182016040528015614e7e5781602001602082028038833980820191505090505b509150600090505b82811015614f9957600281815481101515614e9d57fe5b9060005260206000200160009054906101000a900473ffffffffffffffffffffffffffffffffffffffff1673ffffffffffffffffffffffffffffffffffffffff16634a79d50c6040518163ffffffff167c0100000000000000000000000000000000000000000000000000000000028152600401602060405180830381600087803b158015614f2b57600080fd5b505af1158015614f3f573d6000803e3d6000fd5b505050506040513d6020811015614f5557600080fd5b81019080805190602001909291905050508282815181101515614f7457fe5b9060200190602002019060001916908160001916815250508080600101915050614e86565b81935050505090565b6000806000809150600090505b6002805490508110156150ab57600281815481101515614fcb57fe5b9060005260206000200160009054906101000a900473ffffffffffffffffffffffffffffffffffffffff1673ffffffffffffffffffffffffffffffffffffffff166339c614a16040518163ffffffff167c0100000000000000000000000000000000000000000000000000000000028152600401602060405180830381600087803b15801561505957600080fd5b505af115801561506d573d6000803e3d6000fd5b505050506040513d602081101561508357600080fd5b810190808051906020019092919050505063ffffffff16820191508080600101915050614faf565b819250505090565b8280548282559060005260206000209081019282156150f5579160200282015b828111156150f45782518290600019169055916020019190600101906150d3565b5b5090506151029190615106565b5090565b61512891905b8082111561512457600081600090555060010161510c565b5090565b905600a165627a7a72305820a2f4ad8f3bf28c00d22a11b0a253b589519134aaf2520346cb2aec08dbd057a60029",
  "source": "pragma solidity ^0.4.19;\n\nimport \"./BaseContent.sol\";\n\ncontract Catalog{\n    \n    /* data about the contract itself */\n    address public owner; // address of who uploads\n    address private catalog_address; // address of the contract\n    \n    /* data about the catalog */\n    BaseContent[] public contents_list; \n    mapping (bytes32 => uint) public position_content;\n    mapping (address => uint) public premium_customers; // address of customer to expiration date as block height\n    \n    /* data about the accounts */\n    mapping (address => uint) public notifications_to_see;\n    mapping (address => bytes32[]) public notifications_preferences;\n\n    /* utilities variables */\n    uint private time_premium = 40000; // premium lasts approximately one week\n    uint public cost_premium = 0.25 ether; // premium costs about 20 euro\n    uint16 private v = 100; // number of views required before payment\n    \n    /* events triggered */\n    event new_publication (bytes32 _title, bytes32 _author, bytes32 _genre);\n    event content_acquired (bytes32 _title, address _customer, uint32 _gifted);\n    event premium_acquired (address _customer, uint32 _gifted);\n    event author_payed (bytes32 _t, uint _tot_money);\n\n    /* modifiers that enforce that some functions are called just by specif agents */\n    modifier byOwner() {\n        require(msg.sender == owner);\n        _;\n    }\n\n    /* constructor function of the catalog */\n    constructor () public {\n        owner = msg.sender;\n        catalog_address = address(this);\n    }\n    \n    \n    \n    /* Functions which do not change the state of the contract */\n    function GetLengthCatalog () public view returns (uint) {\n        return contents_list.length;\n    }\n\n    /* returns the author of a content */\n    function GetAuthor(bytes32 _t) public view returns (bytes32) {\n        uint i = position_content[_t];\n        if (i != 0) {\n            return contents_list[i-1].author();\n        }\n    }\n    \n    /* returns the author of a content */\n    function GetGenre(bytes32 _t) public view returns (bytes32) {\n        uint i = position_content[_t];\n        if (i != 0) {\n            return contents_list[i-1].genre();\n        }\n    }\n    \n    /* returns the price of a content */\n    function GetPrice (bytes32 _t) public view returns (uint){\n        uint i = position_content[_t];\n        if (i != 0) {\n            return contents_list[i-1].price();\n        }\n    }\n\n    /* returns the number of views of a content */\n    function GetViews (bytes32 _t) public view returns (uint32){\n        uint i = position_content[_t];\n        if (i != 0) {\n            return contents_list[i-1].view_count();\n        }\n    }\n\n    /* returns the number of views of a content */\n    function GetOwner (bytes32 _t) public view returns (address){\n        uint i = position_content[_t];\n        if (i != 0) {\n            return contents_list[i-1].owner();\n        }\n    }\n\n    function GetNotifPreferences(address _u) public view returns (bytes32[] memory) {\n        return notifications_preferences[_u];\n    }\n\n    function SetNotifPreferences(address _u, bytes32[] memory _list) public {\n        notifications_preferences[_u] = _list;\n    }\n\n\n    /* returns the average rating for a content */ \n    function GetRate (bytes32 _t) public view returns (uint32) {\n        uint i = position_content[_t];\n        uint32 s = 0;\n        BaseContent bc = contents_list[i-1];\n        for(uint32 j = 0; j < 4; j++){\n            s += bc.feed(j);\n        }\n        if (bc.nVotes() != 0 ) {\n            return ((s * 10) / (bc.nVotes() * 4));\n        } else {\n            return 0;\n        }\n    }\n    \n    \n    /* returns the number of views for each content */\n    function GetStatistics () public view returns (bytes32[] memory, uint32[] memory){\n        uint l_length = contents_list.length;\n        bytes32[] memory titles_list = new bytes32[](l_length);\n        uint32[] memory views_list = new uint32[](l_length);\n        for (uint i = 0; i < l_length; i++) {\n            titles_list[i] = contents_list[i].title();\n            views_list[i] = contents_list[i].view_count();\n        }\n        return (titles_list, views_list);\n    }\n    \n    /* returns the list of contents without the number of views */\n    function GetContentList() public view returns (bytes32[] memory) {\n        uint l_length = contents_list.length;\n        bytes32[] memory titles_list = new bytes32[](l_length);\n        for (uint i = 0; i < l_length; i++) {\n            titles_list[i] = contents_list[i].title();\n        }\n        return titles_list;\n    }\n    \n    /* returns the list of x newest contents */\n    function GetNewContentsList (uint x) public view returns (bytes32[] memory) {\n        uint l_length = contents_list.length;\n        bytes32[] memory titles_list = new bytes32[](x);\n        if (l_length > 0 && x != 0) {\n            require(x <= l_length);\n            for (uint i = l_length - 1; i>= l_length-x; i--) {\n                titles_list[l_length - 1 - i] = contents_list[i].title();\n                if (i == 0) {\n                    return titles_list;\n                }\n            }\n        }\n        return titles_list;\n    }\n    \n    /* returns the most recent content with genre _g */\n    function GetLatestByGenre(bytes32 _g) public view returns (bytes32) {\n        uint l_length = contents_list.length;\n        if (l_length > 0) {\n            for (uint i = l_length - 1; i >= 0; i--) {\n                if (contents_list[i].genre() == _g) {\n                    return contents_list[i].title();\n                }\n                if (i == 0) {\n                    return 0x0;\n                }\n            }\n        }\n    }\n    \n    /* returns the content with genre _g with max views */\n    function GetMostPopularByGenre (bytes32 _g) public view returns (bytes32) {\n        bytes32 most_popular = 0;\n        uint32 most_views = 0;\n        for (uint i = 0; i < contents_list.length; i++) {\n            if (contents_list[i].genre() == _g && contents_list[i].view_count() > most_views) {\n                most_popular = contents_list[i].title();\n                most_views = contents_list[i].view_count();\n            }\n        }\n        return most_popular;\n    }\n    \n    /* returns the most recent content of the author _a */\n    function GetLatestByAuthor (bytes32 _a) public view returns (bytes32) {\n        uint l_length = contents_list.length;\n        if (l_length > 0) {\n            for (uint i = l_length - 1; i >= 0; i--) {\n                if (contents_list[i].author() == _a) {\n                    return contents_list[i].title();\n                }\n                if (i == 0) {\n                    return 0x0;\n                }\n            }\n        }\n    }\n    \n    /* returns the content with most views of the author _a */\n    function GetMostPopularByAuthor (bytes32 _a) public view returns (bytes32){\n        bytes32 most_popular = 0;\n        uint32 most_views = 0;\n        for (uint i = 0; i < contents_list.length; i++) {\n            if (contents_list[i].author() == _a && contents_list[i].view_count() > most_views) {\n                most_popular = contents_list[i].title();\n                most_views = contents_list[i].view_count();\n            }\n        }\n        return most_popular;\n    }\n\n    /* returns the content with most views */\n    function GetMostPopular () public view returns (bytes32){\n        bytes32 most_popular = 0;\n        uint32 most_views = 0;\n        for (uint i = 0; i < contents_list.length; i++) {\n            if (contents_list[i].view_count() > most_views) {\n                most_popular = contents_list[i].title();\n                most_views = contents_list[i].view_count();\n            }\n        }\n        return most_popular;\n    }\n    \n    /* returns the content with highest rating for feedback category _y \n    (or highest average of all ratings if y is not specified) */\n    function GetMostRated (uint32 _y) public view returns (bytes32){\n        bytes32 most_rated = 0;\n        uint32 highest_rating = 0;\n        for (uint i = 0; i < contents_list.length; i++) {\n            BaseContent bc = contents_list[i];\n            if (bc.nVotes() != 0 ) {\n                uint32 r = (_y < 4)? ((bc.feed(_y) *10) / bc.nVotes()) : GetRate(bc.title());\n                if (r > highest_rating) {\n                    most_rated = bc.title();\n                    highest_rating = r;\n                }\n            }\n        }\n        return most_rated;\n    }\n    \n     /* returns the content with highest rating for feedback category _y \n    (or highest average of all ratings if y is not specified) with genre _g */\n    function GetMostRatedByGenre (bytes32 _g, uint32 _y) public view returns (bytes32){\n        bytes32 most_rated = 0;\n        uint32 highest_rating = 0;\n        for (uint i = 0; i < contents_list.length; i++) {\n            BaseContent bc = contents_list[i];\n            if (bc.genre() == _g && bc.nVotes() != 0 ) {\n                uint32 r = (_y < 4)? ((bc.feed(_y) *10) / bc.nVotes()) : GetRate(bc.title());\n                if (r > highest_rating) {\n                    most_rated = bc.title();\n                    highest_rating = r;\n                }\n            }\n        }\n        return most_rated;\n    }\n    \n    /* returns the content with highest rating for feedback category _y \n    (or highest average of all ratings if y is not specified) with author _a */\n    function GetMostRatedByAuthor (bytes32 _a, uint32 _y) public view returns (bytes32){\n        bytes32 most_rated = 0;\n        uint32 highest_rating = 0;\n        for (uint i = 0; i < contents_list.length; i++) {\n            BaseContent bc = contents_list[i];\n            if (bc.author() == _a && bc.nVotes() != 0 ) {\n                uint32 r = (_y < 4)? ((bc.feed(_y) *10) / bc.nVotes()) : GetRate(bc.title());\n                if (r > highest_rating) {\n                    most_rated = bc.title();\n                    highest_rating = r;\n                }\n            }\n        }\n        return most_rated;\n    }\n    \n    \n    /* returns true if _c is a valid premium account */\n    function isPremium (address _c) public view returns(bool) {\n        return premium_customers[_c] > block.number;\n    }\n    \n    \n    \n    /* Functions which modify the state of the contract */\n    \n    /* submits a new content _c to the catalog */\n    function AddContent (BaseContent _c) external returns (uint){\n        BaseContent cm = _c;\n        require (cm.owner() == msg.sender && cm.catalog() == catalog_address);\n        contents_list.push(cm);\n        position_content[cm.title()] = contents_list.length;\n        emit new_publication (cm.title(), cm.author(), cm.genre());\n        return contents_list.length;\n    }\n    \n    /* pays to access content _t */\n    function GetContent (bytes32 _t) external payable {\n        require(msg.value == GetPrice(_t));\n        uint i = position_content[_t];\n        if (i != 0) {\n            contents_list[i-1].Authorize(msg.sender);\n            emit content_acquired (_t, msg.sender, 0);\n        }\n    }\n    \n    /* premium accounts can requests access to content _t without paying */\n    function GetContentPremium (bytes32 _t) external {\n        require(isPremium(msg.sender));\n        uint i = position_content[_t];\n        if (i != 0) {\n            contents_list[i-1].AuthorizePremium(msg.sender, premium_customers[msg.sender]);\n            emit content_acquired (_t, msg.sender, 0);\n        }\n    }\n    \n    /* pays for granting access to content _t to the user _u */\n    function GiftContent  (bytes32 _t, address _u) external payable {\n        require(msg.value == GetPrice(_t));        \n        uint i = position_content[_t];\n        if (i != 0) {\n            contents_list[i-1].Authorize(_u);\n            emit content_acquired (_t, msg.sender, 1);\n        }\n    }\n       \n    /* buys a new premium subscription */\n    function BuyPremium () external payable {\n        require(msg.value == cost_premium);\n        premium_customers[msg.sender] = block.number + time_premium;\n        emit premium_acquired (msg.sender, 0);\n    }\n\n     /* pays for granting a premium account to the user _u */\n    function GiftPremium  (address _u) external payable {\n        require(msg.value == cost_premium);\n        premium_customers[_u] = block.number + time_premium;\n        emit premium_acquired (_u, 1);\n    }\n\n    /* allows to set the last block seen by an account */\n    function SetNotification (address _a, uint _x) external {\n        notifications_to_see[_a] = _x;\n    }\n    \n    /* pay an author a multiple of v views*/\n    function PayAuthor (bytes32 _t) external {\n        uint i = position_content[_t];\n        if (i != 0) {\n            uint32 tot_views = contents_list[i-1].view_count();\n            uint32 to_pay = tot_views - contents_list[i-1].views_already_payed();\n            if (to_pay >= v) {\n                uint256 price_per_view = contents_list[i-1].price() * GetRate(_t)/50;\n                contents_list[i-1].owner().transfer(to_pay * price_per_view);\n                contents_list[i-1].Payed(to_pay);\n                emit author_payed (_t, to_pay * price_per_view);\n            }\n        }\n    }\n    \n    /* returns the total number of views and the total number of views that has to payed */\n    function GetTotalViews () private view returns (uint) {\n        uint tot_views = 0;\n        for (uint i = 0; i < contents_list.length; i++) {\n            tot_views = tot_views + contents_list[i].view_count();\n        }\n        return tot_views;\n    }\n    \n    /* the catalog can be destructed */\n    function KillCatalog () external byOwner {\n        uint tot_views = GetTotalViews();\n        uint money_per_view = catalog_address.balance / tot_views;\n        for (uint i = 0; i < contents_list.length; i++) {\n            uint proportional_money = contents_list[i].view_count() * money_per_view;\n            contents_list[i].owner().transfer(proportional_money);\n            emit author_payed (contents_list[i].title(), proportional_money);\n        }\n        selfdestruct(catalog_address);\n    }\n}",
  "sourcePath": "/home/fsbolgi/Documents/cobra_dapp/contracts/Catalog.sol",
  "compiler": {
    "name": "solc",
    "version": "0.4.24+commit.e67f0147.Emscripten.clang"
  },
  "schemaVersion": "2.0.1",
  "updatedAt": "2019-01-08T10:20:36.801Z"
}