{
  "contractName": "Catalog",
  "abi": [
    {
      "constant": true,
      "inputs": [
        {
          "name": "",
          "type": "uint256"
        }
      ],
      "name": "contents_list",
      "outputs": [
        {
          "name": "",
          "type": "address"
        }
      ],
      "payable": false,
      "stateMutability": "view",
      "type": "function"
    },
    {
      "constant": true,
      "inputs": [],
      "name": "owner",
      "outputs": [
        {
          "name": "",
          "type": "address"
        }
      ],
      "payable": false,
      "stateMutability": "view",
      "type": "function"
    },
    {
      "inputs": [],
      "payable": false,
      "stateMutability": "nonpayable",
      "type": "constructor"
    },
    {
      "anonymous": false,
      "inputs": [
        {
          "indexed": false,
          "name": "_catalog_address",
          "type": "address"
        }
      ],
      "name": "catalog_created",
      "type": "event"
    },
    {
      "anonymous": false,
      "inputs": [
        {
          "indexed": false,
          "name": "_title",
          "type": "bytes32"
        },
        {
          "indexed": false,
          "name": "_author",
          "type": "bytes32"
        },
        {
          "indexed": false,
          "name": "_genre",
          "type": "bytes32"
        }
      ],
      "name": "new_publication",
      "type": "event"
    },
    {
      "anonymous": false,
      "inputs": [
        {
          "indexed": false,
          "name": "_title",
          "type": "bytes32"
        },
        {
          "indexed": false,
          "name": "_customer",
          "type": "address"
        },
        {
          "indexed": false,
          "name": "_content",
          "type": "address"
        }
      ],
      "name": "content_acquired",
      "type": "event"
    },
    {
      "anonymous": false,
      "inputs": [
        {
          "indexed": false,
          "name": "_customer",
          "type": "address"
        },
        {
          "indexed": false,
          "name": "_expiration",
          "type": "uint256"
        }
      ],
      "name": "premium_acquired",
      "type": "event"
    },
    {
      "anonymous": false,
      "inputs": [
        {
          "indexed": false,
          "name": "_customer",
          "type": "address"
        },
        {
          "indexed": false,
          "name": "_change",
          "type": "uint256"
        }
      ],
      "name": "change_given",
      "type": "event"
    },
    {
      "anonymous": false,
      "inputs": [
        {
          "indexed": false,
          "name": "_t",
          "type": "bytes32"
        },
        {
          "indexed": false,
          "name": "_tot_money",
          "type": "uint256"
        }
      ],
      "name": "author_payed",
      "type": "event"
    },
    {
      "anonymous": false,
      "inputs": [],
      "name": "catalog_destroyed",
      "type": "event"
    },
    {
      "constant": true,
      "inputs": [],
      "name": "GetLengthCatalog",
      "outputs": [
        {
          "name": "",
          "type": "uint256"
        }
      ],
      "payable": false,
      "stateMutability": "view",
      "type": "function"
    },
    {
      "constant": true,
      "inputs": [
        {
          "name": "_t",
          "type": "bytes32"
        }
      ],
      "name": "GetAuthor",
      "outputs": [
        {
          "name": "",
          "type": "bytes32"
        }
      ],
      "payable": false,
      "stateMutability": "view",
      "type": "function"
    },
    {
      "constant": true,
      "inputs": [
        {
          "name": "_t",
          "type": "bytes32"
        }
      ],
      "name": "GetGenre",
      "outputs": [
        {
          "name": "",
          "type": "bytes32"
        }
      ],
      "payable": false,
      "stateMutability": "view",
      "type": "function"
    },
    {
      "constant": true,
      "inputs": [
        {
          "name": "_t",
          "type": "bytes32"
        }
      ],
      "name": "GetPrice",
      "outputs": [
        {
          "name": "",
          "type": "uint256"
        }
      ],
      "payable": false,
      "stateMutability": "view",
      "type": "function"
    },
    {
      "constant": true,
      "inputs": [
        {
          "name": "_t",
          "type": "bytes32"
        }
      ],
      "name": "GetViews",
      "outputs": [
        {
          "name": "",
          "type": "uint32"
        }
      ],
      "payable": false,
      "stateMutability": "view",
      "type": "function"
    },
    {
      "constant": true,
      "inputs": [
        {
          "name": "_t",
          "type": "bytes32"
        }
      ],
      "name": "GetRate",
      "outputs": [
        {
          "name": "",
          "type": "uint32"
        }
      ],
      "payable": false,
      "stateMutability": "view",
      "type": "function"
    },
    {
      "constant": true,
      "inputs": [],
      "name": "GetStatistics",
      "outputs": [
        {
          "name": "",
          "type": "bytes32[]"
        },
        {
          "name": "",
          "type": "uint32[]"
        }
      ],
      "payable": false,
      "stateMutability": "view",
      "type": "function"
    },
    {
      "constant": true,
      "inputs": [],
      "name": "GetContentList",
      "outputs": [
        {
          "name": "",
          "type": "bytes32[]"
        }
      ],
      "payable": false,
      "stateMutability": "view",
      "type": "function"
    },
    {
      "constant": true,
      "inputs": [
        {
          "name": "x",
          "type": "uint256"
        }
      ],
      "name": "GetNewContentsList",
      "outputs": [
        {
          "name": "",
          "type": "bytes32[]"
        }
      ],
      "payable": false,
      "stateMutability": "view",
      "type": "function"
    },
    {
      "constant": true,
      "inputs": [
        {
          "name": "_g",
          "type": "bytes32"
        }
      ],
      "name": "GetLatestByGenre",
      "outputs": [
        {
          "name": "",
          "type": "bytes32"
        }
      ],
      "payable": false,
      "stateMutability": "view",
      "type": "function"
    },
    {
      "constant": true,
      "inputs": [
        {
          "name": "_g",
          "type": "bytes32"
        }
      ],
      "name": "GetMostPopularByGenre",
      "outputs": [
        {
          "name": "",
          "type": "bytes32"
        }
      ],
      "payable": false,
      "stateMutability": "view",
      "type": "function"
    },
    {
      "constant": true,
      "inputs": [
        {
          "name": "_a",
          "type": "bytes32"
        }
      ],
      "name": "GetLatestByAuthor",
      "outputs": [
        {
          "name": "",
          "type": "bytes32"
        }
      ],
      "payable": false,
      "stateMutability": "view",
      "type": "function"
    },
    {
      "constant": true,
      "inputs": [
        {
          "name": "_a",
          "type": "bytes32"
        }
      ],
      "name": "GetMostPopularByAuthor",
      "outputs": [
        {
          "name": "",
          "type": "bytes32"
        }
      ],
      "payable": false,
      "stateMutability": "view",
      "type": "function"
    },
    {
      "constant": true,
      "inputs": [
        {
          "name": "_y",
          "type": "uint32"
        }
      ],
      "name": "GetMostRated",
      "outputs": [
        {
          "name": "",
          "type": "bytes32"
        }
      ],
      "payable": false,
      "stateMutability": "view",
      "type": "function"
    },
    {
      "constant": true,
      "inputs": [
        {
          "name": "_g",
          "type": "bytes32"
        },
        {
          "name": "_y",
          "type": "uint32"
        }
      ],
      "name": "GetMostRatedByGenre",
      "outputs": [
        {
          "name": "",
          "type": "bytes32"
        }
      ],
      "payable": false,
      "stateMutability": "view",
      "type": "function"
    },
    {
      "constant": true,
      "inputs": [
        {
          "name": "_a",
          "type": "bytes32"
        },
        {
          "name": "_y",
          "type": "uint32"
        }
      ],
      "name": "GetMostRatedByAuthor",
      "outputs": [
        {
          "name": "",
          "type": "bytes32"
        }
      ],
      "payable": false,
      "stateMutability": "view",
      "type": "function"
    },
    {
      "constant": true,
      "inputs": [
        {
          "name": "_c",
          "type": "address"
        }
      ],
      "name": "isPremium",
      "outputs": [
        {
          "name": "",
          "type": "bool"
        }
      ],
      "payable": false,
      "stateMutability": "view",
      "type": "function"
    },
    {
      "constant": false,
      "inputs": [
        {
          "name": "_c",
          "type": "address"
        }
      ],
      "name": "AddContent",
      "outputs": [
        {
          "name": "",
          "type": "uint256"
        }
      ],
      "payable": false,
      "stateMutability": "nonpayable",
      "type": "function"
    },
    {
      "constant": false,
      "inputs": [
        {
          "name": "_t",
          "type": "bytes32"
        }
      ],
      "name": "GetContent",
      "outputs": [],
      "payable": true,
      "stateMutability": "payable",
      "type": "function"
    },
    {
      "constant": false,
      "inputs": [
        {
          "name": "_t",
          "type": "bytes32"
        }
      ],
      "name": "GetContentPremium",
      "outputs": [],
      "payable": false,
      "stateMutability": "nonpayable",
      "type": "function"
    },
    {
      "constant": false,
      "inputs": [
        {
          "name": "_t",
          "type": "bytes32"
        },
        {
          "name": "_u",
          "type": "address"
        }
      ],
      "name": "GiftContent",
      "outputs": [],
      "payable": true,
      "stateMutability": "payable",
      "type": "function"
    },
    {
      "constant": false,
      "inputs": [
        {
          "name": "_u",
          "type": "address"
        }
      ],
      "name": "GiftPremium",
      "outputs": [],
      "payable": true,
      "stateMutability": "payable",
      "type": "function"
    },
    {
      "constant": false,
      "inputs": [],
      "name": "BuyPremium",
      "outputs": [],
      "payable": true,
      "stateMutability": "payable",
      "type": "function"
    },
    {
      "constant": false,
      "inputs": [
        {
          "name": "_t",
          "type": "bytes32"
        }
      ],
      "name": "PayAuthor",
      "outputs": [],
      "payable": false,
      "stateMutability": "nonpayable",
      "type": "function"
    },
    {
      "constant": false,
      "inputs": [],
      "name": "KillCatalog",
      "outputs": [],
      "payable": false,
      "stateMutability": "nonpayable",
      "type": "function"
    }
  ],
  "bytecode": "0x6080604052619c4060055566071afd498d0000600655666a94d74f4300006007556064600860006101000a81548161ffff021916908361ffff16021790555034801561004a57600080fd5b50336000806101000a81548173ffffffffffffffffffffffffffffffffffffffff021916908373ffffffffffffffffffffffffffffffffffffffff16021790555030600160006101000a81548173ffffffffffffffffffffffffffffffffffffffff021916908373ffffffffffffffffffffffffffffffffffffffff1602179055507f6a471b7bf10142f503fa5f24b30b633c5fa9d4131cb9aec08197a1db84f14366600160009054906101000a900473ffffffffffffffffffffffffffffffffffffffff16604051808273ffffffffffffffffffffffffffffffffffffffff1673ffffffffffffffffffffffffffffffffffffffff16815260200191505060405180910390a1614d6e806101606000396000f30060806040526004361061015f576000357c0100000000000000000000000000000000000000000000000000000000900463ffffffff168063043cdcf0146101645780630c30ad89146101a95780630d634eb5146101da5780632669e0ad146102375780632eefa37f146102845780633a20d6761461028e5780633c027d8a146102b257806341c2b619146102c95780634d94c887146103365780634dc1e1681461036157806351d25fe61461039757806358e5a4741461044b578063742fe0d4146104985780637faa1f93146104f35780638da5cb5b146105505780638ded2d73146105a75780638e2b47cd146105fe578063aa5140371461064b578063aeed4de31461069c578063bfe59cfb146106e9578063d1628fb01461073a578063d94cf6e0146107bc578063d97c006514610809578063df1263d51461083a578063f15b363a14610889578063f867cff7146108cd578063ff70f8591461091a575b600080fd5b34801561017057600080fd5b506101936004803603810190808035600019169060200190929190505050610986565b6040518082815260200191505060405180910390f35b3480156101b557600080fd5b506101d86004803603810190808035600019169060200190929190505050610a9a565b005b3480156101e657600080fd5b506102196004803603810190808035600019169060200190929190803563ffffffff169060200190929190505050610ef9565b60405180826000191660001916815260200191505060405180910390f35b34801561024357600080fd5b5061026660048036038101908080356000191690602001909291905050506113b4565b60405180826000191660001916815260200191505060405180910390f35b61028c6114c8565b005b6102b06004803603810190808035600019169060200190929190505050611693565b005b3480156102be57600080fd5b506102c7611976565b005b3480156102d557600080fd5b506102f460048036038101908080359060200190929190505050611fa5565b604051808273ffffffffffffffffffffffffffffffffffffffff1673ffffffffffffffffffffffffffffffffffffffff16815260200191505060405180910390f35b34801561034257600080fd5b5061034b611fe3565b6040518082815260200191505060405180910390f35b610395600480360381019080803573ffffffffffffffffffffffffffffffffffffffff169060200190929190505050611ff0565b005b3480156103a357600080fd5b506103ac6121bc565b604051808060200180602001838103835285818151815260200191508051906020019060200280838360005b838110156103f35780820151818401526020810190506103d8565b50505050905001838103825284818151815260200191508051906020019060200280838360005b8381101561043557808201518184015260208101905061041a565b5050505090500194505050505060405180910390f35b34801561045757600080fd5b5061047a600480360381019080803560001916906020019092919050505061245a565b60405180826000191660001916815260200191505060405180910390f35b3480156104a457600080fd5b506104d9600480360381019080803573ffffffffffffffffffffffffffffffffffffffff16906020019092919050505061256e565b604051808215151515815260200191505060405180910390f35b3480156104ff57600080fd5b506105326004803603810190808035600019169060200190929190803563ffffffff1690602001909291905050506125b9565b60405180826000191660001916815260200191505060405180910390f35b34801561055c57600080fd5b50610565612a74565b604051808273ffffffffffffffffffffffffffffffffffffffff1673ffffffffffffffffffffffffffffffffffffffff16815260200191505060405180910390f35b3480156105b357600080fd5b506105e8600480360381019080803573ffffffffffffffffffffffffffffffffffffffff169060200190929190505050612a99565b6040518082815260200191505060405180910390f35b34801561060a57600080fd5b5061062d6004803603810190808035600019169060200190929190505050612fde565b60405180826000191660001916815260200191505060405180910390f35b34801561065757600080fd5b5061067a60048036038101908080356000191690602001909291905050506131f7565b604051808263ffffffff1663ffffffff16815260200191505060405180910390f35b3480156106a857600080fd5b506106cb6004803603810190808035600019169060200190929190505050613432565b60405180826000191660001916815260200191505060405180910390f35b3480156106f557600080fd5b50610718600480360381019080803560001916906020019092919050505061364b565b604051808263ffffffff1663ffffffff16815260200191505060405180910390f35b34801561074657600080fd5b506107656004803603810190808035906020019092919050505061375f565b6040518080602001828103825283818151815260200191508051906020019060200280838360005b838110156107a857808201518184015260208101905061078d565b505050509050019250505060405180910390f35b3480156107c857600080fd5b506107eb6004803603810190808035600019169060200190929190505050613907565b60405180826000191660001916815260200191505060405180910390f35b34801561081557600080fd5b506108386004803603810190808035600019169060200190929190505050613ccc565b005b34801561084657600080fd5b5061086b600480360381019080803563ffffffff169060200190929190505050613f28565b60405180826000191660001916815260200191505060405180910390f35b6108cb6004803603810190808035600019169060200190929190803573ffffffffffffffffffffffffffffffffffffffff169060200190929190505050614331565b005b3480156108d957600080fd5b506108fc6004803603810190808035600019169060200190929190505050614615565b60405180826000191660001916815260200191505060405180910390f35b34801561092657600080fd5b5061092f6149da565b6040518080602001828103825283818151815260200191508051906020019060200280838360005b83811015610972578082015181840152602081019050610957565b505050509050019250505060405180910390f35b600080600360008460001916600019168152602001908152602001600020549050600081141515610a93576002600182038154811015156109c357fe5b9060005260206000200160009054906101000a900473ffffffffffffffffffffffffffffffffffffffff1673ffffffffffffffffffffffffffffffffffffffff1663a035b1fe6040518163ffffffff167c0100000000000000000000000000000000000000000000000000000000028152600401602060405180830381600087803b158015610a5157600080fd5b505af1158015610a65573d6000803e3d6000fd5b505050506040513d6020811015610a7b57600080fd5b81019080805190602001909291905050509150610a94565b5b50919050565b6000806000600360008560001916600019168152602001908152602001600020549250600083141515610ef357600260018403815481101515610ad957fe5b9060005260206000200160009054906101000a900473ffffffffffffffffffffffffffffffffffffffff1673ffffffffffffffffffffffffffffffffffffffff166339c614a16040518163ffffffff167c0100000000000000000000000000000000000000000000000000000000028152600401602060405180830381600087803b158015610b6757600080fd5b505af1158015610b7b573d6000803e3d6000fd5b505050506040513d6020811015610b9157600080fd5b81019080805190602001909291905050509150600260018403815481101515610bb657fe5b9060005260206000200160009054906101000a900473ffffffffffffffffffffffffffffffffffffffff1673ffffffffffffffffffffffffffffffffffffffff1663e76c3ba86040518163ffffffff167c0100000000000000000000000000000000000000000000000000000000028152600401602060405180830381600087803b158015610c4457600080fd5b505af1158015610c58573d6000803e3d6000fd5b505050506040513d6020811015610c6e57600080fd5b810190808051906020019092919050505082039050600860009054906101000a900461ffff1661ffff168163ffffffff16101515610ef257600260018403815481101515610cb857fe5b9060005260206000200160009054906101000a900473ffffffffffffffffffffffffffffffffffffffff1673ffffffffffffffffffffffffffffffffffffffff16638da5cb5b6040518163ffffffff167c0100000000000000000000000000000000000000000000000000000000028152600401602060405180830381600087803b158015610d4657600080fd5b505af1158015610d5a573d6000803e3d6000fd5b505050506040513d6020811015610d7057600080fd5b810190808051906020019092919050505073ffffffffffffffffffffffffffffffffffffffff166108fc6006548363ffffffff16029081150290604051600060405180830381858888f19350505050158015610dd0573d6000803e3d6000fd5b50600260018403815481101515610de357fe5b9060005260206000200160009054906101000a900473ffffffffffffffffffffffffffffffffffffffff1673ffffffffffffffffffffffffffffffffffffffff1663e9df3010826040518263ffffffff167c0100000000000000000000000000000000000000000000000000000000028152600401808263ffffffff1663ffffffff168152602001915050600060405180830381600087803b158015610e8857600080fd5b505af1158015610e9c573d6000803e3d6000fd5b505050507fcb574b8f73b5197bc67007875e790c4e4b5f36ff460014d13c9c54c81a04cc2b846006548363ffffffff16026040518083600019166000191681526020018281526020019250505060405180910390a15b5b50505050565b6000806000806000806000600102945060009350600092505b6002805490508310156113a657600283815481101515610f2e57fe5b9060005260206000200160009054906101000a900473ffffffffffffffffffffffffffffffffffffffff16915087600019168273ffffffffffffffffffffffffffffffffffffffff166317de3a416040518163ffffffff167c0100000000000000000000000000000000000000000000000000000000028152600401602060405180830381600087803b158015610fc457600080fd5b505af1158015610fd8573d6000803e3d6000fd5b505050506040513d6020811015610fee57600080fd5b8101908080519060200190929190505050600019161480156110b5575060008273ffffffffffffffffffffffffffffffffffffffff16631f3e74396040518163ffffffff167c0100000000000000000000000000000000000000000000000000000000028152600401602060405180830381600087803b15801561107157600080fd5b505af1158015611085573d6000803e3d6000fd5b505050506040513d602081101561109b57600080fd5b810190808051906020019092919050505063ffffffff1614155b156113995760048763ffffffff16106111745761116f8273ffffffffffffffffffffffffffffffffffffffff16634a79d50c6040518163ffffffff167c0100000000000000000000000000000000000000000000000000000000028152600401602060405180830381600087803b15801561112f57600080fd5b505af1158015611143573d6000803e3d6000fd5b505050506040513d602081101561115957600080fd5b81019080805190602001909291905050506131f7565b6112dd565b8173ffffffffffffffffffffffffffffffffffffffff16631f3e74396040518163ffffffff167c0100000000000000000000000000000000000000000000000000000000028152600401602060405180830381600087803b1580156111d857600080fd5b505af11580156111ec573d6000803e3d6000fd5b505050506040513d602081101561120257600080fd5b810190808051906020019092919050505063ffffffff16600a8373ffffffffffffffffffffffffffffffffffffffff1663f59dfdfb8a6040518263ffffffff167c0100000000000000000000000000000000000000000000000000000000028152600401808263ffffffff168152602001915050602060405180830381600087803b15801561129057600080fd5b505af11580156112a4573d6000803e3d6000fd5b505050506040513d60208110156112ba57600080fd5b81019080805190602001909291905050500263ffffffff168115156112db57fe5b045b90508363ffffffff168163ffffffff161115611398578173ffffffffffffffffffffffffffffffffffffffff16634a79d50c6040518163ffffffff167c0100000000000000000000000000000000000000000000000000000000028152600401602060405180830381600087803b15801561135757600080fd5b505af115801561136b573d6000803e3d6000fd5b505050506040513d602081101561138157600080fd5b810190808051906020019092919050505094508093505b5b8280600101935050610f12565b849550505050505092915050565b6000806003600084600019166000191681526020019081526020016000205490506000811415156114c1576002600182038154811015156113f157fe5b9060005260206000200160009054906101000a900473ffffffffffffffffffffffffffffffffffffffff1673ffffffffffffffffffffffffffffffffffffffff1663a6c3e6b96040518163ffffffff167c0100000000000000000000000000000000000000000000000000000000028152600401602060405180830381600087803b15801561147f57600080fd5b505af1158015611493573d6000803e3d6000fd5b505050506040513d60208110156114a957600080fd5b810190808051906020019092919050505091506114c2565b5b50919050565b600060075434101515156114db57600080fd5b60075434039050600081111561159e573373ffffffffffffffffffffffffffffffffffffffff166108fc829081150290604051600060405180830381858888f19350505050158015611531573d6000803e3d6000fd5b507fa56865e6f4f943788c350074b8b51eac74c2839a1398f944609880c190d0f6f63382604051808373ffffffffffffffffffffffffffffffffffffffff1673ffffffffffffffffffffffffffffffffffffffff1681526020018281526020019250505060405180910390a15b6005544301600460003373ffffffffffffffffffffffffffffffffffffffff1673ffffffffffffffffffffffffffffffffffffffff168152602001908152602001600020819055507f2b800548c0251e67f66a49253edd3d38e75a1637205d172a31a0570ca733c85733600460003373ffffffffffffffffffffffffffffffffffffffff1673ffffffffffffffffffffffffffffffffffffffff16815260200190815260200160002054604051808373ffffffffffffffffffffffffffffffffffffffff1673ffffffffffffffffffffffffffffffffffffffff1681526020018281526020019250505060405180910390a150565b60008061169f83610986565b34101515156116ad57600080fd5b6116b683610986565b340391506000821115611776573373ffffffffffffffffffffffffffffffffffffffff166108fc839081150290604051600060405180830381858888f19350505050158015611709573d6000803e3d6000fd5b507fa56865e6f4f943788c350074b8b51eac74c2839a1398f944609880c190d0f6f63383604051808373ffffffffffffffffffffffffffffffffffffffff1673ffffffffffffffffffffffffffffffffffffffff1681526020018281526020019250505060405180910390a15b600360008460001916600019168152602001908152602001600020549050600081141515611971576002600182038154811015156117b057fe5b9060005260206000200160009054906101000a900473ffffffffffffffffffffffffffffffffffffffff1673ffffffffffffffffffffffffffffffffffffffff16636d81a01b336040518263ffffffff167c0100000000000000000000000000000000000000000000000000000000028152600401808273ffffffffffffffffffffffffffffffffffffffff1673ffffffffffffffffffffffffffffffffffffffff168152602001915050600060405180830381600087803b15801561187557600080fd5b505af1158015611889573d6000803e3d6000fd5b505050507fb9b4171ed7d8be2fdd3d7cbfc710fa9fe32417702c6b1d7c4362229814d0775f83336002600185038154811015156118c257fe5b9060005260206000200160009054906101000a900473ffffffffffffffffffffffffffffffffffffffff166040518084600019166000191681526020018373ffffffffffffffffffffffffffffffffffffffff1673ffffffffffffffffffffffffffffffffffffffff1681526020018273ffffffffffffffffffffffffffffffffffffffff1673ffffffffffffffffffffffffffffffffffffffff168152602001935050505060405180910390a15b505050565b6000806000806000806000806000809054906101000a900473ffffffffffffffffffffffffffffffffffffffff1673ffffffffffffffffffffffffffffffffffffffff163373ffffffffffffffffffffffffffffffffffffffff161415156119dd57600080fd5b6119e5614b3d565b80985081995050506006548789030295508786600160009054906101000a900473ffffffffffffffffffffffffffffffffffffffff1673ffffffffffffffffffffffffffffffffffffffff163103811515611a3c57fe5b049450600093505b600280549050841015611f3e57600654600285815481101515611a6357fe5b9060005260206000200160009054906101000a900473ffffffffffffffffffffffffffffffffffffffff1673ffffffffffffffffffffffffffffffffffffffff1663e76c3ba86040518163ffffffff167c0100000000000000000000000000000000000000000000000000000000028152600401602060405180830381600087803b158015611af157600080fd5b505af1158015611b05573d6000803e3d6000fd5b505050506040513d6020811015611b1b57600080fd5b8101908080519060200190929190505050600286815481101515611b3b57fe5b9060005260206000200160009054906101000a900473ffffffffffffffffffffffffffffffffffffffff1673ffffffffffffffffffffffffffffffffffffffff166339c614a16040518163ffffffff167c0100000000000000000000000000000000000000000000000000000000028152600401602060405180830381600087803b158015611bc957600080fd5b505af1158015611bdd573d6000803e3d6000fd5b505050506040513d6020811015611bf357600080fd5b81019080805190602001909291905050500363ffffffff1602925084600285815481101515611c1e57fe5b9060005260206000200160009054906101000a900473ffffffffffffffffffffffffffffffffffffffff1673ffffffffffffffffffffffffffffffffffffffff166339c614a16040518163ffffffff167c0100000000000000000000000000000000000000000000000000000000028152600401602060405180830381600087803b158015611cac57600080fd5b505af1158015611cc0573d6000803e3d6000fd5b505050506040513d6020811015611cd657600080fd5b810190808051906020019092919050505063ffffffff160291508183019050600284815481101515611d0457fe5b9060005260206000200160009054906101000a900473ffffffffffffffffffffffffffffffffffffffff1673ffffffffffffffffffffffffffffffffffffffff16638da5cb5b6040518163ffffffff167c0100000000000000000000000000000000000000000000000000000000028152600401602060405180830381600087803b158015611d9257600080fd5b505af1158015611da6573d6000803e3d6000fd5b505050506040513d6020811015611dbc57600080fd5b810190808051906020019092919050505073ffffffffffffffffffffffffffffffffffffffff166108fc829081150290604051600060405180830381858888f19350505050158015611e12573d6000803e3d6000fd5b507fcb574b8f73b5197bc67007875e790c4e4b5f36ff460014d13c9c54c81a04cc2b600285815481101515611e4357fe5b9060005260206000200160009054906101000a900473ffffffffffffffffffffffffffffffffffffffff1673ffffffffffffffffffffffffffffffffffffffff16634a79d50c6040518163ffffffff167c0100000000000000000000000000000000000000000000000000000000028152600401602060405180830381600087803b158015611ed157600080fd5b505af1158015611ee5573d6000803e3d6000fd5b505050506040513d6020811015611efb57600080fd5b8101908080519060200190929190505050826040518083600019166000191681526020018281526020019250505060405180910390a18380600101945050611a44565b7fff5361f0294b69eb80adff39d5edf78c34755cdaf4f60228fd6a7561ecec60dc60405160405180910390a1600160009054906101000a900473ffffffffffffffffffffffffffffffffffffffff1673ffffffffffffffffffffffffffffffffffffffff16ff5b600281815481101515611fb457fe5b906000526020600020016000915054906101000a900473ffffffffffffffffffffffffffffffffffffffff1681565b6000600280549050905090565b6000600754341015151561200357600080fd5b6007543403905060008111156120c6573373ffffffffffffffffffffffffffffffffffffffff166108fc829081150290604051600060405180830381858888f19350505050158015612059573d6000803e3d6000fd5b507fa56865e6f4f943788c350074b8b51eac74c2839a1398f944609880c190d0f6f63382604051808373ffffffffffffffffffffffffffffffffffffffff1673ffffffffffffffffffffffffffffffffffffffff1681526020018281526020019250505060405180910390a15b6005544301600460008473ffffffffffffffffffffffffffffffffffffffff1673ffffffffffffffffffffffffffffffffffffffff168152602001908152602001600020819055507f2b800548c0251e67f66a49253edd3d38e75a1637205d172a31a0570ca733c85782600460008573ffffffffffffffffffffffffffffffffffffffff1673ffffffffffffffffffffffffffffffffffffffff16815260200190815260200160002054604051808373ffffffffffffffffffffffffffffffffffffffff1673ffffffffffffffffffffffffffffffffffffffff1681526020018281526020019250505060405180910390a15050565b606080600060608060006002805490509350836040519080825280602002602001820160405280156121fd5781602001602082028038833980820191505090505b5092508360405190808252806020026020018201604052801561222f5781602001602082028038833980820191505090505b509150600090505b8381101561244c5760028181548110151561224e57fe5b9060005260206000200160009054906101000a900473ffffffffffffffffffffffffffffffffffffffff1673ffffffffffffffffffffffffffffffffffffffff16634a79d50c6040518163ffffffff167c0100000000000000000000000000000000000000000000000000000000028152600401602060405180830381600087803b1580156122dc57600080fd5b505af11580156122f0573d6000803e3d6000fd5b505050506040513d602081101561230657600080fd5b8101908080519060200190929190505050838281518110151561232557fe5b90602001906020020190600019169081600019168152505060028181548110151561234c57fe5b9060005260206000200160009054906101000a900473ffffffffffffffffffffffffffffffffffffffff1673ffffffffffffffffffffffffffffffffffffffff166339c614a16040518163ffffffff167c0100000000000000000000000000000000000000000000000000000000028152600401602060405180830381600087803b1580156123da57600080fd5b505af11580156123ee573d6000803e3d6000fd5b505050506040513d602081101561240457600080fd5b8101908080519060200190929190505050828281518110151561242357fe5b9060200190602002019063ffffffff16908163ffffffff16815250508080600101915050612237565b828295509550505050509091565b6000806003600084600019166000191681526020019081526020016000205490506000811415156125675760026001820381548110151561249757fe5b9060005260206000200160009054906101000a900473ffffffffffffffffffffffffffffffffffffffff1673ffffffffffffffffffffffffffffffffffffffff166317de3a416040518163ffffffff167c0100000000000000000000000000000000000000000000000000000000028152600401602060405180830381600087803b15801561252557600080fd5b505af1158015612539573d6000803e3d6000fd5b505050506040513d602081101561254f57600080fd5b81019080805190602001909291905050509150612568565b5b50919050565b600043600460008473ffffffffffffffffffffffffffffffffffffffff1673ffffffffffffffffffffffffffffffffffffffff16815260200190815260200160002054119050919050565b6000806000806000806000600102945060009350600092505b600280549050831015612a66576002838154811015156125ee57fe5b9060005260206000200160009054906101000a900473ffffffffffffffffffffffffffffffffffffffff16915087600019168273ffffffffffffffffffffffffffffffffffffffff1663a6c3e6b96040518163ffffffff167c0100000000000000000000000000000000000000000000000000000000028152600401602060405180830381600087803b15801561268457600080fd5b505af1158015612698573d6000803e3d6000fd5b505050506040513d60208110156126ae57600080fd5b810190808051906020019092919050505060001916148015612775575060008273ffffffffffffffffffffffffffffffffffffffff16631f3e74396040518163ffffffff167c0100000000000000000000000000000000000000000000000000000000028152600401602060405180830381600087803b15801561273157600080fd5b505af1158015612745573d6000803e3d6000fd5b505050506040513d602081101561275b57600080fd5b810190808051906020019092919050505063ffffffff1614155b15612a595760048763ffffffff16106128345761282f8273ffffffffffffffffffffffffffffffffffffffff16634a79d50c6040518163ffffffff167c0100000000000000000000000000000000000000000000000000000000028152600401602060405180830381600087803b1580156127ef57600080fd5b505af1158015612803573d6000803e3d6000fd5b505050506040513d602081101561281957600080fd5b81019080805190602001909291905050506131f7565b61299d565b8173ffffffffffffffffffffffffffffffffffffffff16631f3e74396040518163ffffffff167c0100000000000000000000000000000000000000000000000000000000028152600401602060405180830381600087803b15801561289857600080fd5b505af11580156128ac573d6000803e3d6000fd5b505050506040513d60208110156128c257600080fd5b810190808051906020019092919050505063ffffffff16600a8373ffffffffffffffffffffffffffffffffffffffff1663f59dfdfb8a6040518263ffffffff167c0100000000000000000000000000000000000000000000000000000000028152600401808263ffffffff168152602001915050602060405180830381600087803b15801561295057600080fd5b505af1158015612964573d6000803e3d6000fd5b505050506040513d602081101561297a57600080fd5b81019080805190602001909291905050500263ffffffff1681151561299b57fe5b045b90508363ffffffff168163ffffffff161115612a58578173ffffffffffffffffffffffffffffffffffffffff16634a79d50c6040518163ffffffff167c0100000000000000000000000000000000000000000000000000000000028152600401602060405180830381600087803b158015612a1757600080fd5b505af1158015612a2b573d6000803e3d6000fd5b505050506040513d6020811015612a4157600080fd5b810190808051906020019092919050505094508093505b5b82806001019350506125d2565b849550505050505092915050565b6000809054906101000a900473ffffffffffffffffffffffffffffffffffffffff1681565b6000808290503373ffffffffffffffffffffffffffffffffffffffff168173ffffffffffffffffffffffffffffffffffffffff16638da5cb5b6040518163ffffffff167c0100000000000000000000000000000000000000000000000000000000028152600401602060405180830381600087803b158015612b1a57600080fd5b505af1158015612b2e573d6000803e3d6000fd5b505050506040513d6020811015612b4457600080fd5b810190808051906020019092919050505073ffffffffffffffffffffffffffffffffffffffff16148015612c635750600160009054906101000a900473ffffffffffffffffffffffffffffffffffffffff1673ffffffffffffffffffffffffffffffffffffffff168173ffffffffffffffffffffffffffffffffffffffff1663074c09eb6040518163ffffffff167c0100000000000000000000000000000000000000000000000000000000028152600401602060405180830381600087803b158015612c1057600080fd5b505af1158015612c24573d6000803e3d6000fd5b505050506040513d6020811015612c3a57600080fd5b810190808051906020019092919050505073ffffffffffffffffffffffffffffffffffffffff16145b1515612c6e57600080fd5b60028190806001815401808255809150509060018203906000526020600020016000909192909190916101000a81548173ffffffffffffffffffffffffffffffffffffffff021916908373ffffffffffffffffffffffffffffffffffffffff16021790555050600280549050600360008373ffffffffffffffffffffffffffffffffffffffff16634a79d50c6040518163ffffffff167c0100000000000000000000000000000000000000000000000000000000028152600401602060405180830381600087803b158015612d4257600080fd5b505af1158015612d56573d6000803e3d6000fd5b505050506040513d6020811015612d6c57600080fd5b810190808051906020019092919050505060001916600019168152602001908152602001600020819055507fdda355a4ff5285e5ca9d8fa1c68571d1d2f9108352e8f58140122faef426b5d68173ffffffffffffffffffffffffffffffffffffffff16634a79d50c6040518163ffffffff167c0100000000000000000000000000000000000000000000000000000000028152600401602060405180830381600087803b158015612e1c57600080fd5b505af1158015612e30573d6000803e3d6000fd5b505050506040513d6020811015612e4657600080fd5b81019080805190602001909291905050508273ffffffffffffffffffffffffffffffffffffffff1663a6c3e6b96040518163ffffffff167c0100000000000000000000000000000000000000000000000000000000028152600401602060405180830381600087803b158015612ebb57600080fd5b505af1158015612ecf573d6000803e3d6000fd5b505050506040513d6020811015612ee557600080fd5b81019080805190602001909291905050508373ffffffffffffffffffffffffffffffffffffffff166317de3a416040518163ffffffff167c0100000000000000000000000000000000000000000000000000000000028152600401602060405180830381600087803b158015612f5a57600080fd5b505af1158015612f6e573d6000803e3d6000fd5b505050506040513d6020811015612f8457600080fd5b810190808051906020019092919050505060405180846000191660001916815260200183600019166000191681526020018260001916600019168152602001935050505060405180910390a1600280549050915050919050565b6000806000600280549050915060008211156131ef576001820390505b6000811015156131ee57836000191660028281548110151561301957fe5b9060005260206000200160009054906101000a900473ffffffffffffffffffffffffffffffffffffffff1673ffffffffffffffffffffffffffffffffffffffff166317de3a416040518163ffffffff167c0100000000000000000000000000000000000000000000000000000000028152600401602060405180830381600087803b1580156130a757600080fd5b505af11580156130bb573d6000803e3d6000fd5b505050506040513d60208110156130d157600080fd5b81019080805190602001909291905050506000191614156131cb576002818154811015156130fb57fe5b9060005260206000200160009054906101000a900473ffffffffffffffffffffffffffffffffffffffff1673ffffffffffffffffffffffffffffffffffffffff16634a79d50c6040518163ffffffff167c0100000000000000000000000000000000000000000000000000000000028152600401602060405180830381600087803b15801561318957600080fd5b505af115801561319d573d6000803e3d6000fd5b505050506040513d60208110156131b357600080fd5b810190808051906020019092919050505092506131f0565b60008114156131e057600060010292506131f0565b808060019003915050612ffb565b5b5b5050919050565b60008060008060036000866000191660001916815260200190815260200160002054925060009150600090505b60048163ffffffff1610156133305760026001840381548110151561324557fe5b9060005260206000200160009054906101000a900473ffffffffffffffffffffffffffffffffffffffff1673ffffffffffffffffffffffffffffffffffffffff1663f59dfdfb826040518263ffffffff167c0100000000000000000000000000000000000000000000000000000000028152600401808263ffffffff168152602001915050602060405180830381600087803b1580156132e457600080fd5b505af11580156132f8573d6000803e3d6000fd5b505050506040513d602081101561330e57600080fd5b8101908080519060200190929190505050820191508080600101915050613224565b600460026001850381548110151561334457fe5b9060005260206000200160009054906101000a900473ffffffffffffffffffffffffffffffffffffffff1673ffffffffffffffffffffffffffffffffffffffff16631f3e74396040518163ffffffff167c0100000000000000000000000000000000000000000000000000000000028152600401602060405180830381600087803b1580156133d257600080fd5b505af11580156133e6573d6000803e3d6000fd5b505050506040513d60208110156133fc57600080fd5b81019080805190602001909291905050500263ffffffff16600a830263ffffffff1681151561342757fe5b049350505050919050565b600080600060028054905091506000821115613643576001820390505b60008110151561364257836000191660028281548110151561346d57fe5b9060005260206000200160009054906101000a900473ffffffffffffffffffffffffffffffffffffffff1673ffffffffffffffffffffffffffffffffffffffff1663a6c3e6b96040518163ffffffff167c0100000000000000000000000000000000000000000000000000000000028152600401602060405180830381600087803b1580156134fb57600080fd5b505af115801561350f573d6000803e3d6000fd5b505050506040513d602081101561352557600080fd5b810190808051906020019092919050505060001916141561361f5760028181548110151561354f57fe5b9060005260206000200160009054906101000a900473ffffffffffffffffffffffffffffffffffffffff1673ffffffffffffffffffffffffffffffffffffffff16634a79d50c6040518163ffffffff167c0100000000000000000000000000000000000000000000000000000000028152600401602060405180830381600087803b1580156135dd57600080fd5b505af11580156135f1573d6000803e3d6000fd5b505050506040513d602081101561360757600080fd5b81019080805190602001909291905050509250613644565b60008114156136345760006001029250613644565b80806001900391505061344f565b5b5b5050919050565b6000806003600084600019166000191681526020019081526020016000205490506000811415156137585760026001820381548110151561368857fe5b9060005260206000200160009054906101000a900473ffffffffffffffffffffffffffffffffffffffff1673ffffffffffffffffffffffffffffffffffffffff166339c614a16040518163ffffffff167c0100000000000000000000000000000000000000000000000000000000028152600401602060405180830381600087803b15801561371657600080fd5b505af115801561372a573d6000803e3d6000fd5b505050506040513d602081101561374057600080fd5b81019080805190602001909291905050509150613759565b5b50919050565b606060006060600060028054905092508460405190808252806020026020018201604052801561379e5781602001602082028038833980820191505090505b5091506000831180156137b2575060008514155b156138fb578285111515156137c657600080fd5b6001830390505b848303811015156138fa576002818154811015156137e757fe5b9060005260206000200160009054906101000a900473ffffffffffffffffffffffffffffffffffffffff1673ffffffffffffffffffffffffffffffffffffffff16634a79d50c6040518163ffffffff167c0100000000000000000000000000000000000000000000000000000000028152600401602060405180830381600087803b15801561387557600080fd5b505af1158015613889573d6000803e3d6000fd5b505050506040513d602081101561389f57600080fd5b8101908080519060200190929190505050828260018603038151811015156138c357fe5b90602001906020020190600019169081600019168152505060008114156138ec578193506138ff565b8080600190039150506137cd565b5b8193505b505050919050565b6000806000806000600102925060009150600090505b600280549050811015613cc157846000191660028281548110151561393e57fe5b9060005260206000200160009054906101000a900473ffffffffffffffffffffffffffffffffffffffff1673ffffffffffffffffffffffffffffffffffffffff1663a6c3e6b96040518163ffffffff167c0100000000000000000000000000000000000000000000000000000000028152600401602060405180830381600087803b1580156139cc57600080fd5b505af11580156139e0573d6000803e3d6000fd5b505050506040513d60208110156139f657600080fd5b810190808051906020019092919050505060001916148015613afa57508163ffffffff16600282815481101515613a2957fe5b9060005260206000200160009054906101000a900473ffffffffffffffffffffffffffffffffffffffff1673ffffffffffffffffffffffffffffffffffffffff166339c614a16040518163ffffffff167c0100000000000000000000000000000000000000000000000000000000028152600401602060405180830381600087803b158015613ab757600080fd5b505af1158015613acb573d6000803e3d6000fd5b505050506040513d6020811015613ae157600080fd5b810190808051906020019092919050505063ffffffff16115b15613cb457600281815481101515613b0e57fe5b9060005260206000200160009054906101000a900473ffffffffffffffffffffffffffffffffffffffff1673ffffffffffffffffffffffffffffffffffffffff16634a79d50c6040518163ffffffff167c0100000000000000000000000000000000000000000000000000000000028152600401602060405180830381600087803b158015613b9c57600080fd5b505af1158015613bb0573d6000803e3d6000fd5b505050506040513d6020811015613bc657600080fd5b81019080805190602001909291905050509250600281815481101515613be857fe5b9060005260206000200160009054906101000a900473ffffffffffffffffffffffffffffffffffffffff1673ffffffffffffffffffffffffffffffffffffffff166339c614a16040518163ffffffff167c0100000000000000000000000000000000000000000000000000000000028152600401602060405180830381600087803b158015613c7657600080fd5b505af1158015613c8a573d6000803e3d6000fd5b505050506040513d6020811015613ca057600080fd5b810190808051906020019092919050505091505b808060010191505061391d565b829350505050919050565b6000613cd73361256e565b1515613ce257600080fd5b600360008360001916600019168152602001908152602001600020549050600081141515613f2457600260018203815481101515613d1c57fe5b9060005260206000200160009054906101000a900473ffffffffffffffffffffffffffffffffffffffff1673ffffffffffffffffffffffffffffffffffffffff1663e6810afb33600460003373ffffffffffffffffffffffffffffffffffffffff1673ffffffffffffffffffffffffffffffffffffffff168152602001908152602001600020546040518363ffffffff167c0100000000000000000000000000000000000000000000000000000000028152600401808373ffffffffffffffffffffffffffffffffffffffff1673ffffffffffffffffffffffffffffffffffffffff16815260200182815260200192505050600060405180830381600087803b158015613e2857600080fd5b505af1158015613e3c573d6000803e3d6000fd5b505050507fb9b4171ed7d8be2fdd3d7cbfc710fa9fe32417702c6b1d7c4362229814d0775f8233600260018503815481101515613e7557fe5b9060005260206000200160009054906101000a900473ffffffffffffffffffffffffffffffffffffffff166040518084600019166000191681526020018373ffffffffffffffffffffffffffffffffffffffff1673ffffffffffffffffffffffffffffffffffffffff1681526020018273ffffffffffffffffffffffffffffffffffffffff1673ffffffffffffffffffffffffffffffffffffffff168152602001935050505060405180910390a15b5050565b6000806000806000806000600102945060009350600092505b60028054905083101561432457600283815481101515613f5d57fe5b9060005260206000200160009054906101000a900473ffffffffffffffffffffffffffffffffffffffff16915060008273ffffffffffffffffffffffffffffffffffffffff16631f3e74396040518163ffffffff167c0100000000000000000000000000000000000000000000000000000000028152600401602060405180830381600087803b158015613ff057600080fd5b505af1158015614004573d6000803e3d6000fd5b505050506040513d602081101561401a57600080fd5b810190808051906020019092919050505063ffffffff161415156143175760048763ffffffff16106140f2576140ed8273ffffffffffffffffffffffffffffffffffffffff16634a79d50c6040518163ffffffff167c0100000000000000000000000000000000000000000000000000000000028152600401602060405180830381600087803b1580156140ad57600080fd5b505af11580156140c1573d6000803e3d6000fd5b505050506040513d60208110156140d757600080fd5b81019080805190602001909291905050506131f7565b61425b565b8173ffffffffffffffffffffffffffffffffffffffff16631f3e74396040518163ffffffff167c0100000000000000000000000000000000000000000000000000000000028152600401602060405180830381600087803b15801561415657600080fd5b505af115801561416a573d6000803e3d6000fd5b505050506040513d602081101561418057600080fd5b810190808051906020019092919050505063ffffffff16600a8373ffffffffffffffffffffffffffffffffffffffff1663f59dfdfb8a6040518263ffffffff167c0100000000000000000000000000000000000000000000000000000000028152600401808263ffffffff168152602001915050602060405180830381600087803b15801561420e57600080fd5b505af1158015614222573d6000803e3d6000fd5b505050506040513d602081101561423857600080fd5b81019080805190602001909291905050500263ffffffff1681151561425957fe5b045b90508363ffffffff168163ffffffff161115614316578173ffffffffffffffffffffffffffffffffffffffff16634a79d50c6040518163ffffffff167c0100000000000000000000000000000000000000000000000000000000028152600401602060405180830381600087803b1580156142d557600080fd5b505af11580156142e9573d6000803e3d6000fd5b505050506040513d60208110156142ff57600080fd5b810190808051906020019092919050505094508093505b5b8280600101935050613f41565b8495505050505050919050565b60008061433d84610986565b341015151561434b57600080fd5b61435484610986565b340391506000821115614414573373ffffffffffffffffffffffffffffffffffffffff166108fc839081150290604051600060405180830381858888f193505050501580156143a7573d6000803e3d6000fd5b507fa56865e6f4f943788c350074b8b51eac74c2839a1398f944609880c190d0f6f63383604051808373ffffffffffffffffffffffffffffffffffffffff1673ffffffffffffffffffffffffffffffffffffffff1681526020018281526020019250505060405180910390a15b60036000856000191660001916815260200190815260200160002054905060008114151561460f5760026001820381548110151561444e57fe5b9060005260206000200160009054906101000a900473ffffffffffffffffffffffffffffffffffffffff1673ffffffffffffffffffffffffffffffffffffffff16636d81a01b846040518263ffffffff167c0100000000000000000000000000000000000000000000000000000000028152600401808273ffffffffffffffffffffffffffffffffffffffff1673ffffffffffffffffffffffffffffffffffffffff168152602001915050600060405180830381600087803b15801561451357600080fd5b505af1158015614527573d6000803e3d6000fd5b505050507fb9b4171ed7d8be2fdd3d7cbfc710fa9fe32417702c6b1d7c4362229814d0775f848460026001850381548110151561456057fe5b9060005260206000200160009054906101000a900473ffffffffffffffffffffffffffffffffffffffff166040518084600019166000191681526020018373ffffffffffffffffffffffffffffffffffffffff1673ffffffffffffffffffffffffffffffffffffffff1681526020018273ffffffffffffffffffffffffffffffffffffffff1673ffffffffffffffffffffffffffffffffffffffff168152602001935050505060405180910390a15b50505050565b6000806000806000600102925060009150600090505b6002805490508110156149cf57846000191660028281548110151561464c57fe5b9060005260206000200160009054906101000a900473ffffffffffffffffffffffffffffffffffffffff1673ffffffffffffffffffffffffffffffffffffffff166317de3a416040518163ffffffff167c0100000000000000000000000000000000000000000000000000000000028152600401602060405180830381600087803b1580156146da57600080fd5b505af11580156146ee573d6000803e3d6000fd5b505050506040513d602081101561470457600080fd5b81019080805190602001909291905050506000191614801561480857508163ffffffff1660028281548110151561473757fe5b9060005260206000200160009054906101000a900473ffffffffffffffffffffffffffffffffffffffff1673ffffffffffffffffffffffffffffffffffffffff166339c614a16040518163ffffffff167c0100000000000000000000000000000000000000000000000000000000028152600401602060405180830381600087803b1580156147c557600080fd5b505af11580156147d9573d6000803e3d6000fd5b505050506040513d60208110156147ef57600080fd5b810190808051906020019092919050505063ffffffff16115b156149c25760028181548110151561481c57fe5b9060005260206000200160009054906101000a900473ffffffffffffffffffffffffffffffffffffffff1673ffffffffffffffffffffffffffffffffffffffff16634a79d50c6040518163ffffffff167c0100000000000000000000000000000000000000000000000000000000028152600401602060405180830381600087803b1580156148aa57600080fd5b505af11580156148be573d6000803e3d6000fd5b505050506040513d60208110156148d457600080fd5b810190808051906020019092919050505092506002818154811015156148f657fe5b9060005260206000200160009054906101000a900473ffffffffffffffffffffffffffffffffffffffff1673ffffffffffffffffffffffffffffffffffffffff166339c614a16040518163ffffffff167c0100000000000000000000000000000000000000000000000000000000028152600401602060405180830381600087803b15801561498457600080fd5b505af1158015614998573d6000803e3d6000fd5b505050506040513d60208110156149ae57600080fd5b810190808051906020019092919050505091505b808060010191505061462b565b829350505050919050565b6060600060606000600280549050925082604051908082528060200260200182016040528015614a195781602001602082028038833980820191505090505b509150600090505b82811015614b3457600281815481101515614a3857fe5b9060005260206000200160009054906101000a900473ffffffffffffffffffffffffffffffffffffffff1673ffffffffffffffffffffffffffffffffffffffff16634a79d50c6040518163ffffffff167c0100000000000000000000000000000000000000000000000000000000028152600401602060405180830381600087803b158015614ac657600080fd5b505af1158015614ada573d6000803e3d6000fd5b505050506040513d6020811015614af057600080fd5b81019080805190602001909291905050508282815181101515614b0f57fe5b9060200190602002019060001916908160001916815250508080600101915050614a21565b81935050505090565b60008060008060008060028054905093506000925060009150600090505b83811015614d3457600281815481101515614b7257fe5b9060005260206000200160009054906101000a900473ffffffffffffffffffffffffffffffffffffffff1673ffffffffffffffffffffffffffffffffffffffff166339c614a16040518163ffffffff167c0100000000000000000000000000000000000000000000000000000000028152600401602060405180830381600087803b158015614c0057600080fd5b505af1158015614c14573d6000803e3d6000fd5b505050506040513d6020811015614c2a57600080fd5b810190808051906020019092919050505063ffffffff1683019250600281815481101515614c5457fe5b9060005260206000200160009054906101000a900473ffffffffffffffffffffffffffffffffffffffff1673ffffffffffffffffffffffffffffffffffffffff1663e76c3ba86040518163ffffffff167c0100000000000000000000000000000000000000000000000000000000028152600401602060405180830381600087803b158015614ce257600080fd5b505af1158015614cf6573d6000803e3d6000fd5b505050506040513d6020811015614d0c57600080fd5b810190808051906020019092919050505063ffffffff16820191508080600101915050614b5b565b8282955095505050505090915600a165627a7a723058209c86ee1f75fffd8af5491d810da967ef8989ec9f5981d408aeeaa59d456ea32d0029",
  "source": "pragma solidity ^0.4.19;\n\nimport \"./BaseContent.sol\";\n\ncontract Catalog{\n    \n    /* data about the contract itself */\n    address public owner; // address of who uploads\n    address private catalog_address; // address of the contract\n    \n    /* data about the catalog */\n    BaseContent[] public contents_list; \n    mapping (bytes32 => uint) private position_content;\n    mapping (address => uint) private premium_customers; // address of customer to expiration date as block height\n    \n    /* utilities variables */\n    uint private time_premium = 40000; // premium lasts approximately one week\n    uint private cost_content = 0.002 ether; // each content costs  about 80 cents\n    uint private cost_premium = 0.03 ether; // premium costs about 12 euro\n    uint16 private v = 100; // number of views required before payment\n    \n    /* events triggered */\n    event catalog_created (address _catalog_address);\n    event new_publication (bytes32 _title, bytes32 _author, bytes32 _genre);\n    event content_acquired (bytes32 _title, address _customer, BaseContent _content);\n    event premium_acquired (address _customer, uint _expiration);\n    event change_given (address _customer, uint _change);\n    event author_payed (bytes32 _t, uint _tot_money);\n    event catalog_destroyed ();\n\n    /* modifiers that enforce that some functions are called just by specif agents */\n    modifier byOwner() {\n        require(msg.sender == owner);\n        _;\n    }\n\n    /* constructor function of the catalog */\n    constructor () public {\n        owner = msg.sender;\n        catalog_address = address(this);\n        emit catalog_created(catalog_address);\n    }\n    \n    \n    \n    /* Functions which do not change the state of the contract */\n    function GetLengthCatalog () public view returns (uint) {\n        return contents_list.length;\n    }\n\n    /* returns the author of a content */\n    function GetAuthor(bytes32 _t) public view returns (bytes32) {\n        uint i = position_content[_t];\n        if (i != 0) {\n            return contents_list[i-1].author();\n        }\n    }\n    \n    /* returns the author of a content */\n    function GetGenre(bytes32 _t) public view returns (bytes32) {\n        uint i = position_content[_t];\n        if (i != 0) {\n            return contents_list[i-1].genre();\n        }\n    }\n    \n    /* returns the price of a content */\n    function GetPrice (bytes32 _t) public view returns (uint){\n        uint i = position_content[_t];\n        if (i != 0) {\n            return contents_list[i-1].price();\n        }\n    }\n\n    /* returns the number of views of a content */\n    function GetViews (bytes32 _t) public view returns (uint32){\n        uint i = position_content[_t];\n        if (i != 0) {\n            return contents_list[i-1].view_count();\n        }\n    }\n\n    /* returns the average rating for a content */ \n    function GetRate (bytes32 _t) public view returns (uint32) {\n        uint i = position_content[_t];\n        uint32 s = 0;\n        for(uint32 j = 0; j < 4; j++){\n            s += contents_list[i-1].feed(j);\n        }\n        return ((s * 10) / (contents_list[i-1].nVotes() * 4));\n    }\n    \n    \n    /* returns the number of views for each content */\n    function GetStatistics () public view returns (bytes32[] memory, uint32[] memory){\n        uint l_length = contents_list.length;\n        bytes32[] memory titles_list = new bytes32[](l_length);\n        uint32[] memory views_list = new uint32[](l_length);\n        for (uint i = 0; i < l_length; i++) {\n            titles_list[i] = contents_list[i].title();\n            views_list[i] = contents_list[i].view_count();\n        }\n        return (titles_list, views_list);\n    }\n    \n    /* returns the list of contents without the number of views */\n    function GetContentList() public view returns (bytes32[] memory) {\n        uint l_length = contents_list.length;\n        bytes32[] memory titles_list = new bytes32[](l_length);\n        for (uint i = 0; i < l_length; i++) {\n            titles_list[i] = contents_list[i].title();\n        }\n        return titles_list;\n    }\n    \n    /* returns the list of x newest contents */\n    function GetNewContentsList (uint x) public view returns (bytes32[] memory) {\n        uint l_length = contents_list.length;\n        bytes32[] memory titles_list = new bytes32[](x);\n        if (l_length > 0 && x != 0) {\n            require(x <= l_length);\n            for (uint i = l_length - 1; i>= l_length-x; i--) {\n                titles_list[l_length - 1 - i] = contents_list[i].title();\n                if (i == 0) {\n                    return titles_list;\n                }\n            }\n        }\n        return titles_list;\n    }\n    \n    /* returns the most recent content with genre _g */\n    function GetLatestByGenre(bytes32 _g) public view returns (bytes32) {\n        uint l_length = contents_list.length;\n        if (l_length > 0) {\n            for (uint i = l_length - 1; i >= 0; i--) {\n                if (contents_list[i].genre() == _g) {\n                    return contents_list[i].title();\n                }\n                if (i == 0) {\n                    return 0x0;\n                }\n            }\n        }\n    }\n    \n    /* returns the content with genre _g with max views */\n    function GetMostPopularByGenre (bytes32 _g) public view returns (bytes32) {\n        bytes32 most_popular = 0;\n        uint32 most_views = 0;\n        for (uint i = 0; i < contents_list.length; i++) {\n            if (contents_list[i].genre() == _g && contents_list[i].view_count() > most_views) {\n                most_popular = contents_list[i].title();\n                most_views = contents_list[i].view_count();\n            }\n        }\n        return most_popular;\n    }\n    \n    /* returns the most recent content of the author _a */\n    function GetLatestByAuthor (bytes32 _a) public view returns (bytes32) {\n        uint l_length = contents_list.length;\n        if (l_length > 0) {\n            for (uint i = l_length - 1; i >= 0; i--) {\n                if (contents_list[i].author() == _a) {\n                    return contents_list[i].title();\n                }\n                if (i == 0) {\n                    return 0x0;\n                }\n            }\n        }\n    }\n    \n    /* returns the content with most views of the author _a */\n    function GetMostPopularByAuthor (bytes32 _a) public view returns (bytes32){\n        bytes32 most_popular = 0;\n        uint32 most_views = 0;\n        for (uint i = 0; i < contents_list.length; i++) {\n            if (contents_list[i].author() == _a && contents_list[i].view_count() > most_views) {\n                most_popular = contents_list[i].title();\n                most_views = contents_list[i].view_count();\n            }\n        }\n        return most_popular;\n    }\n    \n    /* returns the content with highest rating for feedback category _y \n    (or highest average of all ratings if y is not specified) */\n    function GetMostRated (uint32 _y) public view returns (bytes32){\n        bytes32 most_rated = 0;\n        uint32 highest_rating = 0;\n        for (uint i = 0; i < contents_list.length; i++) {\n            BaseContent bc = contents_list[i];\n            if (bc.nVotes() != 0 ) {\n                uint32 r = (_y < 4)? ((bc.feed(_y) *10) / bc.nVotes()) : GetRate(bc.title());\n                if (r > highest_rating) {\n                    most_rated = bc.title();\n                    highest_rating = r;\n                }\n            }\n        }\n        return most_rated;\n    }\n    \n     /* returns the content with highest rating for feedback category _y \n    (or highest average of all ratings if y is not specified) with genre _g */\n    function GetMostRatedByGenre (bytes32 _g, uint32 _y) public view returns (bytes32){\n        bytes32 most_rated = 0;\n        uint32 highest_rating = 0;\n        for (uint i = 0; i < contents_list.length; i++) {\n            BaseContent bc = contents_list[i];\n            if (bc.genre() == _g && bc.nVotes() != 0 ) {\n                uint32 r = (_y < 4)? ((bc.feed(_y) *10) / bc.nVotes()) : GetRate(bc.title());\n                if (r > highest_rating) {\n                    most_rated = bc.title();\n                    highest_rating = r;\n                }\n            }\n        }\n        return most_rated;\n    }\n    \n    /* returns the content with highest rating for feedback category _y \n    (or highest average of all ratings if y is not specified) with author _a */\n    function GetMostRatedByAuthor (bytes32 _a, uint32 _y) public view returns (bytes32){\n        bytes32 most_rated = 0;\n        uint32 highest_rating = 0;\n        for (uint i = 0; i < contents_list.length; i++) {\n            BaseContent bc = contents_list[i];\n            if (bc.author() == _a && bc.nVotes() != 0 ) {\n                uint32 r = (_y < 4)? ((bc.feed(_y) *10) / bc.nVotes()) : GetRate(bc.title());\n                if (r > highest_rating) {\n                    most_rated = bc.title();\n                    highest_rating = r;\n                }\n            }\n        }\n        return most_rated;\n    }\n    \n    \n    /* returns true if _c is a valid premium account */\n    function isPremium (address _c) public view returns(bool) {\n        return premium_customers[_c] > block.number;\n    }\n    \n    \n    \n    \n    \n    /* Functions which modify the state of the contract */\n    \n    /* submits a new content _c to the catalog */\n    function AddContent (BaseContent _c) external returns (uint){\n        BaseContent cm = _c;\n        require (cm.owner() == msg.sender && cm.catalog() == catalog_address);\n        contents_list.push(cm);\n        position_content[cm.title()] = contents_list.length;\n        emit new_publication (cm.title(), cm.author(), cm.genre());\n        return contents_list.length;\n    }\n    \n    /* pays to access content _t */\n    function GetContent (bytes32 _t) external payable {\n        require(msg.value >= GetPrice(_t));\n        uint change = msg.value - GetPrice(_t);\n        if (change > 0) {\n            msg.sender.transfer(change);\n            emit change_given (msg.sender, change);\n        }\n        uint i = position_content[_t];\n        if (i != 0) {\n            contents_list[i-1].Authorize(msg.sender);\n            emit content_acquired (_t, msg.sender, contents_list[i-1]);\n        }\n    }\n    \n    /* premium accounts can requests access to content _t without paying */\n    function GetContentPremium (bytes32 _t) external {\n        require(isPremium(msg.sender));\n        uint i = position_content[_t];\n        if (i != 0) {\n            contents_list[i-1].AuthorizePremium(msg.sender, premium_customers[msg.sender]);\n            emit content_acquired (_t, msg.sender, contents_list[i-1]);\n        }\n    }\n    \n    /* pays for granting access to content _t to the user _u */\n    function GiftContent  (bytes32 _t, address _u) external payable {\n        require(msg.value >= GetPrice(_t));\n        uint change = msg.value - GetPrice(_t);\n        if (change > 0) {\n            msg.sender.transfer(change);\n            emit change_given (msg.sender, change);\n        }\n        uint i = position_content[_t];\n        if (i != 0) {\n            contents_list[i-1].Authorize(_u);\n            emit content_acquired (_t, _u, contents_list[i-1]);\n        }\n    }\n    \n    /* pays for granting a premium account to the user _u */\n    function GiftPremium  (address _u) external payable {\n        require(msg.value >= cost_premium);\n        uint change = msg.value - cost_premium;\n        if (change > 0) {\n            msg.sender.transfer(change);\n            emit change_given (msg.sender, change);\n        }\n        premium_customers[_u] = block.number + time_premium;\n        emit premium_acquired (_u, premium_customers[_u]);\n    }\n    \n    /* buys a new premium subscription */\n    function BuyPremium () external payable {\n        require(msg.value >= cost_premium);\n        uint change = msg.value - cost_premium;\n        if (change > 0) {\n            msg.sender.transfer(change);\n            emit change_given (msg.sender, change);\n        }\n        premium_customers[msg.sender] = block.number + time_premium;\n        emit premium_acquired (msg.sender, premium_customers[msg.sender]);\n    }\n    \n    /* pay an author a multiple of v views*/\n    function PayAuthor (bytes32 _t) external {\n        uint i = position_content[_t];\n        if (i != 0) {\n            uint32 tot_views = contents_list[i-1].view_count();\n            uint32 to_pay = tot_views - contents_list[i-1].views_already_payed();\n            if (to_pay >= v) {\n                contents_list[i-1].owner().transfer(to_pay * cost_content);\n                contents_list[i-1].Payed(to_pay);\n                emit author_payed (_t, to_pay * cost_content);\n            }\n        }\n    }\n    \n    /* returns the total number of views and the total number of views that has to payed */\n    function GetTotalViews () private view returns (uint, uint) {\n        uint l_length = contents_list.length; \n        uint tot_views = 0;\n        uint tot_already_payed = 0;\n        for (uint i = 0; i < l_length; i++) {\n            tot_views = tot_views + contents_list[i].view_count();\n            tot_already_payed = tot_already_payed + contents_list[i].views_already_payed();\n        }\n        return (tot_views, tot_already_payed);\n    }\n    \n    /* the catalog can be destructed */\n    function KillCatalog () external byOwner {\n        uint tot_views;\n        uint tot_already_payed;\n        (tot_views, tot_already_payed) = GetTotalViews();\n        uint money_remaining_views = (tot_views - tot_already_payed) * cost_content; \n        uint money_per_view = (catalog_address.balance - money_remaining_views) / tot_views;\n        for (uint i = 0; i < contents_list.length; i++) {\n            uint remaining_money = (contents_list[i].view_count() - contents_list[i].views_already_payed()) * cost_content;\n            uint proportional_money = contents_list[i].view_count() * money_per_view;\n            uint tot_money = remaining_money + proportional_money;\n            contents_list[i].owner().transfer(tot_money);\n            emit author_payed (contents_list[i].title(), tot_money);\n        }\n        emit catalog_destroyed ();\n        selfdestruct(catalog_address);\n    }\n}",
  "sourcePath": "/home/fsbolgi/Documents/cobra_dapp/contracts/Catalog.sol",
  "compiler": {
    "name": "solc",
    "version": "0.4.24+commit.e67f0147.Emscripten.clang"
  },
  "schemaVersion": "2.0.1",
  "updatedAt": "2018-12-14T15:28:33.328Z"
}