{
  "contractName": "Catalog",
  "abi": [
    {
      "constant": true,
      "inputs": [
        {
          "name": "",
          "type": "uint256"
        }
      ],
      "name": "contents_list",
      "outputs": [
        {
          "name": "",
          "type": "address"
        }
      ],
      "payable": false,
      "stateMutability": "view",
      "type": "function"
    },
    {
      "constant": true,
      "inputs": [],
      "name": "cost_premium",
      "outputs": [
        {
          "name": "",
          "type": "uint256"
        }
      ],
      "payable": false,
      "stateMutability": "view",
      "type": "function"
    },
    {
      "constant": true,
      "inputs": [],
      "name": "min_v",
      "outputs": [
        {
          "name": "",
          "type": "uint32"
        }
      ],
      "payable": false,
      "stateMutability": "view",
      "type": "function"
    },
    {
      "constant": true,
      "inputs": [
        {
          "name": "",
          "type": "bytes32"
        }
      ],
      "name": "position_content",
      "outputs": [
        {
          "name": "",
          "type": "uint256"
        }
      ],
      "payable": false,
      "stateMutability": "view",
      "type": "function"
    },
    {
      "constant": true,
      "inputs": [],
      "name": "owner",
      "outputs": [
        {
          "name": "",
          "type": "address"
        }
      ],
      "payable": false,
      "stateMutability": "view",
      "type": "function"
    },
    {
      "constant": true,
      "inputs": [
        {
          "name": "",
          "type": "address"
        }
      ],
      "name": "premium_customers",
      "outputs": [
        {
          "name": "",
          "type": "uint256"
        }
      ],
      "payable": false,
      "stateMutability": "view",
      "type": "function"
    },
    {
      "constant": true,
      "inputs": [
        {
          "name": "",
          "type": "address"
        }
      ],
      "name": "notifications_to_see",
      "outputs": [
        {
          "name": "",
          "type": "uint256"
        }
      ],
      "payable": false,
      "stateMutability": "view",
      "type": "function"
    },
    {
      "constant": true,
      "inputs": [
        {
          "name": "",
          "type": "address"
        },
        {
          "name": "",
          "type": "uint256"
        }
      ],
      "name": "notifications_preferences",
      "outputs": [
        {
          "name": "",
          "type": "bytes32"
        }
      ],
      "payable": false,
      "stateMutability": "view",
      "type": "function"
    },
    {
      "inputs": [],
      "payable": false,
      "stateMutability": "nonpayable",
      "type": "constructor"
    },
    {
      "anonymous": false,
      "inputs": [
        {
          "indexed": false,
          "name": "_title",
          "type": "bytes32"
        },
        {
          "indexed": false,
          "name": "_author",
          "type": "bytes32"
        },
        {
          "indexed": false,
          "name": "_genre",
          "type": "bytes32"
        },
        {
          "indexed": false,
          "name": "_owner",
          "type": "address"
        }
      ],
      "name": "new_publication",
      "type": "event"
    },
    {
      "anonymous": false,
      "inputs": [
        {
          "indexed": false,
          "name": "_title",
          "type": "bytes32"
        },
        {
          "indexed": false,
          "name": "_sender",
          "type": "address"
        },
        {
          "indexed": false,
          "name": "_receiver",
          "type": "address"
        },
        {
          "indexed": false,
          "name": "_gifted",
          "type": "uint32"
        }
      ],
      "name": "content_acquired",
      "type": "event"
    },
    {
      "anonymous": false,
      "inputs": [
        {
          "indexed": false,
          "name": "_sender",
          "type": "address"
        },
        {
          "indexed": false,
          "name": "_receiver",
          "type": "address"
        },
        {
          "indexed": false,
          "name": "_gifted",
          "type": "uint32"
        }
      ],
      "name": "premium_acquired",
      "type": "event"
    },
    {
      "anonymous": false,
      "inputs": [
        {
          "indexed": false,
          "name": "_t",
          "type": "bytes32"
        },
        {
          "indexed": false,
          "name": "_owner",
          "type": "address"
        },
        {
          "indexed": false,
          "name": "_tot_money",
          "type": "uint256"
        }
      ],
      "name": "author_payed",
      "type": "event"
    },
    {
      "anonymous": false,
      "inputs": [
        {
          "indexed": false,
          "name": "_account",
          "type": "address"
        },
        {
          "indexed": false,
          "name": "_title",
          "type": "bytes32"
        },
        {
          "indexed": false,
          "name": "_v",
          "type": "uint256"
        }
      ],
      "name": "min_v_reached",
      "type": "event"
    },
    {
      "anonymous": false,
      "inputs": [
        {
          "indexed": false,
          "name": "_customer",
          "type": "address"
        },
        {
          "indexed": false,
          "name": "_title",
          "type": "bytes32"
        }
      ],
      "name": "content_consumed",
      "type": "event"
    },
    {
      "anonymous": false,
      "inputs": [
        {
          "indexed": false,
          "name": "_customer",
          "type": "address"
        },
        {
          "indexed": false,
          "name": "_title",
          "type": "bytes32"
        }
      ],
      "name": "rate_left",
      "type": "event"
    },
    {
      "constant": true,
      "inputs": [],
      "name": "GetLengthCatalog",
      "outputs": [
        {
          "name": "",
          "type": "uint256"
        }
      ],
      "payable": false,
      "stateMutability": "view",
      "type": "function"
    },
    {
      "constant": true,
      "inputs": [
        {
          "name": "_t",
          "type": "bytes32"
        }
      ],
      "name": "GetAuthor",
      "outputs": [
        {
          "name": "",
          "type": "bytes32"
        }
      ],
      "payable": false,
      "stateMutability": "view",
      "type": "function"
    },
    {
      "constant": true,
      "inputs": [
        {
          "name": "_t",
          "type": "bytes32"
        }
      ],
      "name": "GetGenre",
      "outputs": [
        {
          "name": "",
          "type": "bytes32"
        }
      ],
      "payable": false,
      "stateMutability": "view",
      "type": "function"
    },
    {
      "constant": true,
      "inputs": [
        {
          "name": "_t",
          "type": "bytes32"
        }
      ],
      "name": "GetPrice",
      "outputs": [
        {
          "name": "",
          "type": "uint256"
        }
      ],
      "payable": false,
      "stateMutability": "view",
      "type": "function"
    },
    {
      "constant": true,
      "inputs": [
        {
          "name": "_t",
          "type": "bytes32"
        }
      ],
      "name": "GetViews",
      "outputs": [
        {
          "name": "",
          "type": "uint32"
        }
      ],
      "payable": false,
      "stateMutability": "view",
      "type": "function"
    },
    {
      "constant": true,
      "inputs": [
        {
          "name": "_t",
          "type": "bytes32"
        }
      ],
      "name": "GetOwner",
      "outputs": [
        {
          "name": "",
          "type": "address"
        }
      ],
      "payable": false,
      "stateMutability": "view",
      "type": "function"
    },
    {
      "constant": true,
      "inputs": [
        {
          "name": "_t",
          "type": "bytes32"
        }
      ],
      "name": "GetRate",
      "outputs": [
        {
          "name": "",
          "type": "uint32"
        }
      ],
      "payable": false,
      "stateMutability": "view",
      "type": "function"
    },
    {
      "constant": true,
      "inputs": [
        {
          "name": "_u",
          "type": "address"
        }
      ],
      "name": "GetNotifPreferences",
      "outputs": [
        {
          "name": "",
          "type": "bytes32[]"
        }
      ],
      "payable": false,
      "stateMutability": "view",
      "type": "function"
    },
    {
      "constant": true,
      "inputs": [],
      "name": "GetStatistics",
      "outputs": [
        {
          "name": "",
          "type": "bytes32[]"
        },
        {
          "name": "",
          "type": "uint32[]"
        }
      ],
      "payable": false,
      "stateMutability": "view",
      "type": "function"
    },
    {
      "constant": true,
      "inputs": [],
      "name": "GetContentList",
      "outputs": [
        {
          "name": "",
          "type": "bytes32[]"
        }
      ],
      "payable": false,
      "stateMutability": "view",
      "type": "function"
    },
    {
      "constant": true,
      "inputs": [
        {
          "name": "x",
          "type": "uint256"
        }
      ],
      "name": "GetNewContentsList",
      "outputs": [
        {
          "name": "",
          "type": "bytes32[]"
        }
      ],
      "payable": false,
      "stateMutability": "view",
      "type": "function"
    },
    {
      "constant": true,
      "inputs": [
        {
          "name": "_g",
          "type": "bytes32"
        }
      ],
      "name": "GetLatestByGenre",
      "outputs": [
        {
          "name": "",
          "type": "bytes32"
        }
      ],
      "payable": false,
      "stateMutability": "view",
      "type": "function"
    },
    {
      "constant": true,
      "inputs": [
        {
          "name": "_g",
          "type": "bytes32"
        }
      ],
      "name": "GetMostPopularByGenre",
      "outputs": [
        {
          "name": "",
          "type": "bytes32"
        }
      ],
      "payable": false,
      "stateMutability": "view",
      "type": "function"
    },
    {
      "constant": true,
      "inputs": [
        {
          "name": "_a",
          "type": "bytes32"
        }
      ],
      "name": "GetLatestByAuthor",
      "outputs": [
        {
          "name": "",
          "type": "bytes32"
        }
      ],
      "payable": false,
      "stateMutability": "view",
      "type": "function"
    },
    {
      "constant": true,
      "inputs": [
        {
          "name": "_a",
          "type": "bytes32"
        }
      ],
      "name": "GetMostPopularByAuthor",
      "outputs": [
        {
          "name": "",
          "type": "bytes32"
        }
      ],
      "payable": false,
      "stateMutability": "view",
      "type": "function"
    },
    {
      "constant": true,
      "inputs": [],
      "name": "GetMostPopular",
      "outputs": [
        {
          "name": "",
          "type": "bytes32"
        }
      ],
      "payable": false,
      "stateMutability": "view",
      "type": "function"
    },
    {
      "constant": true,
      "inputs": [
        {
          "name": "_y",
          "type": "uint32"
        }
      ],
      "name": "GetMostRated",
      "outputs": [
        {
          "name": "",
          "type": "bytes32"
        }
      ],
      "payable": false,
      "stateMutability": "view",
      "type": "function"
    },
    {
      "constant": true,
      "inputs": [
        {
          "name": "_g",
          "type": "bytes32"
        },
        {
          "name": "_y",
          "type": "uint32"
        }
      ],
      "name": "GetMostRatedByGenre",
      "outputs": [
        {
          "name": "",
          "type": "bytes32"
        }
      ],
      "payable": false,
      "stateMutability": "view",
      "type": "function"
    },
    {
      "constant": true,
      "inputs": [
        {
          "name": "_a",
          "type": "bytes32"
        },
        {
          "name": "_y",
          "type": "uint32"
        }
      ],
      "name": "GetMostRatedByAuthor",
      "outputs": [
        {
          "name": "",
          "type": "bytes32"
        }
      ],
      "payable": false,
      "stateMutability": "view",
      "type": "function"
    },
    {
      "constant": true,
      "inputs": [
        {
          "name": "_c",
          "type": "address"
        }
      ],
      "name": "isPremium",
      "outputs": [
        {
          "name": "",
          "type": "bool"
        }
      ],
      "payable": false,
      "stateMutability": "view",
      "type": "function"
    },
    {
      "constant": false,
      "inputs": [
        {
          "name": "_a",
          "type": "address"
        },
        {
          "name": "_x",
          "type": "uint256"
        }
      ],
      "name": "SetNotification",
      "outputs": [],
      "payable": false,
      "stateMutability": "nonpayable",
      "type": "function"
    },
    {
      "constant": false,
      "inputs": [
        {
          "name": "_u",
          "type": "address"
        },
        {
          "name": "_list",
          "type": "bytes32[]"
        }
      ],
      "name": "SetNotifPreferences",
      "outputs": [],
      "payable": false,
      "stateMutability": "nonpayable",
      "type": "function"
    },
    {
      "constant": false,
      "inputs": [
        {
          "name": "_eventID",
          "type": "uint256"
        },
        {
          "name": "_account",
          "type": "address"
        },
        {
          "name": "_t",
          "type": "bytes32"
        },
        {
          "name": "_v",
          "type": "uint256"
        }
      ],
      "name": "EmitEvent",
      "outputs": [],
      "payable": false,
      "stateMutability": "nonpayable",
      "type": "function"
    },
    {
      "constant": false,
      "inputs": [
        {
          "name": "_c",
          "type": "address"
        }
      ],
      "name": "AddContent",
      "outputs": [],
      "payable": false,
      "stateMutability": "nonpayable",
      "type": "function"
    },
    {
      "constant": false,
      "inputs": [
        {
          "name": "_t",
          "type": "bytes32"
        }
      ],
      "name": "GetContent",
      "outputs": [],
      "payable": true,
      "stateMutability": "payable",
      "type": "function"
    },
    {
      "constant": false,
      "inputs": [
        {
          "name": "_t",
          "type": "bytes32"
        }
      ],
      "name": "GetContentPremium",
      "outputs": [],
      "payable": false,
      "stateMutability": "nonpayable",
      "type": "function"
    },
    {
      "constant": false,
      "inputs": [
        {
          "name": "_t",
          "type": "bytes32"
        },
        {
          "name": "_u",
          "type": "address"
        }
      ],
      "name": "GiftContent",
      "outputs": [],
      "payable": true,
      "stateMutability": "payable",
      "type": "function"
    },
    {
      "constant": false,
      "inputs": [],
      "name": "BuyPremium",
      "outputs": [],
      "payable": true,
      "stateMutability": "payable",
      "type": "function"
    },
    {
      "constant": false,
      "inputs": [
        {
          "name": "_u",
          "type": "address"
        }
      ],
      "name": "GiftPremium",
      "outputs": [],
      "payable": true,
      "stateMutability": "payable",
      "type": "function"
    },
    {
      "constant": false,
      "inputs": [
        {
          "name": "_t",
          "type": "bytes32"
        }
      ],
      "name": "PayAuthor",
      "outputs": [],
      "payable": false,
      "stateMutability": "nonpayable",
      "type": "function"
    },
    {
      "constant": false,
      "inputs": [],
      "name": "KillCatalog",
      "outputs": [],
      "payable": false,
      "stateMutability": "nonpayable",
      "type": "function"
    }
  ],
  "bytecode": "0x6080604052619c406004556703782dace9d900006005556007600660006101000a81548163ffffffff021916908363ffffffff16021790555034801561004457600080fd5b50336000806101000a81548173ffffffffffffffffffffffffffffffffffffffff021916908373ffffffffffffffffffffffffffffffffffffffff16021790555030600160006101000a81548173ffffffffffffffffffffffffffffffffffffffff021916908373ffffffffffffffffffffffffffffffffffffffff16021790555061577880620000d66000396000f3006080604052600436106101e3576000357c0100000000000000000000000000000000000000000000000000000000900463ffffffff168063043cdcf0146101e85780630643b01b1461022d5780630c30ad89146102b35780630d634eb5146102e45780630daeb713146103415780632669e0ad146103b25780632eefa37f146103ff5780632fa56ef3146104095780633a20d6761461046e5780633c027d8a1461049257806341c2b619146104a95780634d94c887146105165780634dc1e1681461054157806351d25fe61461057757806358e5a4741461062b578063617701391461067857806366046840146106a35780636e806f18146106da578063742fe0d41461071f5780637faa1f931461077a5780638da5cb5b146107d75780638ded2d731461082e5780638e2b47cd1461087157806398eac650146108be5780639cbc7a311461090b578063aa51403714610962578063ab0652e9146109b3578063ab717f47146109e6578063aeed4de314610a3d578063b1de677414610a8a578063bfe59cfb14610b22578063d1628fb014610b73578063d94cf6e014610bf5578063d97c006514610c42578063df1263d514610c73578063f15b363a14610cc2578063f867cff714610d06578063f888738414610d53578063ff70f85914610dbc575b600080fd5b3480156101f457600080fd5b506102176004803603810190808035600019169060200190929190505050610e28565b6040518082815260200191505060405180910390f35b34801561023957600080fd5b506102b1600480360381019080803573ffffffffffffffffffffffffffffffffffffffff16906020019092919080359060200190820180359060200190808060200260200160405190810160405280939291908181526020018383602002808284378201915050505050509192919290505050610f3c565b005b3480156102bf57600080fd5b506102e26004803603810190808035600019169060200190929190505050610f94565b005b3480156102f057600080fd5b506103236004803603810190808035600019169060200190929190803563ffffffff1690602001909291905050506115fc565b60405180826000191660001916815260200191505060405180910390f35b34801561034d57600080fd5b506103706004803603810190808035600019169060200190929190505050611ab9565b604051808273ffffffffffffffffffffffffffffffffffffffff1673ffffffffffffffffffffffffffffffffffffffff16815260200191505060405180910390f35b3480156103be57600080fd5b506103e16004803603810190808035600019169060200190929190505050611bcd565b60405180826000191660001916815260200191505060405180910390f35b610407611ce1565b005b34801561041557600080fd5b5061046c60048036038101908080359060200190929190803573ffffffffffffffffffffffffffffffffffffffff169060200190929190803560001916906020019092919080359060200190929190505050611de1565b005b6104906004803603810190808035600019169060200190929190505050611f66565b005b34801561049e57600080fd5b506104a7612159565b005b3480156104b557600080fd5b506104d460048036038101908080359060200190929190505050612693565b604051808273ffffffffffffffffffffffffffffffffffffffff1673ffffffffffffffffffffffffffffffffffffffff16815260200191505060405180910390f35b34801561052257600080fd5b5061052b6126d1565b6040518082815260200191505060405180910390f35b610575600480360381019080803573ffffffffffffffffffffffffffffffffffffffff1690602001909291905050506126de565b005b34801561058357600080fd5b5061058c6127df565b604051808060200180602001838103835285818151815260200191508051906020019060200280838360005b838110156105d35780820151818401526020810190506105b8565b50505050905001838103825284818151815260200191508051906020019060200280838360005b838110156106155780820151818401526020810190506105fa565b5050505090500194505050505060405180910390f35b34801561063757600080fd5b5061065a6004803603810190808035600019169060200190929190505050612a7f565b60405180826000191660001916815260200191505060405180910390f35b34801561068457600080fd5b5061068d612b93565b6040518082815260200191505060405180910390f35b3480156106af57600080fd5b506106b8612b99565b604051808263ffffffff1663ffffffff16815260200191505060405180910390f35b3480156106e657600080fd5b506107096004803603810190808035600019169060200190929190505050612baf565b6040518082815260200191505060405180910390f35b34801561072b57600080fd5b50610760600480360381019080803573ffffffffffffffffffffffffffffffffffffffff169060200190929190505050612bc7565b604051808215151515815260200191505060405180910390f35b34801561078657600080fd5b506107b96004803603810190808035600019169060200190929190803563ffffffff169060200190929190505050612c12565b60405180826000191660001916815260200191505060405180910390f35b3480156107e357600080fd5b506107ec6130cf565b604051808273ffffffffffffffffffffffffffffffffffffffff1673ffffffffffffffffffffffffffffffffffffffff16815260200191505060405180910390f35b34801561083a57600080fd5b5061086f600480360381019080803573ffffffffffffffffffffffffffffffffffffffff1690602001909291905050506130f4565b005b34801561087d57600080fd5b506108a06004803603810190808035600019169060200190929190505050613700565b60405180826000191660001916815260200191505060405180910390f35b3480156108ca57600080fd5b50610909600480360381019080803573ffffffffffffffffffffffffffffffffffffffff1690602001909291908035906020019092919050505061390d565b005b34801561091757600080fd5b5061094c600480360381019080803573ffffffffffffffffffffffffffffffffffffffff169060200190929190505050613955565b6040518082815260200191505060405180910390f35b34801561096e57600080fd5b50610991600480360381019080803560001916906020019092919050505061396d565b604051808263ffffffff1663ffffffff16815260200191505060405180910390f35b3480156109bf57600080fd5b506109c8613c2a565b60405180826000191660001916815260200191505060405180910390f35b3480156109f257600080fd5b50610a27600480360381019080803573ffffffffffffffffffffffffffffffffffffffff169060200190929190505050613f05565b6040518082815260200191505060405180910390f35b348015610a4957600080fd5b50610a6c6004803603810190808035600019169060200190929190505050613f1d565b60405180826000191660001916815260200191505060405180910390f35b348015610a9657600080fd5b50610acb600480360381019080803573ffffffffffffffffffffffffffffffffffffffff16906020019092919050505061412a565b6040518080602001828103825283818151815260200191508051906020019060200280838360005b83811015610b0e578082015181840152602081019050610af3565b505050509050019250505060405180910390f35b348015610b2e57600080fd5b50610b5160048036038101908080356000191690602001909291905050506141c5565b604051808263ffffffff1663ffffffff16815260200191505060405180910390f35b348015610b7f57600080fd5b50610b9e600480360381019080803590602001909291905050506142d9565b6040518080602001828103825283818151815260200191508051906020019060200280838360005b83811015610be1578082015181840152602081019050610bc6565b505050509050019250505060405180910390f35b348015610c0157600080fd5b50610c246004803603810190808035600019169060200190929190505050614470565b60405180826000191660001916815260200191505060405180910390f35b348015610c4e57600080fd5b50610c716004803603810190808035600019169060200190929190505050614837565b005b348015610c7f57600080fd5b50610ca4600480360381019080803563ffffffff169060200190929190505050614a66565b60405180826000191660001916815260200191505060405180910390f35b610d046004803603810190808035600019169060200190929190803573ffffffffffffffffffffffffffffffffffffffff169060200190929190505050614e71565b005b348015610d1257600080fd5b50610d356004803603810190808035600019169060200190929190505050615065565b60405180826000191660001916815260200191505060405180910390f35b348015610d5f57600080fd5b50610d9e600480360381019080803573ffffffffffffffffffffffffffffffffffffffff1690602001909291908035906020019092919050505061542c565b60405180826000191660001916815260200191505060405180910390f35b348015610dc857600080fd5b50610dd161545c565b6040518080602001828103825283818151815260200191508051906020019060200280838360005b83811015610e14578082015181840152602081019050610df9565b505050509050019250505060405180910390f35b600080600360008460001916600019168152602001908152602001600020549050600081141515610f3557600260018203815481101515610e6557fe5b9060005260206000200160009054906101000a900473ffffffffffffffffffffffffffffffffffffffff1673ffffffffffffffffffffffffffffffffffffffff1663a035b1fe6040518163ffffffff167c0100000000000000000000000000000000000000000000000000000000028152600401602060405180830381600087803b158015610ef357600080fd5b505af1158015610f07573d6000803e3d6000fd5b505050506040513d6020811015610f1d57600080fd5b81019080805190602001909291905050509150610f36565b5b50919050565b80600960008473ffffffffffffffffffffffffffffffffffffffff1673ffffffffffffffffffffffffffffffffffffffff1681526020019081526020016000209080519060200190610f8f9291906156d4565b505050565b6000806000806003600086600019166000191681526020019081526020016000205493506000841415156115f557600260018503815481101515610fd457fe5b9060005260206000200160009054906101000a900473ffffffffffffffffffffffffffffffffffffffff1673ffffffffffffffffffffffffffffffffffffffff166339c614a16040518163ffffffff167c0100000000000000000000000000000000000000000000000000000000028152600401602060405180830381600087803b15801561106257600080fd5b505af1158015611076573d6000803e3d6000fd5b505050506040513d602081101561108c57600080fd5b810190808051906020019092919050505092506002600185038154811015156110b157fe5b9060005260206000200160009054906101000a900473ffffffffffffffffffffffffffffffffffffffff1673ffffffffffffffffffffffffffffffffffffffff1663e76c3ba86040518163ffffffff167c0100000000000000000000000000000000000000000000000000000000028152600401602060405180830381600087803b15801561113f57600080fd5b505af1158015611153573d6000803e3d6000fd5b505050506040513d602081101561116957600080fd5b810190808051906020019092919050505083039150600660009054906101000a900463ffffffff1663ffffffff168263ffffffff161015156115f45760326111b08661396d565b63ffffffff166002600187038154811015156111c857fe5b9060005260206000200160009054906101000a900473ffffffffffffffffffffffffffffffffffffffff1673ffffffffffffffffffffffffffffffffffffffff1663a035b1fe6040518163ffffffff167c0100000000000000000000000000000000000000000000000000000000028152600401602060405180830381600087803b15801561125657600080fd5b505af115801561126a573d6000803e3d6000fd5b505050506040513d602081101561128057600080fd5b81019080805190602001909291905050500281151561129b57fe5b0490506002600185038154811015156112b057fe5b9060005260206000200160009054906101000a900473ffffffffffffffffffffffffffffffffffffffff1673ffffffffffffffffffffffffffffffffffffffff16638da5cb5b6040518163ffffffff167c0100000000000000000000000000000000000000000000000000000000028152600401602060405180830381600087803b15801561133e57600080fd5b505af1158015611352573d6000803e3d6000fd5b505050506040513d602081101561136857600080fd5b810190808051906020019092919050505073ffffffffffffffffffffffffffffffffffffffff166108fc828463ffffffff16029081150290604051600060405180830381858888f193505050501580156113c6573d6000803e3d6000fd5b506002600185038154811015156113d957fe5b9060005260206000200160009054906101000a900473ffffffffffffffffffffffffffffffffffffffff1673ffffffffffffffffffffffffffffffffffffffff1663e9df3010836040518263ffffffff167c0100000000000000000000000000000000000000000000000000000000028152600401808263ffffffff1663ffffffff168152602001915050600060405180830381600087803b15801561147e57600080fd5b505af1158015611492573d6000803e3d6000fd5b505050507fa2cf96ee99940b1bfb3322d3e01f3eaa7324d54f11d177846fcaeca307103359856002600187038154811015156114ca57fe5b9060005260206000200160009054906101000a900473ffffffffffffffffffffffffffffffffffffffff1673ffffffffffffffffffffffffffffffffffffffff16638da5cb5b6040518163ffffffff167c0100000000000000000000000000000000000000000000000000000000028152600401602060405180830381600087803b15801561155857600080fd5b505af115801561156c573d6000803e3d6000fd5b505050506040513d602081101561158257600080fd5b8101908080519060200190929190505050838563ffffffff16026040518084600019166000191681526020018373ffffffffffffffffffffffffffffffffffffffff1673ffffffffffffffffffffffffffffffffffffffff168152602001828152602001935050505060405180910390a15b5b5050505050565b6000806000806000806000600102945060009350600092505b61161d6126d1565b831015611aab5760028381548110151561163357fe5b9060005260206000200160009054906101000a900473ffffffffffffffffffffffffffffffffffffffff16915087600019168273ffffffffffffffffffffffffffffffffffffffff166317de3a416040518163ffffffff167c0100000000000000000000000000000000000000000000000000000000028152600401602060405180830381600087803b1580156116c957600080fd5b505af11580156116dd573d6000803e3d6000fd5b505050506040513d60208110156116f357600080fd5b8101908080519060200190929190505050600019161480156117ba575060008273ffffffffffffffffffffffffffffffffffffffff16631f3e74396040518163ffffffff167c0100000000000000000000000000000000000000000000000000000000028152600401602060405180830381600087803b15801561177657600080fd5b505af115801561178a573d6000803e3d6000fd5b505050506040513d60208110156117a057600080fd5b810190808051906020019092919050505063ffffffff1614155b15611a9e5760048763ffffffff1610611879576118748273ffffffffffffffffffffffffffffffffffffffff16634a79d50c6040518163ffffffff167c0100000000000000000000000000000000000000000000000000000000028152600401602060405180830381600087803b15801561183457600080fd5b505af1158015611848573d6000803e3d6000fd5b505050506040513d602081101561185e57600080fd5b810190808051906020019092919050505061396d565b6119e2565b8173ffffffffffffffffffffffffffffffffffffffff16631f3e74396040518163ffffffff167c0100000000000000000000000000000000000000000000000000000000028152600401602060405180830381600087803b1580156118dd57600080fd5b505af11580156118f1573d6000803e3d6000fd5b505050506040513d602081101561190757600080fd5b810190808051906020019092919050505063ffffffff16600a8373ffffffffffffffffffffffffffffffffffffffff1663f59dfdfb8a6040518263ffffffff167c0100000000000000000000000000000000000000000000000000000000028152600401808263ffffffff168152602001915050602060405180830381600087803b15801561199557600080fd5b505af11580156119a9573d6000803e3d6000fd5b505050506040513d60208110156119bf57600080fd5b81019080805190602001909291905050500263ffffffff168115156119e057fe5b045b90508363ffffffff168163ffffffff161115611a9d578173ffffffffffffffffffffffffffffffffffffffff16634a79d50c6040518163ffffffff167c0100000000000000000000000000000000000000000000000000000000028152600401602060405180830381600087803b158015611a5c57600080fd5b505af1158015611a70573d6000803e3d6000fd5b505050506040513d6020811015611a8657600080fd5b810190808051906020019092919050505094508093505b5b8280600101935050611615565b849550505050505092915050565b600080600360008460001916600019168152602001908152602001600020549050600081141515611bc657600260018203815481101515611af657fe5b9060005260206000200160009054906101000a900473ffffffffffffffffffffffffffffffffffffffff1673ffffffffffffffffffffffffffffffffffffffff16638da5cb5b6040518163ffffffff167c0100000000000000000000000000000000000000000000000000000000028152600401602060405180830381600087803b158015611b8457600080fd5b505af1158015611b98573d6000803e3d6000fd5b505050506040513d6020811015611bae57600080fd5b81019080805190602001909291905050509150611bc7565b5b50919050565b600080600360008460001916600019168152602001908152602001600020549050600081141515611cda57600260018203815481101515611c0a57fe5b9060005260206000200160009054906101000a900473ffffffffffffffffffffffffffffffffffffffff1673ffffffffffffffffffffffffffffffffffffffff1663a6c3e6b96040518163ffffffff167c0100000000000000000000000000000000000000000000000000000000028152600401602060405180830381600087803b158015611c9857600080fd5b505af1158015611cac573d6000803e3d6000fd5b505050506040513d6020811015611cc257600080fd5b81019080805190602001909291905050509150611cdb565b5b50919050565b60055434141515611cf157600080fd5b6004544301600760003373ffffffffffffffffffffffffffffffffffffffff1673ffffffffffffffffffffffffffffffffffffffff168152602001908152602001600020819055507f0f10e63ee894e39811b0eff44f474074f64b054454a20aa18c7d37e3df450ee833336000604051808473ffffffffffffffffffffffffffffffffffffffff1673ffffffffffffffffffffffffffffffffffffffff1681526020018373ffffffffffffffffffffffffffffffffffffffff1673ffffffffffffffffffffffffffffffffffffffff1681526020018263ffffffff168152602001935050505060405180910390a1565b6000841415611e6a577fb6203a65cd3bbe820f0892955bff3dcc18d8a9cba3acecd7ac34317fcd81d98c838383604051808473ffffffffffffffffffffffffffffffffffffffff1673ffffffffffffffffffffffffffffffffffffffff1681526020018360001916600019168152602001828152602001935050505060405180910390a1611f60565b6001841415611eeb577f5fbcd492da7c4ee1cc7271177bc13cb91003d94db44da47230403694a21785028383604051808373ffffffffffffffffffffffffffffffffffffffff1673ffffffffffffffffffffffffffffffffffffffff16815260200182600019166000191681526020019250505060405180910390a1611f5f565b7faa45c023ebf5bd12db98c09dddda5c0919b5c320857cb8d98df378e599a854f08383604051808373ffffffffffffffffffffffffffffffffffffffff1673ffffffffffffffffffffffffffffffffffffffff16815260200182600019166000191681526020019250505060405180910390a15b5b50505050565b6000611f7182610e28565b34141515611f7e57600080fd5b60036000836000191660001916815260200190815260200160002054905060008114151561215557600260018203815481101515611fb857fe5b9060005260206000200160009054906101000a900473ffffffffffffffffffffffffffffffffffffffff1673ffffffffffffffffffffffffffffffffffffffff16636386a4333360006040518363ffffffff167c0100000000000000000000000000000000000000000000000000000000028152600401808373ffffffffffffffffffffffffffffffffffffffff1673ffffffffffffffffffffffffffffffffffffffff16815260200182815260200192505050600060405180830381600087803b15801561208657600080fd5b505af115801561209a573d6000803e3d6000fd5b505050507f96d6d07652bef70c31bf9e5e149c2c36366523b1748c245a2bf24b9bd50d4ab382333360006040518085600019166000191681526020018473ffffffffffffffffffffffffffffffffffffffff1673ffffffffffffffffffffffffffffffffffffffff1681526020018373ffffffffffffffffffffffffffffffffffffffff1673ffffffffffffffffffffffffffffffffffffffff1681526020018263ffffffff16815260200194505050505060405180910390a15b5050565b6000806000806000809054906101000a900473ffffffffffffffffffffffffffffffffffffffff1673ffffffffffffffffffffffffffffffffffffffff163373ffffffffffffffffffffffffffffffffffffffff161415156121ba57600080fd5b6121c26155c1565b935083600160009054906101000a900473ffffffffffffffffffffffffffffffffffffffff1673ffffffffffffffffffffffffffffffffffffffff163181151561220857fe5b049250600091505b6122186126d1565b821015612658578260028381548110151561222f57fe5b9060005260206000200160009054906101000a900473ffffffffffffffffffffffffffffffffffffffff1673ffffffffffffffffffffffffffffffffffffffff166339c614a16040518163ffffffff167c0100000000000000000000000000000000000000000000000000000000028152600401602060405180830381600087803b1580156122bd57600080fd5b505af11580156122d1573d6000803e3d6000fd5b505050506040513d60208110156122e757600080fd5b810190808051906020019092919050505063ffffffff1602905060028281548110151561231057fe5b9060005260206000200160009054906101000a900473ffffffffffffffffffffffffffffffffffffffff1673ffffffffffffffffffffffffffffffffffffffff16638da5cb5b6040518163ffffffff167c0100000000000000000000000000000000000000000000000000000000028152600401602060405180830381600087803b15801561239e57600080fd5b505af11580156123b2573d6000803e3d6000fd5b505050506040513d60208110156123c857600080fd5b810190808051906020019092919050505073ffffffffffffffffffffffffffffffffffffffff166108fc829081150290604051600060405180830381858888f1935050505015801561241e573d6000803e3d6000fd5b507fa2cf96ee99940b1bfb3322d3e01f3eaa7324d54f11d177846fcaeca30710335960028381548110151561244f57fe5b9060005260206000200160009054906101000a900473ffffffffffffffffffffffffffffffffffffffff1673ffffffffffffffffffffffffffffffffffffffff16634a79d50c6040518163ffffffff167c0100000000000000000000000000000000000000000000000000000000028152600401602060405180830381600087803b1580156124dd57600080fd5b505af11580156124f1573d6000803e3d6000fd5b505050506040513d602081101561250757600080fd5b810190808051906020019092919050505060026001850381548110151561252a57fe5b9060005260206000200160009054906101000a900473ffffffffffffffffffffffffffffffffffffffff1673ffffffffffffffffffffffffffffffffffffffff16638da5cb5b6040518163ffffffff167c0100000000000000000000000000000000000000000000000000000000028152600401602060405180830381600087803b1580156125b857600080fd5b505af11580156125cc573d6000803e3d6000fd5b505050506040513d60208110156125e257600080fd5b8101908080519060200190929190505050836040518084600019166000191681526020018373ffffffffffffffffffffffffffffffffffffffff1673ffffffffffffffffffffffffffffffffffffffff168152602001828152602001935050505060405180910390a18180600101925050612210565b600160009054906101000a900473ffffffffffffffffffffffffffffffffffffffff1673ffffffffffffffffffffffffffffffffffffffff16ff5b6002818154811015156126a257fe5b906000526020600020016000915054906101000a900473ffffffffffffffffffffffffffffffffffffffff1681565b6000600280549050905090565b600554341415156126ee57600080fd5b6004544301600760008373ffffffffffffffffffffffffffffffffffffffff1673ffffffffffffffffffffffffffffffffffffffff168152602001908152602001600020819055507f0f10e63ee894e39811b0eff44f474074f64b054454a20aa18c7d37e3df450ee833826001604051808473ffffffffffffffffffffffffffffffffffffffff1673ffffffffffffffffffffffffffffffffffffffff1681526020018373ffffffffffffffffffffffffffffffffffffffff1673ffffffffffffffffffffffffffffffffffffffff1681526020018263ffffffff168152602001935050505060405180910390a150565b606080600060608060006127f16126d1565b9350836040519080825280602002602001820160405280156128225781602001602082028038833980820191505090505b509250836040519080825280602002602001820160405280156128545781602001602082028038833980820191505090505b509150600090505b83811015612a715760028181548110151561287357fe5b9060005260206000200160009054906101000a900473ffffffffffffffffffffffffffffffffffffffff1673ffffffffffffffffffffffffffffffffffffffff16634a79d50c6040518163ffffffff167c0100000000000000000000000000000000000000000000000000000000028152600401602060405180830381600087803b15801561290157600080fd5b505af1158015612915573d6000803e3d6000fd5b505050506040513d602081101561292b57600080fd5b8101908080519060200190929190505050838281518110151561294a57fe5b90602001906020020190600019169081600019168152505060028181548110151561297157fe5b9060005260206000200160009054906101000a900473ffffffffffffffffffffffffffffffffffffffff1673ffffffffffffffffffffffffffffffffffffffff166339c614a16040518163ffffffff167c0100000000000000000000000000000000000000000000000000000000028152600401602060405180830381600087803b1580156129ff57600080fd5b505af1158015612a13573d6000803e3d6000fd5b505050506040513d6020811015612a2957600080fd5b81019080805190602001909291905050508282815181101515612a4857fe5b9060200190602002019063ffffffff16908163ffffffff1681525050808060010191505061285c565b828295509550505050509091565b600080600360008460001916600019168152602001908152602001600020549050600081141515612b8c57600260018203815481101515612abc57fe5b9060005260206000200160009054906101000a900473ffffffffffffffffffffffffffffffffffffffff1673ffffffffffffffffffffffffffffffffffffffff166317de3a416040518163ffffffff167c0100000000000000000000000000000000000000000000000000000000028152600401602060405180830381600087803b158015612b4a57600080fd5b505af1158015612b5e573d6000803e3d6000fd5b505050506040513d6020811015612b7457600080fd5b81019080805190602001909291905050509150612b8d565b5b50919050565b60055481565b600660009054906101000a900463ffffffff1681565b60036020528060005260406000206000915090505481565b600043600760008473ffffffffffffffffffffffffffffffffffffffff1673ffffffffffffffffffffffffffffffffffffffff16815260200190815260200160002054119050919050565b6000806000806000806000600102945060009350600092505b612c336126d1565b8310156130c157600283815481101515612c4957fe5b9060005260206000200160009054906101000a900473ffffffffffffffffffffffffffffffffffffffff16915087600019168273ffffffffffffffffffffffffffffffffffffffff1663a6c3e6b96040518163ffffffff167c0100000000000000000000000000000000000000000000000000000000028152600401602060405180830381600087803b158015612cdf57600080fd5b505af1158015612cf3573d6000803e3d6000fd5b505050506040513d6020811015612d0957600080fd5b810190808051906020019092919050505060001916148015612dd0575060008273ffffffffffffffffffffffffffffffffffffffff16631f3e74396040518163ffffffff167c0100000000000000000000000000000000000000000000000000000000028152600401602060405180830381600087803b158015612d8c57600080fd5b505af1158015612da0573d6000803e3d6000fd5b505050506040513d6020811015612db657600080fd5b810190808051906020019092919050505063ffffffff1614155b156130b45760048763ffffffff1610612e8f57612e8a8273ffffffffffffffffffffffffffffffffffffffff16634a79d50c6040518163ffffffff167c0100000000000000000000000000000000000000000000000000000000028152600401602060405180830381600087803b158015612e4a57600080fd5b505af1158015612e5e573d6000803e3d6000fd5b505050506040513d6020811015612e7457600080fd5b810190808051906020019092919050505061396d565b612ff8565b8173ffffffffffffffffffffffffffffffffffffffff16631f3e74396040518163ffffffff167c0100000000000000000000000000000000000000000000000000000000028152600401602060405180830381600087803b158015612ef357600080fd5b505af1158015612f07573d6000803e3d6000fd5b505050506040513d6020811015612f1d57600080fd5b810190808051906020019092919050505063ffffffff16600a8373ffffffffffffffffffffffffffffffffffffffff1663f59dfdfb8a6040518263ffffffff167c0100000000000000000000000000000000000000000000000000000000028152600401808263ffffffff168152602001915050602060405180830381600087803b158015612fab57600080fd5b505af1158015612fbf573d6000803e3d6000fd5b505050506040513d6020811015612fd557600080fd5b81019080805190602001909291905050500263ffffffff16811515612ff657fe5b045b90508363ffffffff168163ffffffff1611156130b3578173ffffffffffffffffffffffffffffffffffffffff16634a79d50c6040518163ffffffff167c0100000000000000000000000000000000000000000000000000000000028152600401602060405180830381600087803b15801561307257600080fd5b505af1158015613086573d6000803e3d6000fd5b505050506040513d602081101561309c57600080fd5b810190808051906020019092919050505094508093505b5b8280600101935050612c2b565b849550505050505092915050565b6000809054906101000a900473ffffffffffffffffffffffffffffffffffffffff1681565b60008190503373ffffffffffffffffffffffffffffffffffffffff168173ffffffffffffffffffffffffffffffffffffffff16638da5cb5b6040518163ffffffff167c0100000000000000000000000000000000000000000000000000000000028152600401602060405180830381600087803b15801561317457600080fd5b505af1158015613188573d6000803e3d6000fd5b505050506040513d602081101561319e57600080fd5b810190808051906020019092919050505073ffffffffffffffffffffffffffffffffffffffff161480156132bd5750600160009054906101000a900473ffffffffffffffffffffffffffffffffffffffff1673ffffffffffffffffffffffffffffffffffffffff168173ffffffffffffffffffffffffffffffffffffffff1663074c09eb6040518163ffffffff167c0100000000000000000000000000000000000000000000000000000000028152600401602060405180830381600087803b15801561326a57600080fd5b505af115801561327e573d6000803e3d6000fd5b505050506040513d602081101561329457600080fd5b810190808051906020019092919050505073ffffffffffffffffffffffffffffffffffffffff16145b15156132c857600080fd5b60028190806001815401808255809150509060018203906000526020600020016000909192909190916101000a81548173ffffffffffffffffffffffffffffffffffffffff021916908373ffffffffffffffffffffffffffffffffffffffff16021790555050600280549050600360008373ffffffffffffffffffffffffffffffffffffffff16634a79d50c6040518163ffffffff167c0100000000000000000000000000000000000000000000000000000000028152600401602060405180830381600087803b15801561339c57600080fd5b505af11580156133b0573d6000803e3d6000fd5b505050506040513d60208110156133c657600080fd5b810190808051906020019092919050505060001916600019168152602001908152602001600020819055507f94c683ff7f39640fe5c3ef52084cc07b3d833c122d5ab805894ab620e99ffb348173ffffffffffffffffffffffffffffffffffffffff16634a79d50c6040518163ffffffff167c0100000000000000000000000000000000000000000000000000000000028152600401602060405180830381600087803b15801561347657600080fd5b505af115801561348a573d6000803e3d6000fd5b505050506040513d60208110156134a057600080fd5b81019080805190602001909291905050508273ffffffffffffffffffffffffffffffffffffffff1663a6c3e6b96040518163ffffffff167c0100000000000000000000000000000000000000000000000000000000028152600401602060405180830381600087803b15801561351557600080fd5b505af1158015613529573d6000803e3d6000fd5b505050506040513d602081101561353f57600080fd5b81019080805190602001909291905050508373ffffffffffffffffffffffffffffffffffffffff166317de3a416040518163ffffffff167c0100000000000000000000000000000000000000000000000000000000028152600401602060405180830381600087803b1580156135b457600080fd5b505af11580156135c8573d6000803e3d6000fd5b505050506040513d60208110156135de57600080fd5b81019080805190602001909291905050508473ffffffffffffffffffffffffffffffffffffffff16638da5cb5b6040518163ffffffff167c0100000000000000000000000000000000000000000000000000000000028152600401602060405180830381600087803b15801561365357600080fd5b505af1158015613667573d6000803e3d6000fd5b505050506040513d602081101561367d57600080fd5b8101908080519060200190929190505050604051808560001916600019168152602001846000191660001916815260200183600019166000191681526020018273ffffffffffffffffffffffffffffffffffffffff1673ffffffffffffffffffffffffffffffffffffffff16815260200194505050505060405180910390a15050565b600080600061370d6126d1565b915060008211156138fe576001820390505b6000811015156138fd57836000191660028281548110151561373d57fe5b9060005260206000200160009054906101000a900473ffffffffffffffffffffffffffffffffffffffff1673ffffffffffffffffffffffffffffffffffffffff166317de3a416040518163ffffffff167c0100000000000000000000000000000000000000000000000000000000028152600401602060405180830381600087803b1580156137cb57600080fd5b505af11580156137df573d6000803e3d6000fd5b505050506040513d60208110156137f557600080fd5b81019080805190602001909291905050506000191614156138ef5760028181548110151561381f57fe5b9060005260206000200160009054906101000a900473ffffffffffffffffffffffffffffffffffffffff1673ffffffffffffffffffffffffffffffffffffffff16634a79d50c6040518163ffffffff167c0100000000000000000000000000000000000000000000000000000000028152600401602060405180830381600087803b1580156138ad57600080fd5b505af11580156138c1573d6000803e3d6000fd5b505050506040513d60208110156138d757600080fd5b81019080805190602001909291905050509250613906565b80806001900391505061371f565b5b600060010292505b5050919050565b80600860008473ffffffffffffffffffffffffffffffffffffffff1673ffffffffffffffffffffffffffffffffffffffff168152602001908152602001600020819055505050565b60076020528060005260406000206000915090505481565b6000806000806000600360008760001916600019168152602001908152602001600020549350600092506002600185038154811015156139a957fe5b9060005260206000200160009054906101000a900473ffffffffffffffffffffffffffffffffffffffff169150600090505b60048163ffffffff161015613aab578173ffffffffffffffffffffffffffffffffffffffff1663f59dfdfb826040518263ffffffff167c0100000000000000000000000000000000000000000000000000000000028152600401808263ffffffff168152602001915050602060405180830381600087803b158015613a5f57600080fd5b505af1158015613a73573d6000803e3d6000fd5b505050506040513d6020811015613a8957600080fd5b81019080805190602001909291905050508301925080806001019150506139db565b60008273ffffffffffffffffffffffffffffffffffffffff16631f3e74396040518163ffffffff167c0100000000000000000000000000000000000000000000000000000000028152600401602060405180830381600087803b158015613b1157600080fd5b505af1158015613b25573d6000803e3d6000fd5b505050506040513d6020811015613b3b57600080fd5b810190808051906020019092919050505063ffffffff16141515613c1c5760048273ffffffffffffffffffffffffffffffffffffffff16631f3e74396040518163ffffffff167c0100000000000000000000000000000000000000000000000000000000028152600401602060405180830381600087803b158015613bbf57600080fd5b505af1158015613bd3573d6000803e3d6000fd5b505050506040513d6020811015613be957600080fd5b81019080805190602001909291905050500263ffffffff16600a840263ffffffff16811515613c1457fe5b049450613c21565b600094505b50505050919050565b6000806000806000600102925060009150600090505b613c486126d1565b811015613efc578163ffffffff16600282815481101515613c6557fe5b9060005260206000200160009054906101000a900473ffffffffffffffffffffffffffffffffffffffff1673ffffffffffffffffffffffffffffffffffffffff166339c614a16040518163ffffffff167c0100000000000000000000000000000000000000000000000000000000028152600401602060405180830381600087803b158015613cf357600080fd5b505af1158015613d07573d6000803e3d6000fd5b505050506040513d6020811015613d1d57600080fd5b810190808051906020019092919050505063ffffffff161115613eef57600281815481101515613d4957fe5b9060005260206000200160009054906101000a900473ffffffffffffffffffffffffffffffffffffffff1673ffffffffffffffffffffffffffffffffffffffff16634a79d50c6040518163ffffffff167c0100000000000000000000000000000000000000000000000000000000028152600401602060405180830381600087803b158015613dd757600080fd5b505af1158015613deb573d6000803e3d6000fd5b505050506040513d6020811015613e0157600080fd5b81019080805190602001909291905050509250600281815481101515613e2357fe5b9060005260206000200160009054906101000a900473ffffffffffffffffffffffffffffffffffffffff1673ffffffffffffffffffffffffffffffffffffffff166339c614a16040518163ffffffff167c0100000000000000000000000000000000000000000000000000000000028152600401602060405180830381600087803b158015613eb157600080fd5b505af1158015613ec5573d6000803e3d6000fd5b505050506040513d6020811015613edb57600080fd5b810190808051906020019092919050505091505b8080600101915050613c40565b82935050505090565b60086020528060005260406000206000915090505481565b6000806000613f2a6126d1565b9150600082111561411b576001820390505b60008110151561411a578360001916600282815481101515613f5a57fe5b9060005260206000200160009054906101000a900473ffffffffffffffffffffffffffffffffffffffff1673ffffffffffffffffffffffffffffffffffffffff1663a6c3e6b96040518163ffffffff167c0100000000000000000000000000000000000000000000000000000000028152600401602060405180830381600087803b158015613fe857600080fd5b505af1158015613ffc573d6000803e3d6000fd5b505050506040513d602081101561401257600080fd5b810190808051906020019092919050505060001916141561410c5760028181548110151561403c57fe5b9060005260206000200160009054906101000a900473ffffffffffffffffffffffffffffffffffffffff1673ffffffffffffffffffffffffffffffffffffffff16634a79d50c6040518163ffffffff167c0100000000000000000000000000000000000000000000000000000000028152600401602060405180830381600087803b1580156140ca57600080fd5b505af11580156140de573d6000803e3d6000fd5b505050506040513d60208110156140f457600080fd5b81019080805190602001909291905050509250614123565b808060019003915050613f3c565b5b600060010292505b5050919050565b6060600960008373ffffffffffffffffffffffffffffffffffffffff1673ffffffffffffffffffffffffffffffffffffffff1681526020019081526020016000208054806020026020016040519081016040528092919081815260200182805480156141b957602002820191906000526020600020905b815460001916815260200190600101908083116141a1575b50505050509050919050565b6000806003600084600019166000191681526020019081526020016000205490506000811415156142d25760026001820381548110151561420257fe5b9060005260206000200160009054906101000a900473ffffffffffffffffffffffffffffffffffffffff1673ffffffffffffffffffffffffffffffffffffffff166339c614a16040518163ffffffff167c0100000000000000000000000000000000000000000000000000000000028152600401602060405180830381600087803b15801561429057600080fd5b505af11580156142a4573d6000803e3d6000fd5b505050506040513d60208110156142ba57600080fd5b810190808051906020019092919050505091506142d3565b5b50919050565b60606000606060006142e96126d1565b92508285111515156142fa57600080fd5b846040519080825280602002602001820160405280156143295781602001602082028038833980820191505090505b50915060008311801561433c5750600085115b15614465576001830390505b848303811015156144645760028181548110151561436257fe5b9060005260206000200160009054906101000a900473ffffffffffffffffffffffffffffffffffffffff1673ffffffffffffffffffffffffffffffffffffffff16634a79d50c6040518163ffffffff167c0100000000000000000000000000000000000000000000000000000000028152600401602060405180830381600087803b1580156143f057600080fd5b505af1158015614404573d6000803e3d6000fd5b505050506040513d602081101561441a57600080fd5b81019080805190602001909291905050508282600186030381518110151561443e57fe5b906020019060200201906000191690816000191681525050808060019003915050614348565b5b819350505050919050565b6000806000806000600102925060009150600090505b61448e6126d1565b81101561482c5784600019166002828154811015156144a957fe5b9060005260206000200160009054906101000a900473ffffffffffffffffffffffffffffffffffffffff1673ffffffffffffffffffffffffffffffffffffffff1663a6c3e6b96040518163ffffffff167c0100000000000000000000000000000000000000000000000000000000028152600401602060405180830381600087803b15801561453757600080fd5b505af115801561454b573d6000803e3d6000fd5b505050506040513d602081101561456157600080fd5b81019080805190602001909291905050506000191614801561466557508163ffffffff1660028281548110151561459457fe5b9060005260206000200160009054906101000a900473ffffffffffffffffffffffffffffffffffffffff1673ffffffffffffffffffffffffffffffffffffffff166339c614a16040518163ffffffff167c0100000000000000000000000000000000000000000000000000000000028152600401602060405180830381600087803b15801561462257600080fd5b505af1158015614636573d6000803e3d6000fd5b505050506040513d602081101561464c57600080fd5b810190808051906020019092919050505063ffffffff16115b1561481f5760028181548110151561467957fe5b9060005260206000200160009054906101000a900473ffffffffffffffffffffffffffffffffffffffff1673ffffffffffffffffffffffffffffffffffffffff16634a79d50c6040518163ffffffff167c0100000000000000000000000000000000000000000000000000000000028152600401602060405180830381600087803b15801561470757600080fd5b505af115801561471b573d6000803e3d6000fd5b505050506040513d602081101561473157600080fd5b8101908080519060200190929190505050925060028181548110151561475357fe5b9060005260206000200160009054906101000a900473ffffffffffffffffffffffffffffffffffffffff1673ffffffffffffffffffffffffffffffffffffffff166339c614a16040518163ffffffff167c0100000000000000000000000000000000000000000000000000000000028152600401602060405180830381600087803b1580156147e157600080fd5b505af11580156147f5573d6000803e3d6000fd5b505050506040513d602081101561480b57600080fd5b810190808051906020019092919050505091505b8080600101915050614486565b829350505050919050565b600061484233612bc7565b151561484d57600080fd5b600360008360001916600019168152602001908152602001600020549050600081141515614a625760026001820381548110151561488757fe5b9060005260206000200160009054906101000a900473ffffffffffffffffffffffffffffffffffffffff1673ffffffffffffffffffffffffffffffffffffffff16636386a43333600760003373ffffffffffffffffffffffffffffffffffffffff1673ffffffffffffffffffffffffffffffffffffffff168152602001908152602001600020546040518363ffffffff167c0100000000000000000000000000000000000000000000000000000000028152600401808373ffffffffffffffffffffffffffffffffffffffff1673ffffffffffffffffffffffffffffffffffffffff16815260200182815260200192505050600060405180830381600087803b15801561499357600080fd5b505af11580156149a7573d6000803e3d6000fd5b505050507f96d6d07652bef70c31bf9e5e149c2c36366523b1748c245a2bf24b9bd50d4ab382333360006040518085600019166000191681526020018473ffffffffffffffffffffffffffffffffffffffff1673ffffffffffffffffffffffffffffffffffffffff1681526020018373ffffffffffffffffffffffffffffffffffffffff1673ffffffffffffffffffffffffffffffffffffffff1681526020018263ffffffff16815260200194505050505060405180910390a15b5050565b6000806000806000806000600102945060009350600092505b614a876126d1565b831015614e6457600283815481101515614a9d57fe5b9060005260206000200160009054906101000a900473ffffffffffffffffffffffffffffffffffffffff16915060008273ffffffffffffffffffffffffffffffffffffffff16631f3e74396040518163ffffffff167c0100000000000000000000000000000000000000000000000000000000028152600401602060405180830381600087803b158015614b3057600080fd5b505af1158015614b44573d6000803e3d6000fd5b505050506040513d6020811015614b5a57600080fd5b810190808051906020019092919050505063ffffffff16141515614e575760048763ffffffff1610614c3257614c2d8273ffffffffffffffffffffffffffffffffffffffff16634a79d50c6040518163ffffffff167c0100000000000000000000000000000000000000000000000000000000028152600401602060405180830381600087803b158015614bed57600080fd5b505af1158015614c01573d6000803e3d6000fd5b505050506040513d6020811015614c1757600080fd5b810190808051906020019092919050505061396d565b614d9b565b8173ffffffffffffffffffffffffffffffffffffffff16631f3e74396040518163ffffffff167c0100000000000000000000000000000000000000000000000000000000028152600401602060405180830381600087803b158015614c9657600080fd5b505af1158015614caa573d6000803e3d6000fd5b505050506040513d6020811015614cc057600080fd5b810190808051906020019092919050505063ffffffff16600a8373ffffffffffffffffffffffffffffffffffffffff1663f59dfdfb8a6040518263ffffffff167c0100000000000000000000000000000000000000000000000000000000028152600401808263ffffffff168152602001915050602060405180830381600087803b158015614d4e57600080fd5b505af1158015614d62573d6000803e3d6000fd5b505050506040513d6020811015614d7857600080fd5b81019080805190602001909291905050500263ffffffff16811515614d9957fe5b045b90508363ffffffff168163ffffffff161115614e56578173ffffffffffffffffffffffffffffffffffffffff16634a79d50c6040518163ffffffff167c0100000000000000000000000000000000000000000000000000000000028152600401602060405180830381600087803b158015614e1557600080fd5b505af1158015614e29573d6000803e3d6000fd5b505050506040513d6020811015614e3f57600080fd5b810190808051906020019092919050505094508093505b5b8280600101935050614a7f565b8495505050505050919050565b6000614e7c83610e28565b34141515614e8957600080fd5b60036000846000191660001916815260200190815260200160002054905060008114151561506057600260018203815481101515614ec357fe5b9060005260206000200160009054906101000a900473ffffffffffffffffffffffffffffffffffffffff1673ffffffffffffffffffffffffffffffffffffffff16636386a4338360006040518363ffffffff167c0100000000000000000000000000000000000000000000000000000000028152600401808373ffffffffffffffffffffffffffffffffffffffff1673ffffffffffffffffffffffffffffffffffffffff16815260200182815260200192505050600060405180830381600087803b158015614f9157600080fd5b505af1158015614fa5573d6000803e3d6000fd5b505050507f96d6d07652bef70c31bf9e5e149c2c36366523b1748c245a2bf24b9bd50d4ab383338460016040518085600019166000191681526020018473ffffffffffffffffffffffffffffffffffffffff1673ffffffffffffffffffffffffffffffffffffffff1681526020018373ffffffffffffffffffffffffffffffffffffffff1673ffffffffffffffffffffffffffffffffffffffff1681526020018263ffffffff16815260200194505050505060405180910390a15b505050565b6000806000806000600102925060009150600090505b6150836126d1565b81101561542157846000191660028281548110151561509e57fe5b9060005260206000200160009054906101000a900473ffffffffffffffffffffffffffffffffffffffff1673ffffffffffffffffffffffffffffffffffffffff166317de3a416040518163ffffffff167c0100000000000000000000000000000000000000000000000000000000028152600401602060405180830381600087803b15801561512c57600080fd5b505af1158015615140573d6000803e3d6000fd5b505050506040513d602081101561515657600080fd5b81019080805190602001909291905050506000191614801561525a57508163ffffffff1660028281548110151561518957fe5b9060005260206000200160009054906101000a900473ffffffffffffffffffffffffffffffffffffffff1673ffffffffffffffffffffffffffffffffffffffff166339c614a16040518163ffffffff167c0100000000000000000000000000000000000000000000000000000000028152600401602060405180830381600087803b15801561521757600080fd5b505af115801561522b573d6000803e3d6000fd5b505050506040513d602081101561524157600080fd5b810190808051906020019092919050505063ffffffff16115b156154145760028181548110151561526e57fe5b9060005260206000200160009054906101000a900473ffffffffffffffffffffffffffffffffffffffff1673ffffffffffffffffffffffffffffffffffffffff16634a79d50c6040518163ffffffff167c0100000000000000000000000000000000000000000000000000000000028152600401602060405180830381600087803b1580156152fc57600080fd5b505af1158015615310573d6000803e3d6000fd5b505050506040513d602081101561532657600080fd5b8101908080519060200190929190505050925060028181548110151561534857fe5b9060005260206000200160009054906101000a900473ffffffffffffffffffffffffffffffffffffffff1673ffffffffffffffffffffffffffffffffffffffff166339c614a16040518163ffffffff167c0100000000000000000000000000000000000000000000000000000000028152600401602060405180830381600087803b1580156153d657600080fd5b505af11580156153ea573d6000803e3d6000fd5b505050506040513d602081101561540057600080fd5b810190808051906020019092919050505091505b808060010191505061507b565b829350505050919050565b60096020528160005260406000208181548110151561544757fe5b90600052602060002001600091509150505481565b606060006060600061546c6126d1565b92508260405190808252806020026020018201604052801561549d5781602001602082028038833980820191505090505b509150600090505b828110156155b8576002818154811015156154bc57fe5b9060005260206000200160009054906101000a900473ffffffffffffffffffffffffffffffffffffffff1673ffffffffffffffffffffffffffffffffffffffff16634a79d50c6040518163ffffffff167c0100000000000000000000000000000000000000000000000000000000028152600401602060405180830381600087803b15801561554a57600080fd5b505af115801561555e573d6000803e3d6000fd5b505050506040513d602081101561557457600080fd5b8101908080519060200190929190505050828281518110151561559357fe5b90602001906020020190600019169081600019168152505080806001019150506154a5565b81935050505090565b6000806000809150600090505b6155d66126d1565b8110156156cc576002818154811015156155ec57fe5b9060005260206000200160009054906101000a900473ffffffffffffffffffffffffffffffffffffffff1673ffffffffffffffffffffffffffffffffffffffff166339c614a16040518163ffffffff167c0100000000000000000000000000000000000000000000000000000000028152600401602060405180830381600087803b15801561567a57600080fd5b505af115801561568e573d6000803e3d6000fd5b505050506040513d60208110156156a457600080fd5b810190808051906020019092919050505063ffffffff168201915080806001019150506155ce565b819250505090565b828054828255906000526020600020908101928215615716579160200282015b828111156157155782518290600019169055916020019190600101906156f4565b5b5090506157239190615727565b5090565b61574991905b8082111561574557600081600090555060010161572d565b5090565b905600a165627a7a7230582084ef3f973bf3b0a42204f3645e2515b791e36ff0eed40bd15d2afc0925b57e0a0029",
  "source": "pragma solidity ^0.4.19;\n\nimport \"./BaseContent.sol\";\n\ncontract Catalog {\n\n    /* VARIABLES DECLARATION */\n    \n    /* data about the contract itself */\n    address public owner; // address of who uploads\n    address private catalog_address; // address of the contract\n    \n    /* data about the catalog */\n    BaseContent[] public contents_list; // list of all the contents in the catalog\n    mapping (bytes32 => uint) public position_content; // map from title to position + 1\n    uint private time_premium = 40000; // premium lasts approximately one week\n    uint public cost_premium = 0.25 ether; // premium costs about 20 euro\n    uint32 public min_v = 7; // number of views required before payment\n    \n    /* data about the accounts */\n    mapping (address => uint) public premium_customers; // map from premium to expiration date\n    mapping (address => uint) public notifications_to_see; // map from account to last block seen\n    mapping (address => bytes32[]) public notifications_preferences; // map from account to notification setting\n    \n    /* events triggered */\n    event new_publication (bytes32 _title, bytes32 _author, bytes32 _genre, address _owner);\n    event content_acquired (bytes32 _title, address _sender, address _receiver, uint32 _gifted);\n    event premium_acquired (address _sender, address _receiver, uint32 _gifted);\n    event author_payed (bytes32 _t, address _owner, uint _tot_money);\n    event min_v_reached (address _account, bytes32 _title, uint _v); \n    event content_consumed (address _customer, bytes32 _title); \n    event rate_left(address _customer, bytes32 _title);\n\n\n    /* CONSTRUCTOR */\n\n    constructor () public {\n        owner = msg.sender;\n        catalog_address = address(this);\n    }\n    \n\n    /* VIEW FUNCTIONS */\n\n    /* returns the number of contents in the catalog */ \n    function GetLengthCatalog() public view returns (uint) {\n        return contents_list.length;\n    }\n\n    /* returns the author of a content */\n    function GetAuthor(bytes32 _t) public view returns (bytes32) {\n        uint i = position_content[_t];\n        if (i != 0) {\n            return contents_list[i-1].author();\n        }\n    }\n    \n    /* returns the author of a content */\n    function GetGenre(bytes32 _t) public view returns (bytes32) {\n        uint i = position_content[_t];\n        if (i != 0) {\n            return contents_list[i-1].genre();\n        }\n    }\n    \n    /* returns the price of a content */\n    function GetPrice(bytes32 _t) public view returns (uint){\n        uint i = position_content[_t];\n        if (i != 0) {\n            return contents_list[i-1].price();\n        }\n    }\n\n    /* returns the number of views of a content */\n    function GetViews(bytes32 _t) public view returns (uint32){\n        uint i = position_content[_t];\n        if (i != 0) {\n            return contents_list[i-1].view_count();\n        }\n    }\n\n    /* returns the owner of a content */\n    function GetOwner(bytes32 _t) public view returns (address){\n        uint i = position_content[_t];\n        if (i != 0) {\n            return contents_list[i-1].owner();\n        }\n    }\n\n    /* returns the average rating for a content from 0 to 50 */ \n    function GetRate(bytes32 _t) public view returns (uint32) {\n        uint i = position_content[_t];\n        uint32 s = 0;\n        BaseContent bc = contents_list[i-1];\n        for(uint32 j = 0; j < 4; j++){\n            s += bc.feed(j);\n        }\n        if (bc.nVotes() != 0 ) {\n            return ((s * 10) / (bc.nVotes() * 4));\n        } else {\n            return 0;\n        }\n    }\n\n    /* returns the list of notification preferences of an account */\n    function GetNotifPreferences(address _u) public view returns (bytes32[] memory) {\n        return notifications_preferences[_u];\n    }\n    \n    /* returns the number of views for each content */\n    function GetStatistics() public view returns (bytes32[] memory, uint32[] memory){\n        uint l_length = GetLengthCatalog();\n        bytes32[] memory titles_list = new bytes32[](l_length);\n        uint32[] memory views_list = new uint32[](l_length);\n        for (uint i = 0; i < l_length; i++) {\n            titles_list[i] = contents_list[i].title();\n            views_list[i] = contents_list[i].view_count();\n        }\n        return (titles_list, views_list);\n    }\n    \n    /* returns the list of contents without the number of views */\n    function GetContentList() public view returns (bytes32[] memory) {\n        uint l_length = GetLengthCatalog();\n        bytes32[] memory titles_list = new bytes32[](l_length);\n        for (uint i = 0; i < l_length; i++) {\n            titles_list[i] = contents_list[i].title();\n        }\n        return titles_list;\n    }\n    \n    /* returns the list of x newest contents */\n    function GetNewContentsList(uint x) public view returns (bytes32[] memory) {\n        uint l_length = GetLengthCatalog();\n        require(x <= l_length);\n        bytes32[] memory titles_list = new bytes32[](x);\n        if (l_length > 0 && x > 0) {\n            for (uint i = l_length - 1; i >= l_length-x; i--) {\n                titles_list[l_length - 1 - i] = contents_list[i].title();\n            }\n        }\n        return titles_list;\n    }\n    \n    /* returns the most recent content with genre _g */\n    function GetLatestByGenre(bytes32 _g) public view returns (bytes32) {\n        uint l_length = GetLengthCatalog();\n        if (l_length > 0) {\n            for (uint i = l_length - 1; i >= 0; i--) {\n                if (contents_list[i].genre() == _g) {\n                    return contents_list[i].title();\n                }\n            }\n        }\n        return 0x0;\n    }\n    \n    /* returns the content with genre _g with max views */\n    function GetMostPopularByGenre(bytes32 _g) public view returns (bytes32) {\n        bytes32 most_popular = 0;\n        uint32 most_views = 0;\n        for (uint i = 0; i < GetLengthCatalog(); i++) {\n            if (contents_list[i].genre() == _g && contents_list[i].view_count() > most_views) {\n                most_popular = contents_list[i].title();\n                most_views = contents_list[i].view_count();\n            }\n        }\n        return most_popular;\n    }\n    \n    /* returns the most recent content of the author _a */\n    function GetLatestByAuthor(bytes32 _a) public view returns (bytes32) {\n        uint l_length = GetLengthCatalog();\n        if (l_length > 0) {\n            for (uint i = l_length - 1; i >= 0; i--) {\n                if (contents_list[i].author() == _a) {\n                    return contents_list[i].title();\n                }\n            }\n        }\n        return 0x0;\n    }\n    \n    /* returns the content with most views of the author _a */\n    function GetMostPopularByAuthor(bytes32 _a) public view returns (bytes32){\n        bytes32 most_popular = 0;\n        uint32 most_views = 0;\n        for (uint i = 0; i < GetLengthCatalog(); i++) {\n            if (contents_list[i].author() == _a && contents_list[i].view_count() > most_views) {\n                most_popular = contents_list[i].title();\n                most_views = contents_list[i].view_count();\n            }\n        }\n        return most_popular;\n    }\n\n    /* returns the content with most views */\n    function GetMostPopular() public view returns (bytes32){\n        bytes32 most_popular = 0;\n        uint32 most_views = 0;\n        for (uint i = 0; i < GetLengthCatalog(); i++) {\n            if (contents_list[i].view_count() > most_views) {\n                most_popular = contents_list[i].title();\n                most_views = contents_list[i].view_count();\n            }\n        }\n        return most_popular;\n    }\n    \n    /* returns the content with highest rating for feedback category _y \n    (or highest average if y is greater than 4) */\n    function GetMostRated(uint32 _y) public view returns (bytes32){\n        bytes32 most_rated = 0;\n        uint32 highest_rating = 0;\n        for (uint i = 0; i < GetLengthCatalog(); i++) {\n            BaseContent bc = contents_list[i];\n            if (bc.nVotes() != 0) {\n                uint32 r = (_y < 4)? ((bc.feed(_y) * 10) / bc.nVotes()) : GetRate(bc.title());\n                if (r > highest_rating) {\n                    most_rated = bc.title();\n                    highest_rating = r;\n                }\n            }\n        }\n        return most_rated;\n    }\n    \n     /* returns the content with highest rating for feedback category _y \n    (or highest average if y is greater than 4) with genre _g */\n    function GetMostRatedByGenre(bytes32 _g, uint32 _y) public view returns (bytes32){\n        bytes32 most_rated = 0;\n        uint32 highest_rating = 0;\n        for (uint i = 0; i < GetLengthCatalog(); i++) {\n            BaseContent bc = contents_list[i];\n            if (bc.genre() == _g && bc.nVotes() != 0) {\n                uint32 r = (_y < 4)? ((bc.feed(_y) * 10) / bc.nVotes()) : GetRate(bc.title());\n                if (r > highest_rating) {\n                    most_rated = bc.title();\n                    highest_rating = r;\n                }\n            }\n        }\n        return most_rated;\n    }\n    \n    /* returns the content with highest rating for feedback category _y \n    (or highest average if y is greater than 4) with author _a */\n    function GetMostRatedByAuthor(bytes32 _a, uint32 _y) public view returns (bytes32){\n        bytes32 most_rated = 0;\n        uint32 highest_rating = 0;\n        for (uint i = 0; i < GetLengthCatalog(); i++) {\n            BaseContent bc = contents_list[i];\n            if (bc.author() == _a && bc.nVotes() != 0) {\n                uint32 r = (_y < 4)? ((bc.feed(_y) * 10) / bc.nVotes()) : GetRate(bc.title());\n                if (r > highest_rating) {\n                    most_rated = bc.title();\n                    highest_rating = r;\n                }\n            }\n        }\n        return most_rated;\n    }\n\n    /* returns true if _c is a valid premium account */\n    function isPremium (address _c) public view returns(bool) {\n        return premium_customers[_c] > block.number;\n    }    \n    \n\n    /* STATE MODIFYING FUNCTIONS */\n\n    /* allows to set the last block seen by an account */\n    function SetNotification (address _a, uint _x) external {\n        notifications_to_see[_a] = _x;\n    }\n\n    /* set a list of preferences for an account */\n    function SetNotifPreferences(address _u, bytes32[] memory _list) public {\n        notifications_preferences[_u] = _list;\n    }\n\n    /* allows other contracts to emit events but listen only to the catalog */\n    function EmitEvent(uint _eventID, address _account, bytes32 _t, uint _v) public {\n        if (_eventID == 0) {\n            emit min_v_reached(_account, _t, _v);\n        } else if (_eventID == 1) {\n            emit content_consumed(_account, _t);\n        } else {\n            emit rate_left(_account, _t);\n        }\n    }\n    \n    /* submits a new content _c to the catalog */\n    function AddContent (BaseContent _c) external {\n        BaseContent cm = _c;\n        require (cm.owner() == msg.sender && cm.catalog() == catalog_address);\n        contents_list.push(cm);\n        position_content[cm.title()] = contents_list.length;\n        emit new_publication (cm.title(), cm.author(), cm.genre(), cm.owner());\n    }\n    \n    /* standard accounts pays to access content _t */\n    function GetContent (bytes32 _t) external payable {\n        require(msg.value == GetPrice(_t));\n        uint i = position_content[_t];\n        if (i != 0) {\n            contents_list[i-1].Authorize(msg.sender, 0);\n            emit content_acquired (_t, msg.sender, msg.sender, 0);\n        }\n    }\n    \n    /* premium accounts can requests access to content _t without paying */\n    function GetContentPremium (bytes32 _t) external {\n        require(isPremium(msg.sender));\n        uint i = position_content[_t];\n        if (i != 0) {\n            contents_list[i-1].Authorize(msg.sender, premium_customers[msg.sender]);\n            emit content_acquired (_t, msg.sender, msg.sender, 0);\n        }\n    }\n    \n    /* pays for granting access to a content _t to the user _u */\n    function GiftContent  (bytes32 _t, address _u) external payable {\n        require(msg.value == GetPrice(_t));\n        uint i = position_content[_t];\n        if (i != 0) {\n            contents_list[i-1].Authorize(_u, 0);\n            emit content_acquired (_t, msg.sender, _u, 1);\n        }\n    }\n       \n    /* buys a new premium subscription */\n    function BuyPremium () external payable {\n        require(msg.value == cost_premium);\n        premium_customers[msg.sender] = block.number + time_premium;\n        emit premium_acquired (msg.sender, msg.sender, 0);\n    }\n\n     /* pays for granting a premium account to the user _u */\n    function GiftPremium  (address _u) external payable {\n        require(msg.value == cost_premium);\n        premium_customers[_u] = block.number + time_premium;\n        emit premium_acquired (msg.sender, _u, 1);\n    }\n    \n    /* pay an author a multiple of v views*/\n    function PayAuthor (bytes32 _t) external {\n        uint i = position_content[_t];\n        if (i != 0) {\n            uint32 tot_views = contents_list[i-1].view_count();\n            uint32 to_pay = tot_views - contents_list[i-1].views_already_payed();\n            if (to_pay >= min_v) {\n                uint256 price_per_view = contents_list[i-1].price() * GetRate(_t)/50;\n                contents_list[i-1].owner().transfer(to_pay * price_per_view);\n                contents_list[i-1].Payed(to_pay);\n                emit author_payed (_t, contents_list[i-1].owner(), to_pay * price_per_view);\n            }\n        }\n    }\n    \n    /* returns the total number of views and the total number of views that has to payed */\n    function GetTotalViews () private view returns (uint) {\n        uint tot_views = 0;\n        for (uint i = 0; i < GetLengthCatalog(); i++) {\n            tot_views = tot_views + contents_list[i].view_count();\n        }\n        return tot_views;\n    }\n    \n    /* the catalog can be destructed */\n    function KillCatalog () external {\n        require(msg.sender == owner);\n        uint tot_views = GetTotalViews();\n        uint money_per_view = catalog_address.balance / tot_views;\n        for (uint i = 0; i < GetLengthCatalog(); i++) {\n            uint proportional_money = contents_list[i].view_count() * money_per_view;\n            contents_list[i].owner().transfer(proportional_money);\n            emit author_payed (contents_list[i].title(), contents_list[i-1].owner(), proportional_money);\n        }\n        selfdestruct(catalog_address);\n    }\n}",
  "sourcePath": "/home/fsbolgi/Documents/cobra_dapp/contracts/Catalog.sol",
  "compiler": {
    "name": "solc",
    "version": "0.4.24+commit.e67f0147.Emscripten.clang"
  },
  "schemaVersion": "2.0.1",
  "updatedAt": "2019-01-10T15:26:04.435Z"
}