{
  "contractName": "SongContent",
  "abi": [
    {
      "constant": true,
      "inputs": [],
      "name": "catalog",
      "outputs": [
        {
          "name": "",
          "type": "address"
        }
      ],
      "payable": false,
      "stateMutability": "view",
      "type": "function"
    },
    {
      "constant": true,
      "inputs": [],
      "name": "genre",
      "outputs": [
        {
          "name": "",
          "type": "bytes32"
        }
      ],
      "payable": false,
      "stateMutability": "view",
      "type": "function"
    },
    {
      "constant": true,
      "inputs": [],
      "name": "nVotes",
      "outputs": [
        {
          "name": "",
          "type": "uint32"
        }
      ],
      "payable": false,
      "stateMutability": "view",
      "type": "function"
    },
    {
      "constant": true,
      "inputs": [],
      "name": "view_count",
      "outputs": [
        {
          "name": "",
          "type": "uint32"
        }
      ],
      "payable": false,
      "stateMutability": "view",
      "type": "function"
    },
    {
      "constant": true,
      "inputs": [],
      "name": "title",
      "outputs": [
        {
          "name": "",
          "type": "bytes32"
        }
      ],
      "payable": false,
      "stateMutability": "view",
      "type": "function"
    },
    {
      "constant": true,
      "inputs": [],
      "name": "CanVote",
      "outputs": [
        {
          "name": "",
          "type": "bool"
        }
      ],
      "payable": false,
      "stateMutability": "view",
      "type": "function"
    },
    {
      "constant": true,
      "inputs": [],
      "name": "IsAuthorized",
      "outputs": [
        {
          "name": "",
          "type": "bool"
        }
      ],
      "payable": false,
      "stateMutability": "view",
      "type": "function"
    },
    {
      "constant": false,
      "inputs": [
        {
          "name": "_customer",
          "type": "address"
        }
      ],
      "name": "Authorize",
      "outputs": [],
      "payable": false,
      "stateMutability": "nonpayable",
      "type": "function"
    },
    {
      "constant": false,
      "inputs": [
        {
          "name": "f",
          "type": "uint32[]"
        }
      ],
      "name": "LeaveRate",
      "outputs": [],
      "payable": false,
      "stateMutability": "nonpayable",
      "type": "function"
    },
    {
      "constant": true,
      "inputs": [
        {
          "name": "",
          "type": "address"
        }
      ],
      "name": "has_consumed",
      "outputs": [
        {
          "name": "",
          "type": "bool"
        }
      ],
      "payable": false,
      "stateMutability": "view",
      "type": "function"
    },
    {
      "constant": true,
      "inputs": [],
      "name": "owner",
      "outputs": [
        {
          "name": "",
          "type": "address"
        }
      ],
      "payable": false,
      "stateMutability": "view",
      "type": "function"
    },
    {
      "constant": true,
      "inputs": [],
      "name": "content_address",
      "outputs": [
        {
          "name": "",
          "type": "address"
        }
      ],
      "payable": false,
      "stateMutability": "view",
      "type": "function"
    },
    {
      "constant": false,
      "inputs": [],
      "name": "ConsumeContent",
      "outputs": [],
      "payable": false,
      "stateMutability": "nonpayable",
      "type": "function"
    },
    {
      "constant": true,
      "inputs": [],
      "name": "price",
      "outputs": [
        {
          "name": "",
          "type": "uint256"
        }
      ],
      "payable": false,
      "stateMutability": "view",
      "type": "function"
    },
    {
      "constant": true,
      "inputs": [],
      "name": "track_length",
      "outputs": [
        {
          "name": "",
          "type": "uint32"
        }
      ],
      "payable": false,
      "stateMutability": "view",
      "type": "function"
    },
    {
      "constant": true,
      "inputs": [],
      "name": "author",
      "outputs": [
        {
          "name": "",
          "type": "bytes32"
        }
      ],
      "payable": false,
      "stateMutability": "view",
      "type": "function"
    },
    {
      "constant": true,
      "inputs": [],
      "name": "subgenre",
      "outputs": [
        {
          "name": "",
          "type": "bytes32"
        }
      ],
      "payable": false,
      "stateMutability": "view",
      "type": "function"
    },
    {
      "constant": false,
      "inputs": [
        {
          "name": "_s",
          "type": "bytes32"
        }
      ],
      "name": "SetSubgenre",
      "outputs": [],
      "payable": false,
      "stateMutability": "nonpayable",
      "type": "function"
    },
    {
      "constant": true,
      "inputs": [],
      "name": "g",
      "outputs": [
        {
          "name": "",
          "type": "bytes32"
        }
      ],
      "payable": false,
      "stateMutability": "view",
      "type": "function"
    },
    {
      "constant": false,
      "inputs": [
        {
          "name": "_customer",
          "type": "address"
        },
        {
          "name": "_expiration_date",
          "type": "uint256"
        }
      ],
      "name": "AuthorizePremium",
      "outputs": [],
      "payable": false,
      "stateMutability": "nonpayable",
      "type": "function"
    },
    {
      "constant": true,
      "inputs": [],
      "name": "views_already_payed",
      "outputs": [
        {
          "name": "",
          "type": "uint32"
        }
      ],
      "payable": false,
      "stateMutability": "view",
      "type": "function"
    },
    {
      "constant": false,
      "inputs": [
        {
          "name": "_views_just_payed",
          "type": "uint32"
        }
      ],
      "name": "Payed",
      "outputs": [],
      "payable": false,
      "stateMutability": "nonpayable",
      "type": "function"
    },
    {
      "constant": true,
      "inputs": [
        {
          "name": "",
          "type": "uint256"
        }
      ],
      "name": "feed",
      "outputs": [
        {
          "name": "",
          "type": "uint32"
        }
      ],
      "payable": false,
      "stateMutability": "view",
      "type": "function"
    },
    {
      "inputs": [
        {
          "name": "_catalog",
          "type": "address"
        },
        {
          "name": "_title",
          "type": "bytes32"
        },
        {
          "name": "_author",
          "type": "bytes32"
        },
        {
          "name": "_price",
          "type": "uint256"
        }
      ],
      "payable": false,
      "stateMutability": "nonpayable",
      "type": "constructor"
    },
    {
      "anonymous": false,
      "inputs": [
        {
          "indexed": false,
          "name": "_views_to_be_payed",
          "type": "uint32"
        }
      ],
      "name": "v_reached",
      "type": "event"
    },
    {
      "anonymous": false,
      "inputs": [
        {
          "indexed": false,
          "name": "_customer",
          "type": "address"
        }
      ],
      "name": "content_consumed",
      "type": "event"
    },
    {
      "anonymous": false,
      "inputs": [
        {
          "indexed": false,
          "name": "_customer",
          "type": "address"
        }
      ],
      "name": "rate_left",
      "type": "event"
    },
    {
      "constant": false,
      "inputs": [
        {
          "name": "_l",
          "type": "uint32"
        }
      ],
      "name": "SetTrackLength",
      "outputs": [],
      "payable": false,
      "stateMutability": "nonpayable",
      "type": "function"
    },
    {
      "constant": true,
      "inputs": [],
      "name": "ContentType",
      "outputs": [
        {
          "name": "",
          "type": "bytes32"
        }
      ],
      "payable": false,
      "stateMutability": "view",
      "type": "function"
    }
  ],
  "bytecode": "0x60806040526064600e60006101000a81548163ffffffff021916908363ffffffff1602179055507f536f6e6700000000000000000000000000000000000000000000000000000000600102600f9060001916905534801561005f57600080fd5b506040516080806112c583398101806040528101908080519060200190929190805190602001909291908051906020019092919080519060200190929190505050838383600f5484336000806101000a81548173ffffffffffffffffffffffffffffffffffffffff021916908373ffffffffffffffffffffffffffffffffffffffff16021790555030600160006101000a81548173ffffffffffffffffffffffffffffffffffffffff021916908373ffffffffffffffffffffffffffffffffffffffff16021790555084600260006101000a81548173ffffffffffffffffffffffffffffffffffffffff021916908373ffffffffffffffffffffffffffffffffffffffff160217905550836003816000191690555082600481600019169055508160058160001916905550600060010260068160001916905550806007819055506000600860006101000a81548163ffffffff021916908363ffffffff1602179055506000600860046101000a81548163ffffffff021916908363ffffffff16021790555050505050506000600e60046101000a81548163ffffffff021916908363ffffffff160217905550505050506110a78061021e6000396000f300608060405260043610610149576000357c0100000000000000000000000000000000000000000000000000000000900463ffffffff168063074c09eb1461014e57806317de3a41146101a55780631c3cecef146101d85780631f3e74391461020b57806339c614a1146102425780634a79d50c1461027957806354ed8c9d146102ac5780636a53343e146102db5780636d81a01b1461030a5780637d3693e81461034d578063845dcb0e146103885780638da5cb5b146103e357806396aaea811461043a5780639fe6e0d214610491578063a035b1fe146104a8578063a5177836146104d3578063a6c3e6b91461050a578063ab115d721461053d578063ac8ce1dd14610570578063d550d221146105a3578063e2179b8e146105d4578063e6810afb14610607578063e76c3ba814610654578063e9df30101461068b578063f59dfdfb146106be575b600080fd5b34801561015a57600080fd5b5061016361070b565b604051808273ffffffffffffffffffffffffffffffffffffffff1673ffffffffffffffffffffffffffffffffffffffff16815260200191505060405180910390f35b3480156101b157600080fd5b506101ba610731565b60405180826000191660001916815260200191505060405180910390f35b3480156101e457600080fd5b506101ed610737565b60405180826000191660001916815260200191505060405180910390f35b34801561021757600080fd5b50610220610741565b604051808263ffffffff1663ffffffff16815260200191505060405180910390f35b34801561024e57600080fd5b50610257610757565b604051808263ffffffff1663ffffffff16815260200191505060405180910390f35b34801561028557600080fd5b5061028e61076d565b60405180826000191660001916815260200191505060405180910390f35b3480156102b857600080fd5b506102c1610773565b604051808215151515815260200191505060405180910390f35b3480156102e757600080fd5b506102f06107c7565b604051808215151515815260200191505060405180910390f35b34801561031657600080fd5b5061034b600480360381019080803573ffffffffffffffffffffffffffffffffffffffff169060200190929190505050610864565b005b34801561035957600080fd5b5061038660048036038101908080359060200190820180359060200191909192939192939050505061091b565b005b34801561039457600080fd5b506103c9600480360381019080803573ffffffffffffffffffffffffffffffffffffffff169060200190929190505050610ad4565b604051808215151515815260200191505060405180910390f35b3480156103ef57600080fd5b506103f8610af4565b604051808273ffffffffffffffffffffffffffffffffffffffff1673ffffffffffffffffffffffffffffffffffffffff16815260200191505060405180910390f35b34801561044657600080fd5b5061044f610b19565b604051808273ffffffffffffffffffffffffffffffffffffffff1673ffffffffffffffffffffffffffffffffffffffff16815260200191505060405180910390f35b34801561049d57600080fd5b506104a6610b3f565b005b3480156104b457600080fd5b506104bd610de8565b6040518082815260200191505060405180910390f35b3480156104df57600080fd5b506104e8610dee565b604051808263ffffffff1663ffffffff16815260200191505060405180910390f35b34801561051657600080fd5b5061051f610e04565b60405180826000191660001916815260200191505060405180910390f35b34801561054957600080fd5b50610552610e0a565b60405180826000191660001916815260200191505060405180910390f35b34801561057c57600080fd5b506105a1600480360381019080803563ffffffff169060200190929190505050610e10565b005b3480156105af57600080fd5b506105d26004803603810190808035600019169060200190929190505050610e8f565b005b3480156105e057600080fd5b506105e9610ef8565b60405180826000191660001916815260200191505060405180910390f35b34801561061357600080fd5b50610652600480360381019080803573ffffffffffffffffffffffffffffffffffffffff16906020019092919080359060200190929190505050610efe565b005b34801561066057600080fd5b50610669610fa2565b604051808263ffffffff1663ffffffff16815260200191505060405180910390f35b34801561069757600080fd5b506106bc600480360381019080803563ffffffff169060200190929190505050610fb8565b005b3480156106ca57600080fd5b506106e96004803603810190808035906020019092919050505061104c565b604051808263ffffffff1663ffffffff16815260200191505060405180910390f35b600260009054906101000a900473ffffffffffffffffffffffffffffffffffffffff1681565b60055481565b6000600f54905090565b600a60009054906101000a900463ffffffff1681565b600860009054906101000a900463ffffffff1681565b60035481565b6000600b60003373ffffffffffffffffffffffffffffffffffffffff1673ffffffffffffffffffffffffffffffffffffffff16815260200190815260200160002060009054906101000a900460ff16905090565b6000600c60003373ffffffffffffffffffffffffffffffffffffffff1673ffffffffffffffffffffffffffffffffffffffff16815260200190815260200160002060009054906101000a900460ff168061085f575043600d60003373ffffffffffffffffffffffffffffffffffffffff1673ffffffffffffffffffffffffffffffffffffffff16815260200190815260200160002054115b905090565b600260009054906101000a900473ffffffffffffffffffffffffffffffffffffffff1673ffffffffffffffffffffffffffffffffffffffff163373ffffffffffffffffffffffffffffffffffffffff161415156108c057600080fd5b6001600c60008373ffffffffffffffffffffffffffffffffffffffff1673ffffffffffffffffffffffffffffffffffffffff16815260200190815260200160002060006101000a81548160ff02191690831515021790555050565b6000610925610773565b151561093057600080fd5b600090505b60048163ffffffff1610156109e25782828263ffffffff16818110151561095857fe5b9050602002013563ffffffff1660098263ffffffff1660048110151561097a57fe5b600891828204019190066004029054906101000a900463ffffffff160160098263ffffffff166004811015156109ac57fe5b600891828204019190066004026101000a81548163ffffffff021916908363ffffffff1602179055508080600101915050610935565b600a600081819054906101000a900463ffffffff168092919060010191906101000a81548163ffffffff021916908363ffffffff16021790555050600b60003373ffffffffffffffffffffffffffffffffffffffff1673ffffffffffffffffffffffffffffffffffffffff16815260200190815260200160002060006101000a81549060ff02191690557f91e57e2e8a5e25da30a578bb1c8fbcb7a0efce139cf5f16578b78553318e522633604051808273ffffffffffffffffffffffffffffffffffffffff1673ffffffffffffffffffffffffffffffffffffffff16815260200191505060405180910390a1505050565b600b6020528060005260406000206000915054906101000a900460ff1681565b6000809054906101000a900473ffffffffffffffffffffffffffffffffffffffff1681565b600160009054906101000a900473ffffffffffffffffffffffffffffffffffffffff1681565b610b476107c7565b1515610b5257600080fd5b600c60003373ffffffffffffffffffffffffffffffffffffffff1673ffffffffffffffffffffffffffffffffffffffff16815260200190815260200160002060009054906101000a900460ff1615610ce7576008600081819054906101000a900463ffffffff168092919060010191906101000a81548163ffffffff021916908363ffffffff160217905550506000600e60009054906101000a900463ffffffff1663ffffffff16600860009054906101000a900463ffffffff1663ffffffff16811515610c1c57fe5b0663ffffffff161415610c93577f6647e9f676e6fb64f7a25301e6ba64f3d1a80737ddaf2cb01c3dfad07c7386e8600860049054906101000a900463ffffffff16600860009054906101000a900463ffffffff1603604051808263ffffffff1663ffffffff16815260200191505060405180910390a15b600c60003373ffffffffffffffffffffffffffffffffffffffff1673ffffffffffffffffffffffffffffffffffffffff16815260200190815260200160002060006101000a81549060ff0219169055610d2b565b600d60003373ffffffffffffffffffffffffffffffffffffffff1673ffffffffffffffffffffffffffffffffffffffff168152602001908152602001600020600090555b6001600b60003373ffffffffffffffffffffffffffffffffffffffff1673ffffffffffffffffffffffffffffffffffffffff16815260200190815260200160002060006101000a81548160ff0219169083151502179055507f75e02afeb9106a10711eb7d022e6d4dfdb5f0e57120f8f1510182ab8fe73511133604051808273ffffffffffffffffffffffffffffffffffffffff1673ffffffffffffffffffffffffffffffffffffffff16815260200191505060405180910390a1565b60075481565b600e60049054906101000a900463ffffffff1681565b60045481565b60065481565b6000809054906101000a900473ffffffffffffffffffffffffffffffffffffffff1673ffffffffffffffffffffffffffffffffffffffff163373ffffffffffffffffffffffffffffffffffffffff16141515610e6b57600080fd5b80600e60046101000a81548163ffffffff021916908363ffffffff16021790555050565b6000809054906101000a900473ffffffffffffffffffffffffffffffffffffffff1673ffffffffffffffffffffffffffffffffffffffff163373ffffffffffffffffffffffffffffffffffffffff16141515610eea57600080fd5b806006816000191690555050565b600f5481565b600260009054906101000a900473ffffffffffffffffffffffffffffffffffffffff1673ffffffffffffffffffffffffffffffffffffffff163373ffffffffffffffffffffffffffffffffffffffff16141515610f5a57600080fd5b80600d60008473ffffffffffffffffffffffffffffffffffffffff1673ffffffffffffffffffffffffffffffffffffffff168152602001908152602001600020819055505050565b600860049054906101000a900463ffffffff1681565b600260009054906101000a900473ffffffffffffffffffffffffffffffffffffffff1673ffffffffffffffffffffffffffffffffffffffff163373ffffffffffffffffffffffffffffffffffffffff1614151561101457600080fd5b80600860049054906101000a900463ffffffff1601600860046101000a81548163ffffffff021916908363ffffffff16021790555050565b60098160048110151561105b57fe5b60089182820401919006600402915054906101000a900463ffffffff16815600a165627a7a72305820b7cee8a83e6349462bd7cc9d48b219a5ec51ec3d5bc8ddf6818ec29f3ee510150029",
  "source": "pragma solidity ^0.4.19;\n\nimport \"./BaseContent.sol\";\n\ncontract SongContent is BaseContent {\n    \n    uint32 public track_length; \n    bytes32 public g = 0x536f6e6700000000000000000000000000000000000000000000000000000000;\n\n\n    constructor (address _catalog, bytes32 _title, bytes32 _author, uint _price) BaseContent (_catalog, _title, _author, g, _price) public {\n        track_length = 0;\n    }\n    \n    function SetTrackLength (uint32 _l) external byOwner {\n        track_length = _l;\n    }\n    \n    function ContentType() public view returns (bytes32) {\n        return g;\n    }\n}",
  "sourcePath": "/home/fsbolgi/Documents/cobra_dapp/contracts/SongContent.sol",
  "compiler": {
    "name": "solc",
    "version": "0.4.24+commit.e67f0147.Emscripten.clang"
  },
  "schemaVersion": "2.0.1",
  "updatedAt": "2019-01-08T10:20:36.823Z"
}