{
  "contractName": "SongContent",
  "abi": [
    {
      "constant": true,
      "inputs": [],
      "name": "catalog",
      "outputs": [
        {
          "name": "",
          "type": "address"
        }
      ],
      "payable": false,
      "stateMutability": "view",
      "type": "function"
    },
    {
      "constant": true,
      "inputs": [],
      "name": "genre",
      "outputs": [
        {
          "name": "",
          "type": "bytes32"
        }
      ],
      "payable": false,
      "stateMutability": "view",
      "type": "function"
    },
    {
      "constant": true,
      "inputs": [],
      "name": "nVotes",
      "outputs": [
        {
          "name": "",
          "type": "uint32"
        }
      ],
      "payable": false,
      "stateMutability": "view",
      "type": "function"
    },
    {
      "constant": true,
      "inputs": [],
      "name": "view_count",
      "outputs": [
        {
          "name": "",
          "type": "uint32"
        }
      ],
      "payable": false,
      "stateMutability": "view",
      "type": "function"
    },
    {
      "constant": true,
      "inputs": [],
      "name": "title",
      "outputs": [
        {
          "name": "",
          "type": "bytes32"
        }
      ],
      "payable": false,
      "stateMutability": "view",
      "type": "function"
    },
    {
      "constant": true,
      "inputs": [],
      "name": "CanVote",
      "outputs": [
        {
          "name": "",
          "type": "bool"
        }
      ],
      "payable": false,
      "stateMutability": "view",
      "type": "function"
    },
    {
      "constant": false,
      "inputs": [
        {
          "name": "_customer",
          "type": "address"
        },
        {
          "name": "_expiration_date",
          "type": "uint256"
        }
      ],
      "name": "Authorize",
      "outputs": [],
      "payable": false,
      "stateMutability": "nonpayable",
      "type": "function"
    },
    {
      "constant": true,
      "inputs": [],
      "name": "IsAuthorized",
      "outputs": [
        {
          "name": "",
          "type": "bool"
        }
      ],
      "payable": false,
      "stateMutability": "view",
      "type": "function"
    },
    {
      "constant": false,
      "inputs": [
        {
          "name": "f",
          "type": "uint32[]"
        }
      ],
      "name": "LeaveRate",
      "outputs": [],
      "payable": false,
      "stateMutability": "nonpayable",
      "type": "function"
    },
    {
      "constant": true,
      "inputs": [
        {
          "name": "",
          "type": "address"
        }
      ],
      "name": "has_consumed",
      "outputs": [
        {
          "name": "",
          "type": "bool"
        }
      ],
      "payable": false,
      "stateMutability": "view",
      "type": "function"
    },
    {
      "constant": true,
      "inputs": [],
      "name": "owner",
      "outputs": [
        {
          "name": "",
          "type": "address"
        }
      ],
      "payable": false,
      "stateMutability": "view",
      "type": "function"
    },
    {
      "constant": true,
      "inputs": [],
      "name": "content_address",
      "outputs": [
        {
          "name": "",
          "type": "address"
        }
      ],
      "payable": false,
      "stateMutability": "view",
      "type": "function"
    },
    {
      "constant": false,
      "inputs": [],
      "name": "ConsumeContent",
      "outputs": [],
      "payable": false,
      "stateMutability": "nonpayable",
      "type": "function"
    },
    {
      "constant": true,
      "inputs": [],
      "name": "price",
      "outputs": [
        {
          "name": "",
          "type": "uint256"
        }
      ],
      "payable": false,
      "stateMutability": "view",
      "type": "function"
    },
    {
      "constant": true,
      "inputs": [],
      "name": "track_length",
      "outputs": [
        {
          "name": "",
          "type": "uint32"
        }
      ],
      "payable": false,
      "stateMutability": "view",
      "type": "function"
    },
    {
      "constant": true,
      "inputs": [],
      "name": "author",
      "outputs": [
        {
          "name": "",
          "type": "bytes32"
        }
      ],
      "payable": false,
      "stateMutability": "view",
      "type": "function"
    },
    {
      "constant": true,
      "inputs": [],
      "name": "subgenre",
      "outputs": [
        {
          "name": "",
          "type": "bytes32"
        }
      ],
      "payable": false,
      "stateMutability": "view",
      "type": "function"
    },
    {
      "constant": false,
      "inputs": [
        {
          "name": "_s",
          "type": "bytes32"
        }
      ],
      "name": "SetSubgenre",
      "outputs": [],
      "payable": false,
      "stateMutability": "nonpayable",
      "type": "function"
    },
    {
      "constant": true,
      "inputs": [],
      "name": "g",
      "outputs": [
        {
          "name": "",
          "type": "bytes32"
        }
      ],
      "payable": false,
      "stateMutability": "view",
      "type": "function"
    },
    {
      "constant": true,
      "inputs": [],
      "name": "views_already_payed",
      "outputs": [
        {
          "name": "",
          "type": "uint32"
        }
      ],
      "payable": false,
      "stateMutability": "view",
      "type": "function"
    },
    {
      "constant": false,
      "inputs": [
        {
          "name": "_views_just_payed",
          "type": "uint32"
        }
      ],
      "name": "Payed",
      "outputs": [],
      "payable": false,
      "stateMutability": "nonpayable",
      "type": "function"
    },
    {
      "constant": true,
      "inputs": [
        {
          "name": "",
          "type": "uint256"
        }
      ],
      "name": "feed",
      "outputs": [
        {
          "name": "",
          "type": "uint32"
        }
      ],
      "payable": false,
      "stateMutability": "view",
      "type": "function"
    },
    {
      "inputs": [
        {
          "name": "_catalog",
          "type": "address"
        },
        {
          "name": "_title",
          "type": "bytes32"
        },
        {
          "name": "_author",
          "type": "bytes32"
        },
        {
          "name": "_price",
          "type": "uint256"
        }
      ],
      "payable": false,
      "stateMutability": "nonpayable",
      "type": "constructor"
    },
    {
      "constant": true,
      "inputs": [],
      "name": "ContentType",
      "outputs": [
        {
          "name": "",
          "type": "bytes32"
        }
      ],
      "payable": false,
      "stateMutability": "view",
      "type": "function"
    },
    {
      "constant": false,
      "inputs": [
        {
          "name": "_l",
          "type": "uint32"
        }
      ],
      "name": "SetTrackLength",
      "outputs": [],
      "payable": false,
      "stateMutability": "nonpayable",
      "type": "function"
    }
  ],
  "bytecode": "0x608060405260006001026006906000191690556000600860006101000a81548163ffffffff021916908363ffffffff1602179055506000600860046101000a81548163ffffffff021916908363ffffffff1602179055507f536f6e6700000000000000000000000000000000000000000000000000000000600102600f9060001916905534801561008f57600080fd5b506040516080806114ba83398101806040528101908080519060200190929190805190602001909291908051906020019092919080519060200190929190505050838383600f5484336000806101000a81548173ffffffffffffffffffffffffffffffffffffffff021916908373ffffffffffffffffffffffffffffffffffffffff16021790555030600160006101000a81548173ffffffffffffffffffffffffffffffffffffffff021916908373ffffffffffffffffffffffffffffffffffffffff16021790555084600260006101000a81548173ffffffffffffffffffffffffffffffffffffffff021916908373ffffffffffffffffffffffffffffffffffffffff1602179055508360038160001916905550826004816000191690555081600581600019169055508060078190555050505050506000600e60006101000a81548163ffffffff021916908363ffffffff160217905550505050506112bf806101fb6000396000f30060806040526004361061013e576000357c0100000000000000000000000000000000000000000000000000000000900463ffffffff168063074c09eb1461014357806317de3a411461019a5780631c3cecef146101cd5780631f3e74391461020057806339c614a1146102375780634a79d50c1461026e57806354ed8c9d146102a15780636386a433146102d05780636a53343e1461031d5780637d3693e81461034c578063845dcb0e146103875780638da5cb5b146103e257806396aaea81146104395780639fe6e0d214610490578063a035b1fe146104a7578063a5177836146104d2578063a6c3e6b914610509578063ab115d721461053c578063ac8ce1dd1461056f578063d550d221146105a2578063e2179b8e146105d3578063e76c3ba814610606578063e9df30101461063d578063f59dfdfb14610670575b600080fd5b34801561014f57600080fd5b506101586106bd565b604051808273ffffffffffffffffffffffffffffffffffffffff1673ffffffffffffffffffffffffffffffffffffffff16815260200191505060405180910390f35b3480156101a657600080fd5b506101af6106e3565b60405180826000191660001916815260200191505060405180910390f35b3480156101d957600080fd5b506101e26106e9565b60405180826000191660001916815260200191505060405180910390f35b34801561020c57600080fd5b506102156106f3565b604051808263ffffffff1663ffffffff16815260200191505060405180910390f35b34801561024357600080fd5b5061024c610709565b604051808263ffffffff1663ffffffff16815260200191505060405180910390f35b34801561027a57600080fd5b5061028361071f565b60405180826000191660001916815260200191505060405180910390f35b3480156102ad57600080fd5b506102b6610725565b604051808215151515815260200191505060405180910390f35b3480156102dc57600080fd5b5061031b600480360381019080803573ffffffffffffffffffffffffffffffffffffffff16906020019092919080359060200190929190505050610779565b005b34801561032957600080fd5b50610332610884565b604051808215151515815260200191505060405180910390f35b34801561035857600080fd5b50610385600480360381019080803590602001908201803590602001919091929391929390505050610921565b005b34801561039357600080fd5b506103c8600480360381019080803573ffffffffffffffffffffffffffffffffffffffff169060200190929190505050610b70565b604051808215151515815260200191505060405180910390f35b3480156103ee57600080fd5b506103f7610b90565b604051808273ffffffffffffffffffffffffffffffffffffffff1673ffffffffffffffffffffffffffffffffffffffff16815260200191505060405180910390f35b34801561044557600080fd5b5061044e610bb5565b604051808273ffffffffffffffffffffffffffffffffffffffff1673ffffffffffffffffffffffffffffffffffffffff16815260200191505060405180910390f35b34801561049c57600080fd5b506104a5610bdb565b005b3480156104b357600080fd5b506104bc6110a4565b6040518082815260200191505060405180910390f35b3480156104de57600080fd5b506104e76110aa565b604051808263ffffffff1663ffffffff16815260200191505060405180910390f35b34801561051557600080fd5b5061051e6110c0565b60405180826000191660001916815260200191505060405180910390f35b34801561054857600080fd5b506105516110c6565b60405180826000191660001916815260200191505060405180910390f35b34801561057b57600080fd5b506105a0600480360381019080803563ffffffff1690602001909291905050506110cc565b005b3480156105ae57600080fd5b506105d1600480360381019080803560001916906020019092919050505061114b565b005b3480156105df57600080fd5b506105e86111b4565b60405180826000191660001916815260200191505060405180910390f35b34801561061257600080fd5b5061061b6111ba565b604051808263ffffffff1663ffffffff16815260200191505060405180910390f35b34801561064957600080fd5b5061066e600480360381019080803563ffffffff1690602001909291905050506111d0565b005b34801561067c57600080fd5b5061069b60048036038101908080359060200190929190505050611264565b604051808263ffffffff1663ffffffff16815260200191505060405180910390f35b600260009054906101000a900473ffffffffffffffffffffffffffffffffffffffff1681565b60055481565b6000600f54905090565b600a60009054906101000a900463ffffffff1681565b600860009054906101000a900463ffffffff1681565b60035481565b6000600b60003373ffffffffffffffffffffffffffffffffffffffff1673ffffffffffffffffffffffffffffffffffffffff16815260200190815260200160002060009054906101000a900460ff16905090565b600260009054906101000a900473ffffffffffffffffffffffffffffffffffffffff1673ffffffffffffffffffffffffffffffffffffffff163373ffffffffffffffffffffffffffffffffffffffff161415156107d557600080fd5b600081141561083b576001600c60008473ffffffffffffffffffffffffffffffffffffffff1673ffffffffffffffffffffffffffffffffffffffff16815260200190815260200160002060006101000a81548160ff021916908315150217905550610880565b80600d60008473ffffffffffffffffffffffffffffffffffffffff1673ffffffffffffffffffffffffffffffffffffffff168152602001908152602001600020819055505b5050565b6000600c60003373ffffffffffffffffffffffffffffffffffffffff1673ffffffffffffffffffffffffffffffffffffffff16815260200190815260200160002060009054906101000a900460ff168061091c575043600d60003373ffffffffffffffffffffffffffffffffffffffff1673ffffffffffffffffffffffffffffffffffffffff16815260200190815260200160002054115b905090565b600061092b610725565b151561093657600080fd5b600090505b60048163ffffffff1610156109e85782828263ffffffff16818110151561095e57fe5b9050602002013563ffffffff1660098263ffffffff1660048110151561098057fe5b600891828204019190066004029054906101000a900463ffffffff160160098263ffffffff166004811015156109b257fe5b600891828204019190066004026101000a81548163ffffffff021916908363ffffffff160217905550808060010191505061093b565b600a600081819054906101000a900463ffffffff168092919060010191906101000a81548163ffffffff021916908363ffffffff16021790555050600b60003373ffffffffffffffffffffffffffffffffffffffff1673ffffffffffffffffffffffffffffffffffffffff16815260200190815260200160002060006101000a81549060ff0219169055600260009054906101000a900473ffffffffffffffffffffffffffffffffffffffff1673ffffffffffffffffffffffffffffffffffffffff16632fa56ef360023360035460006040518563ffffffff167c0100000000000000000000000000000000000000000000000000000000028152600401808581526020018473ffffffffffffffffffffffffffffffffffffffff1673ffffffffffffffffffffffffffffffffffffffff1681526020018360001916600019168152602001828152602001945050505050600060405180830381600087803b158015610b5357600080fd5b505af1158015610b67573d6000803e3d6000fd5b50505050505050565b600b6020528060005260406000206000915054906101000a900460ff1681565b6000809054906101000a900473ffffffffffffffffffffffffffffffffffffffff1681565b600160009054906101000a900473ffffffffffffffffffffffffffffffffffffffff1681565b610be3610884565b1515610bee57600080fd5b600c60003373ffffffffffffffffffffffffffffffffffffffff1673ffffffffffffffffffffffffffffffffffffffff16815260200190815260200160002060009054906101000a900460ff1615610f0d576008600081819054906101000a900463ffffffff168092919060010191906101000a81548163ffffffff021916908363ffffffff160217905550506000600260009054906101000a900473ffffffffffffffffffffffffffffffffffffffff1673ffffffffffffffffffffffffffffffffffffffff1663660468406040518163ffffffff167c0100000000000000000000000000000000000000000000000000000000028152600401602060405180830381600087803b158015610d0357600080fd5b505af1158015610d17573d6000803e3d6000fd5b505050506040513d6020811015610d2d57600080fd5b810190808051906020019092919050505063ffffffff16600860009054906101000a900463ffffffff1663ffffffff16811515610d6657fe5b0663ffffffff161415610eb957600260009054906101000a900473ffffffffffffffffffffffffffffffffffffffff1673ffffffffffffffffffffffffffffffffffffffff16632fa56ef360008060009054906101000a900473ffffffffffffffffffffffffffffffffffffffff16600354600860049054906101000a900463ffffffff16600860009054906101000a900463ffffffff16036040518563ffffffff167c0100000000000000000000000000000000000000000000000000000000028152600401808581526020018473ffffffffffffffffffffffffffffffffffffffff1673ffffffffffffffffffffffffffffffffffffffff16815260200183600019166000191681526020018263ffffffff168152602001945050505050600060405180830381600087803b158015610ea057600080fd5b505af1158015610eb4573d6000803e3d6000fd5b505050505b600c60003373ffffffffffffffffffffffffffffffffffffffff1673ffffffffffffffffffffffffffffffffffffffff16815260200190815260200160002060006101000a81549060ff0219169055610f51565b600d60003373ffffffffffffffffffffffffffffffffffffffff1673ffffffffffffffffffffffffffffffffffffffff168152602001908152602001600020600090555b6001600b60003373ffffffffffffffffffffffffffffffffffffffff1673ffffffffffffffffffffffffffffffffffffffff16815260200190815260200160002060006101000a81548160ff021916908315150217905550600260009054906101000a900473ffffffffffffffffffffffffffffffffffffffff1673ffffffffffffffffffffffffffffffffffffffff16632fa56ef360013360035460006040518563ffffffff167c0100000000000000000000000000000000000000000000000000000000028152600401808581526020018473ffffffffffffffffffffffffffffffffffffffff1673ffffffffffffffffffffffffffffffffffffffff1681526020018360001916600019168152602001828152602001945050505050600060405180830381600087803b15801561108a57600080fd5b505af115801561109e573d6000803e3d6000fd5b50505050565b60075481565b600e60009054906101000a900463ffffffff1681565b60045481565b60065481565b6000809054906101000a900473ffffffffffffffffffffffffffffffffffffffff1673ffffffffffffffffffffffffffffffffffffffff163373ffffffffffffffffffffffffffffffffffffffff1614151561112757600080fd5b80600e60006101000a81548163ffffffff021916908363ffffffff16021790555050565b6000809054906101000a900473ffffffffffffffffffffffffffffffffffffffff1673ffffffffffffffffffffffffffffffffffffffff163373ffffffffffffffffffffffffffffffffffffffff161415156111a657600080fd5b806006816000191690555050565b600f5481565b600860049054906101000a900463ffffffff1681565b600260009054906101000a900473ffffffffffffffffffffffffffffffffffffffff1673ffffffffffffffffffffffffffffffffffffffff163373ffffffffffffffffffffffffffffffffffffffff1614151561122c57600080fd5b80600860049054906101000a900463ffffffff1601600860046101000a81548163ffffffff021916908363ffffffff16021790555050565b60098160048110151561127357fe5b60089182820401919006600402915054906101000a900463ffffffff16815600a165627a7a723058204eaf5198fb9182ecca0058571a3048e25609734fdea077af6baf5d560f72061d0029",
  "source": "pragma solidity ^0.4.19;\n\nimport \"./BaseContent.sol\";\n\ncontract SongContent is BaseContent {\n\n    /* VARIABLES DECLARATION */\n    \n    uint32 public track_length; // duration of the song in seconds\n    bytes32 public g = 0x536f6e6700000000000000000000000000000000000000000000000000000000; // string \"Song\"\n\n    /* CONSTRUCTOR */\n\n    /* inheritates the contractor from Base Content */\n    constructor(Catalog _catalog, bytes32 _title, bytes32 _author, uint _price) BaseContent (_catalog, _title, _author, g, _price) public {\n        track_length = 0;\n    }\n    /* FUNCTIONS */\n\n    /* utility function to understant contract class  */\n    function ContentType() public view returns (bytes32) {\n        return g;\n    }\n\n    /* allows the owner to insert an additional information */\n    function SetTrackLength(uint32 _l) external byOwner {\n        track_length = _l;\n    }   \n}",
  "sourcePath": "/home/fsbolgi/Documents/cobra_dapp/contracts/SongContent.sol",
  "compiler": {
    "name": "solc",
    "version": "0.4.24+commit.e67f0147.Emscripten.clang"
  },
  "schemaVersion": "2.0.1",
  "updatedAt": "2019-01-13T17:33:22.803Z"
}